{
  "transactions": [
    {
      "hash": "0xf54402f902c39098f41d8496dba82ae619b5688a1166b6bd57c800844fff5052",
      "transactionType": "CALL",
      "contractName": null,
      "contractAddress": "0x5be7ae9f47dfe007ceca06b299e7cdacd0a5c40e",
      "function": "mint(bytes32,string,string)",
      "arguments": [
        "0x0000000000000000000000000000000000000000000000000000000000000002",
        "\"Le Monde\"",
        "\"news-example.frak.id/le-monde\""
      ],
      "transaction": {
        "from": "0x7caf754c934710d7c73bc453654552beca38223f",
        "to": "0x5be7ae9f47dfe007ceca06b299e7cdacd0a5c40e",
        "gas": "0x2cc95",
        "value": "0x0",
        "input": "0xa92c2adf0000000000000000000000000000000000000000000000000000000000000002000000000000000000000000000000000000000000000000000000000000006000000000000000000000000000000000000000000000000000000000000000a000000000000000000000000000000000000000000000000000000000000000084c65204d6f6e6465000000000000000000000000000000000000000000000000000000000000000000000000000000000000000000000000000000000000001d6e6577732d6578616d706c652e6672616b2e69642f6c652d6d6f6e6465000000",
        "nonce": "0x50",
        "chainId": "0x66eee"
      },
      "additionalContracts": [],
      "isFixedGasLimit": false
    },
    {
      "hash": "0x72e763dd94934327043a5c0bfae2604d0eddbe3e244a79409c1e0ae56be9c2ec",
      "transactionType": "CALL",
      "contractName": null,
      "contractAddress": "0x5be7ae9f47dfe007ceca06b299e7cdacd0a5c40e",
      "function": "mint(bytes32,string,string)",
      "arguments": [
        "0x0000000000000000000000000000000000000000000000000000000000000002",
        "\"L'equipe\"",
        "\"news-example.frak.id/lequipe\""
      ],
      "transaction": {
        "from": "0x7caf754c934710d7c73bc453654552beca38223f",
        "to": "0x5be7ae9f47dfe007ceca06b299e7cdacd0a5c40e",
        "gas": "0x2cc86",
        "value": "0x0",
        "input": "0xa92c2adf0000000000000000000000000000000000000000000000000000000000000002000000000000000000000000000000000000000000000000000000000000006000000000000000000000000000000000000000000000000000000000000000a000000000000000000000000000000000000000000000000000000000000000084c27657175697065000000000000000000000000000000000000000000000000000000000000000000000000000000000000000000000000000000000000001c6e6577732d6578616d706c652e6672616b2e69642f6c65717569706500000000",
        "nonce": "0x51",
        "chainId": "0x66eee"
      },
      "additionalContracts": [],
      "isFixedGasLimit": false
    },
    {
      "hash": "0xe1b5a6261f03ec9b9aea66b17cbbe2dc94d03dac3a2ad18b2d88368a956db600",
      "transactionType": "CALL",
      "contractName": null,
      "contractAddress": "0x5be7ae9f47dfe007ceca06b299e7cdacd0a5c40e",
      "function": "mint(bytes32,string,string)",
      "arguments": [
        "0x0000000000000000000000000000000000000000000000000000000000000002",
        "\"Wired\"",
        "\"news-example.frak.id/wired\""
      ],
      "transaction": {
        "from": "0x7caf754c934710d7c73bc453654552beca38223f",
        "to": "0x5be7ae9f47dfe007ceca06b299e7cdacd0a5c40e",
        "gas": "0x2cc38",
        "value": "0x0",
        "input": "0xa92c2adf0000000000000000000000000000000000000000000000000000000000000002000000000000000000000000000000000000000000000000000000000000006000000000000000000000000000000000000000000000000000000000000000a000000000000000000000000000000000000000000000000000000000000000055769726564000000000000000000000000000000000000000000000000000000000000000000000000000000000000000000000000000000000000000000001a6e6577732d6578616d706c652e6672616b2e69642f7769726564000000000000",
        "nonce": "0x52",
        "chainId": "0x66eee"
      },
      "additionalContracts": [],
      "isFixedGasLimit": false
    },
    {
      "hash": "0xabf58c60ed85deff89d7f7fcaf7c68068579f74879276e0c4261f12727fdc338",
      "transactionType": "CALL",
      "contractName": null,
      "contractAddress": "0x5be7ae9f47dfe007ceca06b299e7cdacd0a5c40e",
      "function": "mint(bytes32,string,string)",
      "arguments": [
        "0x0000000000000000000000000000000000000000000000000000000000000002",
        "\"Frak\"",
        "\"news-paper.xyz\""
      ],
      "transaction": {
        "from": "0x7caf754c934710d7c73bc453654552beca38223f",
        "to": "0x5be7ae9f47dfe007ceca06b299e7cdacd0a5c40e",
        "gas": "0x2cb6b",
        "value": "0x0",
        "input": "0xa92c2adf0000000000000000000000000000000000000000000000000000000000000002000000000000000000000000000000000000000000000000000000000000006000000000000000000000000000000000000000000000000000000000000000a000000000000000000000000000000000000000000000000000000000000000044672616b00000000000000000000000000000000000000000000000000000000000000000000000000000000000000000000000000000000000000000000000e6e6577732d70617065722e78797a000000000000000000000000000000000000",
        "nonce": "0x53",
        "chainId": "0x66eee"
      },
      "additionalContracts": [],
      "isFixedGasLimit": false
    },
    {
      "hash": "0x571b0ffa70715daaca9bf0dd5540d5c6912631b7c50192dc76bb9bf35206aab5",
      "transactionType": "CALL",
      "contractName": null,
      "contractAddress": "0x6a958dfcc9f00d00de8bf756d3d8a567368fddd5",
      "function": "addPrice(uint256,(uint256,uint32,bool))",
      "arguments": [
        "106219508196454080375526586478153583586194937194493887259467424694676997453395",
        "(50000000000000000000, 86400, true)"
      ],
      "transaction": {
        "from": "0x7caf754c934710d7c73bc453654552beca38223f",
        "to": "0x6a958dfcc9f00d00de8bf756d3d8a567368fddd5",
        "gas": "0x20b38",
        "value": "0x0",
        "input": "0x443de9c9ead61c7340b7cacd78684d4795a617aae5e85cc4b89da34fb05ad55bb6bab653000000000000000000000000000000000000000000000002b5e3af16b188000000000000000000000000000000000000000000000000000000000000000151800000000000000000000000000000000000000000000000000000000000000001",
        "nonce": "0x54",
        "chainId": "0x66eee"
      },
      "additionalContracts": [],
      "isFixedGasLimit": false
    },
    {
      "hash": "0x16401f798d59ecd02dec6f7acbdb34b15e3ee3e8902a39052ba9a08df0402e17",
      "transactionType": "CALL",
      "contractName": null,
      "contractAddress": "0x6a958dfcc9f00d00de8bf756d3d8a567368fddd5",
      "function": "addPrice(uint256,(uint256,uint32,bool))",
      "arguments": [
        "106219508196454080375526586478153583586194937194493887259467424694676997453395",
        "(300000000000000000000, 604800, true)"
      ],
      "transaction": {
        "from": "0x7caf754c934710d7c73bc453654552beca38223f",
        "to": "0x6a958dfcc9f00d00de8bf756d3d8a567368fddd5",
        "gas": "0x1c84f",
        "value": "0x0",
        "input": "0x443de9c9ead61c7340b7cacd78684d4795a617aae5e85cc4b89da34fb05ad55bb6bab65300000000000000000000000000000000000000000000001043561a88293000000000000000000000000000000000000000000000000000000000000000093a800000000000000000000000000000000000000000000000000000000000000001",
        "nonce": "0x55",
        "chainId": "0x66eee"
      },
      "additionalContracts": [],
      "isFixedGasLimit": false
    },
    {
      "hash": "0x187c5c39e4aafe88f7d14ded711c19384597585f5649a03669ac18f251488549",
      "transactionType": "CALL",
      "contractName": null,
      "contractAddress": "0x6a958dfcc9f00d00de8bf756d3d8a567368fddd5",
      "function": "addPrice(uint256,(uint256,uint32,bool))",
      "arguments": [
        "106219508196454080375526586478153583586194937194493887259467424694676997453395",
        "(1000000000000000000000, 2592000, true)"
      ],
      "transaction": {
        "from": "0x7caf754c934710d7c73bc453654552beca38223f",
        "to": "0x6a958dfcc9f00d00de8bf756d3d8a567368fddd5",
        "gas": "0x1aee4",
        "value": "0x0",
        "input": "0x443de9c9ead61c7340b7cacd78684d4795a617aae5e85cc4b89da34fb05ad55bb6bab65300000000000000000000000000000000000000000000003635c9adc5dea000000000000000000000000000000000000000000000000000000000000000278d000000000000000000000000000000000000000000000000000000000000000001",
        "nonce": "0x56",
        "chainId": "0x66eee"
      },
      "additionalContracts": [],
      "isFixedGasLimit": false
    },
    {
      "hash": "0x0e9b0b041f3bd9de3a404388a5adade25a425f8d9bb300c4180e69f59d1aea1e",
      "transactionType": "CALL",
      "contractName": null,
      "contractAddress": "0x6a958dfcc9f00d00de8bf756d3d8a567368fddd5",
      "function": "addPrice(uint256,(uint256,uint32,bool))",
      "arguments": [
        "108586150798115180574743190405367285583167702751783717273705027881651322809951",
        "(50000000000000000000, 86400, true)"
      ],
      "transaction": {
        "from": "0x7caf754c934710d7c73bc453654552beca38223f",
        "to": "0x6a958dfcc9f00d00de8bf756d3d8a567368fddd5",
        "gas": "0x20b38",
        "value": "0x0",
        "input": "0x443de9c9f011955832cac97ab1a6534c6b94971325e3be6bfaac1ccae68e3f5c7adcee5f000000000000000000000000000000000000000000000002b5e3af16b188000000000000000000000000000000000000000000000000000000000000000151800000000000000000000000000000000000000000000000000000000000000001",
        "nonce": "0x57",
        "chainId": "0x66eee"
      },
      "additionalContracts": [],
      "isFixedGasLimit": false
    },
    {
      "hash": "0x349c16750d548c9bbff01c323e5031e98ad67b9b18a1ca042b6d83f76f291756",
      "transactionType": "CALL",
      "contractName": null,
      "contractAddress": "0x6a958dfcc9f00d00de8bf756d3d8a567368fddd5",
      "function": "addPrice(uint256,(uint256,uint32,bool))",
      "arguments": [
        "108586150798115180574743190405367285583167702751783717273705027881651322809951",
        "(300000000000000000000, 604800, true)"
      ],
      "transaction": {
        "from": "0x7caf754c934710d7c73bc453654552beca38223f",
        "to": "0x6a958dfcc9f00d00de8bf756d3d8a567368fddd5",
        "gas": "0x1c84f",
        "value": "0x0",
        "input": "0x443de9c9f011955832cac97ab1a6534c6b94971325e3be6bfaac1ccae68e3f5c7adcee5f00000000000000000000000000000000000000000000001043561a88293000000000000000000000000000000000000000000000000000000000000000093a800000000000000000000000000000000000000000000000000000000000000001",
        "nonce": "0x58",
        "chainId": "0x66eee"
      },
      "additionalContracts": [],
      "isFixedGasLimit": false
    },
    {
      "hash": "0x9e33fd3198be4af0db63d830800cb54e2a3b74352a641020a1d665bb6d405ac8",
      "transactionType": "CALL",
      "contractName": null,
      "contractAddress": "0x6a958dfcc9f00d00de8bf756d3d8a567368fddd5",
      "function": "addPrice(uint256,(uint256,uint32,bool))",
      "arguments": [
        "108586150798115180574743190405367285583167702751783717273705027881651322809951",
        "(1000000000000000000000, 2592000, true)"
      ],
      "transaction": {
        "from": "0x7caf754c934710d7c73bc453654552beca38223f",
        "to": "0x6a958dfcc9f00d00de8bf756d3d8a567368fddd5",
        "gas": "0x1aee4",
        "value": "0x0",
        "input": "0x443de9c9f011955832cac97ab1a6534c6b94971325e3be6bfaac1ccae68e3f5c7adcee5f00000000000000000000000000000000000000000000003635c9adc5dea000000000000000000000000000000000000000000000000000000000000000278d000000000000000000000000000000000000000000000000000000000000000001",
        "nonce": "0x59",
        "chainId": "0x66eee"
      },
      "additionalContracts": [],
      "isFixedGasLimit": false
    },
    {
      "hash": "0x0a5aeb6aebc22d6802aea3e5acbe8113108e5952bdf89e3612814e30b99ba1ef",
      "transactionType": "CALL",
      "contractName": null,
      "contractAddress": "0x6a958dfcc9f00d00de8bf756d3d8a567368fddd5",
      "function": "addPrice(uint256,(uint256,uint32,bool))",
      "arguments": [
        "61412812549033025435811962204424170589965658763482764336017940556663446417829",
        "(50000000000000000000, 86400, true)"
      ],
      "transaction": {
        "from": "0x7caf754c934710d7c73bc453654552beca38223f",
        "to": "0x6a958dfcc9f00d00de8bf756d3d8a567368fddd5",
        "gas": "0x20b38",
        "value": "0x0",
        "input": "0x443de9c987c66b8c60fd984f739f68f1d83229601131914aaf269874c584e179b37db1a5000000000000000000000000000000000000000000000002b5e3af16b188000000000000000000000000000000000000000000000000000000000000000151800000000000000000000000000000000000000000000000000000000000000001",
        "nonce": "0x5a",
        "chainId": "0x66eee"
      },
      "additionalContracts": [],
      "isFixedGasLimit": false
    },
    {
      "hash": "0x2becfee1910439d647d9c37506286bf5458b481f0a4f6ab88c9e067bb60fbbae",
      "transactionType": "CALL",
      "contractName": null,
      "contractAddress": "0x6a958dfcc9f00d00de8bf756d3d8a567368fddd5",
      "function": "addPrice(uint256,(uint256,uint32,bool))",
      "arguments": [
        "61412812549033025435811962204424170589965658763482764336017940556663446417829",
        "(300000000000000000000, 604800, true)"
      ],
      "transaction": {
        "from": "0x7caf754c934710d7c73bc453654552beca38223f",
        "to": "0x6a958dfcc9f00d00de8bf756d3d8a567368fddd5",
        "gas": "0x1c84f",
        "value": "0x0",
        "input": "0x443de9c987c66b8c60fd984f739f68f1d83229601131914aaf269874c584e179b37db1a500000000000000000000000000000000000000000000001043561a88293000000000000000000000000000000000000000000000000000000000000000093a800000000000000000000000000000000000000000000000000000000000000001",
        "nonce": "0x5b",
        "chainId": "0x66eee"
      },
      "additionalContracts": [],
      "isFixedGasLimit": false
    },
    {
      "hash": "0x1a45ce0cf2cd78156489880f550bcf9eece8c25774331b1b0bf8a2a6dbf573e9",
      "transactionType": "CALL",
      "contractName": null,
      "contractAddress": "0x6a958dfcc9f00d00de8bf756d3d8a567368fddd5",
      "function": "addPrice(uint256,(uint256,uint32,bool))",
      "arguments": [
        "61412812549033025435811962204424170589965658763482764336017940556663446417829",
        "(1000000000000000000000, 2592000, true)"
      ],
      "transaction": {
        "from": "0x7caf754c934710d7c73bc453654552beca38223f",
        "to": "0x6a958dfcc9f00d00de8bf756d3d8a567368fddd5",
        "gas": "0x1aee4",
        "value": "0x0",
        "input": "0x443de9c987c66b8c60fd984f739f68f1d83229601131914aaf269874c584e179b37db1a500000000000000000000000000000000000000000000003635c9adc5dea000000000000000000000000000000000000000000000000000000000000000278d000000000000000000000000000000000000000000000000000000000000000001",
        "nonce": "0x5c",
        "chainId": "0x66eee"
      },
      "additionalContracts": [],
      "isFixedGasLimit": false
    },
    {
      "hash": "0x46bc95d63157951b6d469a9acb0ee64a504f945f4c47cb7f1bf1d4fc77c912d8",
      "transactionType": "CALL",
      "contractName": null,
      "contractAddress": "0x6a958dfcc9f00d00de8bf756d3d8a567368fddd5",
      "function": "addPrice(uint256,(uint256,uint32,bool))",
      "arguments": [
        "20376791661718660580662410765070640284736320707848823176694931891585259913409",
        "(50000000000000000000, 86400, true)"
      ],
      "transaction": {
        "from": "0x7caf754c934710d7c73bc453654552beca38223f",
        "to": "0x6a958dfcc9f00d00de8bf756d3d8a567368fddd5",
        "gas": "0x20b38",
        "value": "0x0",
        "input": "0x443de9c92d0cdaf9a1153a9a4b68379c64d4397611a0f3d9fa4015376435f9a64aafc0c1000000000000000000000000000000000000000000000002b5e3af16b188000000000000000000000000000000000000000000000000000000000000000151800000000000000000000000000000000000000000000000000000000000000001",
        "nonce": "0x5d",
        "chainId": "0x66eee"
      },
      "additionalContracts": [],
      "isFixedGasLimit": false
    },
    {
      "hash": "0xec7500d8878affa63d0efeeb705f035fde263e0860ebeae6e15bc4424086edd1",
      "transactionType": "CALL",
      "contractName": null,
      "contractAddress": "0x6a958dfcc9f00d00de8bf756d3d8a567368fddd5",
      "function": "addPrice(uint256,(uint256,uint32,bool))",
      "arguments": [
        "20376791661718660580662410765070640284736320707848823176694931891585259913409",
        "(300000000000000000000, 604800, true)"
      ],
      "transaction": {
        "from": "0x7caf754c934710d7c73bc453654552beca38223f",
        "to": "0x6a958dfcc9f00d00de8bf756d3d8a567368fddd5",
        "gas": "0x1c84f",
        "value": "0x0",
        "input": "0x443de9c92d0cdaf9a1153a9a4b68379c64d4397611a0f3d9fa4015376435f9a64aafc0c100000000000000000000000000000000000000000000001043561a88293000000000000000000000000000000000000000000000000000000000000000093a800000000000000000000000000000000000000000000000000000000000000001",
        "nonce": "0x5e",
        "chainId": "0x66eee"
      },
      "additionalContracts": [],
      "isFixedGasLimit": false
    },
    {
      "hash": "0x34ca56a66b5d15c7c907535848c7e9f474ccdece8edf26034f0a2926ba40d708",
      "transactionType": "CALL",
      "contractName": null,
      "contractAddress": "0x6a958dfcc9f00d00de8bf756d3d8a567368fddd5",
      "function": "addPrice(uint256,(uint256,uint32,bool))",
      "arguments": [
        "20376791661718660580662410765070640284736320707848823176694931891585259913409",
        "(1000000000000000000000, 2592000, true)"
      ],
      "transaction": {
        "from": "0x7caf754c934710d7c73bc453654552beca38223f",
        "to": "0x6a958dfcc9f00d00de8bf756d3d8a567368fddd5",
        "gas": "0x1aee4",
        "value": "0x0",
        "input": "0x443de9c92d0cdaf9a1153a9a4b68379c64d4397611a0f3d9fa4015376435f9a64aafc0c100000000000000000000000000000000000000000000003635c9adc5dea000000000000000000000000000000000000000000000000000000000000000278d000000000000000000000000000000000000000000000000000000000000000001",
        "nonce": "0x5f",
        "chainId": "0x66eee"
      },
      "additionalContracts": [],
      "isFixedGasLimit": false
    },
    {
      "hash": "0x7ace6d8f17417854170bc2adadac26ec4fea8299d94cd4e8746ca6c826782536",
      "transactionType": "CALL",
      "contractName": null,
      "contractAddress": "0x34a6b1eaafedf93a6b8658b7ea3035738929b159",
      "function": "deployInteractionContract(uint256)",
      "arguments": [
        "106219508196454080375526586478153583586194937194493887259467424694676997453395"
      ],
      "transaction": {
        "from": "0x7caf754c934710d7c73bc453654552beca38223f",
        "to": "0x34a6b1eaafedf93a6b8658b7ea3035738929b159",
        "gas": "0x2cf6c6",
        "value": "0x0",
        "input": "0x00316a34ead61c7340b7cacd78684d4795a617aae5e85cc4b89da34fb05ad55bb6bab653",
        "nonce": "0x60",
        "chainId": "0x66eee"
      },
      "additionalContracts": [
        {
          "transactionType": "CREATE",
          "address": "0xdbd23b94fcd72b14d1f568d45392e9ca77e73d62",
          "initCode": "0x61018060405230610120523480156200001757600080fd5b506040516200260f3803806200260f8339810160408190526200003a916200018d565b306080524660a05281816060806200009e604080518082018252601781527f4672616b2e436f6e74656e74496e746572616374696f6e00000000000000000060208083019190915282518084019093526005835264302e302e3160d81b9083015291565b815160209283012081519183019190912060c082905260e0819052604080517f8b73c3c69bb8fe3d512ecc4cf759cc79239f7b179b0ffacaa9a75d522b39400f8152938401929092529082015246606082015230608082015260a090206101005250506101408290526001600160a01b038116610160526200011f62000129565b50505050620001cc565b63409feecd1980546001811615620001495763f92ee8a96000526004601cfd5b8160c01c808260011c1462000188578060011b8355806020527fc7f505b2f371ae2175ee4913f4499e1f2633a7b5936321eed1cdaeb6115181d2602080a15b505050565b60008060408385031215620001a157600080fd5b825160208401519092506001600160a01b0381168114620001c157600080fd5b809150509250929050565b60805160a05160c05160e05161010051610120516101405161016051612389620002866000396000818161197e0152611b220152600081816104510152818161051401528181610d79015281816116a9015281816119e30152611b870152600081816108bc015261099a0152600081816115250152611ca50152600081816115df0152611d5f0152600081816115b90152611d390152600081816115690152611ce90152600081816115460152611cc601526123896000f3fe6080604052600436106101b75760003560e01c806354d1f13d116100ec578063b03c9d831161008a578063ed24911d11610064578063ed24911d1461053f578063f04e283e14610554578063f2fde38b14610567578063fee81cf41461057a57600080fd5b8063b03c9d8314610475578063cb93d99f146104cb578063df6e4179146104df57600080fd5b806384b0196e116100c657806384b0196e146103a45780638da5cb5b146103cc578063a6b0363314610420578063ac078ad81461044257600080fd5b806354d1f13d14610374578063715018a61461037c5780637bfa980e1461038457600080fd5b80632eb64fbc116101595780634c9903a7116101335780634c9903a7146102f55780634f1ef28614610315578063514e62fc1461032857806352d1902d1461035f57600080fd5b80632eb64fbc146102a257806340c6349b146102c25780634a4ee7b1146102e257600080fd5b80631c10893f116101955780631c10893f146102115780631cd64df41461022457806325692962146102595780632de948071461026157600080fd5b806311d6e1fb146101bc578063183a4f6e146101de578063184b9559146101f1575b600080fd5b3480156101c857600080fd5b506101dc6101d7366004611e77565b6105ad565b005b6101dc6101ec366004611e9b565b6106ca565b3480156101fd57600080fd5b506101dc61020c366004611eb4565b6106d7565b6101dc61021f366004611eff565b61078f565b34801561023057600080fd5b5061024461023f366004611eff565b6107a5565b60405190151581526020015b60405180910390f35b6101dc6107c4565b34801561026d57600080fd5b5061029461027c366004611e77565b638b78c6d8600c908152600091909152602090205490565b604051908152602001610250565b3480156102ae57600080fd5b506101dc6102bd366004611f74565b610814565b3480156102ce57600080fd5b506101dc6102dd366004611fc0565b610825565b6101dc6102f0366004611eff565b61089b565b34801561030157600080fd5b506101dc610310366004612035565b6108ad565b6101dc610323366004612088565b6108ba565b34801561033457600080fd5b50610244610343366004611eff565b638b78c6d8600c90815260009290925260209091205416151590565b34801561036b57600080fd5b50610294610996565b6101dc6109f5565b6101dc610a31565b34801561039057600080fd5b506101dc61039f366004611f74565b610a45565b3480156103b057600080fd5b506103b9610a51565b6040516102509796959493929190612128565b3480156103d857600080fd5b507fffffffffffffffffffffffffffffffffffffffffffffffffffffffff748739275460405173ffffffffffffffffffffffffffffffffffffffff9091168152602001610250565b34801561042c57600080fd5b50610435610afa565b60405161025091906121ea565b34801561044e57600080fd5b507f0000000000000000000000000000000000000000000000000000000000000000610294565b34801561048157600080fd5b50610294610490366004612244565b60009182526020908152604080832083527fd966519fe3fe853ea9b03acd8a0422a17006c68dbe1d8fa2b9127b9e8e22eac490915290205490565b3480156104d757600080fd5b506002610294565b3480156104eb57600080fd5b507f3d16196f272c96153eabc4eb746e08ae541cf36535edb959ed80f5e5169b678760009081527f000000000000000000000000000000000000000000000000000000000000000060205260409020610294565b34801561054b57600080fd5b50610294610b8b565b6101dc610562366004611e77565b610b9a565b6101dc610575366004611e77565b610bd7565b34801561058657600080fd5b50610294610595366004611e77565b63389a75e1600c908152600091909152602090205490565b60046105b881610bfe565b7fd966519fe3fe853ea9b03acd8a0422a17006c68dbe1d8fa2b9127b9e8e22eac560005b815481101561066f578373ffffffffffffffffffffffffffffffffffffffff1682828154811061060e5761060e612274565b60009182526020909120015473ffffffffffffffffffffffffffffffffffffffff1603610667576040517f0ed89c9f00000000000000000000000000000000000000000000000000000000815260040160405180910390fd5b6001016105dc565b508054600181018255600091825260209091200180547fffffffffffffffffffffffff00000000000000000000000000000000000000001673ffffffffffffffffffffffffffffffffffffffff939093169290921790915550565b6106d43382610c24565b50565b7fffffffffffffffffffffffffffffffffffffffffffffffffffffffffbf60113280546003825580156107295760018160011c14303b106107205763f92ee8a96000526004601cfd5b818160ff1b1b91505b5061073383610c30565b61073e836002610c94565b610749846006610c94565b61075482600a610c94565b8015610789576002815560016020527fc7f505b2f371ae2175ee4913f4499e1f2633a7b5936321eed1cdaeb6115181d2602080a15b50505050565b610797610cd7565b6107a18282610d0d565b5050565b638b78c6d8600c90815260008390526020902054811681145b92915050565b60006202a30067ffffffffffffffff164201905063389a75e1600c5233600052806020600c2055337fdbf36a107da19e49527a7176a1babf963b4b0ff8cde35ee35d6cd8f1f9ac7e1d600080a250565b61082083338484610d19565b505050565b600461083081610bfe565b7fd966519fe3fe853ea9b03acd8a0422a17006c68dbe1d8fa2b9127b9e8e22eac560005b838110156108945761088c85858381811061087157610871612274565b90506020020160208101906108869190611e77565b83610f00565b600101610854565b5050505050565b6108a3610cd7565b6107a18282610c24565b610789848433858561123b565b7f00000000000000000000000000000000000000000000000000000000000000003081036108f057639f03a0266000526004601cfd5b6108f984611400565b8360601b60601c93506352d1902d6001527f360894a13ba1a3210667c828492db98dca3e2076cc3735a920a3ca505d382bbc80602060016004601d895afa511461094b576355299b496001526004601dfd5b847fbc7cd75a20ee27fd9adebab32041f755214dbc6bffa90cc0225b39da2e5c2d3b600038a2849055811561078957604051828482376000388483885af4610894573d6000823e3d81fd5b60007f00000000000000000000000000000000000000000000000000000000000000003081146109ce57639f03a0266000526004601cfd5b7f360894a13ba1a3210667c828492db98dca3e2076cc3735a920a3ca505d382bbc91505090565b63389a75e1600c523360005260006020600c2055337ffa7b8eab7da67f412cc9575ed43464468f9bfbae89d1675917346ca6d8fe3c92600080a2565b610a39610cd7565b610a43600061140b565b565b61082083338484611471565b7f0f000000000000000000000000000000000000000000000000000000000000006060806000808083610ae8604080518082018252601781527f4672616b2e436f6e74656e74496e746572616374696f6e0000000000000000006020808301919091528251808401909352600583527f302e302e310000000000000000000000000000000000000000000000000000009083015291565b97989097965046955030945091925090565b60607fd966519fe3fe853ea9b03acd8a0422a17006c68dbe1d8fa2b9127b9e8e22eac4600101805480602002602001604051908101604052809291908181526020018280548015610b8157602002820191906000526020600020905b815473ffffffffffffffffffffffffffffffffffffffff168152600190910190602001808311610b56575b5050505050905090565b6000610b95611523565b905090565b610ba2610cd7565b63389a75e1600c52806000526020600c208054421115610bca57636f5e88186000526004601cfd5b600090556106d48161140b565b610bdf610cd7565b8060601b610bf557637448fbae6000526004601cfd5b6106d48161140b565b638b78c6d8600c5233600052806020600c2054166106d4576382b429006000526004601cfd5b6107a18282600061161b565b73ffffffffffffffffffffffffffffffffffffffff167fffffffffffffffffffffffffffffffffffffffffffffffffffffffff748739278190558060007f8be0079c531659141344cd1fd0a4f28419497f9722a3daafe3b4186f6b6457e08180a350565b638b78c6d8600c5281600052806020600c205580600c5160601c7f715ad5ce61fc9595c7b415289d59cf203f23a94fa06f04af7e489a0a76e1fe26600080a35050565b7fffffffffffffffffffffffffffffffffffffffffffffffffffffffff74873927543314610a43576382b429006000526004601cfd5b6107a18282600161161b565b604080517faf75a9c1cea9f66971d8d341459fd474beb48c11cce7f5962860bec428704d986020820152908101859052600090606001604051602081830303815290604052805190602001209050610d7381858585611674565b604080517f00000000000000000000000000000000000000000000000000000000000000006020820152908101869052606085811b7fffffffffffffffffffffffffffffffffffffffff00000000000000000000000016908201526000906074016040516020818303038152906040528051906020012090506000610e157ff37141af23c6aeeb0bd5dacffe9b19ec3b801f111eab5899fcd9f42681bb538e90565b600083815260209190915260409020600181015490915073ffffffffffffffffffffffffffffffffffffffff1615610e4f57505050610789565b6040805173ffffffffffffffffffffffffffffffffffffffff881681526020810184905288917f6095e758ceafe4c99e3133d265b00fd2ef4e760631dddadc38c697eded3a0818910160405180910390a2610eb2610ead88886117c3565b611838565b868155600101805473ffffffffffffffffffffffffffffffffffffffff87167fffffffffffffffffffffffff0000000000000000000000000000000000000000909116179055505050505050565b80546000908290610f13906001906122d2565b81548110610f2357610f23612274565b60009182526020909120015473ffffffffffffffffffffffffffffffffffffffff90811691508316810361101e578073ffffffffffffffffffffffffffffffffffffffff1663036138fd6040518163ffffffff1660e01b8152600401600060405180830381600087803b158015610f9957600080fd5b505af1158015610fad573d6000803e3d6000fd5b5050505081805480610fc157610fc16122e5565b60008281526020902081017fffffffffffffffffffffffffffffffffffffffffffffffffffffffffffffffff90810180547fffffffffffffffffffffffff0000000000000000000000000000000000000000169055019055505050565b815460010361102c57505050565b60005b8254811015610789578373ffffffffffffffffffffffffffffffffffffffff1683828154811061106157611061612274565b60009182526020909120015473ffffffffffffffffffffffffffffffffffffffff16036112335782818154811061109a5761109a612274565b6000918252602082200154604080517f036138fd000000000000000000000000000000000000000000000000000000008152905173ffffffffffffffffffffffffffffffffffffffff9092169263036138fd9260048084019382900301818387803b15801561110857600080fd5b505af115801561111c573d6000803e3d6000fd5b5050845485925061113091506001906122d2565b8154811061114057611140612274565b9060005260206000200160009054906101000a900473ffffffffffffffffffffffffffffffffffffffff1683828154811061117d5761117d612274565b9060005260206000200160006101000a81548173ffffffffffffffffffffffffffffffffffffffff021916908373ffffffffffffffffffffffffffffffffffffffff160217905550828054806111d5576111d56122e5565b60008281526020902081017fffffffffffffffffffffffffffffffffffffffffffffffffffffffffffffffff90810180547fffffffffffffffffffffffff000000000000000000000000000000000000000016905501905550505050565b60010161102f565b604080517fc0a24ffb7afa254ad3052f8f1da6e4268b30580018115d9c10b63352b0004b2d60208201529081018690526060810185905260009060800160405160208183030381529060405280519060200120905061129c81858585611674565b60405173ffffffffffffffffffffffffffffffffffffffff8516815286907f244ff6a785e5fcb1d6e6fb78003849cbb2f3ea19e7637ca9198690de3f4aa8fe9060200160405180910390a26112f4610ead8786611917565b60008590036113035750610894565b60008581527ff37141af23c6aeeb0bd5dacffe9b19ec3b801f111eab5899fcd9f42681bb538e60205260409020600181015473ffffffffffffffffffffffffffffffffffffffff161580611358575080548714155b15611364575050610894565b61136d85611979565b15611379575050610894565b60405173ffffffffffffffffffffffffffffffffffffffff8616815286907ff157c7ca50907b3c2dbccfc7e3b72a30fc8cb309de83953656c93b2316a211509060200160405180910390a26113d1610ead8887611abe565b60018101546113f790869073ffffffffffffffffffffffffffffffffffffffff16611b20565b50505050505050565b60026107a181610bfe565b7fffffffffffffffffffffffffffffffffffffffffffffffffffffffff74873927805473ffffffffffffffffffffffffffffffffffffffff9092169182907f8be0079c531659141344cd1fd0a4f28419497f9722a3daafe3b4186f6b6457e0600080a355565b604080517fd5bd0fbe3510f2dde55a90e8bb325735d540cc475e1875f00abfd5a81015b07360208201529081018590526000906060016040516020818303038152906040528051906020012090506114cb81858585611674565b60405173ffffffffffffffffffffffffffffffffffffffff8516815285907fe70c7fdded917535aec670e2c568522571fde805589d9cb9b735ed6c6b45fcea9060200160405180910390a2610894610ead8686611c41565b7f00000000000000000000000000000000000000000000000000000000000000007f000000000000000000000000000000000000000000000000000000000000000030147f00000000000000000000000000000000000000000000000000000000000000004614166116185750604080517f8b73c3c69bb8fe3d512ecc4cf759cc79239f7b179b0ffacaa9a75d522b39400f81527f000000000000000000000000000000000000000000000000000000000000000060208201527f00000000000000000000000000000000000000000000000000000000000000009181019190915246606082015230608082015260a0902090565b90565b638b78c6d8600c52826000526020600c2080548381178361163d575080841681185b80835580600c5160601c7f715ad5ce61fc9595c7b415289d59cf203f23a94fa06f04af7e489a0a76e1fe26600080a3505050505050565b6000848152602084905260408120906117627f305a64ccde7c3507410a028ef8b3aecbcc9fe890f762079d6bc53c3503a5489c7f000000000000000000000000000000000000000000000000000000000000000088887fd966519fe3fe853ea9b03acd8a0422a17006c68dbe1d8fa2b9127b9e8e22eac460008881526020919091526040812080549161170683612314565b90915550604080516020810196909652850193909352606084019190915273ffffffffffffffffffffffffffffffffffffffff16608083015260a082015260c00160405160208183030381529060405280519060200120611ca3565b90506000611771828686611dbb565b905060006117808260086107a5565b9050806117b9576040517facd13cc100000000000000000000000000000000000000000000000000000000815260040160405180910390fd5b5050505050505050565b6040517c0400000000000000000000000000000000000000000000000000000000602082015260248101839052606082811b7fffffffffffffffffffffffffffffffffffffffff000000000000000000000000166044830152906058015b604051602081830303815290604052905092915050565b7fd966519fe3fe853ea9b03acd8a0422a17006c68dbe1d8fa2b9127b9e8e22eac58054600003611866575050565b60005b81548110156108205781818154811061188457611884612274565b6000918252602090912001546040517fc375ab1300000000000000000000000000000000000000000000000000000000815273ffffffffffffffffffffffffffffffffffffffff9091169063c375ab13906118e390869060040161234c565b600060405180830381600087803b1580156118fd57600080fd5b505af192505050801561190e575060015b50600101611869565b6040517c0200000000000000000000000000000000000000000000000000000000602082015260248101839052606082811b7fffffffffffffffffffffffffffffffffffffffff00000000000000000000000016604483015290605801611821565b6000807f000000000000000000000000000000000000000000000000000000000000000073ffffffffffffffffffffffffffffffffffffffff1663f6d8c98b611a0c7f3d16196f272c96153eabc4eb746e08ae541cf36535edb959ed80f5e5169b678760009081527f00000000000000000000000000000000000000000000000000000000000000006020526040902090565b6040517fffffffff0000000000000000000000000000000000000000000000000000000060e084901b168152600481019190915273ffffffffffffffffffffffffffffffffffffffff86166024820152604401602060405180830381865afa158015611a7c573d6000803e3d6000fd5b505050506040513d601f19601f82011682018060405250810190611aa0919061235f565b73ffffffffffffffffffffffffffffffffffffffff16141592915050565b6040517c0500000000000000000000000000000000000000000000000000000000602082015260248101839052606082811b7fffffffffffffffffffffffffffffffffffffffff00000000000000000000000016604483015290605801611821565b7f000000000000000000000000000000000000000000000000000000000000000073ffffffffffffffffffffffffffffffffffffffff1663fffefd4f611bb07f3d16196f272c96153eabc4eb746e08ae541cf36535edb959ed80f5e5169b678760009081527f00000000000000000000000000000000000000000000000000000000000000006020526040902090565b6040517fffffffff0000000000000000000000000000000000000000000000000000000060e084901b168152600481019190915273ffffffffffffffffffffffffffffffffffffffff808616602483015284166044820152606401600060405180830381600087803b158015611c2557600080fd5b505af1158015611c39573d6000803e3d6000fd5b505050505050565b6040517c0300000000000000000000000000000000000000000000000000000000602082015260248101839052606082811b7fffffffffffffffffffffffffffffffffffffffff00000000000000000000000016604483015290605801611821565b7f00000000000000000000000000000000000000000000000000000000000000007f000000000000000000000000000000000000000000000000000000000000000030147f0000000000000000000000000000000000000000000000000000000000000000461416611d965750604080517f8b73c3c69bb8fe3d512ecc4cf759cc79239f7b179b0ffacaa9a75d522b39400f81527f000000000000000000000000000000000000000000000000000000000000000060208201527f00000000000000000000000000000000000000000000000000000000000000009181019190915246606082015230608082015260a090205b67190100000000000060005280601a5281603a52604260182090506000603a52919050565b604051600084905260019060408303611e0e5760208481013560ff81901c601b0190915284356040527f7fffffffffffffffffffffffffffffffffffffffffffffffffffffffffffffff16606052611e31565b60418303611e2c57604084013560001a602052604084604037611e31565b600091505b6020604060806000855afa5060006060523d60601851915080604052509392505050565b73ffffffffffffffffffffffffffffffffffffffff811681146106d457600080fd5b600060208284031215611e8957600080fd5b8135611e9481611e55565b9392505050565b600060208284031215611ead57600080fd5b5035919050565b600080600060608486031215611ec957600080fd5b8335611ed481611e55565b92506020840135611ee481611e55565b91506040840135611ef481611e55565b809150509250925092565b60008060408385031215611f1257600080fd5b8235611f1d81611e55565b946020939093013593505050565b60008083601f840112611f3d57600080fd5b50813567ffffffffffffffff811115611f5557600080fd5b602083019150836020828501011115611f6d57600080fd5b9250929050565b600080600060408486031215611f8957600080fd5b83359250602084013567ffffffffffffffff811115611fa757600080fd5b611fb386828701611f2b565b9497909650939450505050565b60008060208385031215611fd357600080fd5b823567ffffffffffffffff80821115611feb57600080fd5b818501915085601f830112611fff57600080fd5b81358181111561200e57600080fd5b8660208260051b850101111561202357600080fd5b60209290920196919550909350505050565b6000806000806060858703121561204b57600080fd5b8435935060208501359250604085013567ffffffffffffffff81111561207057600080fd5b61207c87828801611f2b565b95989497509550505050565b60008060006040848603121561209d57600080fd5b83356120a881611e55565b9250602084013567ffffffffffffffff811115611fa757600080fd5b6000815180845260005b818110156120ea576020818501810151868301820152016120ce565b5060006020828601015260207fffffffffffffffffffffffffffffffffffffffffffffffffffffffffffffffe0601f83011685010191505092915050565b7fff00000000000000000000000000000000000000000000000000000000000000881681526000602060e0602084015261216560e084018a6120c4565b8381036040850152612177818a6120c4565b6060850189905273ffffffffffffffffffffffffffffffffffffffff8816608086015260a0850187905284810360c08601528551808252602080880193509091019060005b818110156121d8578351835292840192918401916001016121bc565b50909c9b505050505050505050505050565b6020808252825182820181905260009190848201906040850190845b8181101561223857835173ffffffffffffffffffffffffffffffffffffffff1683529284019291840191600101612206565b50909695505050505050565b6000806040838503121561225757600080fd5b82359150602083013561226981611e55565b809150509250929050565b7f4e487b7100000000000000000000000000000000000000000000000000000000600052603260045260246000fd5b7f4e487b7100000000000000000000000000000000000000000000000000000000600052601160045260246000fd5b818103818111156107be576107be6122a3565b7f4e487b7100000000000000000000000000000000000000000000000000000000600052603160045260246000fd5b60007fffffffffffffffffffffffffffffffffffffffffffffffffffffffffffffffff8203612345576123456122a3565b5060010190565b602081526000611e9460208301846120c4565b60006020828403121561237157600080fd5b8151611e9481611e5556fea164736f6c6343000817000aead61c7340b7cacd78684d4795a617aae5e85cc4b89da34fb05ad55bb6bab6530000000000000000000000000a1d4292bc42d39e02b98a6af9d2e49f16dbed43"
        },
        {
          "transactionType": "CREATE",
          "address": "0x1a1b2fe60938775f4ac3330fe060e2b30248deed",
          "initCode": "0x603d3d8160223d3973dbd23b94fcd72b14d1f568d45392e9ca77e73d6260095155f3363d3d373d3d363d7f360894a13ba1a3210667c828492db98dca3e2076cc3735a920a3ca505d382bbc545af43d6000803e6038573d6000fd5b3d6000f3"
        }
      ],
      "isFixedGasLimit": false
    },
    {
      "hash": "0x3fa09d0eb0895e002baacc13a7e1982e27597f6589d1574c717e524a6fcdbf98",
      "transactionType": "CALL",
      "contractName": null,
      "contractAddress": "0x34a6b1eaafedf93a6b8658b7ea3035738929b159",
      "function": "deployInteractionContract(uint256)",
      "arguments": [
        "108586150798115180574743190405367285583167702751783717273705027881651322809951"
      ],
      "transaction": {
        "from": "0x7caf754c934710d7c73bc453654552beca38223f",
        "to": "0x34a6b1eaafedf93a6b8658b7ea3035738929b159",
        "gas": "0x2cf6c6",
        "value": "0x0",
        "input": "0x00316a34f011955832cac97ab1a6534c6b94971325e3be6bfaac1ccae68e3f5c7adcee5f",
        "nonce": "0x61",
        "chainId": "0x66eee"
      },
      "additionalContracts": [
        {
          "transactionType": "CREATE",
          "address": "0xc26529ba6ec155049fcdc3d49bf509e88bc7e0d4",
          "initCode": "0x61018060405230610120523480156200001757600080fd5b506040516200260f3803806200260f8339810160408190526200003a916200018d565b306080524660a05281816060806200009e604080518082018252601781527f4672616b2e436f6e74656e74496e746572616374696f6e00000000000000000060208083019190915282518084019093526005835264302e302e3160d81b9083015291565b815160209283012081519183019190912060c082905260e0819052604080517f8b73c3c69bb8fe3d512ecc4cf759cc79239f7b179b0ffacaa9a75d522b39400f8152938401929092529082015246606082015230608082015260a090206101005250506101408290526001600160a01b038116610160526200011f62000129565b50505050620001cc565b63409feecd1980546001811615620001495763f92ee8a96000526004601cfd5b8160c01c808260011c1462000188578060011b8355806020527fc7f505b2f371ae2175ee4913f4499e1f2633a7b5936321eed1cdaeb6115181d2602080a15b505050565b60008060408385031215620001a157600080fd5b825160208401519092506001600160a01b0381168114620001c157600080fd5b809150509250929050565b60805160a05160c05160e05161010051610120516101405161016051612389620002866000396000818161197e0152611b220152600081816104510152818161051401528181610d79015281816116a9015281816119e30152611b870152600081816108bc015261099a0152600081816115250152611ca50152600081816115df0152611d5f0152600081816115b90152611d390152600081816115690152611ce90152600081816115460152611cc601526123896000f3fe6080604052600436106101b75760003560e01c806354d1f13d116100ec578063b03c9d831161008a578063ed24911d11610064578063ed24911d1461053f578063f04e283e14610554578063f2fde38b14610567578063fee81cf41461057a57600080fd5b8063b03c9d8314610475578063cb93d99f146104cb578063df6e4179146104df57600080fd5b806384b0196e116100c657806384b0196e146103a45780638da5cb5b146103cc578063a6b0363314610420578063ac078ad81461044257600080fd5b806354d1f13d14610374578063715018a61461037c5780637bfa980e1461038457600080fd5b80632eb64fbc116101595780634c9903a7116101335780634c9903a7146102f55780634f1ef28614610315578063514e62fc1461032857806352d1902d1461035f57600080fd5b80632eb64fbc146102a257806340c6349b146102c25780634a4ee7b1146102e257600080fd5b80631c10893f116101955780631c10893f146102115780631cd64df41461022457806325692962146102595780632de948071461026157600080fd5b806311d6e1fb146101bc578063183a4f6e146101de578063184b9559146101f1575b600080fd5b3480156101c857600080fd5b506101dc6101d7366004611e77565b6105ad565b005b6101dc6101ec366004611e9b565b6106ca565b3480156101fd57600080fd5b506101dc61020c366004611eb4565b6106d7565b6101dc61021f366004611eff565b61078f565b34801561023057600080fd5b5061024461023f366004611eff565b6107a5565b60405190151581526020015b60405180910390f35b6101dc6107c4565b34801561026d57600080fd5b5061029461027c366004611e77565b638b78c6d8600c908152600091909152602090205490565b604051908152602001610250565b3480156102ae57600080fd5b506101dc6102bd366004611f74565b610814565b3480156102ce57600080fd5b506101dc6102dd366004611fc0565b610825565b6101dc6102f0366004611eff565b61089b565b34801561030157600080fd5b506101dc610310366004612035565b6108ad565b6101dc610323366004612088565b6108ba565b34801561033457600080fd5b50610244610343366004611eff565b638b78c6d8600c90815260009290925260209091205416151590565b34801561036b57600080fd5b50610294610996565b6101dc6109f5565b6101dc610a31565b34801561039057600080fd5b506101dc61039f366004611f74565b610a45565b3480156103b057600080fd5b506103b9610a51565b6040516102509796959493929190612128565b3480156103d857600080fd5b507fffffffffffffffffffffffffffffffffffffffffffffffffffffffff748739275460405173ffffffffffffffffffffffffffffffffffffffff9091168152602001610250565b34801561042c57600080fd5b50610435610afa565b60405161025091906121ea565b34801561044e57600080fd5b507f0000000000000000000000000000000000000000000000000000000000000000610294565b34801561048157600080fd5b50610294610490366004612244565b60009182526020908152604080832083527fd966519fe3fe853ea9b03acd8a0422a17006c68dbe1d8fa2b9127b9e8e22eac490915290205490565b3480156104d757600080fd5b506002610294565b3480156104eb57600080fd5b507f3d16196f272c96153eabc4eb746e08ae541cf36535edb959ed80f5e5169b678760009081527f000000000000000000000000000000000000000000000000000000000000000060205260409020610294565b34801561054b57600080fd5b50610294610b8b565b6101dc610562366004611e77565b610b9a565b6101dc610575366004611e77565b610bd7565b34801561058657600080fd5b50610294610595366004611e77565b63389a75e1600c908152600091909152602090205490565b60046105b881610bfe565b7fd966519fe3fe853ea9b03acd8a0422a17006c68dbe1d8fa2b9127b9e8e22eac560005b815481101561066f578373ffffffffffffffffffffffffffffffffffffffff1682828154811061060e5761060e612274565b60009182526020909120015473ffffffffffffffffffffffffffffffffffffffff1603610667576040517f0ed89c9f00000000000000000000000000000000000000000000000000000000815260040160405180910390fd5b6001016105dc565b508054600181018255600091825260209091200180547fffffffffffffffffffffffff00000000000000000000000000000000000000001673ffffffffffffffffffffffffffffffffffffffff939093169290921790915550565b6106d43382610c24565b50565b7fffffffffffffffffffffffffffffffffffffffffffffffffffffffffbf60113280546003825580156107295760018160011c14303b106107205763f92ee8a96000526004601cfd5b818160ff1b1b91505b5061073383610c30565b61073e836002610c94565b610749846006610c94565b61075482600a610c94565b8015610789576002815560016020527fc7f505b2f371ae2175ee4913f4499e1f2633a7b5936321eed1cdaeb6115181d2602080a15b50505050565b610797610cd7565b6107a18282610d0d565b5050565b638b78c6d8600c90815260008390526020902054811681145b92915050565b60006202a30067ffffffffffffffff164201905063389a75e1600c5233600052806020600c2055337fdbf36a107da19e49527a7176a1babf963b4b0ff8cde35ee35d6cd8f1f9ac7e1d600080a250565b61082083338484610d19565b505050565b600461083081610bfe565b7fd966519fe3fe853ea9b03acd8a0422a17006c68dbe1d8fa2b9127b9e8e22eac560005b838110156108945761088c85858381811061087157610871612274565b90506020020160208101906108869190611e77565b83610f00565b600101610854565b5050505050565b6108a3610cd7565b6107a18282610c24565b610789848433858561123b565b7f00000000000000000000000000000000000000000000000000000000000000003081036108f057639f03a0266000526004601cfd5b6108f984611400565b8360601b60601c93506352d1902d6001527f360894a13ba1a3210667c828492db98dca3e2076cc3735a920a3ca505d382bbc80602060016004601d895afa511461094b576355299b496001526004601dfd5b847fbc7cd75a20ee27fd9adebab32041f755214dbc6bffa90cc0225b39da2e5c2d3b600038a2849055811561078957604051828482376000388483885af4610894573d6000823e3d81fd5b60007f00000000000000000000000000000000000000000000000000000000000000003081146109ce57639f03a0266000526004601cfd5b7f360894a13ba1a3210667c828492db98dca3e2076cc3735a920a3ca505d382bbc91505090565b63389a75e1600c523360005260006020600c2055337ffa7b8eab7da67f412cc9575ed43464468f9bfbae89d1675917346ca6d8fe3c92600080a2565b610a39610cd7565b610a43600061140b565b565b61082083338484611471565b7f0f000000000000000000000000000000000000000000000000000000000000006060806000808083610ae8604080518082018252601781527f4672616b2e436f6e74656e74496e746572616374696f6e0000000000000000006020808301919091528251808401909352600583527f302e302e310000000000000000000000000000000000000000000000000000009083015291565b97989097965046955030945091925090565b60607fd966519fe3fe853ea9b03acd8a0422a17006c68dbe1d8fa2b9127b9e8e22eac4600101805480602002602001604051908101604052809291908181526020018280548015610b8157602002820191906000526020600020905b815473ffffffffffffffffffffffffffffffffffffffff168152600190910190602001808311610b56575b5050505050905090565b6000610b95611523565b905090565b610ba2610cd7565b63389a75e1600c52806000526020600c208054421115610bca57636f5e88186000526004601cfd5b600090556106d48161140b565b610bdf610cd7565b8060601b610bf557637448fbae6000526004601cfd5b6106d48161140b565b638b78c6d8600c5233600052806020600c2054166106d4576382b429006000526004601cfd5b6107a18282600061161b565b73ffffffffffffffffffffffffffffffffffffffff167fffffffffffffffffffffffffffffffffffffffffffffffffffffffff748739278190558060007f8be0079c531659141344cd1fd0a4f28419497f9722a3daafe3b4186f6b6457e08180a350565b638b78c6d8600c5281600052806020600c205580600c5160601c7f715ad5ce61fc9595c7b415289d59cf203f23a94fa06f04af7e489a0a76e1fe26600080a35050565b7fffffffffffffffffffffffffffffffffffffffffffffffffffffffff74873927543314610a43576382b429006000526004601cfd5b6107a18282600161161b565b604080517faf75a9c1cea9f66971d8d341459fd474beb48c11cce7f5962860bec428704d986020820152908101859052600090606001604051602081830303815290604052805190602001209050610d7381858585611674565b604080517f00000000000000000000000000000000000000000000000000000000000000006020820152908101869052606085811b7fffffffffffffffffffffffffffffffffffffffff00000000000000000000000016908201526000906074016040516020818303038152906040528051906020012090506000610e157ff37141af23c6aeeb0bd5dacffe9b19ec3b801f111eab5899fcd9f42681bb538e90565b600083815260209190915260409020600181015490915073ffffffffffffffffffffffffffffffffffffffff1615610e4f57505050610789565b6040805173ffffffffffffffffffffffffffffffffffffffff881681526020810184905288917f6095e758ceafe4c99e3133d265b00fd2ef4e760631dddadc38c697eded3a0818910160405180910390a2610eb2610ead88886117c3565b611838565b868155600101805473ffffffffffffffffffffffffffffffffffffffff87167fffffffffffffffffffffffff0000000000000000000000000000000000000000909116179055505050505050565b80546000908290610f13906001906122d2565b81548110610f2357610f23612274565b60009182526020909120015473ffffffffffffffffffffffffffffffffffffffff90811691508316810361101e578073ffffffffffffffffffffffffffffffffffffffff1663036138fd6040518163ffffffff1660e01b8152600401600060405180830381600087803b158015610f9957600080fd5b505af1158015610fad573d6000803e3d6000fd5b5050505081805480610fc157610fc16122e5565b60008281526020902081017fffffffffffffffffffffffffffffffffffffffffffffffffffffffffffffffff90810180547fffffffffffffffffffffffff0000000000000000000000000000000000000000169055019055505050565b815460010361102c57505050565b60005b8254811015610789578373ffffffffffffffffffffffffffffffffffffffff1683828154811061106157611061612274565b60009182526020909120015473ffffffffffffffffffffffffffffffffffffffff16036112335782818154811061109a5761109a612274565b6000918252602082200154604080517f036138fd000000000000000000000000000000000000000000000000000000008152905173ffffffffffffffffffffffffffffffffffffffff9092169263036138fd9260048084019382900301818387803b15801561110857600080fd5b505af115801561111c573d6000803e3d6000fd5b5050845485925061113091506001906122d2565b8154811061114057611140612274565b9060005260206000200160009054906101000a900473ffffffffffffffffffffffffffffffffffffffff1683828154811061117d5761117d612274565b9060005260206000200160006101000a81548173ffffffffffffffffffffffffffffffffffffffff021916908373ffffffffffffffffffffffffffffffffffffffff160217905550828054806111d5576111d56122e5565b60008281526020902081017fffffffffffffffffffffffffffffffffffffffffffffffffffffffffffffffff90810180547fffffffffffffffffffffffff000000000000000000000000000000000000000016905501905550505050565b60010161102f565b604080517fc0a24ffb7afa254ad3052f8f1da6e4268b30580018115d9c10b63352b0004b2d60208201529081018690526060810185905260009060800160405160208183030381529060405280519060200120905061129c81858585611674565b60405173ffffffffffffffffffffffffffffffffffffffff8516815286907f244ff6a785e5fcb1d6e6fb78003849cbb2f3ea19e7637ca9198690de3f4aa8fe9060200160405180910390a26112f4610ead8786611917565b60008590036113035750610894565b60008581527ff37141af23c6aeeb0bd5dacffe9b19ec3b801f111eab5899fcd9f42681bb538e60205260409020600181015473ffffffffffffffffffffffffffffffffffffffff161580611358575080548714155b15611364575050610894565b61136d85611979565b15611379575050610894565b60405173ffffffffffffffffffffffffffffffffffffffff8616815286907ff157c7ca50907b3c2dbccfc7e3b72a30fc8cb309de83953656c93b2316a211509060200160405180910390a26113d1610ead8887611abe565b60018101546113f790869073ffffffffffffffffffffffffffffffffffffffff16611b20565b50505050505050565b60026107a181610bfe565b7fffffffffffffffffffffffffffffffffffffffffffffffffffffffff74873927805473ffffffffffffffffffffffffffffffffffffffff9092169182907f8be0079c531659141344cd1fd0a4f28419497f9722a3daafe3b4186f6b6457e0600080a355565b604080517fd5bd0fbe3510f2dde55a90e8bb325735d540cc475e1875f00abfd5a81015b07360208201529081018590526000906060016040516020818303038152906040528051906020012090506114cb81858585611674565b60405173ffffffffffffffffffffffffffffffffffffffff8516815285907fe70c7fdded917535aec670e2c568522571fde805589d9cb9b735ed6c6b45fcea9060200160405180910390a2610894610ead8686611c41565b7f00000000000000000000000000000000000000000000000000000000000000007f000000000000000000000000000000000000000000000000000000000000000030147f00000000000000000000000000000000000000000000000000000000000000004614166116185750604080517f8b73c3c69bb8fe3d512ecc4cf759cc79239f7b179b0ffacaa9a75d522b39400f81527f000000000000000000000000000000000000000000000000000000000000000060208201527f00000000000000000000000000000000000000000000000000000000000000009181019190915246606082015230608082015260a0902090565b90565b638b78c6d8600c52826000526020600c2080548381178361163d575080841681185b80835580600c5160601c7f715ad5ce61fc9595c7b415289d59cf203f23a94fa06f04af7e489a0a76e1fe26600080a3505050505050565b6000848152602084905260408120906117627f305a64ccde7c3507410a028ef8b3aecbcc9fe890f762079d6bc53c3503a5489c7f000000000000000000000000000000000000000000000000000000000000000088887fd966519fe3fe853ea9b03acd8a0422a17006c68dbe1d8fa2b9127b9e8e22eac460008881526020919091526040812080549161170683612314565b90915550604080516020810196909652850193909352606084019190915273ffffffffffffffffffffffffffffffffffffffff16608083015260a082015260c00160405160208183030381529060405280519060200120611ca3565b90506000611771828686611dbb565b905060006117808260086107a5565b9050806117b9576040517facd13cc100000000000000000000000000000000000000000000000000000000815260040160405180910390fd5b5050505050505050565b6040517c0400000000000000000000000000000000000000000000000000000000602082015260248101839052606082811b7fffffffffffffffffffffffffffffffffffffffff000000000000000000000000166044830152906058015b604051602081830303815290604052905092915050565b7fd966519fe3fe853ea9b03acd8a0422a17006c68dbe1d8fa2b9127b9e8e22eac58054600003611866575050565b60005b81548110156108205781818154811061188457611884612274565b6000918252602090912001546040517fc375ab1300000000000000000000000000000000000000000000000000000000815273ffffffffffffffffffffffffffffffffffffffff9091169063c375ab13906118e390869060040161234c565b600060405180830381600087803b1580156118fd57600080fd5b505af192505050801561190e575060015b50600101611869565b6040517c0200000000000000000000000000000000000000000000000000000000602082015260248101839052606082811b7fffffffffffffffffffffffffffffffffffffffff00000000000000000000000016604483015290605801611821565b6000807f000000000000000000000000000000000000000000000000000000000000000073ffffffffffffffffffffffffffffffffffffffff1663f6d8c98b611a0c7f3d16196f272c96153eabc4eb746e08ae541cf36535edb959ed80f5e5169b678760009081527f00000000000000000000000000000000000000000000000000000000000000006020526040902090565b6040517fffffffff0000000000000000000000000000000000000000000000000000000060e084901b168152600481019190915273ffffffffffffffffffffffffffffffffffffffff86166024820152604401602060405180830381865afa158015611a7c573d6000803e3d6000fd5b505050506040513d601f19601f82011682018060405250810190611aa0919061235f565b73ffffffffffffffffffffffffffffffffffffffff16141592915050565b6040517c0500000000000000000000000000000000000000000000000000000000602082015260248101839052606082811b7fffffffffffffffffffffffffffffffffffffffff00000000000000000000000016604483015290605801611821565b7f000000000000000000000000000000000000000000000000000000000000000073ffffffffffffffffffffffffffffffffffffffff1663fffefd4f611bb07f3d16196f272c96153eabc4eb746e08ae541cf36535edb959ed80f5e5169b678760009081527f00000000000000000000000000000000000000000000000000000000000000006020526040902090565b6040517fffffffff0000000000000000000000000000000000000000000000000000000060e084901b168152600481019190915273ffffffffffffffffffffffffffffffffffffffff808616602483015284166044820152606401600060405180830381600087803b158015611c2557600080fd5b505af1158015611c39573d6000803e3d6000fd5b505050505050565b6040517c0300000000000000000000000000000000000000000000000000000000602082015260248101839052606082811b7fffffffffffffffffffffffffffffffffffffffff00000000000000000000000016604483015290605801611821565b7f00000000000000000000000000000000000000000000000000000000000000007f000000000000000000000000000000000000000000000000000000000000000030147f0000000000000000000000000000000000000000000000000000000000000000461416611d965750604080517f8b73c3c69bb8fe3d512ecc4cf759cc79239f7b179b0ffacaa9a75d522b39400f81527f000000000000000000000000000000000000000000000000000000000000000060208201527f00000000000000000000000000000000000000000000000000000000000000009181019190915246606082015230608082015260a090205b67190100000000000060005280601a5281603a52604260182090506000603a52919050565b604051600084905260019060408303611e0e5760208481013560ff81901c601b0190915284356040527f7fffffffffffffffffffffffffffffffffffffffffffffffffffffffffffffff16606052611e31565b60418303611e2c57604084013560001a602052604084604037611e31565b600091505b6020604060806000855afa5060006060523d60601851915080604052509392505050565b73ffffffffffffffffffffffffffffffffffffffff811681146106d457600080fd5b600060208284031215611e8957600080fd5b8135611e9481611e55565b9392505050565b600060208284031215611ead57600080fd5b5035919050565b600080600060608486031215611ec957600080fd5b8335611ed481611e55565b92506020840135611ee481611e55565b91506040840135611ef481611e55565b809150509250925092565b60008060408385031215611f1257600080fd5b8235611f1d81611e55565b946020939093013593505050565b60008083601f840112611f3d57600080fd5b50813567ffffffffffffffff811115611f5557600080fd5b602083019150836020828501011115611f6d57600080fd5b9250929050565b600080600060408486031215611f8957600080fd5b83359250602084013567ffffffffffffffff811115611fa757600080fd5b611fb386828701611f2b565b9497909650939450505050565b60008060208385031215611fd357600080fd5b823567ffffffffffffffff80821115611feb57600080fd5b818501915085601f830112611fff57600080fd5b81358181111561200e57600080fd5b8660208260051b850101111561202357600080fd5b60209290920196919550909350505050565b6000806000806060858703121561204b57600080fd5b8435935060208501359250604085013567ffffffffffffffff81111561207057600080fd5b61207c87828801611f2b565b95989497509550505050565b60008060006040848603121561209d57600080fd5b83356120a881611e55565b9250602084013567ffffffffffffffff811115611fa757600080fd5b6000815180845260005b818110156120ea576020818501810151868301820152016120ce565b5060006020828601015260207fffffffffffffffffffffffffffffffffffffffffffffffffffffffffffffffe0601f83011685010191505092915050565b7fff00000000000000000000000000000000000000000000000000000000000000881681526000602060e0602084015261216560e084018a6120c4565b8381036040850152612177818a6120c4565b6060850189905273ffffffffffffffffffffffffffffffffffffffff8816608086015260a0850187905284810360c08601528551808252602080880193509091019060005b818110156121d8578351835292840192918401916001016121bc565b50909c9b505050505050505050505050565b6020808252825182820181905260009190848201906040850190845b8181101561223857835173ffffffffffffffffffffffffffffffffffffffff1683529284019291840191600101612206565b50909695505050505050565b6000806040838503121561225757600080fd5b82359150602083013561226981611e55565b809150509250929050565b7f4e487b7100000000000000000000000000000000000000000000000000000000600052603260045260246000fd5b7f4e487b7100000000000000000000000000000000000000000000000000000000600052601160045260246000fd5b818103818111156107be576107be6122a3565b7f4e487b7100000000000000000000000000000000000000000000000000000000600052603160045260246000fd5b60007fffffffffffffffffffffffffffffffffffffffffffffffffffffffffffffffff8203612345576123456122a3565b5060010190565b602081526000611e9460208301846120c4565b60006020828403121561237157600080fd5b8151611e9481611e5556fea164736f6c6343000817000af011955832cac97ab1a6534c6b94971325e3be6bfaac1ccae68e3f5c7adcee5f0000000000000000000000000a1d4292bc42d39e02b98a6af9d2e49f16dbed43"
        },
        {
          "transactionType": "CREATE",
          "address": "0xad46949f05c874321dc5f8db757712624d220961",
          "initCode": "0x603d3d8160223d3973c26529ba6ec155049fcdc3d49bf509e88bc7e0d460095155f3363d3d373d3d363d7f360894a13ba1a3210667c828492db98dca3e2076cc3735a920a3ca505d382bbc545af43d6000803e6038573d6000fd5b3d6000f3"
        }
      ],
      "isFixedGasLimit": false
    },
    {
      "hash": "0x173cb0615a3f50eeb2f7ec8e2f2c62425e7d914bc87485320e97849982db7d01",
      "transactionType": "CALL",
      "contractName": null,
      "contractAddress": "0x34a6b1eaafedf93a6b8658b7ea3035738929b159",
      "function": "deployInteractionContract(uint256)",
      "arguments": [
        "61412812549033025435811962204424170589965658763482764336017940556663446417829"
      ],
      "transaction": {
        "from": "0x7caf754c934710d7c73bc453654552beca38223f",
        "to": "0x34a6b1eaafedf93a6b8658b7ea3035738929b159",
        "gas": "0x2cf6c6",
        "value": "0x0",
        "input": "0x00316a3487c66b8c60fd984f739f68f1d83229601131914aaf269874c584e179b37db1a5",
        "nonce": "0x62",
        "chainId": "0x66eee"
      },
      "additionalContracts": [
        {
          "transactionType": "CREATE",
          "address": "0x60be625febc6785e0109e12b3399834c879c2c7e",
          "initCode": "0x61018060405230610120523480156200001757600080fd5b506040516200260f3803806200260f8339810160408190526200003a916200018d565b306080524660a05281816060806200009e604080518082018252601781527f4672616b2e436f6e74656e74496e746572616374696f6e00000000000000000060208083019190915282518084019093526005835264302e302e3160d81b9083015291565b815160209283012081519183019190912060c082905260e0819052604080517f8b73c3c69bb8fe3d512ecc4cf759cc79239f7b179b0ffacaa9a75d522b39400f8152938401929092529082015246606082015230608082015260a090206101005250506101408290526001600160a01b038116610160526200011f62000129565b50505050620001cc565b63409feecd1980546001811615620001495763f92ee8a96000526004601cfd5b8160c01c808260011c1462000188578060011b8355806020527fc7f505b2f371ae2175ee4913f4499e1f2633a7b5936321eed1cdaeb6115181d2602080a15b505050565b60008060408385031215620001a157600080fd5b825160208401519092506001600160a01b0381168114620001c157600080fd5b809150509250929050565b60805160a05160c05160e05161010051610120516101405161016051612389620002866000396000818161197e0152611b220152600081816104510152818161051401528181610d79015281816116a9015281816119e30152611b870152600081816108bc015261099a0152600081816115250152611ca50152600081816115df0152611d5f0152600081816115b90152611d390152600081816115690152611ce90152600081816115460152611cc601526123896000f3fe6080604052600436106101b75760003560e01c806354d1f13d116100ec578063b03c9d831161008a578063ed24911d11610064578063ed24911d1461053f578063f04e283e14610554578063f2fde38b14610567578063fee81cf41461057a57600080fd5b8063b03c9d8314610475578063cb93d99f146104cb578063df6e4179146104df57600080fd5b806384b0196e116100c657806384b0196e146103a45780638da5cb5b146103cc578063a6b0363314610420578063ac078ad81461044257600080fd5b806354d1f13d14610374578063715018a61461037c5780637bfa980e1461038457600080fd5b80632eb64fbc116101595780634c9903a7116101335780634c9903a7146102f55780634f1ef28614610315578063514e62fc1461032857806352d1902d1461035f57600080fd5b80632eb64fbc146102a257806340c6349b146102c25780634a4ee7b1146102e257600080fd5b80631c10893f116101955780631c10893f146102115780631cd64df41461022457806325692962146102595780632de948071461026157600080fd5b806311d6e1fb146101bc578063183a4f6e146101de578063184b9559146101f1575b600080fd5b3480156101c857600080fd5b506101dc6101d7366004611e77565b6105ad565b005b6101dc6101ec366004611e9b565b6106ca565b3480156101fd57600080fd5b506101dc61020c366004611eb4565b6106d7565b6101dc61021f366004611eff565b61078f565b34801561023057600080fd5b5061024461023f366004611eff565b6107a5565b60405190151581526020015b60405180910390f35b6101dc6107c4565b34801561026d57600080fd5b5061029461027c366004611e77565b638b78c6d8600c908152600091909152602090205490565b604051908152602001610250565b3480156102ae57600080fd5b506101dc6102bd366004611f74565b610814565b3480156102ce57600080fd5b506101dc6102dd366004611fc0565b610825565b6101dc6102f0366004611eff565b61089b565b34801561030157600080fd5b506101dc610310366004612035565b6108ad565b6101dc610323366004612088565b6108ba565b34801561033457600080fd5b50610244610343366004611eff565b638b78c6d8600c90815260009290925260209091205416151590565b34801561036b57600080fd5b50610294610996565b6101dc6109f5565b6101dc610a31565b34801561039057600080fd5b506101dc61039f366004611f74565b610a45565b3480156103b057600080fd5b506103b9610a51565b6040516102509796959493929190612128565b3480156103d857600080fd5b507fffffffffffffffffffffffffffffffffffffffffffffffffffffffff748739275460405173ffffffffffffffffffffffffffffffffffffffff9091168152602001610250565b34801561042c57600080fd5b50610435610afa565b60405161025091906121ea565b34801561044e57600080fd5b507f0000000000000000000000000000000000000000000000000000000000000000610294565b34801561048157600080fd5b50610294610490366004612244565b60009182526020908152604080832083527fd966519fe3fe853ea9b03acd8a0422a17006c68dbe1d8fa2b9127b9e8e22eac490915290205490565b3480156104d757600080fd5b506002610294565b3480156104eb57600080fd5b507f3d16196f272c96153eabc4eb746e08ae541cf36535edb959ed80f5e5169b678760009081527f000000000000000000000000000000000000000000000000000000000000000060205260409020610294565b34801561054b57600080fd5b50610294610b8b565b6101dc610562366004611e77565b610b9a565b6101dc610575366004611e77565b610bd7565b34801561058657600080fd5b50610294610595366004611e77565b63389a75e1600c908152600091909152602090205490565b60046105b881610bfe565b7fd966519fe3fe853ea9b03acd8a0422a17006c68dbe1d8fa2b9127b9e8e22eac560005b815481101561066f578373ffffffffffffffffffffffffffffffffffffffff1682828154811061060e5761060e612274565b60009182526020909120015473ffffffffffffffffffffffffffffffffffffffff1603610667576040517f0ed89c9f00000000000000000000000000000000000000000000000000000000815260040160405180910390fd5b6001016105dc565b508054600181018255600091825260209091200180547fffffffffffffffffffffffff00000000000000000000000000000000000000001673ffffffffffffffffffffffffffffffffffffffff939093169290921790915550565b6106d43382610c24565b50565b7fffffffffffffffffffffffffffffffffffffffffffffffffffffffffbf60113280546003825580156107295760018160011c14303b106107205763f92ee8a96000526004601cfd5b818160ff1b1b91505b5061073383610c30565b61073e836002610c94565b610749846006610c94565b61075482600a610c94565b8015610789576002815560016020527fc7f505b2f371ae2175ee4913f4499e1f2633a7b5936321eed1cdaeb6115181d2602080a15b50505050565b610797610cd7565b6107a18282610d0d565b5050565b638b78c6d8600c90815260008390526020902054811681145b92915050565b60006202a30067ffffffffffffffff164201905063389a75e1600c5233600052806020600c2055337fdbf36a107da19e49527a7176a1babf963b4b0ff8cde35ee35d6cd8f1f9ac7e1d600080a250565b61082083338484610d19565b505050565b600461083081610bfe565b7fd966519fe3fe853ea9b03acd8a0422a17006c68dbe1d8fa2b9127b9e8e22eac560005b838110156108945761088c85858381811061087157610871612274565b90506020020160208101906108869190611e77565b83610f00565b600101610854565b5050505050565b6108a3610cd7565b6107a18282610c24565b610789848433858561123b565b7f00000000000000000000000000000000000000000000000000000000000000003081036108f057639f03a0266000526004601cfd5b6108f984611400565b8360601b60601c93506352d1902d6001527f360894a13ba1a3210667c828492db98dca3e2076cc3735a920a3ca505d382bbc80602060016004601d895afa511461094b576355299b496001526004601dfd5b847fbc7cd75a20ee27fd9adebab32041f755214dbc6bffa90cc0225b39da2e5c2d3b600038a2849055811561078957604051828482376000388483885af4610894573d6000823e3d81fd5b60007f00000000000000000000000000000000000000000000000000000000000000003081146109ce57639f03a0266000526004601cfd5b7f360894a13ba1a3210667c828492db98dca3e2076cc3735a920a3ca505d382bbc91505090565b63389a75e1600c523360005260006020600c2055337ffa7b8eab7da67f412cc9575ed43464468f9bfbae89d1675917346ca6d8fe3c92600080a2565b610a39610cd7565b610a43600061140b565b565b61082083338484611471565b7f0f000000000000000000000000000000000000000000000000000000000000006060806000808083610ae8604080518082018252601781527f4672616b2e436f6e74656e74496e746572616374696f6e0000000000000000006020808301919091528251808401909352600583527f302e302e310000000000000000000000000000000000000000000000000000009083015291565b97989097965046955030945091925090565b60607fd966519fe3fe853ea9b03acd8a0422a17006c68dbe1d8fa2b9127b9e8e22eac4600101805480602002602001604051908101604052809291908181526020018280548015610b8157602002820191906000526020600020905b815473ffffffffffffffffffffffffffffffffffffffff168152600190910190602001808311610b56575b5050505050905090565b6000610b95611523565b905090565b610ba2610cd7565b63389a75e1600c52806000526020600c208054421115610bca57636f5e88186000526004601cfd5b600090556106d48161140b565b610bdf610cd7565b8060601b610bf557637448fbae6000526004601cfd5b6106d48161140b565b638b78c6d8600c5233600052806020600c2054166106d4576382b429006000526004601cfd5b6107a18282600061161b565b73ffffffffffffffffffffffffffffffffffffffff167fffffffffffffffffffffffffffffffffffffffffffffffffffffffff748739278190558060007f8be0079c531659141344cd1fd0a4f28419497f9722a3daafe3b4186f6b6457e08180a350565b638b78c6d8600c5281600052806020600c205580600c5160601c7f715ad5ce61fc9595c7b415289d59cf203f23a94fa06f04af7e489a0a76e1fe26600080a35050565b7fffffffffffffffffffffffffffffffffffffffffffffffffffffffff74873927543314610a43576382b429006000526004601cfd5b6107a18282600161161b565b604080517faf75a9c1cea9f66971d8d341459fd474beb48c11cce7f5962860bec428704d986020820152908101859052600090606001604051602081830303815290604052805190602001209050610d7381858585611674565b604080517f00000000000000000000000000000000000000000000000000000000000000006020820152908101869052606085811b7fffffffffffffffffffffffffffffffffffffffff00000000000000000000000016908201526000906074016040516020818303038152906040528051906020012090506000610e157ff37141af23c6aeeb0bd5dacffe9b19ec3b801f111eab5899fcd9f42681bb538e90565b600083815260209190915260409020600181015490915073ffffffffffffffffffffffffffffffffffffffff1615610e4f57505050610789565b6040805173ffffffffffffffffffffffffffffffffffffffff881681526020810184905288917f6095e758ceafe4c99e3133d265b00fd2ef4e760631dddadc38c697eded3a0818910160405180910390a2610eb2610ead88886117c3565b611838565b868155600101805473ffffffffffffffffffffffffffffffffffffffff87167fffffffffffffffffffffffff0000000000000000000000000000000000000000909116179055505050505050565b80546000908290610f13906001906122d2565b81548110610f2357610f23612274565b60009182526020909120015473ffffffffffffffffffffffffffffffffffffffff90811691508316810361101e578073ffffffffffffffffffffffffffffffffffffffff1663036138fd6040518163ffffffff1660e01b8152600401600060405180830381600087803b158015610f9957600080fd5b505af1158015610fad573d6000803e3d6000fd5b5050505081805480610fc157610fc16122e5565b60008281526020902081017fffffffffffffffffffffffffffffffffffffffffffffffffffffffffffffffff90810180547fffffffffffffffffffffffff0000000000000000000000000000000000000000169055019055505050565b815460010361102c57505050565b60005b8254811015610789578373ffffffffffffffffffffffffffffffffffffffff1683828154811061106157611061612274565b60009182526020909120015473ffffffffffffffffffffffffffffffffffffffff16036112335782818154811061109a5761109a612274565b6000918252602082200154604080517f036138fd000000000000000000000000000000000000000000000000000000008152905173ffffffffffffffffffffffffffffffffffffffff9092169263036138fd9260048084019382900301818387803b15801561110857600080fd5b505af115801561111c573d6000803e3d6000fd5b5050845485925061113091506001906122d2565b8154811061114057611140612274565b9060005260206000200160009054906101000a900473ffffffffffffffffffffffffffffffffffffffff1683828154811061117d5761117d612274565b9060005260206000200160006101000a81548173ffffffffffffffffffffffffffffffffffffffff021916908373ffffffffffffffffffffffffffffffffffffffff160217905550828054806111d5576111d56122e5565b60008281526020902081017fffffffffffffffffffffffffffffffffffffffffffffffffffffffffffffffff90810180547fffffffffffffffffffffffff000000000000000000000000000000000000000016905501905550505050565b60010161102f565b604080517fc0a24ffb7afa254ad3052f8f1da6e4268b30580018115d9c10b63352b0004b2d60208201529081018690526060810185905260009060800160405160208183030381529060405280519060200120905061129c81858585611674565b60405173ffffffffffffffffffffffffffffffffffffffff8516815286907f244ff6a785e5fcb1d6e6fb78003849cbb2f3ea19e7637ca9198690de3f4aa8fe9060200160405180910390a26112f4610ead8786611917565b60008590036113035750610894565b60008581527ff37141af23c6aeeb0bd5dacffe9b19ec3b801f111eab5899fcd9f42681bb538e60205260409020600181015473ffffffffffffffffffffffffffffffffffffffff161580611358575080548714155b15611364575050610894565b61136d85611979565b15611379575050610894565b60405173ffffffffffffffffffffffffffffffffffffffff8616815286907ff157c7ca50907b3c2dbccfc7e3b72a30fc8cb309de83953656c93b2316a211509060200160405180910390a26113d1610ead8887611abe565b60018101546113f790869073ffffffffffffffffffffffffffffffffffffffff16611b20565b50505050505050565b60026107a181610bfe565b7fffffffffffffffffffffffffffffffffffffffffffffffffffffffff74873927805473ffffffffffffffffffffffffffffffffffffffff9092169182907f8be0079c531659141344cd1fd0a4f28419497f9722a3daafe3b4186f6b6457e0600080a355565b604080517fd5bd0fbe3510f2dde55a90e8bb325735d540cc475e1875f00abfd5a81015b07360208201529081018590526000906060016040516020818303038152906040528051906020012090506114cb81858585611674565b60405173ffffffffffffffffffffffffffffffffffffffff8516815285907fe70c7fdded917535aec670e2c568522571fde805589d9cb9b735ed6c6b45fcea9060200160405180910390a2610894610ead8686611c41565b7f00000000000000000000000000000000000000000000000000000000000000007f000000000000000000000000000000000000000000000000000000000000000030147f00000000000000000000000000000000000000000000000000000000000000004614166116185750604080517f8b73c3c69bb8fe3d512ecc4cf759cc79239f7b179b0ffacaa9a75d522b39400f81527f000000000000000000000000000000000000000000000000000000000000000060208201527f00000000000000000000000000000000000000000000000000000000000000009181019190915246606082015230608082015260a0902090565b90565b638b78c6d8600c52826000526020600c2080548381178361163d575080841681185b80835580600c5160601c7f715ad5ce61fc9595c7b415289d59cf203f23a94fa06f04af7e489a0a76e1fe26600080a3505050505050565b6000848152602084905260408120906117627f305a64ccde7c3507410a028ef8b3aecbcc9fe890f762079d6bc53c3503a5489c7f000000000000000000000000000000000000000000000000000000000000000088887fd966519fe3fe853ea9b03acd8a0422a17006c68dbe1d8fa2b9127b9e8e22eac460008881526020919091526040812080549161170683612314565b90915550604080516020810196909652850193909352606084019190915273ffffffffffffffffffffffffffffffffffffffff16608083015260a082015260c00160405160208183030381529060405280519060200120611ca3565b90506000611771828686611dbb565b905060006117808260086107a5565b9050806117b9576040517facd13cc100000000000000000000000000000000000000000000000000000000815260040160405180910390fd5b5050505050505050565b6040517c0400000000000000000000000000000000000000000000000000000000602082015260248101839052606082811b7fffffffffffffffffffffffffffffffffffffffff000000000000000000000000166044830152906058015b604051602081830303815290604052905092915050565b7fd966519fe3fe853ea9b03acd8a0422a17006c68dbe1d8fa2b9127b9e8e22eac58054600003611866575050565b60005b81548110156108205781818154811061188457611884612274565b6000918252602090912001546040517fc375ab1300000000000000000000000000000000000000000000000000000000815273ffffffffffffffffffffffffffffffffffffffff9091169063c375ab13906118e390869060040161234c565b600060405180830381600087803b1580156118fd57600080fd5b505af192505050801561190e575060015b50600101611869565b6040517c0200000000000000000000000000000000000000000000000000000000602082015260248101839052606082811b7fffffffffffffffffffffffffffffffffffffffff00000000000000000000000016604483015290605801611821565b6000807f000000000000000000000000000000000000000000000000000000000000000073ffffffffffffffffffffffffffffffffffffffff1663f6d8c98b611a0c7f3d16196f272c96153eabc4eb746e08ae541cf36535edb959ed80f5e5169b678760009081527f00000000000000000000000000000000000000000000000000000000000000006020526040902090565b6040517fffffffff0000000000000000000000000000000000000000000000000000000060e084901b168152600481019190915273ffffffffffffffffffffffffffffffffffffffff86166024820152604401602060405180830381865afa158015611a7c573d6000803e3d6000fd5b505050506040513d601f19601f82011682018060405250810190611aa0919061235f565b73ffffffffffffffffffffffffffffffffffffffff16141592915050565b6040517c0500000000000000000000000000000000000000000000000000000000602082015260248101839052606082811b7fffffffffffffffffffffffffffffffffffffffff00000000000000000000000016604483015290605801611821565b7f000000000000000000000000000000000000000000000000000000000000000073ffffffffffffffffffffffffffffffffffffffff1663fffefd4f611bb07f3d16196f272c96153eabc4eb746e08ae541cf36535edb959ed80f5e5169b678760009081527f00000000000000000000000000000000000000000000000000000000000000006020526040902090565b6040517fffffffff0000000000000000000000000000000000000000000000000000000060e084901b168152600481019190915273ffffffffffffffffffffffffffffffffffffffff808616602483015284166044820152606401600060405180830381600087803b158015611c2557600080fd5b505af1158015611c39573d6000803e3d6000fd5b505050505050565b6040517c0300000000000000000000000000000000000000000000000000000000602082015260248101839052606082811b7fffffffffffffffffffffffffffffffffffffffff00000000000000000000000016604483015290605801611821565b7f00000000000000000000000000000000000000000000000000000000000000007f000000000000000000000000000000000000000000000000000000000000000030147f0000000000000000000000000000000000000000000000000000000000000000461416611d965750604080517f8b73c3c69bb8fe3d512ecc4cf759cc79239f7b179b0ffacaa9a75d522b39400f81527f000000000000000000000000000000000000000000000000000000000000000060208201527f00000000000000000000000000000000000000000000000000000000000000009181019190915246606082015230608082015260a090205b67190100000000000060005280601a5281603a52604260182090506000603a52919050565b604051600084905260019060408303611e0e5760208481013560ff81901c601b0190915284356040527f7fffffffffffffffffffffffffffffffffffffffffffffffffffffffffffffff16606052611e31565b60418303611e2c57604084013560001a602052604084604037611e31565b600091505b6020604060806000855afa5060006060523d60601851915080604052509392505050565b73ffffffffffffffffffffffffffffffffffffffff811681146106d457600080fd5b600060208284031215611e8957600080fd5b8135611e9481611e55565b9392505050565b600060208284031215611ead57600080fd5b5035919050565b600080600060608486031215611ec957600080fd5b8335611ed481611e55565b92506020840135611ee481611e55565b91506040840135611ef481611e55565b809150509250925092565b60008060408385031215611f1257600080fd5b8235611f1d81611e55565b946020939093013593505050565b60008083601f840112611f3d57600080fd5b50813567ffffffffffffffff811115611f5557600080fd5b602083019150836020828501011115611f6d57600080fd5b9250929050565b600080600060408486031215611f8957600080fd5b83359250602084013567ffffffffffffffff811115611fa757600080fd5b611fb386828701611f2b565b9497909650939450505050565b60008060208385031215611fd357600080fd5b823567ffffffffffffffff80821115611feb57600080fd5b818501915085601f830112611fff57600080fd5b81358181111561200e57600080fd5b8660208260051b850101111561202357600080fd5b60209290920196919550909350505050565b6000806000806060858703121561204b57600080fd5b8435935060208501359250604085013567ffffffffffffffff81111561207057600080fd5b61207c87828801611f2b565b95989497509550505050565b60008060006040848603121561209d57600080fd5b83356120a881611e55565b9250602084013567ffffffffffffffff811115611fa757600080fd5b6000815180845260005b818110156120ea576020818501810151868301820152016120ce565b5060006020828601015260207fffffffffffffffffffffffffffffffffffffffffffffffffffffffffffffffe0601f83011685010191505092915050565b7fff00000000000000000000000000000000000000000000000000000000000000881681526000602060e0602084015261216560e084018a6120c4565b8381036040850152612177818a6120c4565b6060850189905273ffffffffffffffffffffffffffffffffffffffff8816608086015260a0850187905284810360c08601528551808252602080880193509091019060005b818110156121d8578351835292840192918401916001016121bc565b50909c9b505050505050505050505050565b6020808252825182820181905260009190848201906040850190845b8181101561223857835173ffffffffffffffffffffffffffffffffffffffff1683529284019291840191600101612206565b50909695505050505050565b6000806040838503121561225757600080fd5b82359150602083013561226981611e55565b809150509250929050565b7f4e487b7100000000000000000000000000000000000000000000000000000000600052603260045260246000fd5b7f4e487b7100000000000000000000000000000000000000000000000000000000600052601160045260246000fd5b818103818111156107be576107be6122a3565b7f4e487b7100000000000000000000000000000000000000000000000000000000600052603160045260246000fd5b60007fffffffffffffffffffffffffffffffffffffffffffffffffffffffffffffffff8203612345576123456122a3565b5060010190565b602081526000611e9460208301846120c4565b60006020828403121561237157600080fd5b8151611e9481611e5556fea164736f6c6343000817000a87c66b8c60fd984f739f68f1d83229601131914aaf269874c584e179b37db1a50000000000000000000000000a1d4292bc42d39e02b98a6af9d2e49f16dbed43"
        },
        {
          "transactionType": "CREATE",
          "address": "0x1a6b785a1a5cedd1325fd4e0751608a21e8da76b",
          "initCode": "0x603d3d8160223d397360be625febc6785e0109e12b3399834c879c2c7e60095155f3363d3d373d3d363d7f360894a13ba1a3210667c828492db98dca3e2076cc3735a920a3ca505d382bbc545af43d6000803e6038573d6000fd5b3d6000f3"
        }
      ],
      "isFixedGasLimit": false
    },
    {
      "hash": "0x68093ddfd456a2c81af78e61713135585d961ba6301942289fcadb38babc2fe8",
      "transactionType": "CALL",
      "contractName": null,
      "contractAddress": "0x34a6b1eaafedf93a6b8658b7ea3035738929b159",
      "function": "deployInteractionContract(uint256)",
      "arguments": [
        "20376791661718660580662410765070640284736320707848823176694931891585259913409"
      ],
      "transaction": {
        "from": "0x7caf754c934710d7c73bc453654552beca38223f",
        "to": "0x34a6b1eaafedf93a6b8658b7ea3035738929b159",
        "gas": "0x2cf6c6",
        "value": "0x0",
        "input": "0x00316a342d0cdaf9a1153a9a4b68379c64d4397611a0f3d9fa4015376435f9a64aafc0c1",
        "nonce": "0x63",
        "chainId": "0x66eee"
      },
      "additionalContracts": [
        {
          "transactionType": "CREATE",
          "address": "0x9295719d4cd2510dd35a7379d80f8b51d54a0e98",
          "initCode": "0x61018060405230610120523480156200001757600080fd5b506040516200260f3803806200260f8339810160408190526200003a916200018d565b306080524660a05281816060806200009e604080518082018252601781527f4672616b2e436f6e74656e74496e746572616374696f6e00000000000000000060208083019190915282518084019093526005835264302e302e3160d81b9083015291565b815160209283012081519183019190912060c082905260e0819052604080517f8b73c3c69bb8fe3d512ecc4cf759cc79239f7b179b0ffacaa9a75d522b39400f8152938401929092529082015246606082015230608082015260a090206101005250506101408290526001600160a01b038116610160526200011f62000129565b50505050620001cc565b63409feecd1980546001811615620001495763f92ee8a96000526004601cfd5b8160c01c808260011c1462000188578060011b8355806020527fc7f505b2f371ae2175ee4913f4499e1f2633a7b5936321eed1cdaeb6115181d2602080a15b505050565b60008060408385031215620001a157600080fd5b825160208401519092506001600160a01b0381168114620001c157600080fd5b809150509250929050565b60805160a05160c05160e05161010051610120516101405161016051612389620002866000396000818161197e0152611b220152600081816104510152818161051401528181610d79015281816116a9015281816119e30152611b870152600081816108bc015261099a0152600081816115250152611ca50152600081816115df0152611d5f0152600081816115b90152611d390152600081816115690152611ce90152600081816115460152611cc601526123896000f3fe6080604052600436106101b75760003560e01c806354d1f13d116100ec578063b03c9d831161008a578063ed24911d11610064578063ed24911d1461053f578063f04e283e14610554578063f2fde38b14610567578063fee81cf41461057a57600080fd5b8063b03c9d8314610475578063cb93d99f146104cb578063df6e4179146104df57600080fd5b806384b0196e116100c657806384b0196e146103a45780638da5cb5b146103cc578063a6b0363314610420578063ac078ad81461044257600080fd5b806354d1f13d14610374578063715018a61461037c5780637bfa980e1461038457600080fd5b80632eb64fbc116101595780634c9903a7116101335780634c9903a7146102f55780634f1ef28614610315578063514e62fc1461032857806352d1902d1461035f57600080fd5b80632eb64fbc146102a257806340c6349b146102c25780634a4ee7b1146102e257600080fd5b80631c10893f116101955780631c10893f146102115780631cd64df41461022457806325692962146102595780632de948071461026157600080fd5b806311d6e1fb146101bc578063183a4f6e146101de578063184b9559146101f1575b600080fd5b3480156101c857600080fd5b506101dc6101d7366004611e77565b6105ad565b005b6101dc6101ec366004611e9b565b6106ca565b3480156101fd57600080fd5b506101dc61020c366004611eb4565b6106d7565b6101dc61021f366004611eff565b61078f565b34801561023057600080fd5b5061024461023f366004611eff565b6107a5565b60405190151581526020015b60405180910390f35b6101dc6107c4565b34801561026d57600080fd5b5061029461027c366004611e77565b638b78c6d8600c908152600091909152602090205490565b604051908152602001610250565b3480156102ae57600080fd5b506101dc6102bd366004611f74565b610814565b3480156102ce57600080fd5b506101dc6102dd366004611fc0565b610825565b6101dc6102f0366004611eff565b61089b565b34801561030157600080fd5b506101dc610310366004612035565b6108ad565b6101dc610323366004612088565b6108ba565b34801561033457600080fd5b50610244610343366004611eff565b638b78c6d8600c90815260009290925260209091205416151590565b34801561036b57600080fd5b50610294610996565b6101dc6109f5565b6101dc610a31565b34801561039057600080fd5b506101dc61039f366004611f74565b610a45565b3480156103b057600080fd5b506103b9610a51565b6040516102509796959493929190612128565b3480156103d857600080fd5b507fffffffffffffffffffffffffffffffffffffffffffffffffffffffff748739275460405173ffffffffffffffffffffffffffffffffffffffff9091168152602001610250565b34801561042c57600080fd5b50610435610afa565b60405161025091906121ea565b34801561044e57600080fd5b507f0000000000000000000000000000000000000000000000000000000000000000610294565b34801561048157600080fd5b50610294610490366004612244565b60009182526020908152604080832083527fd966519fe3fe853ea9b03acd8a0422a17006c68dbe1d8fa2b9127b9e8e22eac490915290205490565b3480156104d757600080fd5b506002610294565b3480156104eb57600080fd5b507f3d16196f272c96153eabc4eb746e08ae541cf36535edb959ed80f5e5169b678760009081527f000000000000000000000000000000000000000000000000000000000000000060205260409020610294565b34801561054b57600080fd5b50610294610b8b565b6101dc610562366004611e77565b610b9a565b6101dc610575366004611e77565b610bd7565b34801561058657600080fd5b50610294610595366004611e77565b63389a75e1600c908152600091909152602090205490565b60046105b881610bfe565b7fd966519fe3fe853ea9b03acd8a0422a17006c68dbe1d8fa2b9127b9e8e22eac560005b815481101561066f578373ffffffffffffffffffffffffffffffffffffffff1682828154811061060e5761060e612274565b60009182526020909120015473ffffffffffffffffffffffffffffffffffffffff1603610667576040517f0ed89c9f00000000000000000000000000000000000000000000000000000000815260040160405180910390fd5b6001016105dc565b508054600181018255600091825260209091200180547fffffffffffffffffffffffff00000000000000000000000000000000000000001673ffffffffffffffffffffffffffffffffffffffff939093169290921790915550565b6106d43382610c24565b50565b7fffffffffffffffffffffffffffffffffffffffffffffffffffffffffbf60113280546003825580156107295760018160011c14303b106107205763f92ee8a96000526004601cfd5b818160ff1b1b91505b5061073383610c30565b61073e836002610c94565b610749846006610c94565b61075482600a610c94565b8015610789576002815560016020527fc7f505b2f371ae2175ee4913f4499e1f2633a7b5936321eed1cdaeb6115181d2602080a15b50505050565b610797610cd7565b6107a18282610d0d565b5050565b638b78c6d8600c90815260008390526020902054811681145b92915050565b60006202a30067ffffffffffffffff164201905063389a75e1600c5233600052806020600c2055337fdbf36a107da19e49527a7176a1babf963b4b0ff8cde35ee35d6cd8f1f9ac7e1d600080a250565b61082083338484610d19565b505050565b600461083081610bfe565b7fd966519fe3fe853ea9b03acd8a0422a17006c68dbe1d8fa2b9127b9e8e22eac560005b838110156108945761088c85858381811061087157610871612274565b90506020020160208101906108869190611e77565b83610f00565b600101610854565b5050505050565b6108a3610cd7565b6107a18282610c24565b610789848433858561123b565b7f00000000000000000000000000000000000000000000000000000000000000003081036108f057639f03a0266000526004601cfd5b6108f984611400565b8360601b60601c93506352d1902d6001527f360894a13ba1a3210667c828492db98dca3e2076cc3735a920a3ca505d382bbc80602060016004601d895afa511461094b576355299b496001526004601dfd5b847fbc7cd75a20ee27fd9adebab32041f755214dbc6bffa90cc0225b39da2e5c2d3b600038a2849055811561078957604051828482376000388483885af4610894573d6000823e3d81fd5b60007f00000000000000000000000000000000000000000000000000000000000000003081146109ce57639f03a0266000526004601cfd5b7f360894a13ba1a3210667c828492db98dca3e2076cc3735a920a3ca505d382bbc91505090565b63389a75e1600c523360005260006020600c2055337ffa7b8eab7da67f412cc9575ed43464468f9bfbae89d1675917346ca6d8fe3c92600080a2565b610a39610cd7565b610a43600061140b565b565b61082083338484611471565b7f0f000000000000000000000000000000000000000000000000000000000000006060806000808083610ae8604080518082018252601781527f4672616b2e436f6e74656e74496e746572616374696f6e0000000000000000006020808301919091528251808401909352600583527f302e302e310000000000000000000000000000000000000000000000000000009083015291565b97989097965046955030945091925090565b60607fd966519fe3fe853ea9b03acd8a0422a17006c68dbe1d8fa2b9127b9e8e22eac4600101805480602002602001604051908101604052809291908181526020018280548015610b8157602002820191906000526020600020905b815473ffffffffffffffffffffffffffffffffffffffff168152600190910190602001808311610b56575b5050505050905090565b6000610b95611523565b905090565b610ba2610cd7565b63389a75e1600c52806000526020600c208054421115610bca57636f5e88186000526004601cfd5b600090556106d48161140b565b610bdf610cd7565b8060601b610bf557637448fbae6000526004601cfd5b6106d48161140b565b638b78c6d8600c5233600052806020600c2054166106d4576382b429006000526004601cfd5b6107a18282600061161b565b73ffffffffffffffffffffffffffffffffffffffff167fffffffffffffffffffffffffffffffffffffffffffffffffffffffff748739278190558060007f8be0079c531659141344cd1fd0a4f28419497f9722a3daafe3b4186f6b6457e08180a350565b638b78c6d8600c5281600052806020600c205580600c5160601c7f715ad5ce61fc9595c7b415289d59cf203f23a94fa06f04af7e489a0a76e1fe26600080a35050565b7fffffffffffffffffffffffffffffffffffffffffffffffffffffffff74873927543314610a43576382b429006000526004601cfd5b6107a18282600161161b565b604080517faf75a9c1cea9f66971d8d341459fd474beb48c11cce7f5962860bec428704d986020820152908101859052600090606001604051602081830303815290604052805190602001209050610d7381858585611674565b604080517f00000000000000000000000000000000000000000000000000000000000000006020820152908101869052606085811b7fffffffffffffffffffffffffffffffffffffffff00000000000000000000000016908201526000906074016040516020818303038152906040528051906020012090506000610e157ff37141af23c6aeeb0bd5dacffe9b19ec3b801f111eab5899fcd9f42681bb538e90565b600083815260209190915260409020600181015490915073ffffffffffffffffffffffffffffffffffffffff1615610e4f57505050610789565b6040805173ffffffffffffffffffffffffffffffffffffffff881681526020810184905288917f6095e758ceafe4c99e3133d265b00fd2ef4e760631dddadc38c697eded3a0818910160405180910390a2610eb2610ead88886117c3565b611838565b868155600101805473ffffffffffffffffffffffffffffffffffffffff87167fffffffffffffffffffffffff0000000000000000000000000000000000000000909116179055505050505050565b80546000908290610f13906001906122d2565b81548110610f2357610f23612274565b60009182526020909120015473ffffffffffffffffffffffffffffffffffffffff90811691508316810361101e578073ffffffffffffffffffffffffffffffffffffffff1663036138fd6040518163ffffffff1660e01b8152600401600060405180830381600087803b158015610f9957600080fd5b505af1158015610fad573d6000803e3d6000fd5b5050505081805480610fc157610fc16122e5565b60008281526020902081017fffffffffffffffffffffffffffffffffffffffffffffffffffffffffffffffff90810180547fffffffffffffffffffffffff0000000000000000000000000000000000000000169055019055505050565b815460010361102c57505050565b60005b8254811015610789578373ffffffffffffffffffffffffffffffffffffffff1683828154811061106157611061612274565b60009182526020909120015473ffffffffffffffffffffffffffffffffffffffff16036112335782818154811061109a5761109a612274565b6000918252602082200154604080517f036138fd000000000000000000000000000000000000000000000000000000008152905173ffffffffffffffffffffffffffffffffffffffff9092169263036138fd9260048084019382900301818387803b15801561110857600080fd5b505af115801561111c573d6000803e3d6000fd5b5050845485925061113091506001906122d2565b8154811061114057611140612274565b9060005260206000200160009054906101000a900473ffffffffffffffffffffffffffffffffffffffff1683828154811061117d5761117d612274565b9060005260206000200160006101000a81548173ffffffffffffffffffffffffffffffffffffffff021916908373ffffffffffffffffffffffffffffffffffffffff160217905550828054806111d5576111d56122e5565b60008281526020902081017fffffffffffffffffffffffffffffffffffffffffffffffffffffffffffffffff90810180547fffffffffffffffffffffffff000000000000000000000000000000000000000016905501905550505050565b60010161102f565b604080517fc0a24ffb7afa254ad3052f8f1da6e4268b30580018115d9c10b63352b0004b2d60208201529081018690526060810185905260009060800160405160208183030381529060405280519060200120905061129c81858585611674565b60405173ffffffffffffffffffffffffffffffffffffffff8516815286907f244ff6a785e5fcb1d6e6fb78003849cbb2f3ea19e7637ca9198690de3f4aa8fe9060200160405180910390a26112f4610ead8786611917565b60008590036113035750610894565b60008581527ff37141af23c6aeeb0bd5dacffe9b19ec3b801f111eab5899fcd9f42681bb538e60205260409020600181015473ffffffffffffffffffffffffffffffffffffffff161580611358575080548714155b15611364575050610894565b61136d85611979565b15611379575050610894565b60405173ffffffffffffffffffffffffffffffffffffffff8616815286907ff157c7ca50907b3c2dbccfc7e3b72a30fc8cb309de83953656c93b2316a211509060200160405180910390a26113d1610ead8887611abe565b60018101546113f790869073ffffffffffffffffffffffffffffffffffffffff16611b20565b50505050505050565b60026107a181610bfe565b7fffffffffffffffffffffffffffffffffffffffffffffffffffffffff74873927805473ffffffffffffffffffffffffffffffffffffffff9092169182907f8be0079c531659141344cd1fd0a4f28419497f9722a3daafe3b4186f6b6457e0600080a355565b604080517fd5bd0fbe3510f2dde55a90e8bb325735d540cc475e1875f00abfd5a81015b07360208201529081018590526000906060016040516020818303038152906040528051906020012090506114cb81858585611674565b60405173ffffffffffffffffffffffffffffffffffffffff8516815285907fe70c7fdded917535aec670e2c568522571fde805589d9cb9b735ed6c6b45fcea9060200160405180910390a2610894610ead8686611c41565b7f00000000000000000000000000000000000000000000000000000000000000007f000000000000000000000000000000000000000000000000000000000000000030147f00000000000000000000000000000000000000000000000000000000000000004614166116185750604080517f8b73c3c69bb8fe3d512ecc4cf759cc79239f7b179b0ffacaa9a75d522b39400f81527f000000000000000000000000000000000000000000000000000000000000000060208201527f00000000000000000000000000000000000000000000000000000000000000009181019190915246606082015230608082015260a0902090565b90565b638b78c6d8600c52826000526020600c2080548381178361163d575080841681185b80835580600c5160601c7f715ad5ce61fc9595c7b415289d59cf203f23a94fa06f04af7e489a0a76e1fe26600080a3505050505050565b6000848152602084905260408120906117627f305a64ccde7c3507410a028ef8b3aecbcc9fe890f762079d6bc53c3503a5489c7f000000000000000000000000000000000000000000000000000000000000000088887fd966519fe3fe853ea9b03acd8a0422a17006c68dbe1d8fa2b9127b9e8e22eac460008881526020919091526040812080549161170683612314565b90915550604080516020810196909652850193909352606084019190915273ffffffffffffffffffffffffffffffffffffffff16608083015260a082015260c00160405160208183030381529060405280519060200120611ca3565b90506000611771828686611dbb565b905060006117808260086107a5565b9050806117b9576040517facd13cc100000000000000000000000000000000000000000000000000000000815260040160405180910390fd5b5050505050505050565b6040517c0400000000000000000000000000000000000000000000000000000000602082015260248101839052606082811b7fffffffffffffffffffffffffffffffffffffffff000000000000000000000000166044830152906058015b604051602081830303815290604052905092915050565b7fd966519fe3fe853ea9b03acd8a0422a17006c68dbe1d8fa2b9127b9e8e22eac58054600003611866575050565b60005b81548110156108205781818154811061188457611884612274565b6000918252602090912001546040517fc375ab1300000000000000000000000000000000000000000000000000000000815273ffffffffffffffffffffffffffffffffffffffff9091169063c375ab13906118e390869060040161234c565b600060405180830381600087803b1580156118fd57600080fd5b505af192505050801561190e575060015b50600101611869565b6040517c0200000000000000000000000000000000000000000000000000000000602082015260248101839052606082811b7fffffffffffffffffffffffffffffffffffffffff00000000000000000000000016604483015290605801611821565b6000807f000000000000000000000000000000000000000000000000000000000000000073ffffffffffffffffffffffffffffffffffffffff1663f6d8c98b611a0c7f3d16196f272c96153eabc4eb746e08ae541cf36535edb959ed80f5e5169b678760009081527f00000000000000000000000000000000000000000000000000000000000000006020526040902090565b6040517fffffffff0000000000000000000000000000000000000000000000000000000060e084901b168152600481019190915273ffffffffffffffffffffffffffffffffffffffff86166024820152604401602060405180830381865afa158015611a7c573d6000803e3d6000fd5b505050506040513d601f19601f82011682018060405250810190611aa0919061235f565b73ffffffffffffffffffffffffffffffffffffffff16141592915050565b6040517c0500000000000000000000000000000000000000000000000000000000602082015260248101839052606082811b7fffffffffffffffffffffffffffffffffffffffff00000000000000000000000016604483015290605801611821565b7f000000000000000000000000000000000000000000000000000000000000000073ffffffffffffffffffffffffffffffffffffffff1663fffefd4f611bb07f3d16196f272c96153eabc4eb746e08ae541cf36535edb959ed80f5e5169b678760009081527f00000000000000000000000000000000000000000000000000000000000000006020526040902090565b6040517fffffffff0000000000000000000000000000000000000000000000000000000060e084901b168152600481019190915273ffffffffffffffffffffffffffffffffffffffff808616602483015284166044820152606401600060405180830381600087803b158015611c2557600080fd5b505af1158015611c39573d6000803e3d6000fd5b505050505050565b6040517c0300000000000000000000000000000000000000000000000000000000602082015260248101839052606082811b7fffffffffffffffffffffffffffffffffffffffff00000000000000000000000016604483015290605801611821565b7f00000000000000000000000000000000000000000000000000000000000000007f000000000000000000000000000000000000000000000000000000000000000030147f0000000000000000000000000000000000000000000000000000000000000000461416611d965750604080517f8b73c3c69bb8fe3d512ecc4cf759cc79239f7b179b0ffacaa9a75d522b39400f81527f000000000000000000000000000000000000000000000000000000000000000060208201527f00000000000000000000000000000000000000000000000000000000000000009181019190915246606082015230608082015260a090205b67190100000000000060005280601a5281603a52604260182090506000603a52919050565b604051600084905260019060408303611e0e5760208481013560ff81901c601b0190915284356040527f7fffffffffffffffffffffffffffffffffffffffffffffffffffffffffffffff16606052611e31565b60418303611e2c57604084013560001a602052604084604037611e31565b600091505b6020604060806000855afa5060006060523d60601851915080604052509392505050565b73ffffffffffffffffffffffffffffffffffffffff811681146106d457600080fd5b600060208284031215611e8957600080fd5b8135611e9481611e55565b9392505050565b600060208284031215611ead57600080fd5b5035919050565b600080600060608486031215611ec957600080fd5b8335611ed481611e55565b92506020840135611ee481611e55565b91506040840135611ef481611e55565b809150509250925092565b60008060408385031215611f1257600080fd5b8235611f1d81611e55565b946020939093013593505050565b60008083601f840112611f3d57600080fd5b50813567ffffffffffffffff811115611f5557600080fd5b602083019150836020828501011115611f6d57600080fd5b9250929050565b600080600060408486031215611f8957600080fd5b83359250602084013567ffffffffffffffff811115611fa757600080fd5b611fb386828701611f2b565b9497909650939450505050565b60008060208385031215611fd357600080fd5b823567ffffffffffffffff80821115611feb57600080fd5b818501915085601f830112611fff57600080fd5b81358181111561200e57600080fd5b8660208260051b850101111561202357600080fd5b60209290920196919550909350505050565b6000806000806060858703121561204b57600080fd5b8435935060208501359250604085013567ffffffffffffffff81111561207057600080fd5b61207c87828801611f2b565b95989497509550505050565b60008060006040848603121561209d57600080fd5b83356120a881611e55565b9250602084013567ffffffffffffffff811115611fa757600080fd5b6000815180845260005b818110156120ea576020818501810151868301820152016120ce565b5060006020828601015260207fffffffffffffffffffffffffffffffffffffffffffffffffffffffffffffffe0601f83011685010191505092915050565b7fff00000000000000000000000000000000000000000000000000000000000000881681526000602060e0602084015261216560e084018a6120c4565b8381036040850152612177818a6120c4565b6060850189905273ffffffffffffffffffffffffffffffffffffffff8816608086015260a0850187905284810360c08601528551808252602080880193509091019060005b818110156121d8578351835292840192918401916001016121bc565b50909c9b505050505050505050505050565b6020808252825182820181905260009190848201906040850190845b8181101561223857835173ffffffffffffffffffffffffffffffffffffffff1683529284019291840191600101612206565b50909695505050505050565b6000806040838503121561225757600080fd5b82359150602083013561226981611e55565b809150509250929050565b7f4e487b7100000000000000000000000000000000000000000000000000000000600052603260045260246000fd5b7f4e487b7100000000000000000000000000000000000000000000000000000000600052601160045260246000fd5b818103818111156107be576107be6122a3565b7f4e487b7100000000000000000000000000000000000000000000000000000000600052603160045260246000fd5b60007fffffffffffffffffffffffffffffffffffffffffffffffffffffffffffffffff8203612345576123456122a3565b5060010190565b602081526000611e9460208301846120c4565b60006020828403121561237157600080fd5b8151611e9481611e5556fea164736f6c6343000817000a2d0cdaf9a1153a9a4b68379c64d4397611a0f3d9fa4015376435f9a64aafc0c10000000000000000000000000a1d4292bc42d39e02b98a6af9d2e49f16dbed43"
        },
        {
          "transactionType": "CREATE",
          "address": "0xc5ba549ae1b1918dbebf426066f189ca64163591",
          "initCode": "0x603d3d8160223d39739295719d4cd2510dd35a7379d80f8b51d54a0e9860095155f3363d3d373d3d363d7f360894a13ba1a3210667c828492db98dca3e2076cc3735a920a3ca505d382bbc545af43d6000803e6038573d6000fd5b3d6000f3"
        }
      ],
      "isFixedGasLimit": false
    }
  ],
  "receipts": [
    {
      "status": "0x1",
      "cumulativeGasUsed": "0x222c6",
      "logs": [
        {
          "address": "0x5be7ae9f47dfe007ceca06b299e7cdacd0a5c40e",
          "topics": [
            "0xddf252ad1be2c89b69c2b068fc378daa952ba7f163c4a11628f55a4df523b3ef",
            "0x0000000000000000000000000000000000000000000000000000000000000000",
            "0x0000000000000000000000007caf754c934710d7c73bc453654552beca38223f",
            "0xead61c7340b7cacd78684d4795a617aae5e85cc4b89da34fb05ad55bb6bab653"
          ],
          "data": "0x",
          "blockHash": "0xabb8f26879348d89fba162bd26b0cf3e0184fd5d023dfd7f782a25e8a03c5fac",
          "blockNumber": "0x30e7f4f",
          "transactionHash": "0xf54402f902c39098f41d8496dba82ae619b5688a1166b6bd57c800844fff5052",
          "transactionIndex": "0x1",
          "logIndex": "0x0",
          "removed": false
        }
      ],
      "logsBloom": "0x00000000000000000000000000000010000200000000000000000000000000000000000000000000000000000000000000000000000000000000000000000000000000000000000000000008000000000000000000000000000000000000000000000000020000000000000000000802000000000000000000000010000000100000000000000000000000000000000000000000000000000000000000000000000000000000000000000000000000000000000000008000000000020000000000000002000000000000200000000000000000000000008000000000000020000000000400000000000000000000000000000000000000000000000000000000",
      "type": "0x2",
      "transactionHash": "0xf54402f902c39098f41d8496dba82ae619b5688a1166b6bd57c800844fff5052",
      "transactionIndex": "0x1",
      "blockHash": "0xabb8f26879348d89fba162bd26b0cf3e0184fd5d023dfd7f782a25e8a03c5fac",
      "blockNumber": "0x30e7f4f",
      "gasUsed": "0x222c6",
      "effectiveGasPrice": "0x5f5e100",
      "from": "0x7caf754c934710d7c73bc453654552beca38223f",
      "to": "0x5be7ae9f47dfe007ceca06b299e7cdacd0a5c40e",
      "contractAddress": null,
      "gasUsedForL1": "0x0",
      "l1BlockNumber": "0x5c2a98"
    },
    {
      "status": "0x1",
      "cumulativeGasUsed": "0x18f00b",
      "logs": [
        {
          "address": "0x5be7ae9f47dfe007ceca06b299e7cdacd0a5c40e",
          "topics": [
            "0xddf252ad1be2c89b69c2b068fc378daa952ba7f163c4a11628f55a4df523b3ef",
            "0x0000000000000000000000000000000000000000000000000000000000000000",
            "0x0000000000000000000000007caf754c934710d7c73bc453654552beca38223f",
            "0xf011955832cac97ab1a6534c6b94971325e3be6bfaac1ccae68e3f5c7adcee5f"
          ],
          "data": "0x",
          "blockHash": "0x11b3d6c2eaf864240909e5d8a0da3cb7ac6f13e6792bea8c1e63b52c99885376",
          "blockNumber": "0x30e7f52",
          "transactionHash": "0x72e763dd94934327043a5c0bfae2604d0eddbe3e244a79409c1e0ae56be9c2ec",
          "transactionIndex": "0x2",
          "logIndex": "0x5",
          "removed": false
        }
      ],
      "logsBloom": "0x00000000000000000000000000000010000200000000000000000000000000000000000000000000000000000000000000000000000000000000000000000000000000000000000000000008000000000000000000000000000000000000000000000000020000000000000000000802000000000000000000000010000000100800000000000000000000000000000000000000000000000000000000000000000000000000000000000000000000000000000000008000000000400000000000000002000800000000000000000000000000000000008000000000000020000000000000000000000000000000000000000000000000000000000000000000",
      "type": "0x2",
      "transactionHash": "0x72e763dd94934327043a5c0bfae2604d0eddbe3e244a79409c1e0ae56be9c2ec",
      "transactionIndex": "0x2",
      "blockHash": "0x11b3d6c2eaf864240909e5d8a0da3cb7ac6f13e6792bea8c1e63b52c99885376",
      "blockNumber": "0x30e7f52",
      "gasUsed": "0x1dfee",
      "effectiveGasPrice": "0x5f5e100",
      "from": "0x7caf754c934710d7c73bc453654552beca38223f",
      "to": "0x5be7ae9f47dfe007ceca06b299e7cdacd0a5c40e",
      "contractAddress": null,
      "gasUsedForL1": "0x0",
      "l1BlockNumber": "0x5c2a98"
    },
    {
      "status": "0x1",
      "cumulativeGasUsed": "0x9f91d",
      "logs": [
        {
          "address": "0x5be7ae9f47dfe007ceca06b299e7cdacd0a5c40e",
          "topics": [
            "0xddf252ad1be2c89b69c2b068fc378daa952ba7f163c4a11628f55a4df523b3ef",
            "0x0000000000000000000000000000000000000000000000000000000000000000",
            "0x0000000000000000000000007caf754c934710d7c73bc453654552beca38223f",
            "0x87c66b8c60fd984f739f68f1d83229601131914aaf269874c584e179b37db1a5"
          ],
          "data": "0x",
          "blockHash": "0xd8b11b1d45b3d5cff724c4e7c511e6cc91f7056f3c6b38808d0218706391c2d0",
          "blockNumber": "0x30e7f55",
          "transactionHash": "0xe1b5a6261f03ec9b9aea66b17cbbe2dc94d03dac3a2ad18b2d88368a956db600",
          "transactionIndex": "0x3",
          "logIndex": "0x9",
          "removed": false
        }
      ],
      "logsBloom": "0x00000000000000000000000000000010000200000000000000000000000000000000000100000000000000000000000000000000000000000000000000000000000000000000000000000008000000000000000000000000000000000000000000000000020000000000000000000802000000000000000000000010000000100000000000000000000000000000000000000000000000004000000000000000000000000000000000000000000000000000000000008008000000000000000000000002000000000000000000000000000000000000008000000000000020000000000000000000000000000000000000000000000000000000000000000000",
      "type": "0x2",
      "transactionHash": "0xe1b5a6261f03ec9b9aea66b17cbbe2dc94d03dac3a2ad18b2d88368a956db600",
      "transactionIndex": "0x3",
      "blockHash": "0xd8b11b1d45b3d5cff724c4e7c511e6cc91f7056f3c6b38808d0218706391c2d0",
      "blockNumber": "0x30e7f55",
      "gasUsed": "0x1dfb2",
      "effectiveGasPrice": "0x5f5e100",
      "from": "0x7caf754c934710d7c73bc453654552beca38223f",
      "to": "0x5be7ae9f47dfe007ceca06b299e7cdacd0a5c40e",
      "contractAddress": null,
      "gasUsedForL1": "0x0",
      "l1BlockNumber": "0x5c2a98"
    },
    {
      "status": "0x1",
      "cumulativeGasUsed": "0x1df16",
      "logs": [
        {
          "address": "0x5be7ae9f47dfe007ceca06b299e7cdacd0a5c40e",
          "topics": [
            "0xddf252ad1be2c89b69c2b068fc378daa952ba7f163c4a11628f55a4df523b3ef",
            "0x0000000000000000000000000000000000000000000000000000000000000000",
            "0x0000000000000000000000007caf754c934710d7c73bc453654552beca38223f",
            "0x2d0cdaf9a1153a9a4b68379c64d4397611a0f3d9fa4015376435f9a64aafc0c1"
          ],
          "data": "0x",
          "blockHash": "0x7b501099c1a5a65d802628645e84103cb17f570db133953310b3039d5999cf9e",
          "blockNumber": "0x30e7f58",
          "transactionHash": "0xabf58c60ed85deff89d7f7fcaf7c68068579f74879276e0c4261f12727fdc338",
          "transactionIndex": "0x1",
          "logIndex": "0x0",
          "removed": false
        }
      ],
      "logsBloom": "0x00000000000000000000100000000010000200000000000000000010000000000000000000000000000000000000000000000000000000000000000000000000000000000000000000000008000000000000000020000000000000000000000000000000020000000000000000000802000000000000000000000010000000100000000000000000000000000000000000000000000000000000000000000000000000000000000000000000000000000000000000008000000000000000000000000002000000000000000000000000000000000000008000000000000020000000000000000000000000000000000000000000000000000000000000000000",
      "type": "0x2",
      "transactionHash": "0xabf58c60ed85deff89d7f7fcaf7c68068579f74879276e0c4261f12727fdc338",
      "transactionIndex": "0x1",
      "blockHash": "0x7b501099c1a5a65d802628645e84103cb17f570db133953310b3039d5999cf9e",
      "blockNumber": "0x30e7f58",
      "gasUsed": "0x1df16",
      "effectiveGasPrice": "0x5f5e100",
      "from": "0x7caf754c934710d7c73bc453654552beca38223f",
      "to": "0x5be7ae9f47dfe007ceca06b299e7cdacd0a5c40e",
      "contractAddress": null,
      "gasUsedForL1": "0x0",
      "l1BlockNumber": "0x5c2a98"
    },
    {
      "status": "0x1",
      "cumulativeGasUsed": "0x1ff03",
      "logs": [],
      "logsBloom": "0x00000000000000000000000000000000000000000000000000000000000000000000000000000000000000000000000000000000000000000000000000000000000000000000000000000000000000000000000000000000000000000000000000000000000000000000000000000000000000000000000000000000000000000000000000000000000000000000000000000000000000000000000000000000000000000000000000000000000000000000000000000000000000000000000000000000000000000000000000000000000000000000000000000000000000000000000000000000000000000000000000000000000000000000000000000000",
      "type": "0x2",
      "transactionHash": "0x571b0ffa70715daaca9bf0dd5540d5c6912631b7c50192dc76bb9bf35206aab5",
      "transactionIndex": "0x2",
      "blockHash": "0x5b30e2c7fce758f6870d09a57b64e4d1fecb742b74b6c9741bb4cfe75a236ecd",
      "blockNumber": "0x30e7f5c",
      "gasUsed": "0x17ace",
      "effectiveGasPrice": "0x5f5e100",
      "from": "0x7caf754c934710d7c73bc453654552beca38223f",
      "to": "0x6a958dfcc9f00d00de8bf756d3d8a567368fddd5",
      "contractAddress": null,
      "gasUsedForL1": "0x0",
      "l1BlockNumber": "0x5c2a98"
    },
    {
      "status": "0x1",
      "cumulativeGasUsed": "0x96b92",
      "logs": [],
      "logsBloom": "0x00000000000000000000000000000000000000000000000000000000000000000000000000000000000000000000000000000000000000000000000000000000000000000000000000000000000000000000000000000000000000000000000000000000000000000000000000000000000000000000000000000000000000000000000000000000000000000000000000000000000000000000000000000000000000000000000000000000000000000000000000000000000000000000000000000000000000000000000000000000000000000000000000000000000000000000000000000000000000000000000000000000000000000000000000000000",
      "type": "0x2",
      "transactionHash": "0x16401f798d59ecd02dec6f7acbdb34b15e3ee3e8902a39052ba9a08df0402e17",
      "transactionIndex": "0x3",
      "blockHash": "0xd56f8f2d774d6e798184decd0afe7bd980a15bef96a302f4f3dcfa569cedbe33",
      "blockNumber": "0x30e7f5f",
      "gasUsed": "0x13802",
      "effectiveGasPrice": "0x5f5e100",
      "from": "0x7caf754c934710d7c73bc453654552beca38223f",
      "to": "0x6a958dfcc9f00d00de8bf756d3d8a567368fddd5",
      "contractAddress": null,
      "gasUsedForL1": "0x0",
      "l1BlockNumber": "0x5c2a98"
    },
    {
      "status": "0x1",
      "cumulativeGasUsed": "0x31faa",
      "logs": [],
      "logsBloom": "0x00000000000000000000000000000000000000000000000000000000000000000000000000000000000000000000000000000000000000000000000000000000000000000000000000000000000000000000000000000000000000000000000000000000000000000000000000000000000000000000000000000000000000000000000000000000000000000000000000000000000000000000000000000000000000000000000000000000000000000000000000000000000000000000000000000000000000000000000000000000000000000000000000000000000000000000000000000000000000000000000000000000000000000000000000000000",
      "type": "0x2",
      "transactionHash": "0x187c5c39e4aafe88f7d14ded711c19384597585f5649a03669ac18f251488549",
      "transactionIndex": "0x2",
      "blockHash": "0xb2f39191e780b3e1f5748111ec3dccd573db4b977b27953c115e8742975ddf4f",
      "blockNumber": "0x30e7f62",
      "gasUsed": "0x137f6",
      "effectiveGasPrice": "0x5f5e100",
      "from": "0x7caf754c934710d7c73bc453654552beca38223f",
      "to": "0x6a958dfcc9f00d00de8bf756d3d8a567368fddd5",
      "contractAddress": null,
      "gasUsedForL1": "0x0",
      "l1BlockNumber": "0x5c2a98"
    },
    {
      "status": "0x1",
      "cumulativeGasUsed": "0x312130",
      "logs": [],
      "logsBloom": "0x00000000000000000000000000000000000000000000000000000000000000000000000000000000000000000000000000000000000000000000000000000000000000000000000000000000000000000000000000000000000000000000000000000000000000000000000000000000000000000000000000000000000000000000000000000000000000000000000000000000000000000000000000000000000000000000000000000000000000000000000000000000000000000000000000000000000000000000000000000000000000000000000000000000000000000000000000000000000000000000000000000000000000000000000000000000",
      "type": "0x2",
      "transactionHash": "0x0e9b0b041f3bd9de3a404388a5adade25a425f8d9bb300c4180e69f59d1aea1e",
      "transactionIndex": "0x6",
      "blockHash": "0x73a2e0cfa80c9791d5347535164ab8583f30a15dd66b67a614513cff52f7f97e",
      "blockNumber": "0x30e7f65",
      "gasUsed": "0x17ace",
      "effectiveGasPrice": "0x5f5e100",
      "from": "0x7caf754c934710d7c73bc453654552beca38223f",
      "to": "0x6a958dfcc9f00d00de8bf756d3d8a567368fddd5",
      "contractAddress": null,
      "gasUsedForL1": "0x0",
      "l1BlockNumber": "0x5c2a98"
    },
    {
      "status": "0x1",
      "cumulativeGasUsed": "0x1a33fe",
      "logs": [],
      "logsBloom": "0x00000000000000000000000000000000000000000000000000000000000000000000000000000000000000000000000000000000000000000000000000000000000000000000000000000000000000000000000000000000000000000000000000000000000000000000000000000000000000000000000000000000000000000000000000000000000000000000000000000000000000000000000000000000000000000000000000000000000000000000000000000000000000000000000000000000000000000000000000000000000000000000000000000000000000000000000000000000000000000000000000000000000000000000000000000000",
      "type": "0x2",
      "transactionHash": "0x349c16750d548c9bbff01c323e5031e98ad67b9b18a1ca042b6d83f76f291756",
      "transactionIndex": "0x4",
      "blockHash": "0x75ab67ff76d8a4d3bcaf3186d87a6c15903dce50eef390d83bebee42a5963156",
      "blockNumber": "0x30e7f68",
      "gasUsed": "0x13802",
      "effectiveGasPrice": "0x5f5e100",
      "from": "0x7caf754c934710d7c73bc453654552beca38223f",
      "to": "0x6a958dfcc9f00d00de8bf756d3d8a567368fddd5",
      "contractAddress": null,
      "gasUsedForL1": "0x0",
      "l1BlockNumber": "0x5c2a98"
    },
    {
      "status": "0x1",
      "cumulativeGasUsed": "0x8f090",
      "logs": [],
      "logsBloom": "0x00000000000000000000000000000000000000000000000000000000000000000000000000000000000000000000000000000000000000000000000000000000000000000000000000000000000000000000000000000000000000000000000000000000000000000000000000000000000000000000000000000000000000000000000000000000000000000000000000000000000000000000000000000000000000000000000000000000000000000000000000000000000000000000000000000000000000000000000000000000000000000000000000000000000000000000000000000000000000000000000000000000000000000000000000000000",
      "type": "0x2",
      "transactionHash": "0x9e33fd3198be4af0db63d830800cb54e2a3b74352a641020a1d665bb6d405ac8",
      "transactionIndex": "0x4",
      "blockHash": "0xb21ee4524198becd985f78d8ff26327a1fcdd07fc027977c3b4d3febaa061de0",
      "blockNumber": "0x30e7f6b",
      "gasUsed": "0x137f6",
      "effectiveGasPrice": "0x5f5e100",
      "from": "0x7caf754c934710d7c73bc453654552beca38223f",
      "to": "0x6a958dfcc9f00d00de8bf756d3d8a567368fddd5",
      "contractAddress": null,
      "gasUsedForL1": "0x0",
      "l1BlockNumber": "0x5c2a98"
    },
    {
      "status": "0x1",
      "cumulativeGasUsed": "0x2a0b52",
      "logs": [],
      "logsBloom": "0x00000000000000000000000000000000000000000000000000000000000000000000000000000000000000000000000000000000000000000000000000000000000000000000000000000000000000000000000000000000000000000000000000000000000000000000000000000000000000000000000000000000000000000000000000000000000000000000000000000000000000000000000000000000000000000000000000000000000000000000000000000000000000000000000000000000000000000000000000000000000000000000000000000000000000000000000000000000000000000000000000000000000000000000000000000000",
      "type": "0x2",
      "transactionHash": "0x0a5aeb6aebc22d6802aea3e5acbe8113108e5952bdf89e3612814e30b99ba1ef",
      "transactionIndex": "0x4",
      "blockHash": "0xbe88049a23ebdc6495f85081dd9c31edfc25a51c2adce3c279507f643ed87741",
      "blockNumber": "0x30e7f70",
      "gasUsed": "0x17ace",
      "effectiveGasPrice": "0x5f5e100",
      "from": "0x7caf754c934710d7c73bc453654552beca38223f",
      "to": "0x6a958dfcc9f00d00de8bf756d3d8a567368fddd5",
      "contractAddress": null,
      "gasUsedForL1": "0x0",
      "l1BlockNumber": "0x5c2a98"
    },
    {
      "status": "0x1",
      "cumulativeGasUsed": "0x1cc88",
      "logs": [],
      "logsBloom": "0x00000000000000000000000000000000000000000000000000000000000000000000000000000000000000000000000000000000000000000000000000000000000000000000000000000000000000000000000000000000000000000000000000000000000000000000000000000000000000000000000000000000000000000000000000000000000000000000000000000000000000000000000000000000000000000000000000000000000000000000000000000000000000000000000000000000000000000000000000000000000000000000000000000000000000000000000000000000000000000000000000000000000000000000000000000000",
      "type": "0x2",
      "transactionHash": "0x2becfee1910439d647d9c37506286bf5458b481f0a4f6ab88c9e067bb60fbbae",
      "transactionIndex": "0x2",
      "blockHash": "0x717f62118e32756f9ad0cb38ee872f447fe7ce9ce5e9274c1b15926c4aab4e45",
      "blockNumber": "0x30e7f73",
      "gasUsed": "0x13802",
      "effectiveGasPrice": "0x5f5e100",
      "from": "0x7caf754c934710d7c73bc453654552beca38223f",
      "to": "0x6a958dfcc9f00d00de8bf756d3d8a567368fddd5",
      "contractAddress": null,
      "gasUsedForL1": "0x0",
      "l1BlockNumber": "0x5c2a98"
    },
    {
      "status": "0x1",
      "cumulativeGasUsed": "0x3a8fa",
      "logs": [],
      "logsBloom": "0x00000000000000000000000000000000000000000000000000000000000000000000000000000000000000000000000000000000000000000000000000000000000000000000000000000000000000000000000000000000000000000000000000000000000000000000000000000000000000000000000000000000000000000000000000000000000000000000000000000000000000000000000000000000000000000000000000000000000000000000000000000000000000000000000000000000000000000000000000000000000000000000000000000000000000000000000000000000000000000000000000000000000000000000000000000000",
      "type": "0x2",
      "transactionHash": "0x1a45ce0cf2cd78156489880f550bcf9eece8c25774331b1b0bf8a2a6dbf573e9",
      "transactionIndex": "0x3",
      "blockHash": "0xc9aba251c8ad47dbd29c123f8e9e207c61a957a86276cc2efe351cb7bc128546",
      "blockNumber": "0x30e7f77",
      "gasUsed": "0x137f6",
      "effectiveGasPrice": "0x5f5e100",
      "from": "0x7caf754c934710d7c73bc453654552beca38223f",
      "to": "0x6a958dfcc9f00d00de8bf756d3d8a567368fddd5",
      "contractAddress": null,
      "gasUsedForL1": "0x0",
      "l1BlockNumber": "0x5c2a98"
    },
    {
      "status": "0x1",
      "cumulativeGasUsed": "0xb5f09",
      "logs": [],
      "logsBloom": "0x00000000000000000000000000000000000000000000000000000000000000000000000000000000000000000000000000000000000000000000000000000000000000000000000000000000000000000000000000000000000000000000000000000000000000000000000000000000000000000000000000000000000000000000000000000000000000000000000000000000000000000000000000000000000000000000000000000000000000000000000000000000000000000000000000000000000000000000000000000000000000000000000000000000000000000000000000000000000000000000000000000000000000000000000000000000",
      "type": "0x2",
      "transactionHash": "0x46bc95d63157951b6d469a9acb0ee64a504f945f4c47cb7f1bf1d4fc77c912d8",
      "transactionIndex": "0x4",
      "blockHash": "0xcc6b513ccb1bd6cffd4473ac45623571566384237b755835f09f01a0cfe39ad9",
      "blockNumber": "0x30e7f7a",
      "gasUsed": "0x17ace",
      "effectiveGasPrice": "0x5f5e100",
      "from": "0x7caf754c934710d7c73bc453654552beca38223f",
      "to": "0x6a958dfcc9f00d00de8bf756d3d8a567368fddd5",
      "contractAddress": null,
      "gasUsedForL1": "0x0",
      "l1BlockNumber": "0x5c2a98"
    },
    {
      "status": "0x1",
      "cumulativeGasUsed": "0x9e720",
      "logs": [],
      "logsBloom": "0x00000000000000000000000000000000000000000000000000000000000000000000000000000000000000000000000000000000000000000000000000000000000000000000000000000000000000000000000000000000000000000000000000000000000000000000000000000000000000000000000000000000000000000000000000000000000000000000000000000000000000000000000000000000000000000000000000000000000000000000000000000000000000000000000000000000000000000000000000000000000000000000000000000000000000000000000000000000000000000000000000000000000000000000000000000000",
      "type": "0x2",
      "transactionHash": "0xec7500d8878affa63d0efeeb705f035fde263e0860ebeae6e15bc4424086edd1",
      "transactionIndex": "0x4",
      "blockHash": "0x84f54d9acb150e15bff81bb1af0856aad7ee1fe7719c4033a230eb25c32e4fc7",
      "blockNumber": "0x30e7f7d",
      "gasUsed": "0x13802",
      "effectiveGasPrice": "0x5f5e100",
      "from": "0x7caf754c934710d7c73bc453654552beca38223f",
      "to": "0x6a958dfcc9f00d00de8bf756d3d8a567368fddd5",
      "contractAddress": null,
      "gasUsedForL1": "0x0",
      "l1BlockNumber": "0x5c2a98"
    },
    {
      "status": "0x1",
      "cumulativeGasUsed": "0x308da7",
      "logs": [],
      "logsBloom": "0x00000000000000000000000000000000000000000000000000000000000000000000000000000000000000000000000000000000000000000000000000000000000000000000000000000000000000000000000000000000000000000000000000000000000000000000000000000000000000000000000000000000000000000000000000000000000000000000000000000000000000000000000000000000000000000000000000000000000000000000000000000000000000000000000000000000000000000000000000000000000000000000000000000000000000000000000000000000000000000000000000000000000000000000000000000000",
      "type": "0x2",
      "transactionHash": "0x34ca56a66b5d15c7c907535848c7e9f474ccdece8edf26034f0a2926ba40d708",
      "transactionIndex": "0x8",
      "blockHash": "0xe4f01fd0d43c5f4d879594bfbe4aad08170c663f4ed531a463dd5ce347f7d8ca",
      "blockNumber": "0x30e7f83",
      "gasUsed": "0x137f6",
      "effectiveGasPrice": "0x5f5e100",
      "from": "0x7caf754c934710d7c73bc453654552beca38223f",
      "to": "0x6a958dfcc9f00d00de8bf756d3d8a567368fddd5",
      "contractAddress": null,
      "gasUsedForL1": "0x0",
      "l1BlockNumber": "0x5c2a98"
    },
    {
      "status": "0x1",
      "cumulativeGasUsed": "0x209004",
      "logs": [
        {
          "address": "0xdbd23b94fcd72b14d1f568d45392e9ca77e73d62",
          "topics": [
            "0xc7f505b2f371ae2175ee4913f4499e1f2633a7b5936321eed1cdaeb6115181d2"
          ],
          "data": "0x000000000000000000000000000000000000000000000000ffffffffffffffff",
          "blockHash": "0xd2bc3b26aa46360b2052ec9ab2cefdaa4e056de05319376fe2c3b75d2a111de3",
          "blockNumber": "0x30e7f87",
          "transactionHash": "0x7ace6d8f17417854170bc2adadac26ec4fea8299d94cd4e8746ca6c826782536",
          "transactionIndex": "0x1",
          "logIndex": "0x0",
          "removed": false
        },
        {
          "address": "0x1a1b2fe60938775f4ac3330fe060e2b30248deed",
          "topics": [
            "0x8be0079c531659141344cd1fd0a4f28419497f9722a3daafe3b4186f6b6457e0",
            "0x0000000000000000000000000000000000000000000000000000000000000000",
            "0x0000000000000000000000007caf754c934710d7c73bc453654552beca38223f"
          ],
          "data": "0x",
          "blockHash": "0xd2bc3b26aa46360b2052ec9ab2cefdaa4e056de05319376fe2c3b75d2a111de3",
          "blockNumber": "0x30e7f87",
          "transactionHash": "0x7ace6d8f17417854170bc2adadac26ec4fea8299d94cd4e8746ca6c826782536",
          "transactionIndex": "0x1",
          "logIndex": "0x1",
          "removed": false
        },
        {
          "address": "0x1a1b2fe60938775f4ac3330fe060e2b30248deed",
          "topics": [
            "0x715ad5ce61fc9595c7b415289d59cf203f23a94fa06f04af7e489a0a76e1fe26",
            "0x0000000000000000000000007caf754c934710d7c73bc453654552beca38223f",
            "0x0000000000000000000000000000000000000000000000000000000000000002"
          ],
          "data": "0x",
          "blockHash": "0xd2bc3b26aa46360b2052ec9ab2cefdaa4e056de05319376fe2c3b75d2a111de3",
          "blockNumber": "0x30e7f87",
          "transactionHash": "0x7ace6d8f17417854170bc2adadac26ec4fea8299d94cd4e8746ca6c826782536",
          "transactionIndex": "0x1",
          "logIndex": "0x2",
          "removed": false
        },
        {
          "address": "0x1a1b2fe60938775f4ac3330fe060e2b30248deed",
          "topics": [
            "0x715ad5ce61fc9595c7b415289d59cf203f23a94fa06f04af7e489a0a76e1fe26",
            "0x00000000000000000000000034a6b1eaafedf93a6b8658b7ea3035738929b159",
            "0x0000000000000000000000000000000000000000000000000000000000000006"
          ],
          "data": "0x",
          "blockHash": "0xd2bc3b26aa46360b2052ec9ab2cefdaa4e056de05319376fe2c3b75d2a111de3",
          "blockNumber": "0x30e7f87",
          "transactionHash": "0x7ace6d8f17417854170bc2adadac26ec4fea8299d94cd4e8746ca6c826782536",
          "transactionIndex": "0x1",
          "logIndex": "0x3",
          "removed": false
        },
        {
          "address": "0x1a1b2fe60938775f4ac3330fe060e2b30248deed",
          "topics": [
            "0x715ad5ce61fc9595c7b415289d59cf203f23a94fa06f04af7e489a0a76e1fe26",
            "0x0000000000000000000000007caf754c934710d7c73bc453654552beca38223f",
            "0x000000000000000000000000000000000000000000000000000000000000000a"
          ],
          "data": "0x",
          "blockHash": "0xd2bc3b26aa46360b2052ec9ab2cefdaa4e056de05319376fe2c3b75d2a111de3",
          "blockNumber": "0x30e7f87",
          "transactionHash": "0x7ace6d8f17417854170bc2adadac26ec4fea8299d94cd4e8746ca6c826782536",
          "transactionIndex": "0x1",
          "logIndex": "0x4",
          "removed": false
        },
        {
          "address": "0x1a1b2fe60938775f4ac3330fe060e2b30248deed",
          "topics": [
            "0xc7f505b2f371ae2175ee4913f4499e1f2633a7b5936321eed1cdaeb6115181d2"
          ],
          "data": "0x0000000000000000000000000000000000000000000000000000000000000001",
          "blockHash": "0xd2bc3b26aa46360b2052ec9ab2cefdaa4e056de05319376fe2c3b75d2a111de3",
          "blockNumber": "0x30e7f87",
          "transactionHash": "0x7ace6d8f17417854170bc2adadac26ec4fea8299d94cd4e8746ca6c826782536",
          "transactionIndex": "0x1",
          "logIndex": "0x5",
          "removed": false
        },
        {
          "address": "0x34a6b1eaafedf93a6b8658b7ea3035738929b159",
          "topics": [
            "0x77a3414c535688f81cd85546e65fbd4ff1cd89a82113527f2a72896ba19d0925",
            "0xead61c7340b7cacd78684d4795a617aae5e85cc4b89da34fb05ad55bb6bab653"
          ],
          "data": "0x0000000000000000000000001a1b2fe60938775f4ac3330fe060e2b30248deed",
          "blockHash": "0xd2bc3b26aa46360b2052ec9ab2cefdaa4e056de05319376fe2c3b75d2a111de3",
          "blockNumber": "0x30e7f87",
          "transactionHash": "0x7ace6d8f17417854170bc2adadac26ec4fea8299d94cd4e8746ca6c826782536",
          "transactionIndex": "0x1",
          "logIndex": "0x6",
          "removed": false
        }
      ],
      "logsBloom": "0x040000000000000000000000000000040006000000000000008000000000000000000000000000000000000000000000000000000404000000200000000000000100000000000000000000800000000000010000008000000000000000000000000000000200000000000000000008020800000000000000000000000000004000000004000000000108000000002000000000000000800000000000000000000000000000000000000001000000000000000200800180000000020a0000000000402000400000000000200800000000000000000004000000000000000020000020000400000000200000000000000000000000008000000000000000000000",
      "type": "0x2",
      "transactionHash": "0x7ace6d8f17417854170bc2adadac26ec4fea8299d94cd4e8746ca6c826782536",
      "transactionIndex": "0x1",
      "blockHash": "0xd2bc3b26aa46360b2052ec9ab2cefdaa4e056de05319376fe2c3b75d2a111de3",
      "blockNumber": "0x30e7f87",
      "gasUsed": "0x209004",
      "effectiveGasPrice": "0x5f5e100",
      "from": "0x7caf754c934710d7c73bc453654552beca38223f",
      "to": "0x34a6b1eaafedf93a6b8658b7ea3035738929b159",
      "contractAddress": null,
      "gasUsedForL1": "0x0",
      "l1BlockNumber": "0x5c2a98"
    },
    {
      "status": "0x1",
      "cumulativeGasUsed": "0x209004",
      "logs": [
        {
          "address": "0xc26529ba6ec155049fcdc3d49bf509e88bc7e0d4",
          "topics": [
            "0xc7f505b2f371ae2175ee4913f4499e1f2633a7b5936321eed1cdaeb6115181d2"
          ],
          "data": "0x000000000000000000000000000000000000000000000000ffffffffffffffff",
          "blockHash": "0x7236087531f8bac9b0c4f9b725f2a633b3a3afe9c6cacd25833f11dff31bd9f2",
          "blockNumber": "0x30e7f8a",
          "transactionHash": "0x3fa09d0eb0895e002baacc13a7e1982e27597f6589d1574c717e524a6fcdbf98",
          "transactionIndex": "0x1",
          "logIndex": "0x0",
          "removed": false
        },
        {
          "address": "0xad46949f05c874321dc5f8db757712624d220961",
          "topics": [
            "0x8be0079c531659141344cd1fd0a4f28419497f9722a3daafe3b4186f6b6457e0",
            "0x0000000000000000000000000000000000000000000000000000000000000000",
            "0x0000000000000000000000007caf754c934710d7c73bc453654552beca38223f"
          ],
          "data": "0x",
          "blockHash": "0x7236087531f8bac9b0c4f9b725f2a633b3a3afe9c6cacd25833f11dff31bd9f2",
          "blockNumber": "0x30e7f8a",
          "transactionHash": "0x3fa09d0eb0895e002baacc13a7e1982e27597f6589d1574c717e524a6fcdbf98",
          "transactionIndex": "0x1",
          "logIndex": "0x1",
          "removed": false
        },
        {
          "address": "0xad46949f05c874321dc5f8db757712624d220961",
          "topics": [
            "0x715ad5ce61fc9595c7b415289d59cf203f23a94fa06f04af7e489a0a76e1fe26",
            "0x0000000000000000000000007caf754c934710d7c73bc453654552beca38223f",
            "0x0000000000000000000000000000000000000000000000000000000000000002"
          ],
          "data": "0x",
          "blockHash": "0x7236087531f8bac9b0c4f9b725f2a633b3a3afe9c6cacd25833f11dff31bd9f2",
          "blockNumber": "0x30e7f8a",
          "transactionHash": "0x3fa09d0eb0895e002baacc13a7e1982e27597f6589d1574c717e524a6fcdbf98",
          "transactionIndex": "0x1",
          "logIndex": "0x2",
          "removed": false
        },
        {
          "address": "0xad46949f05c874321dc5f8db757712624d220961",
          "topics": [
            "0x715ad5ce61fc9595c7b415289d59cf203f23a94fa06f04af7e489a0a76e1fe26",
            "0x00000000000000000000000034a6b1eaafedf93a6b8658b7ea3035738929b159",
            "0x0000000000000000000000000000000000000000000000000000000000000006"
          ],
          "data": "0x",
          "blockHash": "0x7236087531f8bac9b0c4f9b725f2a633b3a3afe9c6cacd25833f11dff31bd9f2",
          "blockNumber": "0x30e7f8a",
          "transactionHash": "0x3fa09d0eb0895e002baacc13a7e1982e27597f6589d1574c717e524a6fcdbf98",
          "transactionIndex": "0x1",
          "logIndex": "0x3",
          "removed": false
        },
        {
          "address": "0xad46949f05c874321dc5f8db757712624d220961",
          "topics": [
            "0x715ad5ce61fc9595c7b415289d59cf203f23a94fa06f04af7e489a0a76e1fe26",
            "0x0000000000000000000000007caf754c934710d7c73bc453654552beca38223f",
            "0x000000000000000000000000000000000000000000000000000000000000000a"
          ],
          "data": "0x",
          "blockHash": "0x7236087531f8bac9b0c4f9b725f2a633b3a3afe9c6cacd25833f11dff31bd9f2",
          "blockNumber": "0x30e7f8a",
          "transactionHash": "0x3fa09d0eb0895e002baacc13a7e1982e27597f6589d1574c717e524a6fcdbf98",
          "transactionIndex": "0x1",
          "logIndex": "0x4",
          "removed": false
        },
        {
          "address": "0xad46949f05c874321dc5f8db757712624d220961",
          "topics": [
            "0xc7f505b2f371ae2175ee4913f4499e1f2633a7b5936321eed1cdaeb6115181d2"
          ],
          "data": "0x0000000000000000000000000000000000000000000000000000000000000001",
          "blockHash": "0x7236087531f8bac9b0c4f9b725f2a633b3a3afe9c6cacd25833f11dff31bd9f2",
          "blockNumber": "0x30e7f8a",
          "transactionHash": "0x3fa09d0eb0895e002baacc13a7e1982e27597f6589d1574c717e524a6fcdbf98",
          "transactionIndex": "0x1",
          "logIndex": "0x5",
          "removed": false
        },
        {
          "address": "0x34a6b1eaafedf93a6b8658b7ea3035738929b159",
          "topics": [
            "0x77a3414c535688f81cd85546e65fbd4ff1cd89a82113527f2a72896ba19d0925",
            "0xf011955832cac97ab1a6534c6b94971325e3be6bfaac1ccae68e3f5c7adcee5f"
          ],
          "data": "0x000000000000000000000000ad46949f05c874321dc5f8db757712624d220961",
          "blockHash": "0x7236087531f8bac9b0c4f9b725f2a633b3a3afe9c6cacd25833f11dff31bd9f2",
          "blockNumber": "0x30e7f8a",
          "transactionHash": "0x3fa09d0eb0895e002baacc13a7e1982e27597f6589d1574c717e524a6fcdbf98",
          "transactionIndex": "0x1",
          "logIndex": "0x6",
          "removed": false
        }
      ],
      "logsBloom": "0x04000000000000000000000000000004000600000000000000800000000000000000000000000000000000000000000000000000040400000020000000000000010000010010000000000080000000000001000000800200000000000000000000000000020000000000000000000902000000000000000000000000000000400800000400000400010800000000000000000000000080000000000000000000000000000000000000000100000000000000020080018000000002480000000000002000400800000000000000000000000000000004000000000000000020000000000000000000200000000000000000000000008000000000000200000000",
      "type": "0x2",
      "transactionHash": "0x3fa09d0eb0895e002baacc13a7e1982e27597f6589d1574c717e524a6fcdbf98",
      "transactionIndex": "0x1",
      "blockHash": "0x7236087531f8bac9b0c4f9b725f2a633b3a3afe9c6cacd25833f11dff31bd9f2",
      "blockNumber": "0x30e7f8a",
      "gasUsed": "0x209004",
      "effectiveGasPrice": "0x5f5e100",
      "from": "0x7caf754c934710d7c73bc453654552beca38223f",
      "to": "0x34a6b1eaafedf93a6b8658b7ea3035738929b159",
      "contractAddress": null,
      "gasUsedForL1": "0x0",
      "l1BlockNumber": "0x5c2a98"
    },
    {
      "status": "0x1",
      "cumulativeGasUsed": "0x242549",
      "logs": [
        {
          "address": "0x60be625febc6785e0109e12b3399834c879c2c7e",
          "topics": [
            "0xc7f505b2f371ae2175ee4913f4499e1f2633a7b5936321eed1cdaeb6115181d2"
          ],
          "data": "0x000000000000000000000000000000000000000000000000ffffffffffffffff",
          "blockHash": "0x090bcc845a87963fa02663fba996bb9766abc5b5b6d6e3d6167410cda823a30c",
          "blockNumber": "0x30e7f8d",
          "transactionHash": "0x173cb0615a3f50eeb2f7ec8e2f2c62425e7d914bc87485320e97849982db7d01",
          "transactionIndex": "0x2",
          "logIndex": "0x4",
          "removed": false
        },
        {
          "address": "0x1a6b785a1a5cedd1325fd4e0751608a21e8da76b",
          "topics": [
            "0x8be0079c531659141344cd1fd0a4f28419497f9722a3daafe3b4186f6b6457e0",
            "0x0000000000000000000000000000000000000000000000000000000000000000",
            "0x0000000000000000000000007caf754c934710d7c73bc453654552beca38223f"
          ],
          "data": "0x",
          "blockHash": "0x090bcc845a87963fa02663fba996bb9766abc5b5b6d6e3d6167410cda823a30c",
          "blockNumber": "0x30e7f8d",
          "transactionHash": "0x173cb0615a3f50eeb2f7ec8e2f2c62425e7d914bc87485320e97849982db7d01",
          "transactionIndex": "0x2",
          "logIndex": "0x5",
          "removed": false
        },
        {
          "address": "0x1a6b785a1a5cedd1325fd4e0751608a21e8da76b",
          "topics": [
            "0x715ad5ce61fc9595c7b415289d59cf203f23a94fa06f04af7e489a0a76e1fe26",
            "0x0000000000000000000000007caf754c934710d7c73bc453654552beca38223f",
            "0x0000000000000000000000000000000000000000000000000000000000000002"
          ],
          "data": "0x",
          "blockHash": "0x090bcc845a87963fa02663fba996bb9766abc5b5b6d6e3d6167410cda823a30c",
          "blockNumber": "0x30e7f8d",
          "transactionHash": "0x173cb0615a3f50eeb2f7ec8e2f2c62425e7d914bc87485320e97849982db7d01",
          "transactionIndex": "0x2",
          "logIndex": "0x6",
          "removed": false
        },
        {
          "address": "0x1a6b785a1a5cedd1325fd4e0751608a21e8da76b",
          "topics": [
            "0x715ad5ce61fc9595c7b415289d59cf203f23a94fa06f04af7e489a0a76e1fe26",
            "0x00000000000000000000000034a6b1eaafedf93a6b8658b7ea3035738929b159",
            "0x0000000000000000000000000000000000000000000000000000000000000006"
          ],
          "data": "0x",
          "blockHash": "0x090bcc845a87963fa02663fba996bb9766abc5b5b6d6e3d6167410cda823a30c",
          "blockNumber": "0x30e7f8d",
          "transactionHash": "0x173cb0615a3f50eeb2f7ec8e2f2c62425e7d914bc87485320e97849982db7d01",
          "transactionIndex": "0x2",
          "logIndex": "0x7",
          "removed": false
        },
        {
          "address": "0x1a6b785a1a5cedd1325fd4e0751608a21e8da76b",
          "topics": [
            "0x715ad5ce61fc9595c7b415289d59cf203f23a94fa06f04af7e489a0a76e1fe26",
            "0x0000000000000000000000007caf754c934710d7c73bc453654552beca38223f",
            "0x000000000000000000000000000000000000000000000000000000000000000a"
          ],
          "data": "0x",
          "blockHash": "0x090bcc845a87963fa02663fba996bb9766abc5b5b6d6e3d6167410cda823a30c",
          "blockNumber": "0x30e7f8d",
          "transactionHash": "0x173cb0615a3f50eeb2f7ec8e2f2c62425e7d914bc87485320e97849982db7d01",
          "transactionIndex": "0x2",
          "logIndex": "0x8",
          "removed": false
        },
        {
          "address": "0x1a6b785a1a5cedd1325fd4e0751608a21e8da76b",
          "topics": [
            "0xc7f505b2f371ae2175ee4913f4499e1f2633a7b5936321eed1cdaeb6115181d2"
          ],
          "data": "0x0000000000000000000000000000000000000000000000000000000000000001",
          "blockHash": "0x090bcc845a87963fa02663fba996bb9766abc5b5b6d6e3d6167410cda823a30c",
          "blockNumber": "0x30e7f8d",
          "transactionHash": "0x173cb0615a3f50eeb2f7ec8e2f2c62425e7d914bc87485320e97849982db7d01",
          "transactionIndex": "0x2",
          "logIndex": "0x9",
          "removed": false
        },
        {
          "address": "0x34a6b1eaafedf93a6b8658b7ea3035738929b159",
          "topics": [
            "0x77a3414c535688f81cd85546e65fbd4ff1cd89a82113527f2a72896ba19d0925",
            "0x87c66b8c60fd984f739f68f1d83229601131914aaf269874c584e179b37db1a5"
          ],
          "data": "0x0000000000000000000000001a6b785a1a5cedd1325fd4e0751608a21e8da76b",
          "blockHash": "0x090bcc845a87963fa02663fba996bb9766abc5b5b6d6e3d6167410cda823a30c",
          "blockNumber": "0x30e7f8d",
          "transactionHash": "0x173cb0615a3f50eeb2f7ec8e2f2c62425e7d914bc87485320e97849982db7d01",
          "transactionIndex": "0x2",
          "logIndex": "0xa",
          "removed": false
        }
      ],
      "logsBloom": "0x04000800000000000000000000000004000600000000000000800000000000000000000100000000000000000000000000000000040400000020000000000000010000000000000000000080000000000001000000800000000000000040000000000000020000000000000000000802400000000040000000000000000000400000000400000000010800000000000000000000000080004000000000000000000000000000000000000100000000000000020080018028000002080000000000002000400000000000000000000000000000000004002000000000000020000000000000000000200000000000000000000000008000000000000000000000",
      "type": "0x2",
      "transactionHash": "0x173cb0615a3f50eeb2f7ec8e2f2c62425e7d914bc87485320e97849982db7d01",
      "transactionIndex": "0x2",
      "blockHash": "0x090bcc845a87963fa02663fba996bb9766abc5b5b6d6e3d6167410cda823a30c",
      "blockNumber": "0x30e7f8d",
      "gasUsed": "0x209004",
      "effectiveGasPrice": "0x5f5e100",
      "from": "0x7caf754c934710d7c73bc453654552beca38223f",
      "to": "0x34a6b1eaafedf93a6b8658b7ea3035738929b159",
      "contractAddress": null,
      "gasUsedForL1": "0x0",
      "l1BlockNumber": "0x5c2a98"
    },
    {
      "status": "0x1",
      "cumulativeGasUsed": "0x275665",
      "logs": [
        {
          "address": "0x9295719d4cd2510dd35a7379d80f8b51d54a0e98",
          "topics": [
            "0xc7f505b2f371ae2175ee4913f4499e1f2633a7b5936321eed1cdaeb6115181d2"
          ],
          "data": "0x000000000000000000000000000000000000000000000000ffffffffffffffff",
          "blockHash": "0xf9d5808c168c54b9f63fb893a59bd59dff1851b9eba8d100262723a964b36278",
          "blockNumber": "0x30e7f90",
          "transactionHash": "0x68093ddfd456a2c81af78e61713135585d961ba6301942289fcadb38babc2fe8",
          "transactionIndex": "0x3",
          "logIndex": "0x7",
          "removed": false
        },
        {
          "address": "0xc5ba549ae1b1918dbebf426066f189ca64163591",
          "topics": [
            "0x8be0079c531659141344cd1fd0a4f28419497f9722a3daafe3b4186f6b6457e0",
            "0x0000000000000000000000000000000000000000000000000000000000000000",
            "0x0000000000000000000000007caf754c934710d7c73bc453654552beca38223f"
          ],
          "data": "0x",
          "blockHash": "0xf9d5808c168c54b9f63fb893a59bd59dff1851b9eba8d100262723a964b36278",
          "blockNumber": "0x30e7f90",
          "transactionHash": "0x68093ddfd456a2c81af78e61713135585d961ba6301942289fcadb38babc2fe8",
          "transactionIndex": "0x3",
          "logIndex": "0x8",
          "removed": false
        },
        {
          "address": "0xc5ba549ae1b1918dbebf426066f189ca64163591",
          "topics": [
            "0x715ad5ce61fc9595c7b415289d59cf203f23a94fa06f04af7e489a0a76e1fe26",
            "0x0000000000000000000000007caf754c934710d7c73bc453654552beca38223f",
            "0x0000000000000000000000000000000000000000000000000000000000000002"
          ],
          "data": "0x",
          "blockHash": "0xf9d5808c168c54b9f63fb893a59bd59dff1851b9eba8d100262723a964b36278",
          "blockNumber": "0x30e7f90",
          "transactionHash": "0x68093ddfd456a2c81af78e61713135585d961ba6301942289fcadb38babc2fe8",
          "transactionIndex": "0x3",
          "logIndex": "0x9",
          "removed": false
        },
        {
          "address": "0xc5ba549ae1b1918dbebf426066f189ca64163591",
          "topics": [
            "0x715ad5ce61fc9595c7b415289d59cf203f23a94fa06f04af7e489a0a76e1fe26",
            "0x00000000000000000000000034a6b1eaafedf93a6b8658b7ea3035738929b159",
            "0x0000000000000000000000000000000000000000000000000000000000000006"
          ],
          "data": "0x",
          "blockHash": "0xf9d5808c168c54b9f63fb893a59bd59dff1851b9eba8d100262723a964b36278",
          "blockNumber": "0x30e7f90",
          "transactionHash": "0x68093ddfd456a2c81af78e61713135585d961ba6301942289fcadb38babc2fe8",
          "transactionIndex": "0x3",
          "logIndex": "0xa",
          "removed": false
        },
        {
          "address": "0xc5ba549ae1b1918dbebf426066f189ca64163591",
          "topics": [
            "0x715ad5ce61fc9595c7b415289d59cf203f23a94fa06f04af7e489a0a76e1fe26",
            "0x0000000000000000000000007caf754c934710d7c73bc453654552beca38223f",
            "0x000000000000000000000000000000000000000000000000000000000000000a"
          ],
          "data": "0x",
          "blockHash": "0xf9d5808c168c54b9f63fb893a59bd59dff1851b9eba8d100262723a964b36278",
          "blockNumber": "0x30e7f90",
          "transactionHash": "0x68093ddfd456a2c81af78e61713135585d961ba6301942289fcadb38babc2fe8",
          "transactionIndex": "0x3",
          "logIndex": "0xb",
          "removed": false
        },
        {
          "address": "0xc5ba549ae1b1918dbebf426066f189ca64163591",
          "topics": [
            "0xc7f505b2f371ae2175ee4913f4499e1f2633a7b5936321eed1cdaeb6115181d2"
          ],
          "data": "0x0000000000000000000000000000000000000000000000000000000000000001",
          "blockHash": "0xf9d5808c168c54b9f63fb893a59bd59dff1851b9eba8d100262723a964b36278",
          "blockNumber": "0x30e7f90",
          "transactionHash": "0x68093ddfd456a2c81af78e61713135585d961ba6301942289fcadb38babc2fe8",
          "transactionIndex": "0x3",
          "logIndex": "0xc",
          "removed": false
        },
        {
          "address": "0x34a6b1eaafedf93a6b8658b7ea3035738929b159",
          "topics": [
            "0x77a3414c535688f81cd85546e65fbd4ff1cd89a82113527f2a72896ba19d0925",
            "0x2d0cdaf9a1153a9a4b68379c64d4397611a0f3d9fa4015376435f9a64aafc0c1"
          ],
          "data": "0x000000000000000000000000c5ba549ae1b1918dbebf426066f189ca64163591",
          "blockHash": "0xf9d5808c168c54b9f63fb893a59bd59dff1851b9eba8d100262723a964b36278",
          "blockNumber": "0x30e7f90",
          "transactionHash": "0x68093ddfd456a2c81af78e61713135585d961ba6301942289fcadb38babc2fe8",
          "transactionIndex": "0x3",
          "logIndex": "0xd",
          "removed": false
        }
      ],
      "logsBloom": "0x04000000000000000000100000000004000600000000000000800010000000000000000000000000000000000000000020000000040400000020000000000000010000000000000000000080000000002001000020800000000000000000000000000000020400000000000000000802000000000800000000000000000000400000000400000000010800000000000000000000000080000000000000000000008000000000000000000100000000000000020080018000000002080000000000002000400000000000000000000000000000000004000001000000000020000000000000000000200000000000000000000000008000000000000000000000",
      "type": "0x2",
      "transactionHash": "0x68093ddfd456a2c81af78e61713135585d961ba6301942289fcadb38babc2fe8",
      "transactionIndex": "0x3",
      "blockHash": "0xf9d5808c168c54b9f63fb893a59bd59dff1851b9eba8d100262723a964b36278",
      "blockNumber": "0x30e7f90",
      "gasUsed": "0x209004",
      "effectiveGasPrice": "0x5f5e100",
      "from": "0x7caf754c934710d7c73bc453654552beca38223f",
      "to": "0x34a6b1eaafedf93a6b8658b7ea3035738929b159",
      "contractAddress": null,
      "gasUsedForL1": "0x0",
      "l1BlockNumber": "0x5c2a98"
    }
  ],
  "libraries": [],
  "pending": [],
  "returns": {},
  "timestamp": 1717537033,
  "chain": 421614,
  "commit": "42cf5e8"
}