{
  "transactions": [
    {
      "hash": "0x15e95f01b2a891a4dd416c535adb4e7de44eb44fa946db2ae69b5eb5cb4be44a",
      "transactionType": "CALL",
      "contractName": null,
      "contractAddress": "0xD4BCd67b1C62aB27FC04FBd49f3142413aBFC753",
      "function": "mint(bytes)",
      "arguments": [
        "0x0000000000000000000000000000000000000000000000000000000000000020000000000000000000000000000000000000000000000000000000000000004011d9b327b46d43525821b67e9e75373040aa7f8162b46753eb565065f743c2e300000000000000000000000000000000000000000000000000000000000000084c65204d6f6e6465000000000000000000000000000000000000000000000000"
      ],
      "transaction": {
        "type": "0x02",
        "from": "0x7caf754c934710d7c73bc453654552beca38223f",
        "to": "0xd4bcd67b1c62ab27fc04fbd49f3142413abfc753",
        "gas": "0x2f505",
        "value": "0x0",
        "data": "0x7ba0e2e7000000000000000000000000000000000000000000000000000000000000002000000000000000000000000000000000000000000000000000000000000000a00000000000000000000000000000000000000000000000000000000000000020000000000000000000000000000000000000000000000000000000000000004011d9b327b46d43525821b67e9e75373040aa7f8162b46753eb565065f743c2e300000000000000000000000000000000000000000000000000000000000000084c65204d6f6e6465000000000000000000000000000000000000000000000000",
        "nonce": "0x6",
        "accessList": []
      },
      "additionalContracts": [],
      "isFixedGasLimit": false
    },
    {
      "hash": "0xe74fc6602710591cad8fcb387a04e92ad0f211d354cce8dc727c389f46e37aff",
      "transactionType": "CALL",
      "contractName": null,
      "contractAddress": "0xD4BCd67b1C62aB27FC04FBd49f3142413aBFC753",
      "function": "mint(bytes)",
      "arguments": [
        "0x0000000000000000000000000000000000000000000000000000000000000020000000000000000000000000000000000000000000000000000000000000004011d9b327b46d43525821b67e9e75373040aa7f8162b46753eb565065f743c2e300000000000000000000000000000000000000000000000000000000000000084c27657175697065000000000000000000000000000000000000000000000000"
      ],
      "transaction": {
        "type": "0x02",
        "from": "0x7caf754c934710d7c73bc453654552beca38223f",
        "to": "0xd4bcd67b1c62ab27fc04fbd49f3142413abfc753",
        "gas": "0x2f4ef",
        "value": "0x0",
        "data": "0x7ba0e2e7000000000000000000000000000000000000000000000000000000000000002000000000000000000000000000000000000000000000000000000000000000a00000000000000000000000000000000000000000000000000000000000000020000000000000000000000000000000000000000000000000000000000000004011d9b327b46d43525821b67e9e75373040aa7f8162b46753eb565065f743c2e300000000000000000000000000000000000000000000000000000000000000084c27657175697065000000000000000000000000000000000000000000000000",
        "nonce": "0x7",
        "accessList": []
      },
      "additionalContracts": [],
      "isFixedGasLimit": false
    },
    {
      "hash": "0xec541db2609d05fda01a3bb79188387c049ae24cec089af1b10d1ea6b30037fd",
      "transactionType": "CALL",
      "contractName": null,
      "contractAddress": "0xD4BCd67b1C62aB27FC04FBd49f3142413aBFC753",
      "function": "mint(bytes)",
      "arguments": [
        "0x0000000000000000000000000000000000000000000000000000000000000020000000000000000000000000000000000000000000000000000000000000004011d9b327b46d43525821b67e9e75373040aa7f8162b46753eb565065f743c2e300000000000000000000000000000000000000000000000000000000000000055769726564000000000000000000000000000000000000000000000000000000"
      ],
      "transaction": {
        "type": "0x02",
        "from": "0x7caf754c934710d7c73bc453654552beca38223f",
        "to": "0xd4bcd67b1c62ab27fc04fbd49f3142413abfc753",
        "gas": "0x2f43e",
        "value": "0x0",
        "data": "0x7ba0e2e7000000000000000000000000000000000000000000000000000000000000002000000000000000000000000000000000000000000000000000000000000000a00000000000000000000000000000000000000000000000000000000000000020000000000000000000000000000000000000000000000000000000000000004011d9b327b46d43525821b67e9e75373040aa7f8162b46753eb565065f743c2e300000000000000000000000000000000000000000000000000000000000000055769726564000000000000000000000000000000000000000000000000000000",
        "nonce": "0x8",
        "accessList": []
      },
      "additionalContracts": [],
      "isFixedGasLimit": false
    },
    {
      "hash": "0x2f139399b342716bdf84ba1f7edb0ea49b190fa5aed3bcc3983ead8bf627c9d6",
      "transactionType": "CALL",
      "contractName": null,
      "contractAddress": "0x9218521020EF26924B77188f4ddE0d0f7C405f21",
      "function": "addPrice(uint256,(uint256,uint32,bool))",
      "arguments": [
        "0",
        "(50000000000000000000, 86400, true)"
      ],
      "transaction": {
        "type": "0x02",
        "from": "0x7caf754c934710d7c73bc453654552beca38223f",
        "to": "0x9218521020ef26924b77188f4dde0d0f7c405f21",
        "gas": "0x2265c",
        "value": "0x0",
        "data": "0x443de9c90000000000000000000000000000000000000000000000000000000000000000000000000000000000000000000000000000000000000002b5e3af16b188000000000000000000000000000000000000000000000000000000000000000151800000000000000000000000000000000000000000000000000000000000000001",
        "nonce": "0x9",
        "accessList": []
      },
      "additionalContracts": [],
      "isFixedGasLimit": false
    },
    {
      "hash": "0x4fcdd74be16f73fcdf6739c62f4d934b2b4a94775b14ea17a80b52c2df22d5ae",
      "transactionType": "CALL",
      "contractName": null,
      "contractAddress": "0x9218521020EF26924B77188f4ddE0d0f7C405f21",
      "function": "addPrice(uint256,(uint256,uint32,bool))",
      "arguments": [
        "0",
        "(300000000000000000000, 604800, true)"
      ],
      "transaction": {
        "type": "0x02",
        "from": "0x7caf754c934710d7c73bc453654552beca38223f",
        "to": "0x9218521020ef26924b77188f4dde0d0f7c405f21",
        "gas": "0x1ab85",
        "value": "0x0",
        "data": "0x443de9c9000000000000000000000000000000000000000000000000000000000000000000000000000000000000000000000000000000000000001043561a88293000000000000000000000000000000000000000000000000000000000000000093a800000000000000000000000000000000000000000000000000000000000000001",
        "nonce": "0xa",
        "accessList": []
      },
      "additionalContracts": [],
      "isFixedGasLimit": false
    },
    {
      "hash": "0x52478209a48196474a6f9f35de3646ddd79793a3c230873e652bdb445cebaa38",
      "transactionType": "CALL",
      "contractName": null,
      "contractAddress": "0x9218521020EF26924B77188f4ddE0d0f7C405f21",
      "function": "addPrice(uint256,(uint256,uint32,bool))",
      "arguments": [
        "0",
        "(1000000000000000000000, 2592000, true)"
      ],
      "transaction": {
        "type": "0x02",
        "from": "0x7caf754c934710d7c73bc453654552beca38223f",
        "to": "0x9218521020ef26924b77188f4dde0d0f7c405f21",
        "gas": "0x1c49a",
        "value": "0x0",
        "data": "0x443de9c9000000000000000000000000000000000000000000000000000000000000000000000000000000000000000000000000000000000000003635c9adc5dea000000000000000000000000000000000000000000000000000000000000000278d000000000000000000000000000000000000000000000000000000000000000001",
        "nonce": "0xb",
        "accessList": []
      },
      "additionalContracts": [],
      "isFixedGasLimit": false
    },
    {
      "hash": "0xb8d586dc19f14fe70b251425594836eb9d1998fda813acbabe2e739d699b398e",
      "transactionType": "CALL",
      "contractName": null,
      "contractAddress": "0x9218521020EF26924B77188f4ddE0d0f7C405f21",
      "function": "addPrice(uint256,(uint256,uint32,bool))",
      "arguments": [
        "1",
        "(50000000000000000000, 86400, true)"
      ],
      "transaction": {
        "type": "0x02",
        "from": "0x7caf754c934710d7c73bc453654552beca38223f",
        "to": "0x9218521020ef26924b77188f4dde0d0f7c405f21",
        "gas": "0x207d9",
        "value": "0x0",
        "data": "0x443de9c90000000000000000000000000000000000000000000000000000000000000001000000000000000000000000000000000000000000000002b5e3af16b188000000000000000000000000000000000000000000000000000000000000000151800000000000000000000000000000000000000000000000000000000000000001",
        "nonce": "0xc",
        "accessList": []
      },
      "additionalContracts": [],
      "isFixedGasLimit": false
    },
    {
      "hash": "0xde5cf48521a157f24e6cd4f739f39a81d94e3f936c9a33f27ae8a826ee6be721",
      "transactionType": "CALL",
      "contractName": null,
      "contractAddress": "0x9218521020EF26924B77188f4ddE0d0f7C405f21",
      "function": "addPrice(uint256,(uint256,uint32,bool))",
      "arguments": [
        "1",
        "(300000000000000000000, 604800, true)"
      ],
      "transaction": {
        "type": "0x02",
        "from": "0x7caf754c934710d7c73bc453654552beca38223f",
        "to": "0x9218521020ef26924b77188f4dde0d0f7c405f21",
        "gas": "0x1c4bd",
        "value": "0x0",
        "data": "0x443de9c9000000000000000000000000000000000000000000000000000000000000000100000000000000000000000000000000000000000000001043561a88293000000000000000000000000000000000000000000000000000000000000000093a800000000000000000000000000000000000000000000000000000000000000001",
        "nonce": "0xd",
        "accessList": []
      },
      "additionalContracts": [],
      "isFixedGasLimit": false
    },
    {
      "hash": "0x81125073bdbfdca3003b4f60122212fe077740ecc63cde9783bea792727b38fa",
      "transactionType": "CALL",
      "contractName": null,
      "contractAddress": "0x9218521020EF26924B77188f4ddE0d0f7C405f21",
      "function": "addPrice(uint256,(uint256,uint32,bool))",
      "arguments": [
        "1",
        "(1000000000000000000000, 2592000, true)"
      ],
      "transaction": {
        "type": "0x02",
        "from": "0x7caf754c934710d7c73bc453654552beca38223f",
        "to": "0x9218521020ef26924b77188f4dde0d0f7c405f21",
        "gas": "0x1ab85",
        "value": "0x0",
        "data": "0x443de9c9000000000000000000000000000000000000000000000000000000000000000100000000000000000000000000000000000000000000003635c9adc5dea000000000000000000000000000000000000000000000000000000000000000278d000000000000000000000000000000000000000000000000000000000000000001",
        "nonce": "0xe",
        "accessList": []
      },
      "additionalContracts": [],
      "isFixedGasLimit": false
    },
    {
      "hash": "0xe7037da1b56463f5391044014a0662da78db6efcfe351ed65c1120ebbab18eef",
      "transactionType": "CALL",
      "contractName": null,
      "contractAddress": "0x9218521020EF26924B77188f4ddE0d0f7C405f21",
      "function": "addPrice(uint256,(uint256,uint32,bool))",
      "arguments": [
        "2",
        "(50000000000000000000, 86400, true)"
      ],
      "transaction": {
        "type": "0x02",
        "from": "0x7caf754c934710d7c73bc453654552beca38223f",
        "to": "0x9218521020ef26924b77188f4dde0d0f7c405f21",
        "gas": "0x207d9",
        "value": "0x0",
        "data": "0x443de9c90000000000000000000000000000000000000000000000000000000000000002000000000000000000000000000000000000000000000002b5e3af16b188000000000000000000000000000000000000000000000000000000000000000151800000000000000000000000000000000000000000000000000000000000000001",
        "nonce": "0xf",
        "accessList": []
      },
      "additionalContracts": [],
      "isFixedGasLimit": false
    },
    {
      "hash": "0x656064f6d76930493987fc448d23ad55e77cd712d829727422296153d4df3085",
      "transactionType": "CALL",
      "contractName": null,
      "contractAddress": "0x9218521020EF26924B77188f4ddE0d0f7C405f21",
      "function": "addPrice(uint256,(uint256,uint32,bool))",
      "arguments": [
        "2",
        "(300000000000000000000, 604800, true)"
      ],
      "transaction": {
        "type": "0x02",
        "from": "0x7caf754c934710d7c73bc453654552beca38223f",
        "to": "0x9218521020ef26924b77188f4dde0d0f7c405f21",
        "gas": "0x1c4bd",
        "value": "0x0",
        "data": "0x443de9c9000000000000000000000000000000000000000000000000000000000000000200000000000000000000000000000000000000000000001043561a88293000000000000000000000000000000000000000000000000000000000000000093a800000000000000000000000000000000000000000000000000000000000000001",
        "nonce": "0x10",
        "accessList": []
      },
      "additionalContracts": [],
      "isFixedGasLimit": false
    },
    {
      "hash": "0xed72db506415dd3106bbb7a117bcf63e35e62387eebfa04c617fcbc32f272b6b",
      "transactionType": "CALL",
      "contractName": null,
      "contractAddress": "0x9218521020EF26924B77188f4ddE0d0f7C405f21",
      "function": "addPrice(uint256,(uint256,uint32,bool))",
      "arguments": [
        "2",
        "(1000000000000000000000, 2592000, true)"
      ],
      "transaction": {
        "type": "0x02",
        "from": "0x7caf754c934710d7c73bc453654552beca38223f",
        "to": "0x9218521020ef26924b77188f4dde0d0f7c405f21",
        "gas": "0x1ab85",
        "value": "0x0",
        "data": "0x443de9c9000000000000000000000000000000000000000000000000000000000000000200000000000000000000000000000000000000000000003635c9adc5dea000000000000000000000000000000000000000000000000000000000000000278d000000000000000000000000000000000000000000000000000000000000000001",
        "nonce": "0x11",
        "accessList": []
      },
      "additionalContracts": [],
      "isFixedGasLimit": false
    }
  ],
  "receipts": [
    {
      "transactionHash": "0x15e95f01b2a891a4dd416c535adb4e7de44eb44fa946db2ae69b5eb5cb4be44a",
      "transactionIndex": "0x8",
      "blockHash": "0xa80bfec056cab7726f549ab40539a0d8570351930112e9d6bd3d6ddd0d2fcb64",
      "blockNumber": "0x1c31a3f",
      "from": "0x7caF754C934710D7C73bc453654552BEcA38223F",
      "to": "0xD4BCd67b1C62aB27FC04FBd49f3142413aBFC753",
      "cumulativeGasUsed": "0x118a6e",
      "gasUsed": "0x23b19",
      "contractAddress": null,
      "logs": [
        {
          "address": "0xD4BCd67b1C62aB27FC04FBd49f3142413aBFC753",
          "topics": [
            "0xddf252ad1be2c89b69c2b068fc378daa952ba7f163c4a11628f55a4df523b3ef",
            "0x0000000000000000000000000000000000000000000000000000000000000000",
            "0x0000000000000000000000007caf754c934710d7c73bc453654552beca38223f",
            "0x0000000000000000000000000000000000000000000000000000000000000000"
          ],
          "data": "0x",
          "blockHash": "0xa80bfec056cab7726f549ab40539a0d8570351930112e9d6bd3d6ddd0d2fcb64",
          "blockNumber": "0x1c31a3f",
          "transactionHash": "0x15e95f01b2a891a4dd416c535adb4e7de44eb44fa946db2ae69b5eb5cb4be44a",
          "transactionIndex": "0x8",
          "logIndex": "0x13",
          "removed": false
        }
      ],
      "status": "0x1",
      "logsBloom": "0x00000000000000000000000000000000000200000000000000000000000000000000000001000000000000000000000000000000000000000000000000000000000000000000000000000008000000000000000000000000000000000000000000000000020000000000000000000802000000000000000000000010000000000000000000000000000000000000000000000000000010000000000000000000000000000000000000000000000000000000100000008000000000000000000000000002000000000000000000000000000000000000000000000000000020000000000000000000000000000000000000000000000000000000000000000000",
      "type": "0x2",
      "effectiveGasPrice": "0x84c7b30"
    },
    {
      "transactionHash": "0xe74fc6602710591cad8fcb387a04e92ad0f211d354cce8dc727c389f46e37aff",
      "transactionIndex": "0x1",
      "blockHash": "0xee8747472950cc3b09ad606fdf0f277c376256b18852bc45c3190cb1610dcb2e",
      "blockNumber": "0x1c31a42",
      "from": "0x7caF754C934710D7C73bc453654552BEcA38223F",
      "to": "0xD4BCd67b1C62aB27FC04FBd49f3142413aBFC753",
      "cumulativeGasUsed": "0x1b633",
      "gasUsed": "0x1b633",
      "contractAddress": null,
      "logs": [
        {
          "address": "0xD4BCd67b1C62aB27FC04FBd49f3142413aBFC753",
          "topics": [
            "0xddf252ad1be2c89b69c2b068fc378daa952ba7f163c4a11628f55a4df523b3ef",
            "0x0000000000000000000000000000000000000000000000000000000000000000",
            "0x0000000000000000000000007caf754c934710d7c73bc453654552beca38223f",
            "0x0000000000000000000000000000000000000000000000000000000000000001"
          ],
          "data": "0x",
          "blockHash": "0xee8747472950cc3b09ad606fdf0f277c376256b18852bc45c3190cb1610dcb2e",
          "blockNumber": "0x1c31a42",
          "transactionHash": "0xe74fc6602710591cad8fcb387a04e92ad0f211d354cce8dc727c389f46e37aff",
          "transactionIndex": "0x1",
          "logIndex": "0x0",
          "removed": false
        }
      ],
      "status": "0x1",
      "logsBloom": "0x00000000000000000000000000000000000200000000000000000000000000000000000001000000000000000000000000000000000000000000000000040000000000000000000000000008000000000000000000040000000000000000000000000000020000000000000000000802000000000000000000000010000000000000000000000000000000000000000000000000000010000000000000000000000000000000000000000000000000000000100000008000000000000000000000000002000000000000000000000000000000000000000000000000000060000000000000000000000000000000000000000000000000000000000000000000",
      "type": "0x2",
      "effectiveGasPrice": "0x84639a0"
    },
    {
      "transactionHash": "0xec541db2609d05fda01a3bb79188387c049ae24cec089af1b10d1ea6b30037fd",
      "transactionIndex": "0x1",
      "blockHash": "0x1b93222844ce5f18b2ab7af251fcb0261d0d855be29f6a71d5dfe131ddcec3e4",
      "blockNumber": "0x1c31a45",
      "from": "0x7caF754C934710D7C73bc453654552BEcA38223F",
      "to": "0xD4BCd67b1C62aB27FC04FBd49f3142413aBFC753",
      "cumulativeGasUsed": "0x1b4fc",
      "gasUsed": "0x1b4fc",
      "contractAddress": null,
      "logs": [
        {
          "address": "0xD4BCd67b1C62aB27FC04FBd49f3142413aBFC753",
          "topics": [
            "0xddf252ad1be2c89b69c2b068fc378daa952ba7f163c4a11628f55a4df523b3ef",
            "0x0000000000000000000000000000000000000000000000000000000000000000",
            "0x0000000000000000000000007caf754c934710d7c73bc453654552beca38223f",
            "0x0000000000000000000000000000000000000000000000000000000000000002"
          ],
          "data": "0x",
          "blockHash": "0x1b93222844ce5f18b2ab7af251fcb0261d0d855be29f6a71d5dfe131ddcec3e4",
          "blockNumber": "0x1c31a45",
          "transactionHash": "0xec541db2609d05fda01a3bb79188387c049ae24cec089af1b10d1ea6b30037fd",
          "transactionIndex": "0x1",
          "logIndex": "0x0",
          "removed": false
        }
      ],
      "status": "0x1",
      "logsBloom": "0x04000000000000000000000000000000000200000000000000000000000000000000000001000000000000000000000000000000000000000000000000000000000000000000000000000008000000000000000000000000000000000000000000000000020000000000000000000802000000000000000000000010000000000000000000000000000000000000000000000000000010000000000000000000000000000000000000000100000000000000100000008000000000000000000000000002000000000000000000000000000000000000000000000000000020000000000000000000000000000000000000000000008000000000000000000000",
      "type": "0x2",
      "effectiveGasPrice": "0x85a84f0"
    },
    {
      "transactionHash": "0x2f139399b342716bdf84ba1f7edb0ea49b190fa5aed3bcc3983ead8bf627c9d6",
      "transactionIndex": "0x6",
      "blockHash": "0xc03e84bad0c1900cb7ca933499309c04544e1f30cb0c4d03dfbc1b6821eb08fb",
      "blockNumber": "0x1c31a48",
      "from": "0x7caF754C934710D7C73bc453654552BEcA38223F",
      "to": "0x9218521020EF26924B77188f4ddE0d0f7C405f21",
      "cumulativeGasUsed": "0x208000",
      "gasUsed": "0x19092",
      "contractAddress": null,
      "logs": [],
      "status": "0x1",
      "logsBloom": "0x00000000000000000000000000000000000000000000000000000000000000000000000000000000000000000000000000000000000000000000000000000000000000000000000000000000000000000000000000000000000000000000000000000000000000000000000000000000000000000000000000000000000000000000000000000000000000000000000000000000000000000000000000000000000000000000000000000000000000000000000000000000000000000000000000000000000000000000000000000000000000000000000000000000000000000000000000000000000000000000000000000000000000000000000000000000",
      "type": "0x2",
      "effectiveGasPrice": "0x853a720"
    },
    {
      "transactionHash": "0x4fcdd74be16f73fcdf6739c62f4d934b2b4a94775b14ea17a80b52c2df22d5ae",
      "transactionIndex": "0x1",
      "blockHash": "0x0ba27fdce42e6476b5da43b42808859603621869d49e6111efbd52053eba0f11",
      "blockNumber": "0x1c31a4c",
      "from": "0x7caF754C934710D7C73bc453654552BEcA38223F",
      "to": "0x9218521020EF26924B77188f4ddE0d0f7C405f21",
      "cumulativeGasUsed": "0x14dca",
      "gasUsed": "0x14dca",
      "contractAddress": null,
      "logs": [],
      "status": "0x1",
      "logsBloom": "0x00000000000000000000000000000000000000000000000000000000000000000000000000000000000000000000000000000000000000000000000000000000000000000000000000000000000000000000000000000000000000000000000000000000000000000000000000000000000000000000000000000000000000000000000000000000000000000000000000000000000000000000000000000000000000000000000000000000000000000000000000000000000000000000000000000000000000000000000000000000000000000000000000000000000000000000000000000000000000000000000000000000000000000000000000000000",
      "type": "0x2",
      "effectiveGasPrice": "0x8522080"
    },
    {
      "transactionHash": "0x52478209a48196474a6f9f35de3646ddd79793a3c230873e652bdb445cebaa38",
      "transactionIndex": "0x1",
      "blockHash": "0xda50e9d00c14d7e7ed75cd7ae7381a0a36c3fea6dca3ac0b066810ef8ad82fd6",
      "blockNumber": "0x1c31a4f",
      "from": "0x7caF754C934710D7C73bc453654552BEcA38223F",
      "to": "0x9218521020EF26924B77188f4ddE0d0f7C405f21",
      "cumulativeGasUsed": "0x14cf0",
      "gasUsed": "0x14cf0",
      "contractAddress": null,
      "logs": [],
      "status": "0x1",
      "logsBloom": "0x00000000000000000000000000000000000000000000000000000000000000000000000000000000000000000000000000000000000000000000000000000000000000000000000000000000000000000000000000000000000000000000000000000000000000000000000000000000000000000000000000000000000000000000000000000000000000000000000000000000000000000000000000000000000000000000000000000000000000000000000000000000000000000000000000000000000000000000000000000000000000000000000000000000000000000000000000000000000000000000000000000000000000000000000000000000",
      "type": "0x2",
      "effectiveGasPrice": "0x851f970"
    },
    {
      "transactionHash": "0xb8d586dc19f14fe70b251425594836eb9d1998fda813acbabe2e739d699b398e",
      "transactionIndex": "0x7",
      "blockHash": "0x22314669d3633633ead54f4b99f2b43cdce0fe72447f79723b19fe34285eabe3",
      "blockNumber": "0x1c31a52",
      "from": "0x7caF754C934710D7C73bc453654552BEcA38223F",
      "to": "0x9218521020EF26924B77188f4ddE0d0f7C405f21",
      "cumulativeGasUsed": "0xc5dce",
      "gasUsed": "0x190b5",
      "contractAddress": null,
      "logs": [],
      "status": "0x1",
      "logsBloom": "0x00000000000000000000000000000000000000000000000000000000000000000000000000000000000000000000000000000000000000000000000000000000000000000000000000000000000000000000000000000000000000000000000000000000000000000000000000000000000000000000000000000000000000000000000000000000000000000000000000000000000000000000000000000000000000000000000000000000000000000000000000000000000000000000000000000000000000000000000000000000000000000000000000000000000000000000000000000000000000000000000000000000000000000000000000000000",
      "type": "0x2",
      "effectiveGasPrice": "0x84b90d0"
    },
    {
      "transactionHash": "0xde5cf48521a157f24e6cd4f739f39a81d94e3f936c9a33f27ae8a826ee6be721",
      "transactionIndex": "0x2",
      "blockHash": "0x8012f0216f90ff25013ebe0afd6b5b8c2c080bc34231498eb33a46174aa92056",
      "blockNumber": "0x1c31a55",
      "from": "0x7caF754C934710D7C73bc453654552BEcA38223F",
      "to": "0x9218521020EF26924B77188f4ddE0d0f7C405f21",
      "cumulativeGasUsed": "0x1f150",
      "gasUsed": "0x14d7f",
      "contractAddress": null,
      "logs": [],
      "status": "0x1",
      "logsBloom": "0x00000000000000000000000000000000000000000000000000000000000000000000000000000000000000000000000000000000000000000000000000000000000000000000000000000000000000000000000000000000000000000000000000000000000000000000000000000000000000000000000000000000000000000000000000000000000000000000000000000000000000000000000000000000000000000000000000000000000000000000000000000000000000000000000000000000000000000000000000000000000000000000000000000000000000000000000000000000000000000000000000000000000000000000000000000000",
      "type": "0x2",
      "effectiveGasPrice": "0x85554d0"
    },
    {
      "transactionHash": "0x81125073bdbfdca3003b4f60122212fe077740ecc63cde9783bea792727b38fa",
      "transactionIndex": "0x3",
      "blockHash": "0x6019febdb44b6ee3fa5b846c05efe3aa31ad34c57151ce2e1c4c70fd3a32aaf8",
      "blockNumber": "0x1c31a58",
      "from": "0x7caF754C934710D7C73bc453654552BEcA38223F",
      "to": "0x9218521020EF26924B77188f4ddE0d0f7C405f21",
      "cumulativeGasUsed": "0x1a6877",
      "gasUsed": "0x14d03",
      "contractAddress": null,
      "logs": [],
      "status": "0x1",
      "logsBloom": "0x00000000000000000000000000000000000000000000000000000000000000000000000000000000000000000000000000000000000000000000000000000000000000000000000000000000000000000000000000000000000000000000000000000000000000000000000000000000000000000000000000000000000000000000000000000000000000000000000000000000000000000000000000000000000000000000000000000000000000000000000000000000000000000000000000000000000000000000000000000000000000000000000000000000000000000000000000000000000000000000000000000000000000000000000000000000",
      "type": "0x2",
      "effectiveGasPrice": "0x84f6160"
    },
    {
      "transactionHash": "0xe7037da1b56463f5391044014a0662da78db6efcfe351ed65c1120ebbab18eef",
      "transactionIndex": "0x1",
      "blockHash": "0x823ed3d32af143ee8c0cffe15920c0014d0b0194a3ba7d06f959409b807c895b",
      "blockNumber": "0x1c31a5b",
      "from": "0x7caF754C934710D7C73bc453654552BEcA38223F",
      "to": "0x9218521020EF26924B77188f4ddE0d0f7C405f21",
      "cumulativeGasUsed": "0x18fcd",
      "gasUsed": "0x18fcd",
      "contractAddress": null,
      "logs": [],
      "status": "0x1",
      "logsBloom": "0x00000000000000000000000000000000000000000000000000000000000000000000000000000000000000000000000000000000000000000000000000000000000000000000000000000000000000000000000000000000000000000000000000000000000000000000000000000000000000000000000000000000000000000000000000000000000000000000000000000000000000000000000000000000000000000000000000000000000000000000000000000000000000000000000000000000000000000000000000000000000000000000000000000000000000000000000000000000000000000000000000000000000000000000000000000000",
      "type": "0x2",
      "effectiveGasPrice": "0x84af490"
    },
    {
      "transactionHash": "0x656064f6d76930493987fc448d23ad55e77cd712d829727422296153d4df3085",
      "transactionIndex": "0x1",
      "blockHash": "0x4b869363a014a8c9f24bb1645f8fc2faad95fde9cc2fd374c307e453f4123046",
      "blockNumber": "0x1c31a5e",
      "from": "0x7caF754C934710D7C73bc453654552BEcA38223F",
      "to": "0x9218521020EF26924B77188f4ddE0d0f7C405f21",
      "cumulativeGasUsed": "0x14eeb",
      "gasUsed": "0x14eeb",
      "contractAddress": null,
      "logs": [],
      "status": "0x1",
      "logsBloom": "0x00000000000000000000000000000000000000000000000000000000000000000000000000000000000000000000000000000000000000000000000000000000000000000000000000000000000000000000000000000000000000000000000000000000000000000000000000000000000000000000000000000000000000000000000000000000000000000000000000000000000000000000000000000000000000000000000000000000000000000000000000000000000000000000000000000000000000000000000000000000000000000000000000000000000000000000000000000000000000000000000000000000000000000000000000000000",
      "type": "0x2",
      "effectiveGasPrice": "0x843c8a0"
    },
    {
      "transactionHash": "0xed72db506415dd3106bbb7a117bcf63e35e62387eebfa04c617fcbc32f272b6b",
      "transactionIndex": "0x4",
      "blockHash": "0x86f754d8d1c7e38b3da2bfaf5b2f4a9d167064502adc6434b34d77ed13efefc9",
      "blockNumber": "0x1c31a61",
      "from": "0x7caF754C934710D7C73bc453654552BEcA38223F",
      "to": "0x9218521020EF26924B77188f4ddE0d0f7C405f21",
      "cumulativeGasUsed": "0x1603e8",
      "gasUsed": "0x14e2d",
      "contractAddress": null,
      "logs": [],
      "status": "0x1",
      "logsBloom": "0x00000000000000000000000000000000000000000000000000000000000000000000000000000000000000000000000000000000000000000000000000000000000000000000000000000000000000000000000000000000000000000000000000000000000000000000000000000000000000000000000000000000000000000000000000000000000000000000000000000000000000000000000000000000000000000000000000000000000000000000000000000000000000000000000000000000000000000000000000000000000000000000000000000000000000000000000000000000000000000000000000000000000000000000000000000000",
      "type": "0x2",
      "effectiveGasPrice": "0x84b1ba0"
    }
  ],
  "libraries": [],
  "pending": [],
  "returns": {},
  "timestamp": 1712068442,
  "chain": 421614,
  "commit": "1947557"
}