{
  "transactions": [
    {
      "hash": "0x994342be35a65821f1b032e9f082aaed123b4f3f5f349c31de3c74d38b72169a",
      "transactionType": "CALL",
      "contractName": null,
      "contractAddress": "0xbf0431a66278b19c8eaf07160defd0ec1f1d6981",
      "function": "delegateToFacet(uint8,bytes)",
      "arguments": [
        "1",
        "0x9e32196b0000000000000000000000005f83f5780b301b4efb8dda2715b280ba297baea0d8857d1b00000000000000000000000000000000000000000000000000000000"
      ],
      "transaction": {
        "from": "0x7caf754c934710d7c73bc453654552beca38223f",
        "to": "0xbf0431a66278b19c8eaf07160defd0ec1f1d6981",
        "gas": "0x636cc",
        "value": "0x0",
        "input": "0x3a512aef0000000000000000000000000000000000000000000000000000000000000001000000000000000000000000000000000000000000000000000000000000004000000000000000000000000000000000000000000000000000000000000000449e32196b0000000000000000000000005f83f5780b301b4efb8dda2715b280ba297baea0d8857d1b0000000000000000000000000000000000000000000000000000000000000000000000000000000000000000000000000000000000000000",
        "nonce": "0x187",
        "chainId": "0x66eee"
      },
      "additionalContracts": [],
      "isFixedGasLimit": false
    }
  ],
  "receipts": [
    {
      "status": "0x1",
      "cumulativeGasUsed": "0x178500",
      "logs": [
        {
          "address": "0xbf0431a66278b19c8eaf07160defd0ec1f1d6981",
          "topics": [
            "0x1cf6fe1460d17046eea0957617a8ee0067050d9380fb7ef8cdd34afc3095a88b",
            "0xe85bc08b00000000000000000000000000000000000000000000000000000000"
          ],
          "data": "0x0000000000000000000000005f83f5780b301b4efb8dda2715b280ba297baea0d8857d1b00000000000000000000000000000000000000000000000000000000",
          "blockHash": "0x8d1f91a9d94cfbd195d5baec82874887eb5ce34d515779b4fd2b6447d6071f65",
          "blockNumber": "0x364a2f7",
          "transactionHash": "0x994342be35a65821f1b032e9f082aaed123b4f3f5f349c31de3c74d38b72169a",
          "transactionIndex": "0x2",
          "logIndex": "0x2",
          "removed": false
        }
      ],
      "logsBloom": "0x00000008000000000000000000000000000000000000000000000000000000000000000000000000000000000000000000000000000000000000000000000000000000000000000000000008000000000000000000000000000020000000080000004000000000000000000000000000040000000000000000000000000000000000000000000800000000000000000080000000000000000000000000000000000000000000000000000000000000000000000000000000000000000000000000000000000000000000000000000000000000000000000000000000000000000000000000000000000000000000000000000000000000000002000000000000",
      "type": "0x2",
      "transactionHash": "0x994342be35a65821f1b032e9f082aaed123b4f3f5f349c31de3c74d38b72169a",
      "transactionIndex": "0x2",
      "blockHash": "0x8d1f91a9d94cfbd195d5baec82874887eb5ce34d515779b4fd2b6447d6071f65",
      "blockNumber": "0x364a2f7",
      "gasUsed": "0x3e4e2",
      "effectiveGasPrice": "0x5f5e100",
      "from": "0x7caf754c934710d7c73bc453654552beca38223f",
      "to": "0xbf0431a66278b19c8eaf07160defd0ec1f1d6981",
      "contractAddress": null,
      "gasUsedForL1": "0x30f49",
      "l1BlockNumber": "0x5deafa"
    }
  ],
  "libraries": [],
  "pending": [],
  "returns": {},
  "timestamp": 1718976103,
  "chain": 421614,
  "commit": "89e0098"
}