{
  "transactions": [
    {
      "hash": "0xa513ea0d91125b9cbba3d8d8f189d1078bf353bf0756d4318dd98f18e27fad5e",
      "transactionType": "CALL",
      "contractName": null,
      "contractAddress": "0x758f01b484212b38eae264f75c0dd7842d510d9c",
      "function": "mint(uint256,string,string,address)",
      "arguments": [
        "2",
        "\"Frak\"",
        "\"frak.id\"",
        "0x7caF754C934710D7C73bc453654552BEcA38223F"
      ],
      "transaction": {
        "from": "0x7caf754c934710d7c73bc453654552beca38223f",
        "to": "0x758f01b484212b38eae264f75c0dd7842d510d9c",
        "gas": "0x6011f",
        "value": "0x0",
        "input": "0x4340d4d50000000000000000000000000000000000000000000000000000000000000002000000000000000000000000000000000000000000000000000000000000008000000000000000000000000000000000000000000000000000000000000000c00000000000000000000000007caf754c934710d7c73bc453654552beca38223f00000000000000000000000000000000000000000000000000000000000000044672616b0000000000000000000000000000000000000000000000000000000000000000000000000000000000000000000000000000000000000000000000076672616b2e696400000000000000000000000000000000000000000000000000",
        "nonce": "0x22e",
        "chainId": "0x66eee"
      },
      "additionalContracts": [],
      "isFixedGasLimit": false
    },
    {
      "hash": "0x87e4bd8f65ab7ed0f49a78d0b85d8cb97c5d5cc4de8108062f3ae883b1da77f0",
      "transactionType": "CALL",
      "contractName": null,
      "contractAddress": "0xfe0717cacd6fff3001edd3f360eb2854f54861dd",
      "function": "deployInteractionContract(uint256)",
      "arguments": [
        "79779516358427208576129661848423776934526633566649852115422670859041784133448"
      ],
      "transaction": {
        "from": "0x7caf754c934710d7c73bc453654552beca38223f",
        "to": "0xfe0717cacd6fff3001edd3f360eb2854f54861dd",
        "gas": "0x285a1a",
        "value": "0x0",
        "input": "0x00316a34b0619b27c165cb8eb016dbfdcdbebed113641649d139147c3130c58eec9ef748",
        "nonce": "0x22f",
        "chainId": "0x66eee"
      },
      "additionalContracts": [
        {
          "transactionType": "CREATE",
          "address": "0x8637ecfdee2c8587aa5d14ca30b20d2ab565642f",
          "initCode": "0x6101606040523480156200001257600080fd5b50604051620021ba380380620021ba8339810160408190526200003591620002a0565b306080524660a05260608062000097604080518082018252601781527f4672616b2e436f6e74656e74496e746572616374696f6e00000000000000000060208083019190915282518084019093526005835264302e302e3160d81b9083015291565b815160209283012081519183019190912060c082905260e0819052604080517f8b73c3c69bb8fe3d512ecc4cf759cc79239f7b179b0ffacaa9a75d522b39400f8152938401929092529082015246606082015230608082015260a090206101005250506101208590526001600160a01b0384166101405262000118620001a6565b62000123826200020a565b6200013082600262000247565b6200013d83600662000247565b6200014a81600a62000247565b50507f3d16196f272c96153eabc4eb746e08ae541cf36535edb959ed80f5e5169b678760009081526020939093525050604090207fd966519fe3fe853ea9b03acd8a0422a17006c68dbe1d8fa2b9127b9e8e22eac45562000314565b63409feecd1980546001811615620001c65763f92ee8a96000526004601cfd5b8160c01c808260011c1462000205578060011b8355806020527fc7f505b2f371ae2175ee4913f4499e1f2633a7b5936321eed1cdaeb6115181d2602080a15b505050565b6001600160a01b0316638b78c6d8198190558060007f8be0079c531659141344cd1fd0a4f28419497f9722a3daafe3b4186f6b6457e08180a35b50565b638b78c6d8600c5281600052806020600c205580600c5160601c7f715ad5ce61fc9595c7b415289d59cf203f23a94fa06f04af7e489a0a76e1fe26600080a35050565b6001600160a01b03811681146200024457600080fd5b600080600080600060a08688031215620002b957600080fd5b855194506020860151620002cd816200028a565b6040870151909450620002e0816200028a565b6060870151909350620002f3816200028a565b608087015190925062000306816200028a565b809150509295509295909350565b60805160a05160c05160e051610100516101205161014051611e2462000396600039600050506000818161045d01526113ea0152600081816115dc015261172d01526000818161169601526117e701526000818161167001526117c101526000818161162001526117710152600081816115fd015261174e0152611e246000f3fe6080604052600436106101a15760003560e01c8063715018a6116100e1578063b03c9d831161008a578063ed24911d11610064578063ed24911d1461050c578063f04e283e14610521578063f2fde38b14610534578063fee81cf41461054757600080fd5b8063b03c9d8314610481578063df6e4179146104d7578063e987c53d146104ec57600080fd5b80638da5cb5b116100bb5780638da5cb5b146103f8578063a6b036331461042c578063ac078ad81461044e57600080fd5b8063715018a6146103a857806379264e59146103b057806384b0196e146103d057600080fd5b80633a512aef1161014e578063514e62fc11610128578063514e62fc146102bf57806354d1f13d146102f657806365651489146102fe5780636e8158d31461031e57600080fd5b80633a512aef1461026c57806340c6349b1461028c5780634a4ee7b1146102ac57600080fd5b80631cd64df41161017f5780631cd64df4146101ee57806325692962146102235780632de948071461022b57600080fd5b806311d6e1fb146101a6578063183a4f6e146101c85780631c10893f146101db575b600080fd5b3480156101b257600080fd5b506101c66101c13660046118ff565b61057a565b005b6101c66101d6366004611923565b6106e0565b6101c66101e936600461193c565b6106ed565b3480156101fa57600080fd5b5061020e61020936600461193c565b610703565b60405190151581526020015b60405180910390f35b6101c6610722565b34801561023757600080fd5b5061025e6102463660046118ff565b638b78c6d8600c908152600091909152602090205490565b60405190815260200161021a565b34801561027857600080fd5b506101c66102873660046119c0565b610772565b34801561029857600080fd5b506101c66102a7366004611a5a565b61082a565b6101c66102ba36600461193c565b610899565b3480156102cb57600080fd5b5061020e6102da36600461193c565b638b78c6d8600c90815260009290925260209091205416151590565b6101c66108ab565b34801561030a57600080fd5b506101c6610319366004611923565b6108e7565b34801561032a57600080fd5b50610383610339366004611a9c565b60ff1660009081527fd966519fe3fe853ea9b03acd8a0422a17006c68dbe1d8fa2b9127b9e8e22eac7602052604090205473ffffffffffffffffffffffffffffffffffffffff1690565b60405173ffffffffffffffffffffffffffffffffffffffff909116815260200161021a565b6101c6610994565b3480156103bc57600080fd5b506101c66103cb366004611a5a565b6109a8565b3480156103dc57600080fd5b506103e56109f5565b60405161021a9796959493929190611b1d565b34801561040457600080fd5b507fffffffffffffffffffffffffffffffffffffffffffffffffffffffff7487392754610383565b34801561043857600080fd5b50610441610a9e565b60405161021a9190611bdf565b34801561045a57600080fd5b507f000000000000000000000000000000000000000000000000000000000000000061025e565b34801561048d57600080fd5b5061025e61049c366004611c39565b60009182526020908152604080832083527fd966519fe3fe853ea9b03acd8a0422a17006c68dbe1d8fa2b9127b9e8e22eac590915290205490565b3480156104e357600080fd5b5061025e610b2f565b3480156104f857600080fd5b506101c6610507366004611c69565b610b5e565b34801561051857600080fd5b5061025e610c68565b6101c661052f3660046118ff565b610c72565b6101c66105423660046118ff565b610caf565b34801561055357600080fd5b5061025e6105623660046118ff565b63389a75e1600c908152600091909152602090205490565b600461058581610cd6565b7fd966519fe3fe853ea9b03acd8a0422a17006c68dbe1d8fa2b9127b9e8e22eac660005b815481101561063c578373ffffffffffffffffffffffffffffffffffffffff168282815481106105db576105db611cd5565b60009182526020909120015473ffffffffffffffffffffffffffffffffffffffff1603610634576040517f0ed89c9f00000000000000000000000000000000000000000000000000000000815260040160405180910390fd5b6001016105a9565b5060405173ffffffffffffffffffffffffffffffffffffffff841681527fbbd540c9aa1ce1590abf508954e65d1d8112c73882577d66c64e4527a3c016bd9060200160405180910390a18054600181018255600091825260209091200180547fffffffffffffffffffffffff00000000000000000000000000000000000000001673ffffffffffffffffffffffffffffffffffffffff939093169290921790915550565b6106ea3382610cfc565b50565b6106f5610d08565b6106ff8282610d3e565b5050565b638b78c6d8600c90815260008390526020902054811681145b92915050565b60006202a30067ffffffffffffffff164201905063389a75e1600c5233600052806020600c2055337fdbf36a107da19e49527a7176a1babf963b4b0ff8cde35ee35d6cd8f1f9ac7e1d600080a250565b600061077d84610d4a565b905060008173ffffffffffffffffffffffffffffffffffffffff1684846040516107a8929190611d04565b600060405180830381855af49150503d80600081146107e3576040519150601f19603f3d011682016040523d82523d6000602084013e6107e8565b606091505b5050905080610823576040517f8db2eecc00000000000000000000000000000000000000000000000000000000815260040160405180910390fd5b5050505050565b600461083581610cd6565b7fd966519fe3fe853ea9b03acd8a0422a17006c68dbe1d8fa2b9127b9e8e22eac660005b838110156108235761089185858381811061087657610876611cd5565b905060200201602081019061088b91906118ff565b83610dce565b600101610859565b6108a1610d08565b6106ff8282610cfc565b63389a75e1600c523360005260006020600c2055337ffa7b8eab7da67f412cc9575ed43464468f9bfbae89d1675917346ca6d8fe3c92600080a2565b60026108f281610cd6565b60006108fd8361119b565b905060005b815181101561098e577fd966519fe3fe853ea9b03acd8a0422a17006c68dbe1d8fa2b9127b9e8e22eac4600301600083838151811061094357610943611cd5565b60209081029190910181015160ff16825281019190915260400160002080547fffffffffffffffffffffffff0000000000000000000000000000000000000000169055600101610902565b50505050565b61099c610d08565b6109a66000611218565b565b60026109b381610cd6565b60005b8281101561098e576109ed8484838181106109d3576109d3611cd5565b90506020020160208101906109e891906118ff565b61127e565b6001016109b6565b7f0f000000000000000000000000000000000000000000000000000000000000006060806000808083610a8c604080518082018252601781527f4672616b2e436f6e74656e74496e746572616374696f6e0000000000000000006020808301919091528251808401909352600583527f302e302e310000000000000000000000000000000000000000000000000000009083015291565b97989097965046955030945091925090565b60607fd966519fe3fe853ea9b03acd8a0422a17006c68dbe1d8fa2b9127b9e8e22eac4600201805480602002602001604051908101604052809291908181526020018280548015610b2557602002820191906000526020600020905b815473ffffffffffffffffffffffffffffffffffffffff168152600190910190602001808311610afa575b5050505050905090565b6000610b597fd966519fe3fe853ea9b03acd8a0422a17006c68dbe1d8fa2b9127b9e8e22eac45490565b905090565b6000366000610b6d8787611366565b9250925092506000610b7e84610d4a565b9050610ba38383604051610b93929190611d04565b60405180910390203388886113b5565b6000808273ffffffffffffffffffffffffffffffffffffffff168585604051610bcd929190611d04565b600060405180830381855af49150503d8060008114610c08576040519150601f19603f3d011682016040523d82523d6000602084013e610c0d565b606091505b509150915081610c49576040517f8db2eecc00000000000000000000000000000000000000000000000000000000815260040160405180910390fd5b601781511115610c5c57610c5c81611507565b50505050505050505050565b6000610b596115da565b610c7a610d08565b63389a75e1600c52806000526020600c208054421115610ca257636f5e88186000526004601cfd5b600090556106ea81611218565b610cb7610d08565b8060601b610ccd57637448fbae6000526004601cfd5b6106ea81611218565b638b78c6d8600c5233600052806020600c2054166106ea576382b429006000526004601cfd5b6106ff828260006116d2565b7fffffffffffffffffffffffffffffffffffffffffffffffffffffffff748739275433146109a6576382b429006000526004601cfd5b6106ff828260016116d2565b60ff811660009081527fd966519fe3fe853ea9b03acd8a0422a17006c68dbe1d8fa2b9127b9e8e22eac7602052604090205473ffffffffffffffffffffffffffffffffffffffff1680610dc9576040517f705afea200000000000000000000000000000000000000000000000000000000815260040160405180910390fd5b919050565b80546000908290610de190600190611d43565b81548110610df157610df1611cd5565b60009182526020909120015473ffffffffffffffffffffffffffffffffffffffff908116915083168103610f355760405173ffffffffffffffffffffffffffffffffffffffff841681527f241e2c5d6c757ade3ced2be5c870af8e2d918a1d19a6bda4c5dbf6537f971fcb9060200160405180910390a18073ffffffffffffffffffffffffffffffffffffffff1663036138fd6040518163ffffffff1660e01b8152600401600060405180830381600087803b158015610eb057600080fd5b505af1158015610ec4573d6000803e3d6000fd5b5050505081805480610ed857610ed8611d56565b60008281526020902081017fffffffffffffffffffffffffffffffffffffffffffffffffffffffffffffffff90810180547fffffffffffffffffffffffff0000000000000000000000000000000000000000169055019055505050565b8154600103610f4357505050565b60005b825481101561098e578373ffffffffffffffffffffffffffffffffffffffff16838281548110610f7857610f78611cd5565b60009182526020909120015473ffffffffffffffffffffffffffffffffffffffff16036111935760405173ffffffffffffffffffffffffffffffffffffffff851681527f241e2c5d6c757ade3ced2be5c870af8e2d918a1d19a6bda4c5dbf6537f971fcb9060200160405180910390a1828181548110610ffa57610ffa611cd5565b6000918252602082200154604080517f036138fd000000000000000000000000000000000000000000000000000000008152905173ffffffffffffffffffffffffffffffffffffffff9092169263036138fd9260048084019382900301818387803b15801561106857600080fd5b505af115801561107c573d6000803e3d6000fd5b505084548592506110909150600190611d43565b815481106110a0576110a0611cd5565b9060005260206000200160009054906101000a900473ffffffffffffffffffffffffffffffffffffffff168382815481106110dd576110dd611cd5565b9060005260206000200160006101000a81548173ffffffffffffffffffffffffffffffffffffffff021916908373ffffffffffffffffffffffffffffffffffffffff1602179055508280548061113557611135611d56565b60008281526020902081017fffffffffffffffffffffffffffffffffffffffffffffffffffffffffffffffff90810180547fffffffffffffffffffffffff000000000000000000000000000000000000000016905501905550505050565b600101610f46565b6040805161010080825261202082019092526060916020820161200080368337019050509050816000805b61010081101561120f576001811b83161561120757808483815181106111ee576111ee611cd5565b60ff909216602092830291909101909101526001909101905b6001016111c6565b50825250919050565b7fffffffffffffffffffffffffffffffffffffffffffffffffffffffff74873927805473ffffffffffffffffffffffffffffffffffffffff9092169182907f8be0079c531659141344cd1fd0a4f28419497f9722a3daafe3b4186f6b6457e0600080a355565b60008173ffffffffffffffffffffffffffffffffffffffff16633f71ac166040518163ffffffff1660e01b8152600401602060405180830381865afa1580156112cb573d6000803e3d6000fd5b505050506040513d601f19601f820116820180604052508101906112ef9190611d85565b60ff1660009081527fd966519fe3fe853ea9b03acd8a0422a17006c68dbe1d8fa2b9127b9e8e22eac76020526040902080547fffffffffffffffffffffffff00000000000000000000000000000000000000001673ffffffffffffffffffffffffffffffffffffffff939093169290921790915550565b60003681600584101561137d5750839050826113ae565b8484600081811061139057611390611cd5565b919091013560f81c93506113a990508460018188611da2565b915091505b9250925092565b6000848152602084905260408120906114a67f96ab5fb5f0c276aa9b04a5a1af0f082abb488fb66fc30ace38dabcd3070480877f000000000000000000000000000000000000000000000000000000000000000088887fd966519fe3fe853ea9b03acd8a0422a17006c68dbe1d8fa2b9127b9e8e22eac460008881526001919091016020526040812080549161144a83611dcc565b90915550604080516020810196909652850193909352606084019190915273ffffffffffffffffffffffffffffffffffffffff16608083015260a082015260c0016040516020818303038152906040528051906020012061172b565b905060006114b5828686611843565b905060006114c4826008610703565b9050806114fd576040517facd13cc100000000000000000000000000000000000000000000000000000000815260040160405180910390fd5b5050505050505050565b7fd966519fe3fe853ea9b03acd8a0422a17006c68dbe1d8fa2b9127b9e8e22eac6805460005b8181101561098e5782818154811061154757611547611cd5565b6000918252602090912001546040517fc375ab1300000000000000000000000000000000000000000000000000000000815273ffffffffffffffffffffffffffffffffffffffff9091169063c375ab13906115a6908790600401611e04565b600060405180830381600087803b1580156115c057600080fd5b505af19250505080156115d1575060015b5060010161152d565b7f00000000000000000000000000000000000000000000000000000000000000007f000000000000000000000000000000000000000000000000000000000000000030147f00000000000000000000000000000000000000000000000000000000000000004614166116cf5750604080517f8b73c3c69bb8fe3d512ecc4cf759cc79239f7b179b0ffacaa9a75d522b39400f81527f000000000000000000000000000000000000000000000000000000000000000060208201527f00000000000000000000000000000000000000000000000000000000000000009181019190915246606082015230608082015260a0902090565b90565b638b78c6d8600c52826000526020600c208054838117836116f4575080841681185b80835580600c5160601c7f715ad5ce61fc9595c7b415289d59cf203f23a94fa06f04af7e489a0a76e1fe26600080a3505050505050565b7f00000000000000000000000000000000000000000000000000000000000000007f000000000000000000000000000000000000000000000000000000000000000030147f000000000000000000000000000000000000000000000000000000000000000046141661181e5750604080517f8b73c3c69bb8fe3d512ecc4cf759cc79239f7b179b0ffacaa9a75d522b39400f81527f000000000000000000000000000000000000000000000000000000000000000060208201527f00000000000000000000000000000000000000000000000000000000000000009181019190915246606082015230608082015260a090205b67190100000000000060005280601a5281603a52604260182090506000603a52919050565b6040516000849052600190604083036118965760208481013560ff81901c601b0190915284356040527f7fffffffffffffffffffffffffffffffffffffffffffffffffffffffffffffff166060526118b9565b604183036118b457604084013560001a6020526040846040376118b9565b600091505b6020604060806000855afa5060006060523d60601851915080604052509392505050565b73ffffffffffffffffffffffffffffffffffffffff811681146106ea57600080fd5b60006020828403121561191157600080fd5b813561191c816118dd565b9392505050565b60006020828403121561193557600080fd5b5035919050565b6000806040838503121561194f57600080fd5b823561195a816118dd565b946020939093013593505050565b60ff811681146106ea57600080fd5b60008083601f84011261198957600080fd5b50813567ffffffffffffffff8111156119a157600080fd5b6020830191508360208285010111156119b957600080fd5b9250929050565b6000806000604084860312156119d557600080fd5b83356119e081611968565b9250602084013567ffffffffffffffff8111156119fc57600080fd5b611a0886828701611977565b9497909650939450505050565b60008083601f840112611a2757600080fd5b50813567ffffffffffffffff811115611a3f57600080fd5b6020830191508360208260051b85010111156119b957600080fd5b60008060208385031215611a6d57600080fd5b823567ffffffffffffffff811115611a8457600080fd5b611a9085828601611a15565b90969095509350505050565b600060208284031215611aae57600080fd5b813561191c81611968565b6000815180845260005b81811015611adf57602081850181015186830182015201611ac3565b5060006020828601015260207fffffffffffffffffffffffffffffffffffffffffffffffffffffffffffffffe0601f83011685010191505092915050565b7fff00000000000000000000000000000000000000000000000000000000000000881681526000602060e06020840152611b5a60e084018a611ab9565b8381036040850152611b6c818a611ab9565b6060850189905273ffffffffffffffffffffffffffffffffffffffff8816608086015260a0850187905284810360c08601528551808252602080880193509091019060005b81811015611bcd57835183529284019291840191600101611bb1565b50909c9b505050505050505050505050565b6020808252825182820181905260009190848201906040850190845b81811015611c2d57835173ffffffffffffffffffffffffffffffffffffffff1683529284019291840191600101611bfb565b50909695505050505050565b60008060408385031215611c4c57600080fd5b823591506020830135611c5e816118dd565b809150509250929050565b60008060008060408587031215611c7f57600080fd5b843567ffffffffffffffff80821115611c9757600080fd5b611ca388838901611977565b90965094506020870135915080821115611cbc57600080fd5b50611cc987828801611977565b95989497509550505050565b7f4e487b7100000000000000000000000000000000000000000000000000000000600052603260045260246000fd5b8183823760009101908152919050565b7f4e487b7100000000000000000000000000000000000000000000000000000000600052601160045260246000fd5b8181038181111561071c5761071c611d14565b7f4e487b7100000000000000000000000000000000000000000000000000000000600052603160045260246000fd5b600060208284031215611d9757600080fd5b815161191c81611968565b60008085851115611db257600080fd5b83861115611dbf57600080fd5b5050820193919092039150565b60007fffffffffffffffffffffffffffffffffffffffffffffffffffffffffffffffff8203611dfd57611dfd611d14565b5060010190565b60208152600061191c6020830184611ab956fea164736f6c6343000817000ab0619b27c165cb8eb016dbfdcdbebed113641649d139147c3130c58eec9ef7480000000000000000000000000a1d4292bc42d39e02b98a6af9d2e49f16dbed43000000000000000000000000fe0717cacd6fff3001edd3f360eb2854f54861dd0000000000000000000000007caf754c934710d7c73bc453654552beca38223f0000000000000000000000007caf754c934710d7c73bc453654552beca38223f"
        }
      ],
      "isFixedGasLimit": false
    },
    {
      "hash": "0x3f614329b2681e57ebee7f99511a0cffa9e92ee263a70971ce5a97f82c5c8f6e",
      "transactionType": "CALL",
      "contractName": "ContentInteractionDiamond",
      "contractAddress": "0x8637ecfdee2c8587aa5d14ca30b20d2ab565642f",
      "function": "grantRoles(address,uint256)",
      "arguments": [
        "0x8747C17970464fFF597bd5a580A72fCDA224B0A1",
        "8"
      ],
      "transaction": {
        "from": "0x7caf754c934710d7c73bc453654552beca38223f",
        "to": "0x8637ecfdee2c8587aa5d14ca30b20d2ab565642f",
        "gas": "0x2c859",
        "value": "0x0",
        "input": "0x1c10893f0000000000000000000000008747c17970464fff597bd5a580a72fcda224b0a10000000000000000000000000000000000000000000000000000000000000008",
        "nonce": "0x230",
        "chainId": "0x66eee"
      },
      "additionalContracts": [],
      "isFixedGasLimit": false
    },
    {
      "hash": "0x8ae17eb0174b36cd1f3f7a877c844989df434428ce1cac37a38bd8b81100e7b3",
      "transactionType": "CALL",
      "contractName": "ContentInteractionDiamond",
      "contractAddress": "0x8637ecfdee2c8587aa5d14ca30b20d2ab565642f",
      "function": "delegateToFacet(uint8,bytes)",
      "arguments": [
        "1",
        "0x9e32196b0000000000000000000000005f83f5780b301b4efb8dda2715b280ba297baea0d8857d1b00000000000000000000000000000000000000000000000000000000"
      ],
      "transaction": {
        "from": "0x7caf754c934710d7c73bc453654552beca38223f",
        "to": "0x8637ecfdee2c8587aa5d14ca30b20d2ab565642f",
        "gas": "0x3c6ba",
        "value": "0x0",
        "input": "0x3a512aef0000000000000000000000000000000000000000000000000000000000000001000000000000000000000000000000000000000000000000000000000000004000000000000000000000000000000000000000000000000000000000000000449e32196b0000000000000000000000005f83f5780b301b4efb8dda2715b280ba297baea0d8857d1b0000000000000000000000000000000000000000000000000000000000000000000000000000000000000000000000000000000000000000",
        "nonce": "0x231",
        "chainId": "0x66eee"
      },
      "additionalContracts": [],
      "isFixedGasLimit": false
    }
  ],
  "receipts": [
    {
      "status": "0x1",
      "cumulativeGasUsed": "0x40e84",
      "logs": [
        {
          "address": "0x758f01b484212b38eae264f75c0dd7842d510d9c",
          "topics": [
            "0xc413beaf8ef6caaaa86c18b4ea3b904a3e9573715da9f3ba2162c20235831102",
            "0xb0619b27c165cb8eb016dbfdcdbebed113641649d139147c3130c58eec9ef748"
          ],
          "data": "0x0000000000000000000000000000000000000000000000000000000000000060000000000000000000000000000000000000000000000000000000000000000200000000000000000000000000000000000000000000000000000000000000a000000000000000000000000000000000000000000000000000000000000000076672616b2e69640000000000000000000000000000000000000000000000000000000000000000000000000000000000000000000000000000000000000000044672616b00000000000000000000000000000000000000000000000000000000",
          "blockHash": "0xbbacd6b12e9369668aea43a916201a212d1439f61746912a6cc87041f04f210b",
          "blockNumber": "0x3d27379",
          "transactionHash": "0xa513ea0d91125b9cbba3d8d8f189d1078bf353bf0756d4318dd98f18e27fad5e",
          "transactionIndex": "0x1",
          "logIndex": "0x0",
          "removed": false
        },
        {
          "address": "0x758f01b484212b38eae264f75c0dd7842d510d9c",
          "topics": [
            "0xddf252ad1be2c89b69c2b068fc378daa952ba7f163c4a11628f55a4df523b3ef",
            "0x0000000000000000000000000000000000000000000000000000000000000000",
            "0x0000000000000000000000007caf754c934710d7c73bc453654552beca38223f",
            "0xb0619b27c165cb8eb016dbfdcdbebed113641649d139147c3130c58eec9ef748"
          ],
          "data": "0x",
          "blockHash": "0xbbacd6b12e9369668aea43a916201a212d1439f61746912a6cc87041f04f210b",
          "blockNumber": "0x3d27379",
          "transactionHash": "0xa513ea0d91125b9cbba3d8d8f189d1078bf353bf0756d4318dd98f18e27fad5e",
          "transactionIndex": "0x1",
          "logIndex": "0x1",
          "removed": false
        }
      ],
      "logsBloom": "0x00000000000000200000000000000000000200000000800000000000000000000000000000000000000000000020000000000000000004000000001000000100000000000000000000000008000000000000000000000000000000000000000000000000020000000000000000020802000000000000000000000010000000000000000000000000000000000000000000000000000000000000000000000000000000000000000000000000000000000000000000008000000000000000000000000002000000000000000000000001000000000000000000000000000020000000000000000000000000000000000000001000000000000000000000000000",
      "type": "0x2",
      "transactionHash": "0xa513ea0d91125b9cbba3d8d8f189d1078bf353bf0756d4318dd98f18e27fad5e",
      "transactionIndex": "0x1",
      "blockHash": "0xbbacd6b12e9369668aea43a916201a212d1439f61746912a6cc87041f04f210b",
      "blockNumber": "0x3d27379",
      "gasUsed": "0x40e84",
      "effectiveGasPrice": "0x5f5e100",
      "from": "0x7caf754c934710d7c73bc453654552beca38223f",
      "to": "0x758f01b484212b38eae264f75c0dd7842d510d9c",
      "contractAddress": null,
      "gasUsedForL1": "0x220c3",
      "l1BlockNumber": "0x6066c2"
    },
    {
      "status": "0x1",
      "cumulativeGasUsed": "0x1cc15d",
      "logs": [
        {
          "address": "0x8637ecfdee2c8587aa5d14ca30b20d2ab565642f",
          "topics": [
            "0xc7f505b2f371ae2175ee4913f4499e1f2633a7b5936321eed1cdaeb6115181d2"
          ],
          "data": "0x000000000000000000000000000000000000000000000000ffffffffffffffff",
          "blockHash": "0x1edf73ef4822a6bd66086f9c947fdbdf6dfe639c0e843401063b913edb3c8ae2",
          "blockNumber": "0x3d2737c",
          "transactionHash": "0x87e4bd8f65ab7ed0f49a78d0b85d8cb97c5d5cc4de8108062f3ae883b1da77f0",
          "transactionIndex": "0x1",
          "logIndex": "0x0",
          "removed": false
        },
        {
          "address": "0x8637ecfdee2c8587aa5d14ca30b20d2ab565642f",
          "topics": [
            "0x8be0079c531659141344cd1fd0a4f28419497f9722a3daafe3b4186f6b6457e0",
            "0x0000000000000000000000000000000000000000000000000000000000000000",
            "0x0000000000000000000000007caf754c934710d7c73bc453654552beca38223f"
          ],
          "data": "0x",
          "blockHash": "0x1edf73ef4822a6bd66086f9c947fdbdf6dfe639c0e843401063b913edb3c8ae2",
          "blockNumber": "0x3d2737c",
          "transactionHash": "0x87e4bd8f65ab7ed0f49a78d0b85d8cb97c5d5cc4de8108062f3ae883b1da77f0",
          "transactionIndex": "0x1",
          "logIndex": "0x1",
          "removed": false
        },
        {
          "address": "0x8637ecfdee2c8587aa5d14ca30b20d2ab565642f",
          "topics": [
            "0x715ad5ce61fc9595c7b415289d59cf203f23a94fa06f04af7e489a0a76e1fe26",
            "0x0000000000000000000000007caf754c934710d7c73bc453654552beca38223f",
            "0x0000000000000000000000000000000000000000000000000000000000000002"
          ],
          "data": "0x",
          "blockHash": "0x1edf73ef4822a6bd66086f9c947fdbdf6dfe639c0e843401063b913edb3c8ae2",
          "blockNumber": "0x3d2737c",
          "transactionHash": "0x87e4bd8f65ab7ed0f49a78d0b85d8cb97c5d5cc4de8108062f3ae883b1da77f0",
          "transactionIndex": "0x1",
          "logIndex": "0x2",
          "removed": false
        },
        {
          "address": "0x8637ecfdee2c8587aa5d14ca30b20d2ab565642f",
          "topics": [
            "0x715ad5ce61fc9595c7b415289d59cf203f23a94fa06f04af7e489a0a76e1fe26",
            "0x000000000000000000000000fe0717cacd6fff3001edd3f360eb2854f54861dd",
            "0x0000000000000000000000000000000000000000000000000000000000000006"
          ],
          "data": "0x",
          "blockHash": "0x1edf73ef4822a6bd66086f9c947fdbdf6dfe639c0e843401063b913edb3c8ae2",
          "blockNumber": "0x3d2737c",
          "transactionHash": "0x87e4bd8f65ab7ed0f49a78d0b85d8cb97c5d5cc4de8108062f3ae883b1da77f0",
          "transactionIndex": "0x1",
          "logIndex": "0x3",
          "removed": false
        },
        {
          "address": "0x8637ecfdee2c8587aa5d14ca30b20d2ab565642f",
          "topics": [
            "0x715ad5ce61fc9595c7b415289d59cf203f23a94fa06f04af7e489a0a76e1fe26",
            "0x0000000000000000000000007caf754c934710d7c73bc453654552beca38223f",
            "0x000000000000000000000000000000000000000000000000000000000000000a"
          ],
          "data": "0x",
          "blockHash": "0x1edf73ef4822a6bd66086f9c947fdbdf6dfe639c0e843401063b913edb3c8ae2",
          "blockNumber": "0x3d2737c",
          "transactionHash": "0x87e4bd8f65ab7ed0f49a78d0b85d8cb97c5d5cc4de8108062f3ae883b1da77f0",
          "transactionIndex": "0x1",
          "logIndex": "0x4",
          "removed": false
        },
        {
          "address": "0xfe0717cacd6fff3001edd3f360eb2854f54861dd",
          "topics": [
            "0x77a3414c535688f81cd85546e65fbd4ff1cd89a82113527f2a72896ba19d0925",
            "0xb0619b27c165cb8eb016dbfdcdbebed113641649d139147c3130c58eec9ef748"
          ],
          "data": "0x0000000000000000000000008637ecfdee2c8587aa5d14ca30b20d2ab565642f",
          "blockHash": "0x1edf73ef4822a6bd66086f9c947fdbdf6dfe639c0e843401063b913edb3c8ae2",
          "blockNumber": "0x3d2737c",
          "transactionHash": "0x87e4bd8f65ab7ed0f49a78d0b85d8cb97c5d5cc4de8108062f3ae883b1da77f0",
          "transactionIndex": "0x1",
          "logIndex": "0x5",
          "removed": false
        }
      ],
      "logsBloom": "0x04000000200000000000000000000000000200000000000000800000000000000000000000000000000000000020000000000000040404000020004000000000000000000000000000000000000000000801000000800000000000000000000100000000020000000000000000000802000000000000000000000000000000400000000400000000010800028000000000000000000080000000000000000000000000000000000000000120000000000000020080018000000000080000000000002000400000000000000000000000000000000004000000000000010020000000000000000000001000000000000000001000008000000000000000000000",
      "type": "0x2",
      "transactionHash": "0x87e4bd8f65ab7ed0f49a78d0b85d8cb97c5d5cc4de8108062f3ae883b1da77f0",
      "transactionIndex": "0x1",
      "blockHash": "0x1edf73ef4822a6bd66086f9c947fdbdf6dfe639c0e843401063b913edb3c8ae2",
      "blockNumber": "0x3d2737c",
      "gasUsed": "0x1cc15d",
      "effectiveGasPrice": "0x5f5e100",
      "from": "0x7caf754c934710d7c73bc453654552beca38223f",
      "to": "0xfe0717cacd6fff3001edd3f360eb2854f54861dd",
      "contractAddress": null,
      "gasUsedForL1": "0x127e5",
      "l1BlockNumber": "0x6066c2"
    },
    {
      "status": "0x1",
      "cumulativeGasUsed": "0x223a3",
      "logs": [
        {
          "address": "0x8637ecfdee2c8587aa5d14ca30b20d2ab565642f",
          "topics": [
            "0x715ad5ce61fc9595c7b415289d59cf203f23a94fa06f04af7e489a0a76e1fe26",
            "0x0000000000000000000000008747c17970464fff597bd5a580a72fcda224b0a1",
            "0x0000000000000000000000000000000000000000000000000000000000000008"
          ],
          "data": "0x",
          "blockHash": "0x736092204c271cbfc8dd4cb66b08255f318d31d1ce195f33d8d07c83f5c96cd5",
          "blockNumber": "0x3d2737f",
          "transactionHash": "0x3f614329b2681e57ebee7f99511a0cffa9e92ee263a70971ce5a97f82c5c8f6e",
          "transactionIndex": "0x1",
          "logIndex": "0x0",
          "removed": false
        }
      ],
      "logsBloom": "0x00000000000000000000020000000000000000000000000000008000000000000000000000000000000000000000000000000000000080000000004000000000000000000000000000000000000000000800000000000000000000000000000000000000000000000000000000000000000000000000000000000000000000000080000000000000000000000000000000000000000000000000000000000000000000000000000000000000000000000000000000010000010000000000000040002000400000000000000000000000000000000000000000000000000000000000000000000000001000000000000000000000000000000000000000000000",
      "type": "0x2",
      "transactionHash": "0x3f614329b2681e57ebee7f99511a0cffa9e92ee263a70971ce5a97f82c5c8f6e",
      "transactionIndex": "0x1",
      "blockHash": "0x736092204c271cbfc8dd4cb66b08255f318d31d1ce195f33d8d07c83f5c96cd5",
      "blockNumber": "0x3d2737f",
      "gasUsed": "0x223a3",
      "effectiveGasPrice": "0x5f5e100",
      "from": "0x7caf754c934710d7c73bc453654552beca38223f",
      "to": "0x8637ecfdee2c8587aa5d14ca30b20d2ab565642f",
      "contractAddress": null,
      "gasUsedForL1": "0x1688f",
      "l1BlockNumber": "0x6066c2"
    },
    {
      "status": "0x1",
      "cumulativeGasUsed": "0x2d50c",
      "logs": [
        {
          "address": "0x8637ecfdee2c8587aa5d14ca30b20d2ab565642f",
          "topics": [
            "0x1cf6fe1460d17046eea0957617a8ee0067050d9380fb7ef8cdd34afc3095a88b",
            "0xe85bc08b00000000000000000000000000000000000000000000000000000000"
          ],
          "data": "0x0000000000000000000000005f83f5780b301b4efb8dda2715b280ba297baea0d8857d1b00000000000000000000000000000000000000000000000000000000",
          "blockHash": "0x5407f4c7ed9fdadbd4ae1637ad7da4fc1cb1814d400c3dc5886a85da6088bc22",
          "blockNumber": "0x3d27382",
          "transactionHash": "0x8ae17eb0174b36cd1f3f7a877c844989df434428ce1cac37a38bd8b81100e7b3",
          "transactionIndex": "0x1",
          "logIndex": "0x0",
          "removed": false
        }
      ],
      "logsBloom": "0x00000008000000000000000000000000000000000000000000000000000000000000000000000000000000000000000000000000000000000000004000000000000000000000000000000008000000000800000000000000000000000000080000000000000000000000000000000000040000000000000000000000000000000000000000000800000000000000000000000000000000000000000000000000000000000000000000000000000000000000000000000000000000000000000000000000000000000000000000000000000000000000000000000000000000000000000000000000001000000000000000000000000000000002000000000000",
      "type": "0x2",
      "transactionHash": "0x8ae17eb0174b36cd1f3f7a877c844989df434428ce1cac37a38bd8b81100e7b3",
      "transactionIndex": "0x1",
      "blockHash": "0x5407f4c7ed9fdadbd4ae1637ad7da4fc1cb1814d400c3dc5886a85da6088bc22",
      "blockNumber": "0x3d27382",
      "gasUsed": "0x2d50c",
      "effectiveGasPrice": "0x5f5e100",
      "from": "0x7caf754c934710d7c73bc453654552beca38223f",
      "to": "0x8637ecfdee2c8587aa5d14ca30b20d2ab565642f",
      "contractAddress": null,
      "gasUsedForL1": "0x1ff73",
      "l1BlockNumber": "0x6066c2"
    }
  ],
  "libraries": [],
  "pending": [],
  "returns": {},
  "timestamp": 1721085281,
  "chain": 421614,
  "commit": "923f1e1"
}