{
  "transactions": [
    {
      "hash": "0xc97ade4d0da1072a8c4b8e6bb9cecfc6bb2aa4d46e13b9c63a673b36d7fdf677",
      "transactionType": "CALL",
      "contractName": null,
      "contractAddress": "0xc110ecb55ebaa4ea9efc361c4bbb224a6664ea45",
      "function": "updateMetadata(uint256,uint256,string)",
      "arguments": [
        "79779516358427208576129661848423776934526633566649852115422670859041784133448",
        "2",
        "\"Frak - Dapp\""
      ],
      "transaction": {
        "from": "0x7caf754c934710d7c73bc453654552beca38223f",
        "to": "0xc110ecb55ebaa4ea9efc361c4bbb224a6664ea45",
        "gas": "0xc332",
        "value": "0x0",
        "input": "0xff09a1a4b0619b27c165cb8eb016dbfdcdbebed113641649d139147c3130c58eec9ef74800000000000000000000000000000000000000000000000000000000000000020000000000000000000000000000000000000000000000000000000000000060000000000000000000000000000000000000000000000000000000000000000b4672616b202d2044617070000000000000000000000000000000000000000000",
        "nonce": "0x185",
        "chainId": "0x66eee"
      },
      "additionalContracts": [],
      "isFixedGasLimit": false
    }
  ],
  "receipts": [
    {
      "status": "0x1",
      "cumulativeGasUsed": "0x2b16c",
      "logs": [
        {
          "address": "0xc110ecb55ebaa4ea9efc361c4bbb224a6664ea45",
          "topics": [
            "0xa442a2713138c7ca8f7668db503be2e9b3e54cc16d86c7220fed0c0534c13fca",
            "0xb0619b27c165cb8eb016dbfdcdbebed113641649d139147c3130c58eec9ef748"
          ],
          "data": "0x00000000000000000000000000000000000000000000000000000000000000020000000000000000000000000000000000000000000000000000000000000040000000000000000000000000000000000000000000000000000000000000000b4672616b202d2044617070000000000000000000000000000000000000000000",
          "blockHash": "0x19ce53f1f53dc65fe9b5ea78032fc887f283a1b31a008f4ed72ae12f45854104",
          "blockNumber": "0x363ef51",
          "transactionHash": "0xc97ade4d0da1072a8c4b8e6bb9cecfc6bb2aa4d46e13b9c63a673b36d7fdf677",
          "transactionIndex": "0x2",
          "logIndex": "0x1",
          "removed": false
        }
      ],
      "logsBloom": "0x00000000000000100000000000000000000000000000000000000000000000000000000000000000000000000020001000000000000004000000000000000000000000000000000000000000000000000000000000000000000000000000000000000000000000000000000000000000000000000000000008000000000000000000400000000000000000000000000000000000000000000000000000000000000000000000000000000000000000000000000001000000000000000000000000000000000000000000000000000000008000000000000000000000000000000000000000000000000000000000000000001000000000000000000000000000",
      "type": "0x2",
      "transactionHash": "0xc97ade4d0da1072a8c4b8e6bb9cecfc6bb2aa4d46e13b9c63a673b36d7fdf677",
      "transactionIndex": "0x2",
      "blockHash": "0x19ce53f1f53dc65fe9b5ea78032fc887f283a1b31a008f4ed72ae12f45854104",
      "blockNumber": "0x363ef51",
      "gasUsed": "0x94b9",
      "effectiveGasPrice": "0x5f5e100",
      "from": "0x7caf754c934710d7c73bc453654552beca38223f",
      "to": "0xc110ecb55ebaa4ea9efc361c4bbb224a6664ea45",
      "contractAddress": null,
      "gasUsedForL1": "0x0",
      "l1BlockNumber": "0x5de70b"
    }
  ],
  "libraries": [],
  "pending": [],
  "returns": {},
  "timestamp": 1718964016,
  "chain": 421614,
  "commit": "091c3b2"
}