{
  "transactions": [
    {
      "hash": "0xf24fc8b4183e307c5e8e6bac6e158a1c8e5f31e6e645f58000fdf0df8a51cb6a",
      "transactionType": "CALL",
      "contractName": "ProductRegistry",
      "contractAddress": "0x5752E0FB600C59E140CDAfDA7AC8933774c19280",
      "function": "grantRoles(address,uint256)",
      "arguments": [
        "0x6A9553387Da23cbfFBdf58eC949c01580448F490",
        "1"
      ],
      "transaction": {
        "from": "0x7caF754C934710D7C73bc453654552BEcA38223F",
        "to": "0x5752E0FB600C59E140CDAfDA7AC8933774c19280",
        "gas": "0x37d45",
        "value": "0x0",
        "input": "0x1c10893f0000000000000000000000006a9553387da23cbffbdf58ec949c01580448f4900000000000000000000000000000000000000000000000000000000000000001",
        "nonce": "0x328",
        "chainId": "0x66eee"
      },
      "additionalContracts": [],
      "isFixedGasLimit": false
    },
    {
      "hash": "0x4e5b9e1ee3a231c3ec87c5178f30a620e85da28a7eb0863d17392b6e02d2894f",
      "transactionType": "CALL",
      "contractName": "mUSDToken",
      "contractAddress": "0x56039fa1a804F614eBD714139F29a3ff4DB57ad6",
      "function": "grantRoles(address,uint256)",
      "arguments": [
        "0x6A9553387Da23cbfFBdf58eC949c01580448F490",
        "1"
      ],
      "transaction": {
        "from": "0x7caF754C934710D7C73bc453654552BEcA38223F",
        "to": "0x56039fa1a804F614eBD714139F29a3ff4DB57ad6",
        "gas": "0x37d29",
        "value": "0x0",
        "input": "0x1c10893f0000000000000000000000006a9553387da23cbffbdf58ec949c01580448f4900000000000000000000000000000000000000000000000000000000000000001",
        "nonce": "0x329",
        "chainId": "0x66eee"
      },
      "additionalContracts": [],
      "isFixedGasLimit": false
    }
  ],
  "receipts": [
    {
      "status": "0x1",
      "cumulativeGasUsed": "0x23bde",
      "logs": [
        {
          "address": "0x5752E0FB600C59E140CDAfDA7AC8933774c19280",
          "topics": [
            "0x715ad5ce61fc9595c7b415289d59cf203f23a94fa06f04af7e489a0a76e1fe26",
            "0x0000000000000000000000006a9553387da23cbffbdf58ec949c01580448f490",
            "0x0000000000000000000000000000000000000000000000000000000000000001"
          ],
          "data": "0x",
          "blockHash": "0xcf157a2814f70ec679872616144d7162dc55a72a2f2e51a9b7a3e74e06b2982b",
          "blockNumber": "0x519d9df",
          "transactionHash": "0xf24fc8b4183e307c5e8e6bac6e158a1c8e5f31e6e645f58000fdf0df8a51cb6a",
          "transactionIndex": "0x1",
          "logIndex": "0x0",
          "removed": false
        }
      ],
      "logsBloom": "0x00000000000000000000000000000000000000000000000010000000000000000000000000000000000000000000000000000000000000000000000000040000000000000000000000000000000000000000000000040004000000000000000000000000000000000000000000000000000000000000000000000000000000000000000000000000000000000000000000000000000000000000000000000000000000000000000000200000000000000000000000010000000000000000000000002000400000000000000000000020000000000000000000000000000040000000000000000000200000000000000200000000000000000000000000000000",
      "type": "0x2",
      "transactionHash": "0xf24fc8b4183e307c5e8e6bac6e158a1c8e5f31e6e645f58000fdf0df8a51cb6a",
      "transactionIndex": "0x1",
      "blockHash": "0xcf157a2814f70ec679872616144d7162dc55a72a2f2e51a9b7a3e74e06b2982b",
      "blockNumber": "0x519d9df",
      "gasUsed": "0x23bde",
      "effectiveGasPrice": "0x5f5e100",
      "from": "0x7caF754C934710D7C73bc453654552BEcA38223F",
      "to": "0x5752E0FB600C59E140CDAfDA7AC8933774c19280",
      "contractAddress": null,
      "gasUsedForL1": "0x180c5",
      "l1BlockNumber": "0x67c3d8"
    },
    {
      "status": "0x1",
      "cumulativeGasUsed": "0x5fcd4",
      "logs": [
        {
          "address": "0x56039fa1a804F614eBD714139F29a3ff4DB57ad6",
          "topics": [
            "0x715ad5ce61fc9595c7b415289d59cf203f23a94fa06f04af7e489a0a76e1fe26",
            "0x0000000000000000000000006a9553387da23cbffbdf58ec949c01580448f490",
            "0x0000000000000000000000000000000000000000000000000000000000000001"
          ],
          "data": "0x",
          "blockHash": "0x32a530dc86df50fa4d4d006b3afbf5516d78b88e5aa542af7310b2e1e18c66f8",
          "blockNumber": "0x519d9e3",
          "transactionHash": "0x4e5b9e1ee3a231c3ec87c5178f30a620e85da28a7eb0863d17392b6e02d2894f",
          "transactionIndex": "0x2",
          "logIndex": "0x1",
          "removed": false
        }
      ],
      "logsBloom": "0x00000000000000000000000000000000000000000000400000000000000000000000000000020000000000000000000000000000000000000000000000040000000000000000000000000000000000000000000000040004000010000000000000000000000000000000000000000000000000000000000000000000000000000000000000000000000000000000000000000000000000000000000000000000000000000000000000000000000000000000000000010000000000000000000000002000400000000000000000000000000000000000000000000000000040000000000000000000200000000000000200000000000000000000000000000000",
      "type": "0x2",
      "transactionHash": "0x4e5b9e1ee3a231c3ec87c5178f30a620e85da28a7eb0863d17392b6e02d2894f",
      "transactionIndex": "0x2",
      "blockHash": "0x32a530dc86df50fa4d4d006b3afbf5516d78b88e5aa542af7310b2e1e18c66f8",
      "blockNumber": "0x519d9e3",
      "gasUsed": "0x23bc8",
      "effectiveGasPrice": "0x5f5e100",
      "from": "0x7caF754C934710D7C73bc453654552BEcA38223F",
      "to": "0x56039fa1a804F614eBD714139F29a3ff4DB57ad6",
      "contractAddress": null,
      "gasUsedForL1": "0x180c5",
      "l1BlockNumber": "0x67c3d8"
    }
  ],
  "libraries": [],
  "pending": [],
  "returns": {},
  "timestamp": 1727870527,
  "chain": 421614,
  "commit": "cd935ca"
}