{
  "transactions": [
    {
      "hash": "0x90d7317dff7c2a8711a08374ba03ab0cbb5160a1393b557607ddd59f640e2e40",
      "transactionType": "CALL",
      "contractName": null,
      "contractAddress": "0x758f01b484212b38eae264f75c0dd7842d510d9c",
      "function": "grantRoles(address,uint256)",
      "arguments": [
        "0x35F3e191523C8701aD315551dCbDcC5708efD7ec",
        "1"
      ],
      "transaction": {
        "from": "0x7caf754c934710d7c73bc453654552beca38223f",
        "to": "0x758f01b484212b38eae264f75c0dd7842d510d9c",
        "gas": "0x175bab",
        "value": "0x0",
        "input": "0x1c10893f00000000000000000000000035f3e191523c8701ad315551dcbdcc5708efd7ec0000000000000000000000000000000000000000000000000000000000000001",
        "nonce": "0x270",
        "chainId": "0x66eee"
      },
      "additionalContracts": [],
      "isFixedGasLimit": false
    }
  ],
  "receipts": [
    {
      "status": "0x1",
      "cumulativeGasUsed": "0xe33976",
      "logs": [
        {
          "address": "0x758f01b484212b38eae264f75c0dd7842d510d9c",
          "topics": [
            "0x715ad5ce61fc9595c7b415289d59cf203f23a94fa06f04af7e489a0a76e1fe26",
            "0x00000000000000000000000035f3e191523c8701ad315551dcbdcc5708efd7ec",
            "0x0000000000000000000000000000000000000000000000000000000000000001"
          ],
          "data": "0x",
          "blockHash": "0x4faca2d577d79258d18e09339e98a4f5d862164cde85197b1cb4bb425026f9a9",
          "blockNumber": "0x3f6a91f",
          "transactionHash": "0x90d7317dff7c2a8711a08374ba03ab0cbb5160a1393b557607ddd59f640e2e40",
          "transactionIndex": "0x5",
          "logIndex": "0x5",
          "removed": false
        }
      ],
      "logsBloom": "0x00000000000000000000000000000000000000000000800000000000000000000000000000000000000000000000000000000000000000000000001000040000000000000000000000000000000000000000000000040000000000000000000000000000000000000002000000020000000000000000000000000000000000000000000000000000000000000000000000000000000000000000000000000000000000000000000000000000000000000000000000010000000000000000000000002000400000000000000080000000000000000000000000000000000040000000000000000000000000000200000000000000000000000000000000000000",
      "type": "0x2",
      "transactionHash": "0x90d7317dff7c2a8711a08374ba03ab0cbb5160a1393b557607ddd59f640e2e40",
      "transactionIndex": "0x5",
      "blockHash": "0x4faca2d577d79258d18e09339e98a4f5d862164cde85197b1cb4bb425026f9a9",
      "blockNumber": "0x3f6a91f",
      "gasUsed": "0xe12b4",
      "effectiveGasPrice": "0x5f5e100",
      "from": "0x7caf754c934710d7c73bc453654552beca38223f",
      "to": "0x758f01b484212b38eae264f75c0dd7842d510d9c",
      "contractAddress": null,
      "gasUsedForL1": "0xda56d",
      "l1BlockNumber": "0x61408b"
    }
  ],
  "libraries": [],
  "pending": [],
  "returns": {},
  "timestamp": 1721913481,
  "chain": 421614,
  "commit": "c7ca19a"
}