{
  "transactions": [
    {
      "hash": "0xf3a1c4ba5bd4789a8a7fb372eef71e7b59490219f477eb0fe87e1fa961215c58",
      "transactionType": "CALL",
      "contractName": "ProductAdministratorRegistry",
      "contractAddress": "0x62254d732c078bf0484ea7dbd61f7f620184f95e",
      "function": "grantRoles(uint256,address,uint256)",
      "arguments": [
        "20376791661718660580662410765070640284736320707848823176694931891585259913409",
        "0xCf4990bBa0B9A56500501d0c6eF139B92a050352",
        "12"
      ],
      "transaction": {
        "from": "0x7caf754c934710d7c73bc453654552beca38223f",
        "to": "0x62254d732c078bf0484ea7dbd61f7f620184f95e",
        "gas": "0x3e090",
        "value": "0x0",
        "input": "0x67b5e23c2d0cdaf9a1153a9a4b68379c64d4397611a0f3d9fa4015376435f9a64aafc0c1000000000000000000000000cf4990bba0b9a56500501d0c6ef139b92a050352000000000000000000000000000000000000000000000000000000000000000c",
        "nonce": "0x2c3",
        "chainId": "0x66eee"
      },
      "additionalContracts": [],
      "isFixedGasLimit": false
    },
    {
      "hash": "0x6f76484ad742a8953b6d3211cdd2091bbc2e9e5450a487bf61cb1708fcba013f",
      "transactionType": "CALL",
      "contractName": "ProductAdministratorRegistry",
      "contractAddress": "0x62254d732c078bf0484ea7dbd61f7f620184f95e",
      "function": "grantRoles(uint256,address,uint256)",
      "arguments": [
        "33953649417576654953995537313820306697747390492794311279756157547821320957282",
        "0xCf4990bBa0B9A56500501d0c6eF139B92a050352",
        "12"
      ],
      "transaction": {
        "from": "0x7caf754c934710d7c73bc453654552beca38223f",
        "to": "0x62254d732c078bf0484ea7dbd61f7f620184f95e",
        "gas": "0x3e090",
        "value": "0x0",
        "input": "0x67b5e23c4b1115a4946079f8d83c63061f5c49c2f351a054d8dfb284b197f54dbfa8ed62000000000000000000000000cf4990bba0b9a56500501d0c6ef139b92a050352000000000000000000000000000000000000000000000000000000000000000c",
        "nonce": "0x2c4",
        "chainId": "0x66eee"
      },
      "additionalContracts": [],
      "isFixedGasLimit": false
    }
  ],
  "receipts": [
    {
      "status": "0x1",
      "cumulativeGasUsed": "0x27646",
      "logs": [
        {
          "address": "0x62254d732c078bf0484ea7dbd61f7f620184f95e",
          "topics": [
            "0xca5f6034cf7475c6c068781b337289c341f3350f95845d98e134a06ce879afa9",
            "0x2d0cdaf9a1153a9a4b68379c64d4397611a0f3d9fa4015376435f9a64aafc0c1",
            "0x000000000000000000000000cf4990bba0b9a56500501d0c6ef139b92a050352"
          ],
          "data": "0x000000000000000000000000000000000000000000000000000000000000000c00000000000000000000000000000000000000000000000000000000000000000000000000000000000000000000000000000000000000000000000000000001",
          "blockHash": "0x0a396af94ab5733f3cb0ac5697dad7ee7a6631e96f1f298db1da4acccfdbe25c",
          "blockNumber": "0x48550bd",
          "transactionHash": "0xf3a1c4ba5bd4789a8a7fb372eef71e7b59490219f477eb0fe87e1fa961215c58",
          "transactionIndex": "0x1",
          "logIndex": "0x0",
          "removed": false
        }
      ],
      "logsBloom": "0x00000000000000000000100000000000000000000040000000000010000000000000000000000000000000000000000000000000000000000000000000000000000000000000000000000020000000000000000020000000000000100000000000000000000000000000000000000000000000000000000020000000000000040000000000000000000000000000004000000000000000000000000400000000000000000000000000000000000000000000000000000000000000000040000000000000000000000000000000000000000000000000000000000000000000000000000000000000000000000000000000000000000000000000002000000000",
      "type": "0x2",
      "transactionHash": "0xf3a1c4ba5bd4789a8a7fb372eef71e7b59490219f477eb0fe87e1fa961215c58",
      "transactionIndex": "0x1",
      "blockHash": "0x0a396af94ab5733f3cb0ac5697dad7ee7a6631e96f1f298db1da4acccfdbe25c",
      "blockNumber": "0x48550bd",
      "gasUsed": "0x27646",
      "effectiveGasPrice": "0x5f5e100",
      "from": "0x7caf754c934710d7c73bc453654552beca38223f",
      "to": "0x62254d732c078bf0484ea7dbd61f7f620184f95e",
      "contractAddress": null,
      "gasUsedForL1": "0x1eb9c",
      "l1BlockNumber": "0x64d09b"
    },
    {
      "status": "0x1",
      "cumulativeGasUsed": "0x27646",
      "logs": [
        {
          "address": "0x62254d732c078bf0484ea7dbd61f7f620184f95e",
          "topics": [
            "0xca5f6034cf7475c6c068781b337289c341f3350f95845d98e134a06ce879afa9",
            "0x4b1115a4946079f8d83c63061f5c49c2f351a054d8dfb284b197f54dbfa8ed62",
            "0x000000000000000000000000cf4990bba0b9a56500501d0c6ef139b92a050352"
          ],
          "data": "0x000000000000000000000000000000000000000000000000000000000000000c00000000000000000000000000000000000000000000000000000000000000000000000000000000000000000000000000000000000000000000000000000001",
          "blockHash": "0x6210c1c8f84e98f6686e87b02b6a543d32833d1cdcbf571224beeb7d4352908f",
          "blockNumber": "0x48550c1",
          "transactionHash": "0x6f76484ad742a8953b6d3211cdd2091bbc2e9e5450a487bf61cb1708fcba013f",
          "transactionIndex": "0x1",
          "logIndex": "0x0",
          "removed": false
        }
      ],
      "logsBloom": "0x00000000000000000000000000000000000000000040000008000000000000000000000000000000000000000000000000000000000000000000000000000000000000000000000000000020000000000000000000000000000000100000000000800020000000000000000000000000000000000000000020000000000000040000000000000000000000000000004000000000000000000000000400000000000000000000000000000000000000000000000000000000000000000040000000000000000000000000000000000000000000000000000000000000000000000000000000000000000000000000000000000000000000000000002000000000",
      "type": "0x2",
      "transactionHash": "0x6f76484ad742a8953b6d3211cdd2091bbc2e9e5450a487bf61cb1708fcba013f",
      "transactionIndex": "0x1",
      "blockHash": "0x6210c1c8f84e98f6686e87b02b6a543d32833d1cdcbf571224beeb7d4352908f",
      "blockNumber": "0x48550c1",
      "gasUsed": "0x27646",
      "effectiveGasPrice": "0x5f5e100",
      "from": "0x7caf754c934710d7c73bc453654552beca38223f",
      "to": "0x62254d732c078bf0484ea7dbd61f7f620184f95e",
      "contractAddress": null,
      "gasUsedForL1": "0x1eb9c",
      "l1BlockNumber": "0x64d09b"
    }
  ],
  "libraries": [],
  "pending": [],
  "returns": {},
  "timestamp": 1725116219,
  "chain": 421614,
  "commit": "fcade3f"
}