{
  "transactions": [
    {
      "hash": "0x6bc1eddb35339e57e1f38306d8e2b4095f96592ddfecde9fc63ccc055b2e40f6",
      "transactionType": "CALL",
      "contractName": "ProductAdministratorRegistry",
      "contractAddress": "0x62254d732c078bf0484ea7dbd61f7f620184f95e",
      "function": "grantRoles(uint256,address,uint256)",
      "arguments": [
        "20376791661718660580662410765070640284736320707848823176694931891585259913409",
        "0xB875AAD94cd568CE0359A73b62Af1614E4ff0901",
        "8"
      ],
      "transaction": {
        "from": "0x7caf754c934710d7c73bc453654552beca38223f",
        "to": "0x62254d732c078bf0484ea7dbd61f7f620184f95e",
        "gas": "0x34090",
        "value": "0x0",
        "input": "0x67b5e23c2d0cdaf9a1153a9a4b68379c64d4397611a0f3d9fa4015376435f9a64aafc0c1000000000000000000000000b875aad94cd568ce0359a73b62af1614e4ff09010000000000000000000000000000000000000000000000000000000000000008",
        "nonce": "0x2bd",
        "chainId": "0x66eee"
      },
      "additionalContracts": [],
      "isFixedGasLimit": false
    },
    {
      "hash": "0x56c72e78d1af877f37668f90d831d76ef7db9419ee24c18acb62148bd255760b",
      "transactionType": "CALL",
      "contractName": "ProductAdministratorRegistry",
      "contractAddress": "0x62254d732c078bf0484ea7dbd61f7f620184f95e",
      "function": "grantRoles(uint256,address,uint256)",
      "arguments": [
        "33953649417576654953995537313820306697747390492794311279756157547821320957282",
        "0xB875AAD94cd568CE0359A73b62Af1614E4ff0901",
        "8"
      ],
      "transaction": {
        "from": "0x7caf754c934710d7c73bc453654552beca38223f",
        "to": "0x62254d732c078bf0484ea7dbd61f7f620184f95e",
        "gas": "0x34090",
        "value": "0x0",
        "input": "0x67b5e23c4b1115a4946079f8d83c63061f5c49c2f351a054d8dfb284b197f54dbfa8ed62000000000000000000000000b875aad94cd568ce0359a73b62af1614e4ff09010000000000000000000000000000000000000000000000000000000000000008",
        "nonce": "0x2be",
        "chainId": "0x66eee"
      },
      "additionalContracts": [],
      "isFixedGasLimit": false
    }
  ],
  "receipts": [
    {
      "status": "0x1",
      "cumulativeGasUsed": "0x21261",
      "logs": [
        {
          "address": "0x62254d732c078bf0484ea7dbd61f7f620184f95e",
          "topics": [
            "0xca5f6034cf7475c6c068781b337289c341f3350f95845d98e134a06ce879afa9",
            "0x2d0cdaf9a1153a9a4b68379c64d4397611a0f3d9fa4015376435f9a64aafc0c1",
            "0x000000000000000000000000b875aad94cd568ce0359a73b62af1614e4ff0901"
          ],
          "data": "0x000000000000000000000000000000000000000000000000000000000000000800000000000000000000000000000000000000000000000000000000000000000000000000000000000000000000000000000000000000000000000000000001",
          "blockHash": "0xdaae8f8c3684e8d2f3f997c5714b81207e89020fe4a24d2dbcdcc44ef6e76d7a",
          "blockNumber": "0x485277f",
          "transactionHash": "0x6bc1eddb35339e57e1f38306d8e2b4095f96592ddfecde9fc63ccc055b2e40f6",
          "transactionIndex": "0x1",
          "logIndex": "0x0",
          "removed": false
        }
      ],
      "logsBloom": "0x00000000000000000000100000000000000000000040000000000010000000000000000000000000000000000000000000000000000000000000000000000000000000000000000000000000000000000000000020000000000000100000000000000000020000000000000000000000000000000000010020000000000000000000000000000000000000000000004000000000000000000000000000000000000000000000008000000000000000000000000000000000000000000040000000000000000000000000000000000000000000000000000000000000000000000000000000000000000000000000000000000000000000000000002000000000",
      "type": "0x2",
      "transactionHash": "0x6bc1eddb35339e57e1f38306d8e2b4095f96592ddfecde9fc63ccc055b2e40f6",
      "transactionIndex": "0x1",
      "blockHash": "0xdaae8f8c3684e8d2f3f997c5714b81207e89020fe4a24d2dbcdcc44ef6e76d7a",
      "blockNumber": "0x485277f",
      "gasUsed": "0x21261",
      "effectiveGasPrice": "0x5f5e100",
      "from": "0x7caf754c934710d7c73bc453654552beca38223f",
      "to": "0x62254d732c078bf0484ea7dbd61f7f620184f95e",
      "contractAddress": null,
      "gasUsedForL1": "0x1929b",
      "l1BlockNumber": "0x64cfc0"
    },
    {
      "status": "0x1",
      "cumulativeGasUsed": "0x21261",
      "logs": [
        {
          "address": "0x62254d732c078bf0484ea7dbd61f7f620184f95e",
          "topics": [
            "0xca5f6034cf7475c6c068781b337289c341f3350f95845d98e134a06ce879afa9",
            "0x4b1115a4946079f8d83c63061f5c49c2f351a054d8dfb284b197f54dbfa8ed62",
            "0x000000000000000000000000b875aad94cd568ce0359a73b62af1614e4ff0901"
          ],
          "data": "0x000000000000000000000000000000000000000000000000000000000000000800000000000000000000000000000000000000000000000000000000000000000000000000000000000000000000000000000000000000000000000000000001",
          "blockHash": "0xde26efc361c1681bdfd10692e84d0f9206b2c609eeeebdb92c1db0d9e0b1bc39",
          "blockNumber": "0x4852783",
          "transactionHash": "0x56c72e78d1af877f37668f90d831d76ef7db9419ee24c18acb62148bd255760b",
          "transactionIndex": "0x1",
          "logIndex": "0x0",
          "removed": false
        }
      ],
      "logsBloom": "0x00000000000000000000000000000000000000000040000008000000000000000000000000000000000000000000000000000000000000000000000000000000000000000000000000000000000000000000000000000000000000100000000000800020020000000000000000000000000000000000010020000000000000000000000000000000000000000000004000000000000000000000000000000000000000000000008000000000000000000000000000000000000000000040000000000000000000000000000000000000000000000000000000000000000000000000000000000000000000000000000000000000000000000000002000000000",
      "type": "0x2",
      "transactionHash": "0x56c72e78d1af877f37668f90d831d76ef7db9419ee24c18acb62148bd255760b",
      "transactionIndex": "0x1",
      "blockHash": "0xde26efc361c1681bdfd10692e84d0f9206b2c609eeeebdb92c1db0d9e0b1bc39",
      "blockNumber": "0x4852783",
      "gasUsed": "0x21261",
      "effectiveGasPrice": "0x5f5e100",
      "from": "0x7caf754c934710d7c73bc453654552beca38223f",
      "to": "0x62254d732c078bf0484ea7dbd61f7f620184f95e",
      "contractAddress": null,
      "gasUsedForL1": "0x1929b",
      "l1BlockNumber": "0x64cfc0"
    }
  ],
  "libraries": [],
  "pending": [],
  "returns": {},
  "timestamp": 1725113249,
  "chain": 421614,
  "commit": "fcade3f"
}