{
  "transactions": [
    {
      "hash": "0x67584e723055583f4e844363cef7f2f8ea64b3104db9adb70940ee4e184018f9",
      "transactionType": "CALL",
      "contractName": null,
      "contractAddress": "0xb3fc8bd4e71a15a674ed6bab63e884720fc4a3b4",
      "function": "addOperator(uint256,address)",
      "arguments": [
        "20376791661718660580662410765070640284736320707848823176694931891585259913409",
        "0xB875AAD94cd568CE0359A73b62Af1614E4ff0901"
      ],
      "transaction": {
        "from": "0x7caf754c934710d7c73bc453654552beca38223f",
        "to": "0xb3fc8bd4e71a15a674ed6bab63e884720fc4a3b4",
        "gas": "0xd23f29",
        "value": "0x0",
        "input": "0x7d46a7132d0cdaf9a1153a9a4b68379c64d4397611a0f3d9fa4015376435f9a64aafc0c1000000000000000000000000b875aad94cd568ce0359a73b62af1614e4ff0901",
        "nonce": "0x2a0",
        "chainId": "0x66eee"
      },
      "additionalContracts": [],
      "isFixedGasLimit": false
    },
    {
      "hash": "0x77e343b905679abcf0fdca92f25e7281536d8213e5f755cbe480eb86e4705dcc",
      "transactionType": "CALL",
      "contractName": null,
      "contractAddress": "0xb3fc8bd4e71a15a674ed6bab63e884720fc4a3b4",
      "function": "addOperator(uint256,address)",
      "arguments": [
        "8073960722007594212918575991467917289452723924551607525414094759273404023523",
        "0xB875AAD94cd568CE0359A73b62Af1614E4ff0901"
      ],
      "transaction": {
        "from": "0x7caf754c934710d7c73bc453654552beca38223f",
        "to": "0xb3fc8bd4e71a15a674ed6bab63e884720fc4a3b4",
        "gas": "0xd23f29",
        "value": "0x0",
        "input": "0x7d46a71311d9b327b46d43525821b67e9e75373040aa7f8162b46753eb565065f743c2e3000000000000000000000000b875aad94cd568ce0359a73b62af1614e4ff0901",
        "nonce": "0x2a1",
        "chainId": "0x66eee"
      },
      "additionalContracts": [],
      "isFixedGasLimit": false
    },
    {
      "hash": "0x51a13cd78053e540da2d715272adad27db5a13b803004600d789739c1b082e3a",
      "transactionType": "CALL",
      "contractName": null,
      "contractAddress": "0xb3fc8bd4e71a15a674ed6bab63e884720fc4a3b4",
      "function": "addOperator(uint256,address)",
      "arguments": [
        "33953649417576654953995537313820306697747390492794311279756157547821320957282",
        "0xB875AAD94cd568CE0359A73b62Af1614E4ff0901"
      ],
      "transaction": {
        "from": "0x7caf754c934710d7c73bc453654552beca38223f",
        "to": "0xb3fc8bd4e71a15a674ed6bab63e884720fc4a3b4",
        "gas": "0xd23f29",
        "value": "0x0",
        "input": "0x7d46a7134b1115a4946079f8d83c63061f5c49c2f351a054d8dfb284b197f54dbfa8ed62000000000000000000000000b875aad94cd568ce0359a73b62af1614e4ff0901",
        "nonce": "0x2a2",
        "chainId": "0x66eee"
      },
      "additionalContracts": [],
      "isFixedGasLimit": false
    }
  ],
  "receipts": [
    {
      "status": "0x1",
      "cumulativeGasUsed": "0x6d070df",
      "logs": [
        {
          "address": "0xb3fc8bd4e71a15a674ed6bab63e884720fc4a3b4",
          "topics": [
            "0x5bb4f0ce0b45958f2f55e7b3c080e51003e6c6714473adb4de547b03274ca29b",
            "0x2d0cdaf9a1153a9a4b68379c64d4397611a0f3d9fa4015376435f9a64aafc0c1"
          ],
          "data": "0x000000000000000000000000b875aad94cd568ce0359a73b62af1614e4ff0901",
          "blockHash": "0x17e2ae69c2680b22b7e75ad0a7d3db2ec5924e86d8984ccc03a011f20e276d26",
          "blockNumber": "0x47247cd",
          "transactionHash": "0x67584e723055583f4e844363cef7f2f8ea64b3104db9adb70940ee4e184018f9",
          "transactionIndex": "0x2",
          "logIndex": "0x16",
          "removed": false
        }
      ],
      "logsBloom": "0x04000000000000000000100001000000000000000000000000000010000000000800000000000000000000000000000000000000000000000000000000000000000000004000000000000000000000000000000020000000000000000000000000000000000000000000000000000000000000000000000000000000000000000000000000000000000000000000000000000000000000000000000000000000000000400000000000000000004000000000000000000000000000000000000000000000000000000000000000000000000000000000000000000000000000000000000000000000000000000000000000000000000000000000000000000000",
      "type": "0x2",
      "transactionHash": "0x67584e723055583f4e844363cef7f2f8ea64b3104db9adb70940ee4e184018f9",
      "transactionIndex": "0x2",
      "blockHash": "0x17e2ae69c2680b22b7e75ad0a7d3db2ec5924e86d8984ccc03a011f20e276d26",
      "blockNumber": "0x47247cd",
      "gasUsed": "0x7e247e",
      "effectiveGasPrice": "0x5f5e100",
      "from": "0x7caf754c934710d7c73bc453654552beca38223f",
      "to": "0xb3fc8bd4e71a15a674ed6bab63e884720fc4a3b4",
      "contractAddress": null,
      "gasUsedForL1": "0x7d47b9",
      "l1BlockNumber": "0x646716"
    },
    {
      "status": "0x1",
      "cumulativeGasUsed": "0x51ba254",
      "logs": [
        {
          "address": "0xb3fc8bd4e71a15a674ed6bab63e884720fc4a3b4",
          "topics": [
            "0x5bb4f0ce0b45958f2f55e7b3c080e51003e6c6714473adb4de547b03274ca29b",
            "0x11d9b327b46d43525821b67e9e75373040aa7f8162b46753eb565065f743c2e3"
          ],
          "data": "0x000000000000000000000000b875aad94cd568ce0359a73b62af1614e4ff0901",
          "blockHash": "0x986e3f37104f1ea03ac38d49b26c0af0c2973adbf6a5b5d70da11edb9b9f3dad",
          "blockNumber": "0x47247d0",
          "transactionHash": "0x77e343b905679abcf0fdca92f25e7281536d8213e5f755cbe480eb86e4705dcc",
          "transactionIndex": "0x2",
          "logIndex": "0x11",
          "removed": false
        }
      ],
      "logsBloom": "0x04000100000000000000000001000000000000000000000000000000000000000800000000000000000000000000000000000000000000000000000000000000000000004000000000000000000000000000080000000000000000000000000000000000000000000000000000000000000000000000000000000000000000000000000000000000000000000000000000000000000000000000000000000000000000400000000000000000004000000000000000000000000000000000000000000000000000000000000800000000000000000000000000000000000000000000000000000000000000000000000000000000000000000000000000000000",
      "type": "0x2",
      "transactionHash": "0x77e343b905679abcf0fdca92f25e7281536d8213e5f755cbe480eb86e4705dcc",
      "transactionIndex": "0x2",
      "blockHash": "0x986e3f37104f1ea03ac38d49b26c0af0c2973adbf6a5b5d70da11edb9b9f3dad",
      "blockNumber": "0x47247d0",
      "gasUsed": "0x7d7630",
      "effectiveGasPrice": "0x5f5e100",
      "from": "0x7caf754c934710d7c73bc453654552beca38223f",
      "to": "0xb3fc8bd4e71a15a674ed6bab63e884720fc4a3b4",
      "contractAddress": null,
      "gasUsedForL1": "0x7c996b",
      "l1BlockNumber": "0x646716"
    },
    {
      "status": "0x1",
      "cumulativeGasUsed": "0x6f777ac",
      "logs": [
        {
          "address": "0xb3fc8bd4e71a15a674ed6bab63e884720fc4a3b4",
          "topics": [
            "0x5bb4f0ce0b45958f2f55e7b3c080e51003e6c6714473adb4de547b03274ca29b",
            "0x4b1115a4946079f8d83c63061f5c49c2f351a054d8dfb284b197f54dbfa8ed62"
          ],
          "data": "0x000000000000000000000000b875aad94cd568ce0359a73b62af1614e4ff0901",
          "blockHash": "0x7ccb95334158dbcfa147b3c35be1ed3893f4ac7356b2121efc4f6d3090666970",
          "blockNumber": "0x47247d3",
          "transactionHash": "0x51a13cd78053e540da2d715272adad27db5a13b803004600d789739c1b082e3a",
          "transactionIndex": "0x3",
          "logIndex": "0x1b",
          "removed": false
        }
      ],
      "logsBloom": "0x04000000000000000000000001000000000000000000000008000000000000000800000000000000000000000000000000000000000000000000000000000000000000004000000000000000000000000000000000000000000000000000000000800020000000000000000000000000000000000000000000000000000000000000000000000000000000000000000000000000000000000000000000000000000000400000000000000000004000000000000000000000000000000000000000000000000000000000000000000000000000000000000000000000000000000000000000000000000000000000000000000000000000000000000000000000",
      "type": "0x2",
      "transactionHash": "0x51a13cd78053e540da2d715272adad27db5a13b803004600d789739c1b082e3a",
      "transactionIndex": "0x3",
      "blockHash": "0x7ccb95334158dbcfa147b3c35be1ed3893f4ac7356b2121efc4f6d3090666970",
      "blockNumber": "0x47247d3",
      "gasUsed": "0x7e247e",
      "effectiveGasPrice": "0x5f5e100",
      "from": "0x7caf754c934710d7c73bc453654552beca38223f",
      "to": "0xb3fc8bd4e71a15a674ed6bab63e884720fc4a3b4",
      "contractAddress": null,
      "gasUsedForL1": "0x7d47b9",
      "l1BlockNumber": "0x646716"
    }
  ],
  "libraries": [],
  "pending": [],
  "returns": {},
  "timestamp": 1724745071,
  "chain": 421614,
  "commit": "82dbd11"
}