{
  "transactions": [
    {
      "hash": "0x91bb15311e883478a362694deb16a6da72fe89ef6ce6c670ec04eb591c044df9",
      "transactionType": "CALL",
      "contractName": null,
      "contractAddress": "0xc97d72a8a9d1d2ed326eb04f2d706a21cee2b94e",
      "function": "addOperator(uint256,address)",
      "arguments": [
        "106219508196454080375526586478153583586194937194493887259467424694676997453395",
        "0x001428331B4d318833c5E1Ec7730D6DBb58b76E3"
      ],
      "transaction": {
        "from": "0x7caf754c934710d7c73bc453654552beca38223f",
        "to": "0xc97d72a8a9d1d2ed326eb04f2d706a21cee2b94e",
        "gas": "0x9f9eb",
        "value": "0x0",
        "input": "0x7d46a713ead61c7340b7cacd78684d4795a617aae5e85cc4b89da34fb05ad55bb6bab653000000000000000000000000001428331b4d318833c5e1ec7730d6dbb58b76e3",
        "nonce": "0x1d7",
        "chainId": "0x66eee"
      },
      "additionalContracts": [],
      "isFixedGasLimit": false
    },
    {
      "hash": "0xc9509a07b26cd1f90af3f395b07ccb8da3f54ebab2da3f5c4609b1c0ec0d945b",
      "transactionType": "CALL",
      "contractName": null,
      "contractAddress": "0xc97d72a8a9d1d2ed326eb04f2d706a21cee2b94e",
      "function": "addOperator(uint256,address)",
      "arguments": [
        "108586150798115180574743190405367285583167702751783717273705027881651322809951",
        "0x001428331B4d318833c5E1Ec7730D6DBb58b76E3"
      ],
      "transaction": {
        "from": "0x7caf754c934710d7c73bc453654552beca38223f",
        "to": "0xc97d72a8a9d1d2ed326eb04f2d706a21cee2b94e",
        "gas": "0x9f9eb",
        "value": "0x0",
        "input": "0x7d46a713f011955832cac97ab1a6534c6b94971325e3be6bfaac1ccae68e3f5c7adcee5f000000000000000000000000001428331b4d318833c5e1ec7730d6dbb58b76e3",
        "nonce": "0x1d8",
        "chainId": "0x66eee"
      },
      "additionalContracts": [],
      "isFixedGasLimit": false
    },
    {
      "hash": "0x0841c42099d1d0868524578533d91e39a46d5b12b8625d40a48ef6740a47406b",
      "transactionType": "CALL",
      "contractName": null,
      "contractAddress": "0xc97d72a8a9d1d2ed326eb04f2d706a21cee2b94e",
      "function": "addOperator(uint256,address)",
      "arguments": [
        "61412812549033025435811962204424170589965658763482764336017940556663446417829",
        "0x001428331B4d318833c5E1Ec7730D6DBb58b76E3"
      ],
      "transaction": {
        "from": "0x7caf754c934710d7c73bc453654552beca38223f",
        "to": "0xc97d72a8a9d1d2ed326eb04f2d706a21cee2b94e",
        "gas": "0x9f9eb",
        "value": "0x0",
        "input": "0x7d46a71387c66b8c60fd984f739f68f1d83229601131914aaf269874c584e179b37db1a5000000000000000000000000001428331b4d318833c5e1ec7730d6dbb58b76e3",
        "nonce": "0x1d9",
        "chainId": "0x66eee"
      },
      "additionalContracts": [],
      "isFixedGasLimit": false
    },
    {
      "hash": "0xe7e2a381e07e23eb5ccec342e69e4b62811930463a87122c946efb39ade2e904",
      "transactionType": "CALL",
      "contractName": null,
      "contractAddress": "0xc97d72a8a9d1d2ed326eb04f2d706a21cee2b94e",
      "function": "addOperator(uint256,address)",
      "arguments": [
        "20376791661718660580662410765070640284736320707848823176694931891585259913409",
        "0x001428331B4d318833c5E1Ec7730D6DBb58b76E3"
      ],
      "transaction": {
        "from": "0x7caf754c934710d7c73bc453654552beca38223f",
        "to": "0xc97d72a8a9d1d2ed326eb04f2d706a21cee2b94e",
        "gas": "0x9f9eb",
        "value": "0x0",
        "input": "0x7d46a7132d0cdaf9a1153a9a4b68379c64d4397611a0f3d9fa4015376435f9a64aafc0c1000000000000000000000000001428331b4d318833c5e1ec7730d6dbb58b76e3",
        "nonce": "0x1da",
        "chainId": "0x66eee"
      },
      "additionalContracts": [],
      "isFixedGasLimit": false
    }
  ],
  "receipts": [
    {
      "status": "0x1",
      "cumulativeGasUsed": "0x3c40d9",
      "logs": [
        {
          "address": "0xc97d72a8a9d1d2ed326eb04f2d706a21cee2b94e",
          "topics": [
            "0x5bb4f0ce0b45958f2f55e7b3c080e51003e6c6714473adb4de547b03274ca29b",
            "0xead61c7340b7cacd78684d4795a617aae5e85cc4b89da34fb05ad55bb6bab653"
          ],
          "data": "0x000000000000000000000000001428331b4d318833c5e1ec7730d6dbb58b76e3",
          "blockHash": "0xd9e636ba94b20ab3e0eadaf623dc2a275302eda364db4e8d18d8bea7ac674cb6",
          "blockNumber": "0x3959d00",
          "transactionHash": "0x91bb15311e883478a362694deb16a6da72fe89ef6ce6c670ec04eb591c044df9",
          "transactionIndex": "0x3",
          "logIndex": "0xa",
          "removed": false
        }
      ],
      "logsBloom": "0x00000000000000000000000000000000000000000000000000000000000000000000000000000000000000000000000000000000000000000000000000000000000000004000000000000000000000000000000000000000000000000000000000000000000000000000000000000000000000000000000000000000000000001000000000000000000000000000000000000000000000000000000800000000000000400000000000000000004000000000000000000000000000020000000000000000000000000000201000000000000000000000000000000000000000000000000400000000000000000000000000000000000000000000000000000000",
      "type": "0x2",
      "transactionHash": "0x91bb15311e883478a362694deb16a6da72fe89ef6ce6c670ec04eb591c044df9",
      "transactionIndex": "0x3",
      "blockHash": "0xd9e636ba94b20ab3e0eadaf623dc2a275302eda364db4e8d18d8bea7ac674cb6",
      "blockNumber": "0x3959d00",
      "gasUsed": "0x62617",
      "effectiveGasPrice": "0x5f5e100",
      "from": "0x7caf754c934710d7c73bc453654552beca38223f",
      "to": "0xc97d72a8a9d1d2ed326eb04f2d706a21cee2b94e",
      "contractAddress": null,
      "gasUsedForL1": "0x5495e",
      "l1BlockNumber": "0x5f01b9"
    },
    {
      "status": "0x1",
      "cumulativeGasUsed": "0x128ec5",
      "logs": [
        {
          "address": "0xc97d72a8a9d1d2ed326eb04f2d706a21cee2b94e",
          "topics": [
            "0x5bb4f0ce0b45958f2f55e7b3c080e51003e6c6714473adb4de547b03274ca29b",
            "0xf011955832cac97ab1a6534c6b94971325e3be6bfaac1ccae68e3f5c7adcee5f"
          ],
          "data": "0x000000000000000000000000001428331b4d318833c5e1ec7730d6dbb58b76e3",
          "blockHash": "0xf2013e60e7c8abe4a24cfe9f55e691935beba19b206afe0c0b32e0dc0ca1981d",
          "blockNumber": "0x3959d03",
          "transactionHash": "0xc9509a07b26cd1f90af3f395b07ccb8da3f54ebab2da3f5c4609b1c0ec0d945b",
          "transactionIndex": "0x2",
          "logIndex": "0x4",
          "removed": false
        }
      ],
      "logsBloom": "0x00000000000000000000000000000000000000000000000000000000000000000000000000000000000000000000000000000000000000000000000000000000000000004000000000000000000000000000000000000000000000000000000000000000000000000000000000000000000000000000000000000000000000001800000000000000000000000000000000000000000000000000000800000000000000400000000000000000004000000000000000000000000000400000000000000000000800000000001000000000000000000000000000000000000000000000000000000000000000000000000000000000000000000000000000000000",
      "type": "0x2",
      "transactionHash": "0xc9509a07b26cd1f90af3f395b07ccb8da3f54ebab2da3f5c4609b1c0ec0d945b",
      "transactionIndex": "0x2",
      "blockHash": "0xf2013e60e7c8abe4a24cfe9f55e691935beba19b206afe0c0b32e0dc0ca1981d",
      "blockNumber": "0x3959d03",
      "gasUsed": "0x62617",
      "effectiveGasPrice": "0x5f5e100",
      "from": "0x7caf754c934710d7c73bc453654552beca38223f",
      "to": "0xc97d72a8a9d1d2ed326eb04f2d706a21cee2b94e",
      "contractAddress": null,
      "gasUsedForL1": "0x5495e",
      "l1BlockNumber": "0x5f01b9"
    },
    {
      "status": "0x1",
      "cumulativeGasUsed": "0x4619eb",
      "logs": [
        {
          "address": "0xc97d72a8a9d1d2ed326eb04f2d706a21cee2b94e",
          "topics": [
            "0x5bb4f0ce0b45958f2f55e7b3c080e51003e6c6714473adb4de547b03274ca29b",
            "0x87c66b8c60fd984f739f68f1d83229601131914aaf269874c584e179b37db1a5"
          ],
          "data": "0x000000000000000000000000001428331b4d318833c5e1ec7730d6dbb58b76e3",
          "blockHash": "0x259942bcfe4627f2a1d1ffc75f4a4f733c2577cb81e0be01e185f12cc87d398b",
          "blockNumber": "0x3959d06",
          "transactionHash": "0x0841c42099d1d0868524578533d91e39a46d5b12b8625d40a48ef6740a47406b",
          "transactionIndex": "0x5",
          "logIndex": "0xe",
          "removed": false
        }
      ],
      "logsBloom": "0x00000000000000000000000000000000000000000000000000000000000000000000000100000000000000000000000000000000000000000000000000000000000000004000000000000000000000000000000000000000000000000000000000000000000000000000000000000000000000000000000000000000000000001000000000000000000000000000000000000000000000004000000800000000000000400000000000000000004000000000000000000008000000000000000000000000000000000000001000000000000000000000000000000000000000000000000000000000000000000000000000000000000000000000000000000000",
      "type": "0x2",
      "transactionHash": "0x0841c42099d1d0868524578533d91e39a46d5b12b8625d40a48ef6740a47406b",
      "transactionIndex": "0x5",
      "blockHash": "0x259942bcfe4627f2a1d1ffc75f4a4f733c2577cb81e0be01e185f12cc87d398b",
      "blockNumber": "0x3959d06",
      "gasUsed": "0x62617",
      "effectiveGasPrice": "0x5f5e100",
      "from": "0x7caf754c934710d7c73bc453654552beca38223f",
      "to": "0xc97d72a8a9d1d2ed326eb04f2d706a21cee2b94e",
      "contractAddress": null,
      "gasUsedForL1": "0x5495e",
      "l1BlockNumber": "0x5f01b9"
    },
    {
      "status": "0x1",
      "cumulativeGasUsed": "0x62617",
      "logs": [
        {
          "address": "0xc97d72a8a9d1d2ed326eb04f2d706a21cee2b94e",
          "topics": [
            "0x5bb4f0ce0b45958f2f55e7b3c080e51003e6c6714473adb4de547b03274ca29b",
            "0x2d0cdaf9a1153a9a4b68379c64d4397611a0f3d9fa4015376435f9a64aafc0c1"
          ],
          "data": "0x000000000000000000000000001428331b4d318833c5e1ec7730d6dbb58b76e3",
          "blockHash": "0x1b38d276047360589995c8b43ec7f736447802533d64ade213d0aa176a138bcd",
          "blockNumber": "0x3959d09",
          "transactionHash": "0xe7e2a381e07e23eb5ccec342e69e4b62811930463a87122c946efb39ade2e904",
          "transactionIndex": "0x1",
          "logIndex": "0x0",
          "removed": false
        }
      ],
      "logsBloom": "0x00000000000000000000100000000000000000000000000000000010000000000000000000000000000000000000000000000000000000000000000000000000000000004000000000000000000000000000000020000000000000000000000000000000000000000000000000000000000000000000000000000000000000001000000000000000000000000000000000000000000000000000000800000000000000400000000000000000004000000000000000000000000000000000000000000000000000000000001000000000000000000000000000000000000000000000000000000000000000000000000000000000000000000000000000000000",
      "type": "0x2",
      "transactionHash": "0xe7e2a381e07e23eb5ccec342e69e4b62811930463a87122c946efb39ade2e904",
      "transactionIndex": "0x1",
      "blockHash": "0x1b38d276047360589995c8b43ec7f736447802533d64ade213d0aa176a138bcd",
      "blockNumber": "0x3959d09",
      "gasUsed": "0x62617",
      "effectiveGasPrice": "0x5f5e100",
      "from": "0x7caf754c934710d7c73bc453654552beca38223f",
      "to": "0xc97d72a8a9d1d2ed326eb04f2d706a21cee2b94e",
      "contractAddress": null,
      "gasUsedForL1": "0x5495e",
      "l1BlockNumber": "0x5f01b9"
    }
  ],
  "libraries": [],
  "pending": [],
  "returns": {},
  "timestamp": 1719849685,
  "chain": 421614,
  "commit": "46bb2de"
}