{
  "transactions": [
    {
      "hash": "0xe6ab124f4fe003d875fc8578056cb44890f0e78b5f78439267c1cc0c346ac910",
      "transactionType": "CALL",
      "contractName": "ProductAdministratorRegistry",
      "contractAddress": "0x62254d732c078bf0484ea7dbd61f7f620184f95e",
      "function": "grantRoles(uint256,address,uint256)",
      "arguments": [
        "20376791661718660580662410765070640284736320707848823176694931891585259913409",
        "0xb6AC7285a1DF8F46bd51a9E7200E4552E31Df5ca",
        "12"
      ],
      "transaction": {
        "from": "0x7caf754c934710d7c73bc453654552beca38223f",
        "to": "0x62254d732c078bf0484ea7dbd61f7f620184f95e",
        "gas": "0x10077b",
        "value": "0x0",
        "input": "0x67b5e23c2d0cdaf9a1153a9a4b68379c64d4397611a0f3d9fa4015376435f9a64aafc0c1000000000000000000000000b6ac7285a1df8f46bd51a9e7200e4552e31df5ca000000000000000000000000000000000000000000000000000000000000000c",
        "nonce": "0x2cf",
        "chainId": "0x66eee"
      },
      "additionalContracts": [],
      "isFixedGasLimit": false
    },
    {
      "hash": "0x0fb008159579e7e4fa8da3f5927d93ce4bf293654023b736d09885bb586e9491",
      "transactionType": "CALL",
      "contractName": "ProductAdministratorRegistry",
      "contractAddress": "0x62254d732c078bf0484ea7dbd61f7f620184f95e",
      "function": "grantRoles(uint256,address,uint256)",
      "arguments": [
        "33953649417576654953995537313820306697747390492794311279756157547821320957282",
        "0xb6AC7285a1DF8F46bd51a9E7200E4552E31Df5ca",
        "12"
      ],
      "transaction": {
        "from": "0x7caf754c934710d7c73bc453654552beca38223f",
        "to": "0x62254d732c078bf0484ea7dbd61f7f620184f95e",
        "gas": "0x10077b",
        "value": "0x0",
        "input": "0x67b5e23c4b1115a4946079f8d83c63061f5c49c2f351a054d8dfb284b197f54dbfa8ed62000000000000000000000000b6ac7285a1df8f46bd51a9e7200e4552e31df5ca000000000000000000000000000000000000000000000000000000000000000c",
        "nonce": "0x2d0",
        "chainId": "0x66eee"
      },
      "additionalContracts": [],
      "isFixedGasLimit": false
    }
  ],
  "receipts": [
    {
      "status": "0x1",
      "cumulativeGasUsed": "0x96bdb",
      "logs": [
        {
          "address": "0x62254d732c078bf0484ea7dbd61f7f620184f95e",
          "topics": [
            "0xca5f6034cf7475c6c068781b337289c341f3350f95845d98e134a06ce879afa9",
            "0x2d0cdaf9a1153a9a4b68379c64d4397611a0f3d9fa4015376435f9a64aafc0c1",
            "0x000000000000000000000000b6ac7285a1df8f46bd51a9e7200e4552e31df5ca"
          ],
          "data": "0x000000000000000000000000000000000000000000000000000000000000000c00000000000000000000000000000000000000000000000000000000000000000000000000000000000000000000000000000000000000000000000000000001",
          "blockHash": "0xd7805cdcacaf165780cc5e77dd009261ac5fe641bb73608a9aca1b3b82ebc889",
          "blockNumber": "0x4982dc4",
          "transactionHash": "0xe6ab124f4fe003d875fc8578056cb44890f0e78b5f78439267c1cc0c346ac910",
          "transactionIndex": "0x1",
          "logIndex": "0x0",
          "removed": false
        }
      ],
      "logsBloom": "0x00000000000000000000100000400000000000000040000000000010000000000000000000000000000000000000000000000000000000000000000000000000000000000000000000000000000000000000000020000000000000100000000000000000000000000000000000000000000000000000000020000000000000000000000000000000000000000000004000000000000000000000000000000000000000000000000000000000000000000000000000000000000000000040000000000000000000000000000000000000000000000000000000000000000000000000000000000000000000000000000000000000000000000000002000012000",
      "type": "0x2",
      "transactionHash": "0xe6ab124f4fe003d875fc8578056cb44890f0e78b5f78439267c1cc0c346ac910",
      "transactionIndex": "0x1",
      "blockHash": "0xd7805cdcacaf165780cc5e77dd009261ac5fe641bb73608a9aca1b3b82ebc889",
      "blockNumber": "0x4982dc4",
      "gasUsed": "0x96bdb",
      "effectiveGasPrice": "0x650f950",
      "from": "0x7caf754c934710d7c73bc453654552beca38223f",
      "to": "0x62254d732c078bf0484ea7dbd61f7f620184f95e",
      "contractAddress": null,
      "gasUsedForL1": "0x89e59",
      "l1BlockNumber": "0x652b1f"
    },
    {
      "status": "0x1",
      "cumulativeGasUsed": "0x972f5",
      "logs": [
        {
          "address": "0x62254d732c078bf0484ea7dbd61f7f620184f95e",
          "topics": [
            "0xca5f6034cf7475c6c068781b337289c341f3350f95845d98e134a06ce879afa9",
            "0x4b1115a4946079f8d83c63061f5c49c2f351a054d8dfb284b197f54dbfa8ed62",
            "0x000000000000000000000000b6ac7285a1df8f46bd51a9e7200e4552e31df5ca"
          ],
          "data": "0x000000000000000000000000000000000000000000000000000000000000000c00000000000000000000000000000000000000000000000000000000000000000000000000000000000000000000000000000000000000000000000000000001",
          "blockHash": "0x1cf21b74a0f3848990fba12abef1e071d259084df6c060c3ee51a5cdcb42472f",
          "blockNumber": "0x4982dc8",
          "transactionHash": "0x0fb008159579e7e4fa8da3f5927d93ce4bf293654023b736d09885bb586e9491",
          "transactionIndex": "0x1",
          "logIndex": "0x0",
          "removed": false
        }
      ],
      "logsBloom": "0x00000000000000000000000000400000000000000040000008000000000000000000000000000000000000000000000000000000000000000000000000000000000000000000000000000000000000000000000000000000000000100000000000800020000000000000000000000000000000000000000020000000000000000000000000000000000000000000004000000000000000000000000000000000000000000000000000000000000000000000000000000000000000000040000000000000000000000000000000000000000000000000000000000000000000000000000000000000000000000000000000000000000000000000002000012000",
      "type": "0x2",
      "transactionHash": "0x0fb008159579e7e4fa8da3f5927d93ce4bf293654023b736d09885bb586e9491",
      "transactionIndex": "0x1",
      "blockHash": "0x1cf21b74a0f3848990fba12abef1e071d259084df6c060c3ee51a5cdcb42472f",
      "blockNumber": "0x4982dc8",
      "gasUsed": "0x972f5",
      "effectiveGasPrice": "0x64bc930",
      "from": "0x7caf754c934710d7c73bc453654552beca38223f",
      "to": "0x62254d732c078bf0484ea7dbd61f7f620184f95e",
      "contractAddress": null,
      "gasUsedForL1": "0x8a573",
      "l1BlockNumber": "0x652b1f"
    }
  ],
  "libraries": [],
  "pending": [],
  "returns": {},
  "timestamp": 1725436853,
  "chain": 421614,
  "commit": "49d0394"
}