{
  "transactions": [
    {
      "hash": "0xb6df2439e969a7bd3a94a458353c8794aa5893aedcb0b75d9ceed310d58a3cc1",
      "transactionType": "CALL",
      "contractName": null,
      "contractAddress": "0xfe0717cacd6fff3001edd3f360eb2854f54861dd",
      "function": "addOperator(uint256,address)",
      "arguments": [
        "20376791661718660580662410765070640284736320707848823176694931891585259913409",
        "0xCf4990bBa0B9A56500501d0c6eF139B92a050352"
      ],
      "transaction": {
        "from": "0x7caf754c934710d7c73bc453654552beca38223f",
        "to": "0xfe0717cacd6fff3001edd3f360eb2854f54861dd",
        "gas": "0x105ada",
        "value": "0x0",
        "input": "0x7d46a7132d0cdaf9a1153a9a4b68379c64d4397611a0f3d9fa4015376435f9a64aafc0c1000000000000000000000000cf4990bba0b9a56500501d0c6ef139b92a050352",
        "nonce": "0x275",
        "chainId": "0x66eee"
      },
      "additionalContracts": [],
      "isFixedGasLimit": false
    },
    {
      "hash": "0x9119aedf6c8c50aae5446641ad7a9aef12ec4ed806cd8f181d5f85ef587789d6",
      "transactionType": "CALL",
      "contractName": null,
      "contractAddress": "0xfe0717cacd6fff3001edd3f360eb2854f54861dd",
      "function": "addOperator(uint256,address)",
      "arguments": [
        "8073960722007594212918575991467917289452723924551607525414094759273404023523",
        "0xCf4990bBa0B9A56500501d0c6eF139B92a050352"
      ],
      "transaction": {
        "from": "0x7caf754c934710d7c73bc453654552beca38223f",
        "to": "0xfe0717cacd6fff3001edd3f360eb2854f54861dd",
        "gas": "0x105ada",
        "value": "0x0",
        "input": "0x7d46a71311d9b327b46d43525821b67e9e75373040aa7f8162b46753eb565065f743c2e3000000000000000000000000cf4990bba0b9a56500501d0c6ef139b92a050352",
        "nonce": "0x276",
        "chainId": "0x66eee"
      },
      "additionalContracts": [],
      "isFixedGasLimit": false
    },
    {
      "hash": "0xc0a9fc4e391a6bb666fabece6ae65e6d2c0c0e9a44d893d8d34ae7b4c5a855c3",
      "transactionType": "CALL",
      "contractName": null,
      "contractAddress": "0xfe0717cacd6fff3001edd3f360eb2854f54861dd",
      "function": "addOperator(uint256,address)",
      "arguments": [
        "33953649417576654953995537313820306697747390492794311279756157547821320957282",
        "0xCf4990bBa0B9A56500501d0c6eF139B92a050352"
      ],
      "transaction": {
        "from": "0x7caf754c934710d7c73bc453654552beca38223f",
        "to": "0xfe0717cacd6fff3001edd3f360eb2854f54861dd",
        "gas": "0x105ada",
        "value": "0x0",
        "input": "0x7d46a7134b1115a4946079f8d83c63061f5c49c2f351a054d8dfb284b197f54dbfa8ed62000000000000000000000000cf4990bba0b9a56500501d0c6ef139b92a050352",
        "nonce": "0x277",
        "chainId": "0x66eee"
      },
      "additionalContracts": [],
      "isFixedGasLimit": false
    },
    {
      "hash": "0xc77219654dcc8a1db5be155badeb45db32880fdc678e5d9e22ea0541182c4f5b",
      "transactionType": "CALL",
      "contractName": null,
      "contractAddress": "0x56039fa1a804f614ebd714139f29a3ff4db57ad6",
      "function": "grantRoles(address,uint256)",
      "arguments": [
        "0x35F3e191523C8701aD315551dCbDcC5708efD7ec",
        "1"
      ],
      "transaction": {
        "from": "0x7caf754c934710d7c73bc453654552beca38223f",
        "to": "0x56039fa1a804f614ebd714139f29a3ff4db57ad6",
        "gas": "0x102eaf",
        "value": "0x0",
        "input": "0x1c10893f00000000000000000000000035f3e191523c8701ad315551dcbdcc5708efd7ec0000000000000000000000000000000000000000000000000000000000000001",
        "nonce": "0x278",
        "chainId": "0x66eee"
      },
      "additionalContracts": [],
      "isFixedGasLimit": false
    }
  ],
  "receipts": [
    {
      "status": "0x1",
      "cumulativeGasUsed": "0x30b19d",
      "logs": [
        {
          "address": "0xfe0717cacd6fff3001edd3f360eb2854f54861dd",
          "topics": [
            "0x5bb4f0ce0b45958f2f55e7b3c080e51003e6c6714473adb4de547b03274ca29b",
            "0x2d0cdaf9a1153a9a4b68379c64d4397611a0f3d9fa4015376435f9a64aafc0c1"
          ],
          "data": "0x000000000000000000000000cf4990bba0b9a56500501d0c6ef139b92a050352",
          "blockHash": "0x50312e6fb9d670ff85e1549d20d98694b2c0d699e6fc9f179d5328e369cf34f1",
          "blockNumber": "0x3f71317",
          "transactionHash": "0xb6df2439e969a7bd3a94a458353c8794aa5893aedcb0b75d9ceed310d58a3cc1",
          "transactionIndex": "0x2",
          "logIndex": "0x3",
          "removed": false
        }
      ],
      "logsBloom": "0x00000000000000000000100000000000000000000000000000000010000000000000000000000000000000000000000000000000000000000000000000000000000000004000000000000000000000000000000020000000000000000000000000000000000000000000000000000000000000000000000000000000000000000000000000000000000000028000000000000000000000000000000000000000000000400000000000000020004000000000000000000000000000000000000000000000000000000000000000000000000000000000000000000000000000000000000000000000000000000000000000000000000000000000000000000000",
      "type": "0x2",
      "transactionHash": "0xb6df2439e969a7bd3a94a458353c8794aa5893aedcb0b75d9ceed310d58a3cc1",
      "transactionIndex": "0x2",
      "blockHash": "0x50312e6fb9d670ff85e1549d20d98694b2c0d699e6fc9f179d5328e369cf34f1",
      "blockNumber": "0x3f71317",
      "gasUsed": "0x9e7c4",
      "effectiveGasPrice": "0x5f5e100",
      "from": "0x7caf754c934710d7c73bc453654552beca38223f",
      "to": "0xfe0717cacd6fff3001edd3f360eb2854f54861dd",
      "contractAddress": null,
      "gasUsedForL1": "0x958c7",
      "l1BlockNumber": "0x6142dd"
    },
    {
      "status": "0x1",
      "cumulativeGasUsed": "0x158bbb",
      "logs": [
        {
          "address": "0xfe0717cacd6fff3001edd3f360eb2854f54861dd",
          "topics": [
            "0x5bb4f0ce0b45958f2f55e7b3c080e51003e6c6714473adb4de547b03274ca29b",
            "0x11d9b327b46d43525821b67e9e75373040aa7f8162b46753eb565065f743c2e3"
          ],
          "data": "0x000000000000000000000000cf4990bba0b9a56500501d0c6ef139b92a050352",
          "blockHash": "0xa31e48c08df4d7328d9ed16f5031c229165c5c8f249bc1b704c99cac32a59e50",
          "blockNumber": "0x3f7131a",
          "transactionHash": "0x9119aedf6c8c50aae5446641ad7a9aef12ec4ed806cd8f181d5f85ef587789d6",
          "transactionIndex": "0x2",
          "logIndex": "0x1",
          "removed": false
        }
      ],
      "logsBloom": "0x00000100000000000000000000000000000000000000000000000000000000000000000000000000000000000000000000000000000000000000000000000000000000004000000000000000000000000000080000000000000000000000000000000000000000000000000000000000000000000000000000000000000000000000000000000000000000028000000000000000000000000000000000000000000000400000000000000020004000000000000000000000000000000000000000000000000000000000000800000000000000000000000000000000000000000000000000000000000000000000000000000000000000000000000000000000",
      "type": "0x2",
      "transactionHash": "0x9119aedf6c8c50aae5446641ad7a9aef12ec4ed806cd8f181d5f85ef587789d6",
      "transactionIndex": "0x2",
      "blockHash": "0xa31e48c08df4d7328d9ed16f5031c229165c5c8f249bc1b704c99cac32a59e50",
      "blockNumber": "0x3f7131a",
      "gasUsed": "0x9e7c4",
      "effectiveGasPrice": "0x5f5e100",
      "from": "0x7caf754c934710d7c73bc453654552beca38223f",
      "to": "0xfe0717cacd6fff3001edd3f360eb2854f54861dd",
      "contractAddress": null,
      "gasUsedForL1": "0x958c7",
      "l1BlockNumber": "0x6142dd"
    },
    {
      "status": "0x1",
      "cumulativeGasUsed": "0x9e7c4",
      "logs": [
        {
          "address": "0xfe0717cacd6fff3001edd3f360eb2854f54861dd",
          "topics": [
            "0x5bb4f0ce0b45958f2f55e7b3c080e51003e6c6714473adb4de547b03274ca29b",
            "0x4b1115a4946079f8d83c63061f5c49c2f351a054d8dfb284b197f54dbfa8ed62"
          ],
          "data": "0x000000000000000000000000cf4990bba0b9a56500501d0c6ef139b92a050352",
          "blockHash": "0xebdd082f4951adb721eb86c38c765b78d6c797a7fb10747dcd478e0678543272",
          "blockNumber": "0x3f7131d",
          "transactionHash": "0xc0a9fc4e391a6bb666fabece6ae65e6d2c0c0e9a44d893d8d34ae7b4c5a855c3",
          "transactionIndex": "0x1",
          "logIndex": "0x0",
          "removed": false
        }
      ],
      "logsBloom": "0x00000000000000000000000000000000000000000000000008000000000000000000000000000000000000000000000000000000000000000000000000000000000000004000000000000000000000000000000000000000000000000000000000800020000000000000000000000000000000000000000000000000000000000000000000000000000000028000000000000000000000000000000000000000000000400000000000000020004000000000000000000000000000000000000000000000000000000000000000000000000000000000000000000000000000000000000000000000000000000000000000000000000000000000000000000000",
      "type": "0x2",
      "transactionHash": "0xc0a9fc4e391a6bb666fabece6ae65e6d2c0c0e9a44d893d8d34ae7b4c5a855c3",
      "transactionIndex": "0x1",
      "blockHash": "0xebdd082f4951adb721eb86c38c765b78d6c797a7fb10747dcd478e0678543272",
      "blockNumber": "0x3f7131d",
      "gasUsed": "0x9e7c4",
      "effectiveGasPrice": "0x5f5e100",
      "from": "0x7caf754c934710d7c73bc453654552beca38223f",
      "to": "0xfe0717cacd6fff3001edd3f360eb2854f54861dd",
      "contractAddress": null,
      "gasUsedForL1": "0x958c7",
      "l1BlockNumber": "0x6142dd"
    },
    {
      "status": "0x1",
      "cumulativeGasUsed": "0x605d23",
      "logs": [
        {
          "address": "0x56039fa1a804f614ebd714139f29a3ff4db57ad6",
          "topics": [
            "0x715ad5ce61fc9595c7b415289d59cf203f23a94fa06f04af7e489a0a76e1fe26",
            "0x00000000000000000000000035f3e191523c8701ad315551dcbdcc5708efd7ec",
            "0x0000000000000000000000000000000000000000000000000000000000000001"
          ],
          "data": "0x",
          "blockHash": "0x7237cde0a16a08643ca3d4c7a4fb03c7f0b69680ef0b93588db21da7208fbd5a",
          "blockNumber": "0x3f71324",
          "transactionHash": "0xc77219654dcc8a1db5be155badeb45db32880fdc678e5d9e22ea0541182c4f5b",
          "transactionIndex": "0x3",
          "logIndex": "0xa",
          "removed": false
        }
      ],
      "logsBloom": "0x00000000000000000000000000000000000000000000400000000000000000000000000000020000000000000000000000000000000000000000000000040000000000000000000000000000000000000000000000040000000010000000000000000000000000000002000000000000000000000000000000000000000000000000000000000000000000000000000000000000000000000000000000000000000000000000000000000000000000000000000000010000000000000000000000002000400000000000000080000000000000000000000000000000000040000000000000000000000000000200000000000000000000000000000000000000",
      "type": "0x2",
      "transactionHash": "0xc77219654dcc8a1db5be155badeb45db32880fdc678e5d9e22ea0541182c4f5b",
      "transactionIndex": "0x3",
      "blockHash": "0x7237cde0a16a08643ca3d4c7a4fb03c7f0b69680ef0b93588db21da7208fbd5a",
      "blockNumber": "0x3f71324",
      "gasUsed": "0x9c60e",
      "effectiveGasPrice": "0x5f5e100",
      "from": "0x7caf754c934710d7c73bc453654552beca38223f",
      "to": "0x56039fa1a804f614ebd714139f29a3ff4db57ad6",
      "contractAddress": null,
      "gasUsedForL1": "0x958c7",
      "l1BlockNumber": "0x6142dd"
    }
  ],
  "libraries": [],
  "pending": [],
  "returns": {},
  "timestamp": 1721922429,
  "chain": 421614,
  "commit": "c7ca19a"
}