{
  "transactions": [
    {
      "hash": "0xa30924d3c2e0f37e00bfe7da5798ac52d6ce91d1bb3530da08aca6d877722f88",
      "transactionType": "CALL",
      "contractName": null,
      "contractAddress": "0xfe0717cacd6fff3001edd3f360eb2854f54861dd",
      "function": "addOperator(uint256,address)",
      "arguments": [
        "106219508196454080375526586478153583586194937194493887259467424694676997453395",
        "0x286AD1b2A0d94Bd64f260f60b0A17Ea02b8fD8FE"
      ],
      "transaction": {
        "from": "0x7caf754c934710d7c73bc453654552beca38223f",
        "to": "0xfe0717cacd6fff3001edd3f360eb2854f54861dd",
        "gas": "0x51446",
        "value": "0x0",
        "input": "0x7d46a713ead61c7340b7cacd78684d4795a617aae5e85cc4b89da34fb05ad55bb6bab653000000000000000000000000286ad1b2a0d94bd64f260f60b0a17ea02b8fd8fe",
        "nonce": "0x238",
        "chainId": "0x66eee"
      },
      "additionalContracts": [],
      "isFixedGasLimit": false
    },
    {
      "hash": "0xfb969a425ad02a72561c097f5e04dcf7055efb5c6fc7d2e80a2c09c62dca7c95",
      "transactionType": "CALL",
      "contractName": null,
      "contractAddress": "0xfe0717cacd6fff3001edd3f360eb2854f54861dd",
      "function": "addOperator(uint256,address)",
      "arguments": [
        "108586150798115180574743190405367285583167702751783717273705027881651322809951",
        "0x286AD1b2A0d94Bd64f260f60b0A17Ea02b8fD8FE"
      ],
      "transaction": {
        "from": "0x7caf754c934710d7c73bc453654552beca38223f",
        "to": "0xfe0717cacd6fff3001edd3f360eb2854f54861dd",
        "gas": "0x51446",
        "value": "0x0",
        "input": "0x7d46a713f011955832cac97ab1a6534c6b94971325e3be6bfaac1ccae68e3f5c7adcee5f000000000000000000000000286ad1b2a0d94bd64f260f60b0a17ea02b8fd8fe",
        "nonce": "0x239",
        "chainId": "0x66eee"
      },
      "additionalContracts": [],
      "isFixedGasLimit": false
    },
    {
      "hash": "0x72b438d4de9ff0c5fbc9c53679d82562826754088f5f0a2f4ba7f9a0c70e957a",
      "transactionType": "CALL",
      "contractName": null,
      "contractAddress": "0xfe0717cacd6fff3001edd3f360eb2854f54861dd",
      "function": "addOperator(uint256,address)",
      "arguments": [
        "61412812549033025435811962204424170589965658763482764336017940556663446417829",
        "0x286AD1b2A0d94Bd64f260f60b0A17Ea02b8fD8FE"
      ],
      "transaction": {
        "from": "0x7caf754c934710d7c73bc453654552beca38223f",
        "to": "0xfe0717cacd6fff3001edd3f360eb2854f54861dd",
        "gas": "0x51446",
        "value": "0x0",
        "input": "0x7d46a71387c66b8c60fd984f739f68f1d83229601131914aaf269874c584e179b37db1a5000000000000000000000000286ad1b2a0d94bd64f260f60b0a17ea02b8fd8fe",
        "nonce": "0x23a",
        "chainId": "0x66eee"
      },
      "additionalContracts": [],
      "isFixedGasLimit": false
    },
    {
      "hash": "0x86ea8fb2e2bd5f155151ef0ff9e4b379a0338ad37288aa599aa525ea5f25c8c7",
      "transactionType": "CALL",
      "contractName": null,
      "contractAddress": "0xfe0717cacd6fff3001edd3f360eb2854f54861dd",
      "function": "addOperator(uint256,address)",
      "arguments": [
        "20376791661718660580662410765070640284736320707848823176694931891585259913409",
        "0x286AD1b2A0d94Bd64f260f60b0A17Ea02b8fD8FE"
      ],
      "transaction": {
        "from": "0x7caf754c934710d7c73bc453654552beca38223f",
        "to": "0xfe0717cacd6fff3001edd3f360eb2854f54861dd",
        "gas": "0x51446",
        "value": "0x0",
        "input": "0x7d46a7132d0cdaf9a1153a9a4b68379c64d4397611a0f3d9fa4015376435f9a64aafc0c1000000000000000000000000286ad1b2a0d94bd64f260f60b0a17ea02b8fd8fe",
        "nonce": "0x23b",
        "chainId": "0x66eee"
      },
      "additionalContracts": [],
      "isFixedGasLimit": false
    }
  ],
  "receipts": [
    {
      "status": "0x1",
      "cumulativeGasUsed": "0x32642",
      "logs": [
        {
          "address": "0xfe0717cacd6fff3001edd3f360eb2854f54861dd",
          "topics": [
            "0x5bb4f0ce0b45958f2f55e7b3c080e51003e6c6714473adb4de547b03274ca29b",
            "0xead61c7340b7cacd78684d4795a617aae5e85cc4b89da34fb05ad55bb6bab653"
          ],
          "data": "0x000000000000000000000000286ad1b2a0d94bd64f260f60b0a17ea02b8fd8fe",
          "blockHash": "0x9408b4c1bf4af19ad3ba82796df940068589da8e2d561e151075594343a67840",
          "blockNumber": "0x3d45732",
          "transactionHash": "0xa30924d3c2e0f37e00bfe7da5798ac52d6ce91d1bb3530da08aca6d877722f88",
          "transactionIndex": "0x1",
          "logIndex": "0x0",
          "removed": false
        }
      ],
      "logsBloom": "0x00000000000000000000000000000000000000000000000000000000000000000000000000000000000000000000000000000000000000000000000000000000000000004000000000000000000000000000000000000000000000000000000000000000000000000000000000000000000000000000000000000000000000000000000000000000000000028000000000000000000000000000000000000000000000400000000000000020004000000000000000000000000000020000000000000000000000000000200000000000000000000000000000000000000000000000000400000000000000000000000000000000000000000000000000000000",
      "type": "0x2",
      "transactionHash": "0xa30924d3c2e0f37e00bfe7da5798ac52d6ce91d1bb3530da08aca6d877722f88",
      "transactionIndex": "0x1",
      "blockHash": "0x9408b4c1bf4af19ad3ba82796df940068589da8e2d561e151075594343a67840",
      "blockNumber": "0x3d45732",
      "gasUsed": "0x32642",
      "effectiveGasPrice": "0x5f5e100",
      "from": "0x7caf754c934710d7c73bc453654552beca38223f",
      "to": "0xfe0717cacd6fff3001edd3f360eb2854f54861dd",
      "contractAddress": null,
      "gasUsedForL1": "0x29739",
      "l1BlockNumber": "0x6072f0"
    },
    {
      "status": "0x1",
      "cumulativeGasUsed": "0x32642",
      "logs": [
        {
          "address": "0xfe0717cacd6fff3001edd3f360eb2854f54861dd",
          "topics": [
            "0x5bb4f0ce0b45958f2f55e7b3c080e51003e6c6714473adb4de547b03274ca29b",
            "0xf011955832cac97ab1a6534c6b94971325e3be6bfaac1ccae68e3f5c7adcee5f"
          ],
          "data": "0x000000000000000000000000286ad1b2a0d94bd64f260f60b0a17ea02b8fd8fe",
          "blockHash": "0x27bbb1137bb7abd862c396670d74f4767e1ece74697194d31570c891dca7168e",
          "blockNumber": "0x3d45735",
          "transactionHash": "0xfb969a425ad02a72561c097f5e04dcf7055efb5c6fc7d2e80a2c09c62dca7c95",
          "transactionIndex": "0x1",
          "logIndex": "0x0",
          "removed": false
        }
      ],
      "logsBloom": "0x00000000000000000000000000000000000000000000000000000000000000000000000000000000000000000000000000000000000000000000000000000000000000004000000000000000000000000000000000000000000000000000000000000000000000000000000000000000000000000000000000000000000000000800000000000000000000028000000000000000000000000000000000000000000000400000000000000020004000000000000000000000000000400000000000000000000800000000000000000000000000000000000000000000000000000000000000000000000000000000000000000000000000000000000000000000",
      "type": "0x2",
      "transactionHash": "0xfb969a425ad02a72561c097f5e04dcf7055efb5c6fc7d2e80a2c09c62dca7c95",
      "transactionIndex": "0x1",
      "blockHash": "0x27bbb1137bb7abd862c396670d74f4767e1ece74697194d31570c891dca7168e",
      "blockNumber": "0x3d45735",
      "gasUsed": "0x32642",
      "effectiveGasPrice": "0x5f5e100",
      "from": "0x7caf754c934710d7c73bc453654552beca38223f",
      "to": "0xfe0717cacd6fff3001edd3f360eb2854f54861dd",
      "contractAddress": null,
      "gasUsedForL1": "0x29739",
      "l1BlockNumber": "0x6072f0"
    },
    {
      "status": "0x1",
      "cumulativeGasUsed": "0x32642",
      "logs": [
        {
          "address": "0xfe0717cacd6fff3001edd3f360eb2854f54861dd",
          "topics": [
            "0x5bb4f0ce0b45958f2f55e7b3c080e51003e6c6714473adb4de547b03274ca29b",
            "0x87c66b8c60fd984f739f68f1d83229601131914aaf269874c584e179b37db1a5"
          ],
          "data": "0x000000000000000000000000286ad1b2a0d94bd64f260f60b0a17ea02b8fd8fe",
          "blockHash": "0xc01f44886baac007c96d5d60afa143998644d1a910b803c56d4e7f935efb21aa",
          "blockNumber": "0x3d45738",
          "transactionHash": "0x72b438d4de9ff0c5fbc9c53679d82562826754088f5f0a2f4ba7f9a0c70e957a",
          "transactionIndex": "0x1",
          "logIndex": "0x0",
          "removed": false
        }
      ],
      "logsBloom": "0x00000000000000000000000000000000000000000000000000000000000000000000000100000000000000000000000000000000000000000000000000000000000000004000000000000000000000000000000000000000000000000000000000000000000000000000000000000000000000000000000000000000000000000000000000000000000000028000000000000000000000004000000000000000000000400000000000000020004000000000000000000008000000000000000000000000000000000000000000000000000000000000000000000000000000000000000000000000000000000000000000000000000000000000000000000000",
      "type": "0x2",
      "transactionHash": "0x72b438d4de9ff0c5fbc9c53679d82562826754088f5f0a2f4ba7f9a0c70e957a",
      "transactionIndex": "0x1",
      "blockHash": "0xc01f44886baac007c96d5d60afa143998644d1a910b803c56d4e7f935efb21aa",
      "blockNumber": "0x3d45738",
      "gasUsed": "0x32642",
      "effectiveGasPrice": "0x5f5e100",
      "from": "0x7caf754c934710d7c73bc453654552beca38223f",
      "to": "0xfe0717cacd6fff3001edd3f360eb2854f54861dd",
      "contractAddress": null,
      "gasUsedForL1": "0x29739",
      "l1BlockNumber": "0x6072f0"
    },
    {
      "status": "0x1",
      "cumulativeGasUsed": "0x32642",
      "logs": [
        {
          "address": "0xfe0717cacd6fff3001edd3f360eb2854f54861dd",
          "topics": [
            "0x5bb4f0ce0b45958f2f55e7b3c080e51003e6c6714473adb4de547b03274ca29b",
            "0x2d0cdaf9a1153a9a4b68379c64d4397611a0f3d9fa4015376435f9a64aafc0c1"
          ],
          "data": "0x000000000000000000000000286ad1b2a0d94bd64f260f60b0a17ea02b8fd8fe",
          "blockHash": "0x9565f8df68a9ad921a5e9ee22fe711900e8f549b9ab841cfa7e283399c336340",
          "blockNumber": "0x3d4573c",
          "transactionHash": "0x86ea8fb2e2bd5f155151ef0ff9e4b379a0338ad37288aa599aa525ea5f25c8c7",
          "transactionIndex": "0x1",
          "logIndex": "0x0",
          "removed": false
        }
      ],
      "logsBloom": "0x00000000000000000000100000000000000000000000000000000010000000000000000000000000000000000000000000000000000000000000000000000000000000004000000000000000000000000000000020000000000000000000000000000000000000000000000000000000000000000000000000000000000000000000000000000000000000028000000000000000000000000000000000000000000000400000000000000020004000000000000000000000000000000000000000000000000000000000000000000000000000000000000000000000000000000000000000000000000000000000000000000000000000000000000000000000",
      "type": "0x2",
      "transactionHash": "0x86ea8fb2e2bd5f155151ef0ff9e4b379a0338ad37288aa599aa525ea5f25c8c7",
      "transactionIndex": "0x1",
      "blockHash": "0x9565f8df68a9ad921a5e9ee22fe711900e8f549b9ab841cfa7e283399c336340",
      "blockNumber": "0x3d4573c",
      "gasUsed": "0x32642",
      "effectiveGasPrice": "0x5f5e100",
      "from": "0x7caf754c934710d7c73bc453654552beca38223f",
      "to": "0xfe0717cacd6fff3001edd3f360eb2854f54861dd",
      "contractAddress": null,
      "gasUsedForL1": "0x29739",
      "l1BlockNumber": "0x6072f0"
    }
  ],
  "libraries": [],
  "pending": [],
  "returns": {},
  "timestamp": 1721128802,
  "chain": 421614,
  "commit": "3bfe1da"
}