{
  "transactions": [
    {
      "hash": "0x4a42ce4f35cf69c37e1a36985482b0a962621793101d7504523bd11b830a0e4c",
      "transactionType": "CALL",
      "contractName": "ProductRegistry",
      "contractAddress": "0xda7fbd02eb048bdf6f1607122eee071e44f0b9f2",
      "function": "grantRoles(address,uint256)",
      "arguments": [
        "0x35F3e191523C8701aD315551dCbDcC5708efD7ec",
        "1"
      ],
      "transaction": {
        "from": "0x7caf754c934710d7c73bc453654552beca38223f",
        "to": "0xda7fbd02eb048bdf6f1607122eee071e44f0b9f2",
        "gas": "0x1bf63",
        "value": "0x0",
        "input": "0x1c10893f00000000000000000000000035f3e191523c8701ad315551dcbdcc5708efd7ec0000000000000000000000000000000000000000000000000000000000000001",
        "nonce": "0x2b7",
        "chainId": "0x66eee"
      },
      "additionalContracts": [],
      "isFixedGasLimit": false
    },
    {
      "hash": "0x1fa6e5103ee20ed3ea1124b2a3de4d8a15bd78194ebeb712ef7ec4bec968b243",
      "transactionType": "CALL",
      "contractName": "mUSDToken",
      "contractAddress": "0x56039fa1a804f614ebd714139f29a3ff4db57ad6",
      "function": "grantRoles(address,uint256)",
      "arguments": [
        "0x35F3e191523C8701aD315551dCbDcC5708efD7ec",
        "1"
      ],
      "transaction": {
        "from": "0x7caf754c934710d7c73bc453654552beca38223f",
        "to": "0x56039fa1a804f614ebd714139f29a3ff4db57ad6",
        "gas": "0x159ee",
        "value": "0x0",
        "input": "0x1c10893f00000000000000000000000035f3e191523c8701ad315551dcbdcc5708efd7ec0000000000000000000000000000000000000000000000000000000000000001",
        "nonce": "0x2b8",
        "chainId": "0x66eee"
      },
      "additionalContracts": [],
      "isFixedGasLimit": false
    },
    {
      "hash": "0xe1ca722e856bc8c6cc5e78fb96eeee54039ffcff4bc268d65946ad8d44243aa4",
      "transactionType": "CALL",
      "contractName": "ProductAdministratorRegistry",
      "contractAddress": "0x62254d732c078bf0484ea7dbd61f7f620184f95e",
      "function": "grantRoles(uint256,address,uint256)",
      "arguments": [
        "20376791661718660580662410765070640284736320707848823176694931891585259913409",
        "0xB875AAD94cd568CE0359A73b62Af1614E4ff0901",
        "8"
      ],
      "transaction": {
        "from": "0x7caf754c934710d7c73bc453654552beca38223f",
        "to": "0x62254d732c078bf0484ea7dbd61f7f620184f95e",
        "gas": "0x1f5e8",
        "value": "0x0",
        "input": "0x67b5e23c2d0cdaf9a1153a9a4b68379c64d4397611a0f3d9fa4015376435f9a64aafc0c1000000000000000000000000b875aad94cd568ce0359a73b62af1614e4ff09010000000000000000000000000000000000000000000000000000000000000008",
        "nonce": "0x2b9",
        "chainId": "0x66eee"
      },
      "additionalContracts": [],
      "isFixedGasLimit": false
    },
    {
      "hash": "0x353b8b1cdf29512a3879af96bfb072de82a958cb023aefc01721454563ca58a5",
      "transactionType": "CALL",
      "contractName": "ProductAdministratorRegistry",
      "contractAddress": "0x62254d732c078bf0484ea7dbd61f7f620184f95e",
      "function": "grantRoles(uint256,address,uint256)",
      "arguments": [
        "33953649417576654953995537313820306697747390492794311279756157547821320957282",
        "0xB875AAD94cd568CE0359A73b62Af1614E4ff0901",
        "8"
      ],
      "transaction": {
        "from": "0x7caf754c934710d7c73bc453654552beca38223f",
        "to": "0x62254d732c078bf0484ea7dbd61f7f620184f95e",
        "gas": "0x1f5e8",
        "value": "0x0",
        "input": "0x67b5e23c4b1115a4946079f8d83c63061f5c49c2f351a054d8dfb284b197f54dbfa8ed62000000000000000000000000b875aad94cd568ce0359a73b62af1614e4ff09010000000000000000000000000000000000000000000000000000000000000008",
        "nonce": "0x2ba",
        "chainId": "0x66eee"
      },
      "additionalContracts": [],
      "isFixedGasLimit": false
    }
  ],
  "receipts": [
    {
      "status": "0x1",
      "cumulativeGasUsed": "0x13386",
      "logs": [
        {
          "address": "0xda7fbd02eb048bdf6f1607122eee071e44f0b9f2",
          "topics": [
            "0x715ad5ce61fc9595c7b415289d59cf203f23a94fa06f04af7e489a0a76e1fe26",
            "0x00000000000000000000000035f3e191523c8701ad315551dcbdcc5708efd7ec",
            "0x0000000000000000000000000000000000000000000000000000000000000001"
          ],
          "data": "0x",
          "blockHash": "0x8b06cb1b1368d169f312885b130cf2d9a4f008ee19dc012ae132a8c74d6d0125",
          "blockNumber": "0x4849954",
          "transactionHash": "0x4a42ce4f35cf69c37e1a36985482b0a962621793101d7504523bd11b830a0e4c",
          "transactionIndex": "0x1",
          "logIndex": "0x0",
          "removed": false
        }
      ],
      "logsBloom": "0x00000000000000000000000000000000000000000000000000000000000000000000000000000000000000000000000000000800000000000000000000040000000000001000000000000000000000000000000000040000000000010000000000000000000000000002000000000000000000000000000000000000000000000000000000000000000000000000000000000000000000000000000000000000000000000000000000000000000000000000000000010000000000000000000000002000400000000000000080000000000000000000000000000000000040000000000000000000000000000200000000000000000000000000000000000000",
      "type": "0x2",
      "transactionHash": "0x4a42ce4f35cf69c37e1a36985482b0a962621793101d7504523bd11b830a0e4c",
      "transactionIndex": "0x1",
      "blockHash": "0x8b06cb1b1368d169f312885b130cf2d9a4f008ee19dc012ae132a8c74d6d0125",
      "blockNumber": "0x4849954",
      "gasUsed": "0x13386",
      "effectiveGasPrice": "0x5f5e100",
      "from": "0x7caf754c934710d7c73bc453654552beca38223f",
      "to": "0xda7fbd02eb048bdf6f1607122eee071e44f0b9f2",
      "contractAddress": null,
      "gasUsedForL1": "0x7883",
      "l1BlockNumber": "0x64cce5"
    },
    {
      "status": "0x1",
      "cumulativeGasUsed": "0xe5ca",
      "logs": [
        {
          "address": "0x56039fa1a804f614ebd714139f29a3ff4db57ad6",
          "topics": [
            "0x715ad5ce61fc9595c7b415289d59cf203f23a94fa06f04af7e489a0a76e1fe26",
            "0x00000000000000000000000035f3e191523c8701ad315551dcbdcc5708efd7ec",
            "0x0000000000000000000000000000000000000000000000000000000000000001"
          ],
          "data": "0x",
          "blockHash": "0xbe7b89193bbe0afa7024a28c0f14bd55166a4882c0411fe7235e3ea8266aba1f",
          "blockNumber": "0x4849958",
          "transactionHash": "0x1fa6e5103ee20ed3ea1124b2a3de4d8a15bd78194ebeb712ef7ec4bec968b243",
          "transactionIndex": "0x1",
          "logIndex": "0x0",
          "removed": false
        }
      ],
      "logsBloom": "0x00000000000000000000000000000000000000000000400000000000000000000000000000020000000000000000000000000000000000000000000000040000000000000000000000000000000000000000000000040000000010000000000000000000000000000002000000000000000000000000000000000000000000000000000000000000000000000000000000000000000000000000000000000000000000000000000000000000000000000000000000010000000000000000000000002000400000000000000080000000000000000000000000000000000040000000000000000000000000000200000000000000000000000000000000000000",
      "type": "0x2",
      "transactionHash": "0x1fa6e5103ee20ed3ea1124b2a3de4d8a15bd78194ebeb712ef7ec4bec968b243",
      "transactionIndex": "0x1",
      "blockHash": "0xbe7b89193bbe0afa7024a28c0f14bd55166a4882c0411fe7235e3ea8266aba1f",
      "blockNumber": "0x4849958",
      "gasUsed": "0xe5ca",
      "effectiveGasPrice": "0x5f5e100",
      "from": "0x7caf754c934710d7c73bc453654552beca38223f",
      "to": "0x56039fa1a804f614ebd714139f29a3ff4db57ad6",
      "contractAddress": null,
      "gasUsedForL1": "0x7883",
      "l1BlockNumber": "0x64cce5"
    },
    {
      "status": "0x1",
      "cumulativeGasUsed": "0x4986a",
      "logs": [
        {
          "address": "0x62254d732c078bf0484ea7dbd61f7f620184f95e",
          "topics": [
            "0xca5f6034cf7475c6c068781b337289c341f3350f95845d98e134a06ce879afa9",
            "0x2d0cdaf9a1153a9a4b68379c64d4397611a0f3d9fa4015376435f9a64aafc0c1",
            "0x000000000000000000000000b875aad94cd568ce0359a73b62af1614e4ff0901"
          ],
          "data": "0x000000000000000000000000000000000000000000000000000000000000000800000000000000000000000000000000000000000000000000000000000000000000000000000000000000000000000000000000000000000000000000000001",
          "blockHash": "0x66ab52cc7f1b54450704709da57fa2fe7317622d3c7b4490046e5be8ad9cea6a",
          "blockNumber": "0x484995c",
          "transactionHash": "0xe1ca722e856bc8c6cc5e78fb96eeee54039ffcff4bc268d65946ad8d44243aa4",
          "transactionIndex": "0x2",
          "logIndex": "0x2",
          "removed": false
        }
      ],
      "logsBloom": "0x00000000000000000000100000000000000000000040000000000010000000000000000000000000000000000000000000000000000000000000000000000000000000000000000000000000000000000000000020000000000000100000000000000000020000000000000000000000000000000000010020000000000000000000000000000000000000000000004000000000000000000000000000000000000000000000008000000000000000000000000000000000000000000040000000000000000000000000000000000000000000000000000000000000000000000000000000000000000000000000000000000000000000000000002000000000",
      "type": "0x2",
      "transactionHash": "0xe1ca722e856bc8c6cc5e78fb96eeee54039ffcff4bc268d65946ad8d44243aa4",
      "transactionIndex": "0x2",
      "blockHash": "0x66ab52cc7f1b54450704709da57fa2fe7317622d3c7b4490046e5be8ad9cea6a",
      "blockNumber": "0x484995c",
      "gasUsed": "0x15afb",
      "effectiveGasPrice": "0x5f5e100",
      "from": "0x7caf754c934710d7c73bc453654552beca38223f",
      "to": "0x62254d732c078bf0484ea7dbd61f7f620184f95e",
      "contractAddress": null,
      "gasUsedForL1": "0x8d79",
      "l1BlockNumber": "0x64cce5"
    },
    {
      "status": "0x1",
      "cumulativeGasUsed": "0x15afb",
      "logs": [
        {
          "address": "0x62254d732c078bf0484ea7dbd61f7f620184f95e",
          "topics": [
            "0xca5f6034cf7475c6c068781b337289c341f3350f95845d98e134a06ce879afa9",
            "0x4b1115a4946079f8d83c63061f5c49c2f351a054d8dfb284b197f54dbfa8ed62",
            "0x000000000000000000000000b875aad94cd568ce0359a73b62af1614e4ff0901"
          ],
          "data": "0x000000000000000000000000000000000000000000000000000000000000000800000000000000000000000000000000000000000000000000000000000000000000000000000000000000000000000000000000000000000000000000000001",
          "blockHash": "0x09af1c00953e251064b4de1234701130b108a648f81528353befd8bf60726613",
          "blockNumber": "0x484995e",
          "transactionHash": "0x353b8b1cdf29512a3879af96bfb072de82a958cb023aefc01721454563ca58a5",
          "transactionIndex": "0x1",
          "logIndex": "0x0",
          "removed": false
        }
      ],
      "logsBloom": "0x00000000000000000000000000000000000000000040000008000000000000000000000000000000000000000000000000000000000000000000000000000000000000000000000000000000000000000000000000000000000000100000000000800020020000000000000000000000000000000000010020000000000000000000000000000000000000000000004000000000000000000000000000000000000000000000008000000000000000000000000000000000000000000040000000000000000000000000000000000000000000000000000000000000000000000000000000000000000000000000000000000000000000000000002000000000",
      "type": "0x2",
      "transactionHash": "0x353b8b1cdf29512a3879af96bfb072de82a958cb023aefc01721454563ca58a5",
      "transactionIndex": "0x1",
      "blockHash": "0x09af1c00953e251064b4de1234701130b108a648f81528353befd8bf60726613",
      "blockNumber": "0x484995e",
      "gasUsed": "0x15afb",
      "effectiveGasPrice": "0x5f5e100",
      "from": "0x7caf754c934710d7c73bc453654552beca38223f",
      "to": "0x62254d732c078bf0484ea7dbd61f7f620184f95e",
      "contractAddress": null,
      "gasUsedForL1": "0x8d79",
      "l1BlockNumber": "0x64cce5"
    }
  ],
  "libraries": [],
  "pending": [],
  "returns": {},
  "timestamp": 1725103207,
  "chain": 421614,
  "commit": "fcade3f"
}