{
  "transactions": [
    {
      "hash": "0x34e9b02ad8d1214e514d8699b6380e9367338a5c6e642d3437f1c9cca5d31a24",
      "transactionType": "CALL",
      "contractName": "ProductAdministratorRegistry",
      "contractAddress": "0x62254d732c078bf0484ea7dbd61f7f620184f95e",
      "function": "grantRoles(uint256,address,uint256)",
      "arguments": [
        "20376791661718660580662410765070640284736320707848823176694931891585259913409",
        "0xB875AAD94cd568CE0359A73b62Af1614E4ff0901",
        "12"
      ],
      "transaction": {
        "from": "0x7caf754c934710d7c73bc453654552beca38223f",
        "to": "0x62254d732c078bf0484ea7dbd61f7f620184f95e",
        "gas": "0x3e0a0",
        "value": "0x0",
        "input": "0x67b5e23c2d0cdaf9a1153a9a4b68379c64d4397611a0f3d9fa4015376435f9a64aafc0c1000000000000000000000000b875aad94cd568ce0359a73b62af1614e4ff0901000000000000000000000000000000000000000000000000000000000000000c",
        "nonce": "0x2c5",
        "chainId": "0x66eee"
      },
      "additionalContracts": [],
      "isFixedGasLimit": false
    },
    {
      "hash": "0x58982ac1d558a44b6116113f1e326a5610260eaa403bdaa9d6c3d74389bcd43c",
      "transactionType": "CALL",
      "contractName": "ProductAdministratorRegistry",
      "contractAddress": "0x62254d732c078bf0484ea7dbd61f7f620184f95e",
      "function": "grantRoles(uint256,address,uint256)",
      "arguments": [
        "33953649417576654953995537313820306697747390492794311279756157547821320957282",
        "0xB875AAD94cd568CE0359A73b62Af1614E4ff0901",
        "12"
      ],
      "transaction": {
        "from": "0x7caf754c934710d7c73bc453654552beca38223f",
        "to": "0x62254d732c078bf0484ea7dbd61f7f620184f95e",
        "gas": "0x3e0a0",
        "value": "0x0",
        "input": "0x67b5e23c4b1115a4946079f8d83c63061f5c49c2f351a054d8dfb284b197f54dbfa8ed62000000000000000000000000b875aad94cd568ce0359a73b62af1614e4ff0901000000000000000000000000000000000000000000000000000000000000000c",
        "nonce": "0x2c6",
        "chainId": "0x66eee"
      },
      "additionalContracts": [],
      "isFixedGasLimit": false
    }
  ],
  "receipts": [
    {
      "status": "0x1",
      "cumulativeGasUsed": "0x27652",
      "logs": [
        {
          "address": "0x62254d732c078bf0484ea7dbd61f7f620184f95e",
          "topics": [
            "0xca5f6034cf7475c6c068781b337289c341f3350f95845d98e134a06ce879afa9",
            "0x2d0cdaf9a1153a9a4b68379c64d4397611a0f3d9fa4015376435f9a64aafc0c1",
            "0x000000000000000000000000b875aad94cd568ce0359a73b62af1614e4ff0901"
          ],
          "data": "0x000000000000000000000000000000000000000000000000000000000000000c00000000000000000000000000000000000000000000000000000000000000000000000000000000000000000000000000000000000000000000000000000001",
          "blockHash": "0xe6177681fa18c3580056ac4b0c6e796734c23267222bc4755a266f7e957a0e2c",
          "blockNumber": "0x4855224",
          "transactionHash": "0x34e9b02ad8d1214e514d8699b6380e9367338a5c6e642d3437f1c9cca5d31a24",
          "transactionIndex": "0x1",
          "logIndex": "0x0",
          "removed": false
        }
      ],
      "logsBloom": "0x00000000000000000000100000000000000000000040000000000010000000000000000000000000000000000000000000000000000000000000000000000000000000000000000000000000000000000000000020000000000000100000000000000000020000000000000000000000000000000000010020000000000000000000000000000000000000000000004000000000000000000000000000000000000000000000008000000000000000000000000000000000000000000040000000000000000000000000000000000000000000000000000000000000000000000000000000000000000000000000000000000000000000000000002000000000",
      "type": "0x2",
      "transactionHash": "0x34e9b02ad8d1214e514d8699b6380e9367338a5c6e642d3437f1c9cca5d31a24",
      "transactionIndex": "0x1",
      "blockHash": "0xe6177681fa18c3580056ac4b0c6e796734c23267222bc4755a266f7e957a0e2c",
      "blockNumber": "0x4855224",
      "gasUsed": "0x27652",
      "effectiveGasPrice": "0x5f5e100",
      "from": "0x7caf754c934710d7c73bc453654552beca38223f",
      "to": "0x62254d732c078bf0484ea7dbd61f7f620184f95e",
      "contractAddress": null,
      "gasUsedForL1": "0x1eb9c",
      "l1BlockNumber": "0x64d0a2"
    },
    {
      "status": "0x1",
      "cumulativeGasUsed": "0x27652",
      "logs": [
        {
          "address": "0x62254d732c078bf0484ea7dbd61f7f620184f95e",
          "topics": [
            "0xca5f6034cf7475c6c068781b337289c341f3350f95845d98e134a06ce879afa9",
            "0x4b1115a4946079f8d83c63061f5c49c2f351a054d8dfb284b197f54dbfa8ed62",
            "0x000000000000000000000000b875aad94cd568ce0359a73b62af1614e4ff0901"
          ],
          "data": "0x000000000000000000000000000000000000000000000000000000000000000c00000000000000000000000000000000000000000000000000000000000000000000000000000000000000000000000000000000000000000000000000000001",
          "blockHash": "0xc3c6cb375a5d51c43d00e1d475cf181169e8c18d33dd9bcdadeeadc029c16a50",
          "blockNumber": "0x4855228",
          "transactionHash": "0x58982ac1d558a44b6116113f1e326a5610260eaa403bdaa9d6c3d74389bcd43c",
          "transactionIndex": "0x1",
          "logIndex": "0x0",
          "removed": false
        }
      ],
      "logsBloom": "0x00000000000000000000000000000000000000000040000008000000000000000000000000000000000000000000000000000000000000000000000000000000000000000000000000000000000000000000000000000000000000100000000000800020020000000000000000000000000000000000010020000000000000000000000000000000000000000000004000000000000000000000000000000000000000000000008000000000000000000000000000000000000000000040000000000000000000000000000000000000000000000000000000000000000000000000000000000000000000000000000000000000000000000000002000000000",
      "type": "0x2",
      "transactionHash": "0x58982ac1d558a44b6116113f1e326a5610260eaa403bdaa9d6c3d74389bcd43c",
      "transactionIndex": "0x1",
      "blockHash": "0xc3c6cb375a5d51c43d00e1d475cf181169e8c18d33dd9bcdadeeadc029c16a50",
      "blockNumber": "0x4855228",
      "gasUsed": "0x27652",
      "effectiveGasPrice": "0x5f5e100",
      "from": "0x7caf754c934710d7c73bc453654552beca38223f",
      "to": "0x62254d732c078bf0484ea7dbd61f7f620184f95e",
      "contractAddress": null,
      "gasUsedForL1": "0x1eb9c",
      "l1BlockNumber": "0x64d0a2"
    }
  ],
  "libraries": [],
  "pending": [],
  "returns": {},
  "timestamp": 1725116316,
  "chain": 421614,
  "commit": "fcade3f"
}