{
  "transactions": [
    {
      "hash": "0x437003caa70ae1c4dd1404dcbb13e94db6f118690dbf8fb1ca570bcc8fe5a315",
      "transactionType": "CALL",
      "contractName": "ProductRegistry",
      "contractAddress": "0x5752E0FB600C59E140CDAfDA7AC8933774c19280",
      "function": "grantRoles(address,uint256)",
      "arguments": [
        "0xee310229c31e000292d14Add9d4c317095808661",
        "1"
      ],
      "transaction": {
        "from": "0x7caF754C934710D7C73bc453654552BEcA38223F",
        "to": "0x5752E0FB600C59E140CDAfDA7AC8933774c19280",
        "gas": "0x37d36",
        "value": "0x0",
        "input": "0x1c10893f000000000000000000000000ee310229c31e000292d14add9d4c3170958086610000000000000000000000000000000000000000000000000000000000000001",
        "nonce": "0x325",
        "chainId": "0x66eee"
      },
      "additionalContracts": [],
      "isFixedGasLimit": false
    },
    {
      "hash": "0x561abd63c2e76541374df8eef58b516c8fee15b4b103fdcaa1a43f587d826945",
      "transactionType": "CALL",
      "contractName": "mUSDToken",
      "contractAddress": "0x56039fa1a804F614eBD714139F29a3ff4DB57ad6",
      "function": "grantRoles(address,uint256)",
      "arguments": [
        "0xee310229c31e000292d14Add9d4c317095808661",
        "1"
      ],
      "transaction": {
        "from": "0x7caF754C934710D7C73bc453654552BEcA38223F",
        "to": "0x56039fa1a804F614eBD714139F29a3ff4DB57ad6",
        "gas": "0x37d19",
        "value": "0x0",
        "input": "0x1c10893f000000000000000000000000ee310229c31e000292d14add9d4c3170958086610000000000000000000000000000000000000000000000000000000000000001",
        "nonce": "0x326",
        "chainId": "0x66eee"
      },
      "additionalContracts": [],
      "isFixedGasLimit": false
    }
  ],
  "receipts": [
    {
      "status": "0x1",
      "cumulativeGasUsed": "0x23bd2",
      "logs": [
        {
          "address": "0x5752E0FB600C59E140CDAfDA7AC8933774c19280",
          "topics": [
            "0x715ad5ce61fc9595c7b415289d59cf203f23a94fa06f04af7e489a0a76e1fe26",
            "0x000000000000000000000000ee310229c31e000292d14add9d4c317095808661",
            "0x0000000000000000000000000000000000000000000000000000000000000001"
          ],
          "data": "0x",
          "blockHash": "0x9ce5f09da3feee126729056cb91a4de01042d7028f9abc577d99cf40dbd578a1",
          "blockNumber": "0x519d965",
          "transactionHash": "0x437003caa70ae1c4dd1404dcbb13e94db6f118690dbf8fb1ca570bcc8fe5a315",
          "transactionIndex": "0x1",
          "logIndex": "0x0",
          "removed": false
        }
      ],
      "logsBloom": "0x00000000000000000000000000000000000000000000000010000000000000000000000000000000000000000000000000000000000000020000000000040000000000000000000000000000000000000000000000040000000000000000000000000000000000000000000000000800000001000000000000000000000000000000000000000000000000000000000000000000000000000000000000000000000000000000000000200000000000000000000000010000000000000000000000002000400000000000000000000020000000000000000000000000000040000000000000000000000000000000000000000000000000000000000000000000",
      "type": "0x2",
      "transactionHash": "0x437003caa70ae1c4dd1404dcbb13e94db6f118690dbf8fb1ca570bcc8fe5a315",
      "transactionIndex": "0x1",
      "blockHash": "0x9ce5f09da3feee126729056cb91a4de01042d7028f9abc577d99cf40dbd578a1",
      "blockNumber": "0x519d965",
      "gasUsed": "0x23bd2",
      "effectiveGasPrice": "0x5f5e100",
      "from": "0x7caF754C934710D7C73bc453654552BEcA38223F",
      "to": "0x5752E0FB600C59E140CDAfDA7AC8933774c19280",
      "contractAddress": null,
      "gasUsedForL1": "0x180c5",
      "l1BlockNumber": "0x67c3d5"
    },
    {
      "status": "0x1",
      "cumulativeGasUsed": "0x23bbc",
      "logs": [
        {
          "address": "0x56039fa1a804F614eBD714139F29a3ff4DB57ad6",
          "topics": [
            "0x715ad5ce61fc9595c7b415289d59cf203f23a94fa06f04af7e489a0a76e1fe26",
            "0x000000000000000000000000ee310229c31e000292d14add9d4c317095808661",
            "0x0000000000000000000000000000000000000000000000000000000000000001"
          ],
          "data": "0x",
          "blockHash": "0xb898c48166ab1e7e3143a5def114d7083a0ebe9e13482ad1aa5f9459c35929d9",
          "blockNumber": "0x519d970",
          "transactionHash": "0x561abd63c2e76541374df8eef58b516c8fee15b4b103fdcaa1a43f587d826945",
          "transactionIndex": "0x1",
          "logIndex": "0x0",
          "removed": false
        }
      ],
      "logsBloom": "0x00000000000000000000000000000000000000000000400000000000000000000000000000020000000000000000000000000000000000020000000000040000000000000000000000000000000000000000000000040000000010000000000000000000000000000000000000000800000001000000000000000000000000000000000000000000000000000000000000000000000000000000000000000000000000000000000000000000000000000000000000010000000000000000000000002000400000000000000000000000000000000000000000000000000040000000000000000000000000000000000000000000000000000000000000000000",
      "type": "0x2",
      "transactionHash": "0x561abd63c2e76541374df8eef58b516c8fee15b4b103fdcaa1a43f587d826945",
      "transactionIndex": "0x1",
      "blockHash": "0xb898c48166ab1e7e3143a5def114d7083a0ebe9e13482ad1aa5f9459c35929d9",
      "blockNumber": "0x519d970",
      "gasUsed": "0x23bbc",
      "effectiveGasPrice": "0x5f5e100",
      "from": "0x7caF754C934710D7C73bc453654552BEcA38223F",
      "to": "0x56039fa1a804F614eBD714139F29a3ff4DB57ad6",
      "contractAddress": null,
      "gasUsedForL1": "0x180c5",
      "l1BlockNumber": "0x67c3d5"
    }
  ],
  "libraries": [],
  "pending": [],
  "returns": {},
  "timestamp": 1727870496,
  "chain": 421614,
  "commit": "cd935ca"
}