{
  "transactions": [
    {
      "hash": "0x64c8dbebe632cc3bcf0870c3ab547f60de8d81df98380a0d2fcd66870d6a3c8a",
      "transactionType": "CALL",
      "contractName": "ContentRegistry",
      "contractAddress": "0x758f01b484212b38eae264f75c0dd7842d510d9c",
      "function": "grantRoles(address,uint256)",
      "arguments": [
        "0x35F3e191523C8701aD315551dCbDcC5708efD7ec",
        "1"
      ],
      "transaction": {
        "from": "0x7caf754c934710d7c73bc453654552beca38223f",
        "to": "0x758f01b484212b38eae264f75c0dd7842d510d9c",
        "gas": "0x34ec5",
        "value": "0x0",
        "input": "0x1c10893f00000000000000000000000035f3e191523c8701ad315551dcbdcc5708efd7ec0000000000000000000000000000000000000000000000000000000000000001",
        "nonce": "0x29b",
        "chainId": "0x66eee"
      },
      "additionalContracts": [],
      "isFixedGasLimit": false
    },
    {
      "hash": "0x4151f79241d6cbe44cadce852318541f878b0885044b18f177d923bf9553029f",
      "transactionType": "CALL",
      "contractName": "mUSDToken",
      "contractAddress": "0x56039fa1a804f614ebd714139f29a3ff4db57ad6",
      "function": "grantRoles(address,uint256)",
      "arguments": [
        "0x35F3e191523C8701aD315551dCbDcC5708efD7ec",
        "1"
      ],
      "transaction": {
        "from": "0x7caf754c934710d7c73bc453654552beca38223f",
        "to": "0x56039fa1a804f614ebd714139f29a3ff4db57ad6",
        "gas": "0x34ec5",
        "value": "0x0",
        "input": "0x1c10893f00000000000000000000000035f3e191523c8701ad315551dcbdcc5708efd7ec0000000000000000000000000000000000000000000000000000000000000001",
        "nonce": "0x29c",
        "chainId": "0x66eee"
      },
      "additionalContracts": [],
      "isFixedGasLimit": false
    },
    {
      "hash": "0x4f6de3c89c86688f571043d01e5df5303ecff9fece8e4f99fc44ca0084d8c97d",
      "transactionType": "CALL",
      "contractName": null,
      "contractAddress": "0xb3fc8bd4e71a15a674ed6bab63e884720fc4a3b4",
      "function": "addOperator(uint256,address)",
      "arguments": [
        "20376791661718660580662410765070640284736320707848823176694931891585259913409",
        "0xCf4990bBa0B9A56500501d0c6eF139B92a050352"
      ],
      "transaction": {
        "from": "0x7caf754c934710d7c73bc453654552beca38223f",
        "to": "0xb3fc8bd4e71a15a674ed6bab63e884720fc4a3b4",
        "gas": "0x3e0cc",
        "value": "0x0",
        "input": "0x7d46a7132d0cdaf9a1153a9a4b68379c64d4397611a0f3d9fa4015376435f9a64aafc0c1000000000000000000000000cf4990bba0b9a56500501d0c6ef139b92a050352",
        "nonce": "0x29d",
        "chainId": "0x66eee"
      },
      "additionalContracts": [],
      "isFixedGasLimit": false
    },
    {
      "hash": "0x5b427ed12570bb1c014fc23a81ba00b196fe05fa656213cca2c94b64e75db090",
      "transactionType": "CALL",
      "contractName": null,
      "contractAddress": "0xb3fc8bd4e71a15a674ed6bab63e884720fc4a3b4",
      "function": "addOperator(uint256,address)",
      "arguments": [
        "8073960722007594212918575991467917289452723924551607525414094759273404023523",
        "0xCf4990bBa0B9A56500501d0c6eF139B92a050352"
      ],
      "transaction": {
        "from": "0x7caf754c934710d7c73bc453654552beca38223f",
        "to": "0xb3fc8bd4e71a15a674ed6bab63e884720fc4a3b4",
        "gas": "0x3e0cc",
        "value": "0x0",
        "input": "0x7d46a71311d9b327b46d43525821b67e9e75373040aa7f8162b46753eb565065f743c2e3000000000000000000000000cf4990bba0b9a56500501d0c6ef139b92a050352",
        "nonce": "0x29e",
        "chainId": "0x66eee"
      },
      "additionalContracts": [],
      "isFixedGasLimit": false
    },
    {
      "hash": "0xf1d028de165a7b85517e308d257bd359d605beb0131c9cbfb2736248f6e385f4",
      "transactionType": "CALL",
      "contractName": null,
      "contractAddress": "0xb3fc8bd4e71a15a674ed6bab63e884720fc4a3b4",
      "function": "addOperator(uint256,address)",
      "arguments": [
        "33953649417576654953995537313820306697747390492794311279756157547821320957282",
        "0xCf4990bBa0B9A56500501d0c6eF139B92a050352"
      ],
      "transaction": {
        "from": "0x7caf754c934710d7c73bc453654552beca38223f",
        "to": "0xb3fc8bd4e71a15a674ed6bab63e884720fc4a3b4",
        "gas": "0x3e0cc",
        "value": "0x0",
        "input": "0x7d46a7134b1115a4946079f8d83c63061f5c49c2f351a054d8dfb284b197f54dbfa8ed62000000000000000000000000cf4990bba0b9a56500501d0c6ef139b92a050352",
        "nonce": "0x29f",
        "chainId": "0x66eee"
      },
      "additionalContracts": [],
      "isFixedGasLimit": false
    }
  ],
  "receipts": [
    {
      "status": "0x1",
      "cumulativeGasUsed": "0x181dea",
      "logs": [
        {
          "address": "0x758f01b484212b38eae264f75c0dd7842d510d9c",
          "topics": [
            "0x715ad5ce61fc9595c7b415289d59cf203f23a94fa06f04af7e489a0a76e1fe26",
            "0x00000000000000000000000035f3e191523c8701ad315551dcbdcc5708efd7ec",
            "0x0000000000000000000000000000000000000000000000000000000000000001"
          ],
          "data": "0x",
          "blockHash": "0xc09f57b6af09a2c14d7988aeb6440ca49b3f32a220633feb16bf0c4d853fe118",
          "blockNumber": "0x4723fa9",
          "transactionHash": "0x64c8dbebe632cc3bcf0870c3ab547f60de8d81df98380a0d2fcd66870d6a3c8a",
          "transactionIndex": "0x1",
          "logIndex": "0x0",
          "removed": false
        }
      ],
      "logsBloom": "0x00000000000000000000000000000000000000000000800000000000000000000000000000000000000000000000000000000000000000000000001000040000000000000000000000000000000000000000000000040000000000000000000000000000000000000002000000020000000000000000000000000000000000000000000000000000000000000000000000000000000000000000000000000000000000000000000000000000000000000000000000010000000000000000000000002000400000000000000080000000000000000000000000000000000040000000000000000000000000000200000000000000000000000000000000000000",
      "type": "0x2",
      "transactionHash": "0x64c8dbebe632cc3bcf0870c3ab547f60de8d81df98380a0d2fcd66870d6a3c8a",
      "transactionIndex": "0x1",
      "blockHash": "0xc09f57b6af09a2c14d7988aeb6440ca49b3f32a220633feb16bf0c4d853fe118",
      "blockNumber": "0x4723fa9",
      "gasUsed": "0x181dea",
      "effectiveGasPrice": "0x5f5e100",
      "from": "0x7caf754c934710d7c73bc453654552beca38223f",
      "to": "0x758f01b484212b38eae264f75c0dd7842d510d9c",
      "contractAddress": null,
      "gasUsedForL1": "0x17b0a3",
      "l1BlockNumber": "0x6466ea"
    },
    {
      "status": "0x1",
      "cumulativeGasUsed": "0x33bc555",
      "logs": [
        {
          "address": "0x56039fa1a804f614ebd714139f29a3ff4db57ad6",
          "topics": [
            "0x715ad5ce61fc9595c7b415289d59cf203f23a94fa06f04af7e489a0a76e1fe26",
            "0x00000000000000000000000035f3e191523c8701ad315551dcbdcc5708efd7ec",
            "0x0000000000000000000000000000000000000000000000000000000000000001"
          ],
          "data": "0x",
          "blockHash": "0xe2a14aec5d6b3ee4a4492a5d5993a590539862d981cc7345012a2ab9be4a5f1a",
          "blockNumber": "0x4723fac",
          "transactionHash": "0x4151f79241d6cbe44cadce852318541f878b0885044b18f177d923bf9553029f",
          "transactionIndex": "0x3",
          "logIndex": "0x43",
          "removed": false
        }
      ],
      "logsBloom": "0x00000000000000000000000000000000000000000000400000000000000000000000000000020000000000000000000000000000000000000000000000040000000000000000000000000000000000000000000000040000000010000000000000000000000000000002000000000000000000000000000000000000000000000000000000000000000000000000000000000000000000000000000000000000000000000000000000000000000000000000000000010000000000000000000000002000400000000000000080000000000000000000000000000000000040000000000000000000000000000200000000000000000000000000000000000000",
      "type": "0x2",
      "transactionHash": "0x4151f79241d6cbe44cadce852318541f878b0885044b18f177d923bf9553029f",
      "transactionIndex": "0x3",
      "blockHash": "0xe2a14aec5d6b3ee4a4492a5d5993a590539862d981cc7345012a2ab9be4a5f1a",
      "blockNumber": "0x4723fac",
      "gasUsed": "0x181dea",
      "effectiveGasPrice": "0x5f5e100",
      "from": "0x7caf754c934710d7c73bc453654552beca38223f",
      "to": "0x56039fa1a804f614ebd714139f29a3ff4db57ad6",
      "contractAddress": null,
      "gasUsedForL1": "0x17b0a3",
      "l1BlockNumber": "0x6466ea"
    },
    {
      "status": "0x1",
      "cumulativeGasUsed": "0x188d5c",
      "logs": [
        {
          "address": "0xb3fc8bd4e71a15a674ed6bab63e884720fc4a3b4",
          "topics": [
            "0x5bb4f0ce0b45958f2f55e7b3c080e51003e6c6714473adb4de547b03274ca29b",
            "0x2d0cdaf9a1153a9a4b68379c64d4397611a0f3d9fa4015376435f9a64aafc0c1"
          ],
          "data": "0x000000000000000000000000cf4990bba0b9a56500501d0c6ef139b92a050352",
          "blockHash": "0x9f2e9b66dc33e66dd7a82f17bd3c5959a4bba8ad65317a0b13c4e4084c3fa930",
          "blockNumber": "0x4723fb0",
          "transactionHash": "0x4f6de3c89c86688f571043d01e5df5303ecff9fece8e4f99fc44ca0084d8c97d",
          "transactionIndex": "0x1",
          "logIndex": "0x0",
          "removed": false
        }
      ],
      "logsBloom": "0x04000000000000000000100001000000000000000000000000000010000000000800000000000000000000000000000000000000000000000000000000000000000000004000000000000000000000000000000020000000000000000000000000000000000000000000000000000000000000000000000000000000000000000000000000000000000000000000000000000000000000000000000000000000000000400000000000000000004000000000000000000000000000000000000000000000000000000000000000000000000000000000000000000000000000000000000000000000000000000000000000000000000000000000000000000000",
      "type": "0x2",
      "transactionHash": "0x4f6de3c89c86688f571043d01e5df5303ecff9fece8e4f99fc44ca0084d8c97d",
      "transactionIndex": "0x1",
      "blockHash": "0x9f2e9b66dc33e66dd7a82f17bd3c5959a4bba8ad65317a0b13c4e4084c3fa930",
      "blockNumber": "0x4723fb0",
      "gasUsed": "0x188d5c",
      "effectiveGasPrice": "0x5f5e100",
      "from": "0x7caf754c934710d7c73bc453654552beca38223f",
      "to": "0xb3fc8bd4e71a15a674ed6bab63e884720fc4a3b4",
      "contractAddress": null,
      "gasUsedForL1": "0x17b0a3",
      "l1BlockNumber": "0x6466ea"
    },
    {
      "status": "0x1",
      "cumulativeGasUsed": "0x37232b8",
      "logs": [
        {
          "address": "0xb3fc8bd4e71a15a674ed6bab63e884720fc4a3b4",
          "topics": [
            "0x5bb4f0ce0b45958f2f55e7b3c080e51003e6c6714473adb4de547b03274ca29b",
            "0x11d9b327b46d43525821b67e9e75373040aa7f8162b46753eb565065f743c2e3"
          ],
          "data": "0x000000000000000000000000cf4990bba0b9a56500501d0c6ef139b92a050352",
          "blockHash": "0xfebd092cce836840ac5fe403f6b098df1c04abd583440f6655a10d929f9d5372",
          "blockNumber": "0x4723fb3",
          "transactionHash": "0x5b427ed12570bb1c014fc23a81ba00b196fe05fa656213cca2c94b64e75db090",
          "transactionIndex": "0x3",
          "logIndex": "0x45",
          "removed": false
        }
      ],
      "logsBloom": "0x04000100000000000000000001000000000000000000000000000000000000000800000000000000000000000000000000000000000000000000000000000000000000004000000000000000000000000000080000000000000000000000000000000000000000000000000000000000000000000000000000000000000000000000000000000000000000000000000000000000000000000000000000000000000000400000000000000000004000000000000000000000000000000000000000000000000000000000000800000000000000000000000000000000000000000000000000000000000000000000000000000000000000000000000000000000",
      "type": "0x2",
      "transactionHash": "0x5b427ed12570bb1c014fc23a81ba00b196fe05fa656213cca2c94b64e75db090",
      "transactionIndex": "0x3",
      "blockHash": "0xfebd092cce836840ac5fe403f6b098df1c04abd583440f6655a10d929f9d5372",
      "blockNumber": "0x4723fb3",
      "gasUsed": "0x188d5c",
      "effectiveGasPrice": "0x5f5e100",
      "from": "0x7caf754c934710d7c73bc453654552beca38223f",
      "to": "0xb3fc8bd4e71a15a674ed6bab63e884720fc4a3b4",
      "contractAddress": null,
      "gasUsedForL1": "0x17b0a3",
      "l1BlockNumber": "0x6466ea"
    },
    {
      "status": "0x1",
      "cumulativeGasUsed": "0x1bd084b",
      "logs": [
        {
          "address": "0xb3fc8bd4e71a15a674ed6bab63e884720fc4a3b4",
          "topics": [
            "0x5bb4f0ce0b45958f2f55e7b3c080e51003e6c6714473adb4de547b03274ca29b",
            "0x4b1115a4946079f8d83c63061f5c49c2f351a054d8dfb284b197f54dbfa8ed62"
          ],
          "data": "0x000000000000000000000000cf4990bba0b9a56500501d0c6ef139b92a050352",
          "blockHash": "0x7de1c2eb67a6244e7a571741e5aa582bbc512be1a75bd2a7eb3cae7acbba5826",
          "blockNumber": "0x4723fb6",
          "transactionHash": "0xf1d028de165a7b85517e308d257bd359d605beb0131c9cbfb2736248f6e385f4",
          "transactionIndex": "0x3",
          "logIndex": "0x1b",
          "removed": false
        }
      ],
      "logsBloom": "0x04000000000000000000000001000000000000000000000008000000000000000800000000000000000000000000000000000000000000000000000000000000000000004000000000000000000000000000000000000000000000000000000000800020000000000000000000000000000000000000000000000000000000000000000000000000000000000000000000000000000000000000000000000000000000400000000000000000004000000000000000000000000000000000000000000000000000000000000000000000000000000000000000000000000000000000000000000000000000000000000000000000000000000000000000000000",
      "type": "0x2",
      "transactionHash": "0xf1d028de165a7b85517e308d257bd359d605beb0131c9cbfb2736248f6e385f4",
      "transactionIndex": "0x3",
      "blockHash": "0x7de1c2eb67a6244e7a571741e5aa582bbc512be1a75bd2a7eb3cae7acbba5826",
      "blockNumber": "0x4723fb6",
      "gasUsed": "0x188d5c",
      "effectiveGasPrice": "0x5f5e100",
      "from": "0x7caf754c934710d7c73bc453654552beca38223f",
      "to": "0xb3fc8bd4e71a15a674ed6bab63e884720fc4a3b4",
      "contractAddress": null,
      "gasUsedForL1": "0x17b0a3",
      "l1BlockNumber": "0x6466ea"
    }
  ],
  "libraries": [],
  "pending": [],
  "returns": {},
  "timestamp": 1724744496,
  "chain": 421614,
  "commit": "82dbd11"
}