{
  "transactions": [
    {
      "hash": "0x57d28fa013b8e35c4d2b4cfe6388ccc1ddb833a4c23481286e436d5dc1305cc5",
      "transactionType": "CALL",
      "contractName": null,
      "contractAddress": "0xfe0717cacd6fff3001edd3f360eb2854f54861dd",
      "function": "addOperator(uint256,address)",
      "arguments": [
        "106219508196454080375526586478153583586194937194493887259467424694676997453395",
        "0x286AD1b2A0d94Bd64f260f60b0A17Ea02b8fD8FE"
      ],
      "transaction": {
        "from": "0x7caf754c934710d7c73bc453654552beca38223f",
        "to": "0xfe0717cacd6fff3001edd3f360eb2854f54861dd",
        "gas": "0x483de",
        "value": "0x0",
        "input": "0x7d46a713ead61c7340b7cacd78684d4795a617aae5e85cc4b89da34fb05ad55bb6bab653000000000000000000000000286ad1b2a0d94bd64f260f60b0a17ea02b8fd8fe",
        "nonce": "0x234",
        "chainId": "0x66eee"
      },
      "additionalContracts": [],
      "isFixedGasLimit": false
    },
    {
      "hash": "0x361a97f7856ab277eac25ac9fccb6458c6fc0620c2ff5b0236576cd18aee7d16",
      "transactionType": "CALL",
      "contractName": null,
      "contractAddress": "0xfe0717cacd6fff3001edd3f360eb2854f54861dd",
      "function": "addOperator(uint256,address)",
      "arguments": [
        "108586150798115180574743190405367285583167702751783717273705027881651322809951",
        "0x286AD1b2A0d94Bd64f260f60b0A17Ea02b8fD8FE"
      ],
      "transaction": {
        "from": "0x7caf754c934710d7c73bc453654552beca38223f",
        "to": "0xfe0717cacd6fff3001edd3f360eb2854f54861dd",
        "gas": "0x483de",
        "value": "0x0",
        "input": "0x7d46a713f011955832cac97ab1a6534c6b94971325e3be6bfaac1ccae68e3f5c7adcee5f000000000000000000000000286ad1b2a0d94bd64f260f60b0a17ea02b8fd8fe",
        "nonce": "0x235",
        "chainId": "0x66eee"
      },
      "additionalContracts": [],
      "isFixedGasLimit": false
    },
    {
      "hash": "0xc0b92348a07424197a7bdd726e7adc2e0b6b36be080657bfbae91d98ab27c86c",
      "transactionType": "CALL",
      "contractName": null,
      "contractAddress": "0xfe0717cacd6fff3001edd3f360eb2854f54861dd",
      "function": "addOperator(uint256,address)",
      "arguments": [
        "61412812549033025435811962204424170589965658763482764336017940556663446417829",
        "0x286AD1b2A0d94Bd64f260f60b0A17Ea02b8fD8FE"
      ],
      "transaction": {
        "from": "0x7caf754c934710d7c73bc453654552beca38223f",
        "to": "0xfe0717cacd6fff3001edd3f360eb2854f54861dd",
        "gas": "0x483de",
        "value": "0x0",
        "input": "0x7d46a71387c66b8c60fd984f739f68f1d83229601131914aaf269874c584e179b37db1a5000000000000000000000000286ad1b2a0d94bd64f260f60b0a17ea02b8fd8fe",
        "nonce": "0x236",
        "chainId": "0x66eee"
      },
      "additionalContracts": [],
      "isFixedGasLimit": false
    },
    {
      "hash": "0xbf6fb13d7cc73957632f8bbfe3e97ea62922b08ba49369a820687f174df84f1e",
      "transactionType": "CALL",
      "contractName": null,
      "contractAddress": "0xfe0717cacd6fff3001edd3f360eb2854f54861dd",
      "function": "addOperator(uint256,address)",
      "arguments": [
        "20376791661718660580662410765070640284736320707848823176694931891585259913409",
        "0x286AD1b2A0d94Bd64f260f60b0A17Ea02b8fD8FE"
      ],
      "transaction": {
        "from": "0x7caf754c934710d7c73bc453654552beca38223f",
        "to": "0xfe0717cacd6fff3001edd3f360eb2854f54861dd",
        "gas": "0x483de",
        "value": "0x0",
        "input": "0x7d46a7132d0cdaf9a1153a9a4b68379c64d4397611a0f3d9fa4015376435f9a64aafc0c1000000000000000000000000286ad1b2a0d94bd64f260f60b0a17ea02b8fd8fe",
        "nonce": "0x237",
        "chainId": "0x66eee"
      },
      "additionalContracts": [],
      "isFixedGasLimit": false
    }
  ],
  "receipts": [
    {
      "status": "0x1",
      "cumulativeGasUsed": "0x543f8",
      "logs": [
        {
          "address": "0xfe0717cacd6fff3001edd3f360eb2854f54861dd",
          "topics": [
            "0x5bb4f0ce0b45958f2f55e7b3c080e51003e6c6714473adb4de547b03274ca29b",
            "0xead61c7340b7cacd78684d4795a617aae5e85cc4b89da34fb05ad55bb6bab653"
          ],
          "data": "0x000000000000000000000000286ad1b2a0d94bd64f260f60b0a17ea02b8fd8fe",
          "blockHash": "0x26ce4a4ee1d30497b1c9c7bbcf8addfa8cbb7e5b2cb363bf5e9ecb1307e18787",
          "blockNumber": "0x3d40c14",
          "transactionHash": "0x57d28fa013b8e35c4d2b4cfe6388ccc1ddb833a4c23481286e436d5dc1305cc5",
          "transactionIndex": "0x2",
          "logIndex": "0x1",
          "removed": false
        }
      ],
      "logsBloom": "0x00000000000000000000000000000000000000000000000000000000000000000000000000000000000000000000000000000000000000000000000000000000000000004000000000000000000000000000000000000000000000000000000000000000000000000000000000000000000000000000000000000000000000000000000000000000000000028000000000000000000000000000000000000000000000400000000000000020004000000000000000000000000000020000000000000000000000000000200000000000000000000000000000000000000000000000000400000000000000000000000000000000000000000000000000000000",
      "type": "0x2",
      "transactionHash": "0x57d28fa013b8e35c4d2b4cfe6388ccc1ddb833a4c23481286e436d5dc1305cc5",
      "transactionIndex": "0x2",
      "blockHash": "0x26ce4a4ee1d30497b1c9c7bbcf8addfa8cbb7e5b2cb363bf5e9ecb1307e18787",
      "blockNumber": "0x3d40c14",
      "gasUsed": "0x2e071",
      "effectiveGasPrice": "0x5f5e100",
      "from": "0x7caf754c934710d7c73bc453654552beca38223f",
      "to": "0xfe0717cacd6fff3001edd3f360eb2854f54861dd",
      "contractAddress": null,
      "gasUsedForL1": "0x203ac",
      "l1BlockNumber": "0x607127"
    },
    {
      "status": "0x1",
      "cumulativeGasUsed": "0x2e071",
      "logs": [
        {
          "address": "0xfe0717cacd6fff3001edd3f360eb2854f54861dd",
          "topics": [
            "0x5bb4f0ce0b45958f2f55e7b3c080e51003e6c6714473adb4de547b03274ca29b",
            "0xf011955832cac97ab1a6534c6b94971325e3be6bfaac1ccae68e3f5c7adcee5f"
          ],
          "data": "0x000000000000000000000000286ad1b2a0d94bd64f260f60b0a17ea02b8fd8fe",
          "blockHash": "0x123350ecc9418927495d1650cb22906415ada8de2fd21120d6955c4c6bae4805",
          "blockNumber": "0x3d40c17",
          "transactionHash": "0x361a97f7856ab277eac25ac9fccb6458c6fc0620c2ff5b0236576cd18aee7d16",
          "transactionIndex": "0x1",
          "logIndex": "0x0",
          "removed": false
        }
      ],
      "logsBloom": "0x00000000000000000000000000000000000000000000000000000000000000000000000000000000000000000000000000000000000000000000000000000000000000004000000000000000000000000000000000000000000000000000000000000000000000000000000000000000000000000000000000000000000000000800000000000000000000028000000000000000000000000000000000000000000000400000000000000020004000000000000000000000000000400000000000000000000800000000000000000000000000000000000000000000000000000000000000000000000000000000000000000000000000000000000000000000",
      "type": "0x2",
      "transactionHash": "0x361a97f7856ab277eac25ac9fccb6458c6fc0620c2ff5b0236576cd18aee7d16",
      "transactionIndex": "0x1",
      "blockHash": "0x123350ecc9418927495d1650cb22906415ada8de2fd21120d6955c4c6bae4805",
      "blockNumber": "0x3d40c17",
      "gasUsed": "0x2e071",
      "effectiveGasPrice": "0x5f5e100",
      "from": "0x7caf754c934710d7c73bc453654552beca38223f",
      "to": "0xfe0717cacd6fff3001edd3f360eb2854f54861dd",
      "contractAddress": null,
      "gasUsedForL1": "0x203ac",
      "l1BlockNumber": "0x607127"
    },
    {
      "status": "0x1",
      "cumulativeGasUsed": "0x1e6579",
      "logs": [
        {
          "address": "0xfe0717cacd6fff3001edd3f360eb2854f54861dd",
          "topics": [
            "0x5bb4f0ce0b45958f2f55e7b3c080e51003e6c6714473adb4de547b03274ca29b",
            "0x87c66b8c60fd984f739f68f1d83229601131914aaf269874c584e179b37db1a5"
          ],
          "data": "0x000000000000000000000000286ad1b2a0d94bd64f260f60b0a17ea02b8fd8fe",
          "blockHash": "0x2783efae54e78fb34482e4363034bb2b4ef90048881d3a68ec96669064bea363",
          "blockNumber": "0x3d40c1a",
          "transactionHash": "0xc0b92348a07424197a7bdd726e7adc2e0b6b36be080657bfbae91d98ab27c86c",
          "transactionIndex": "0x3",
          "logIndex": "0x5",
          "removed": false
        }
      ],
      "logsBloom": "0x00000000000000000000000000000000000000000000000000000000000000000000000100000000000000000000000000000000000000000000000000000000000000004000000000000000000000000000000000000000000000000000000000000000000000000000000000000000000000000000000000000000000000000000000000000000000000028000000000000000000000004000000000000000000000400000000000000020004000000000000000000008000000000000000000000000000000000000000000000000000000000000000000000000000000000000000000000000000000000000000000000000000000000000000000000000",
      "type": "0x2",
      "transactionHash": "0xc0b92348a07424197a7bdd726e7adc2e0b6b36be080657bfbae91d98ab27c86c",
      "transactionIndex": "0x3",
      "blockHash": "0x2783efae54e78fb34482e4363034bb2b4ef90048881d3a68ec96669064bea363",
      "blockNumber": "0x3d40c1a",
      "gasUsed": "0x2e071",
      "effectiveGasPrice": "0x5f5e100",
      "from": "0x7caf754c934710d7c73bc453654552beca38223f",
      "to": "0xfe0717cacd6fff3001edd3f360eb2854f54861dd",
      "contractAddress": null,
      "gasUsedForL1": "0x203ac",
      "l1BlockNumber": "0x607127"
    },
    {
      "status": "0x1",
      "cumulativeGasUsed": "0x2e071",
      "logs": [
        {
          "address": "0xfe0717cacd6fff3001edd3f360eb2854f54861dd",
          "topics": [
            "0x5bb4f0ce0b45958f2f55e7b3c080e51003e6c6714473adb4de547b03274ca29b",
            "0x2d0cdaf9a1153a9a4b68379c64d4397611a0f3d9fa4015376435f9a64aafc0c1"
          ],
          "data": "0x000000000000000000000000286ad1b2a0d94bd64f260f60b0a17ea02b8fd8fe",
          "blockHash": "0x11ff93f381132167b408e719c3357e1fb85777d1b06977b5d734f0bd7460d296",
          "blockNumber": "0x3d40c1d",
          "transactionHash": "0xbf6fb13d7cc73957632f8bbfe3e97ea62922b08ba49369a820687f174df84f1e",
          "transactionIndex": "0x1",
          "logIndex": "0x0",
          "removed": false
        }
      ],
      "logsBloom": "0x00000000000000000000100000000000000000000000000000000010000000000000000000000000000000000000000000000000000000000000000000000000000000004000000000000000000000000000000020000000000000000000000000000000000000000000000000000000000000000000000000000000000000000000000000000000000000028000000000000000000000000000000000000000000000400000000000000020004000000000000000000000000000000000000000000000000000000000000000000000000000000000000000000000000000000000000000000000000000000000000000000000000000000000000000000000",
      "type": "0x2",
      "transactionHash": "0xbf6fb13d7cc73957632f8bbfe3e97ea62922b08ba49369a820687f174df84f1e",
      "transactionIndex": "0x1",
      "blockHash": "0x11ff93f381132167b408e719c3357e1fb85777d1b06977b5d734f0bd7460d296",
      "blockNumber": "0x3d40c1d",
      "gasUsed": "0x2e071",
      "effectiveGasPrice": "0x5f5e100",
      "from": "0x7caf754c934710d7c73bc453654552beca38223f",
      "to": "0xfe0717cacd6fff3001edd3f360eb2854f54861dd",
      "contractAddress": null,
      "gasUsedForL1": "0x203ac",
      "l1BlockNumber": "0x607127"
    }
  ],
  "libraries": [],
  "pending": [],
  "returns": {},
  "timestamp": 1721122473,
  "chain": 421614,
  "commit": "3bfe1da"
}