{
  "transactions": [
    {
      "hash": "0x1d40d8734a073920121e56ad299606d0ad7baa88276333e1b876600641b5aacc",
      "transactionType": "CALL",
      "contractName": "ProductRegistry",
      "contractAddress": "0x5752e0fb600c59e140cdafda7ac8933774c19280",
      "function": "grantRoles(address,uint256)",
      "arguments": [
        "0x35F3e191523C8701aD315551dCbDcC5708efD7ec",
        "1"
      ],
      "transaction": {
        "from": "0x7caf754c934710d7c73bc453654552beca38223f",
        "to": "0x5752e0fb600c59e140cdafda7ac8933774c19280",
        "gas": "0x3598d",
        "value": "0x0",
        "input": "0x1c10893f00000000000000000000000035f3e191523c8701ad315551dcbdcc5708efd7ec0000000000000000000000000000000000000000000000000000000000000001",
        "nonce": "0x30d",
        "chainId": "0x66eee"
      },
      "additionalContracts": [],
      "isFixedGasLimit": false
    },
    {
      "hash": "0x0bd24011ce38b79fad3f0ae14921db2a03e5280dc4f84c8b5d2c81018e0495b6",
      "transactionType": "CALL",
      "contractName": "mUSDToken",
      "contractAddress": "0x56039fa1a804f614ebd714139f29a3ff4db57ad6",
      "function": "grantRoles(address,uint256)",
      "arguments": [
        "0x35F3e191523C8701aD315551dCbDcC5708efD7ec",
        "1"
      ],
      "transaction": {
        "from": "0x7caf754c934710d7c73bc453654552beca38223f",
        "to": "0x56039fa1a804f614ebd714139f29a3ff4db57ad6",
        "gas": "0x2eda9",
        "value": "0x0",
        "input": "0x1c10893f00000000000000000000000035f3e191523c8701ad315551dcbdcc5708efd7ec0000000000000000000000000000000000000000000000000000000000000001",
        "nonce": "0x30e",
        "chainId": "0x66eee"
      },
      "additionalContracts": [],
      "isFixedGasLimit": false
    }
  ],
  "receipts": [
    {
      "status": "0x1",
      "cumulativeGasUsed": "0x22677",
      "logs": [
        {
          "address": "0x5752e0fb600c59e140cdafda7ac8933774c19280",
          "topics": [
            "0x715ad5ce61fc9595c7b415289d59cf203f23a94fa06f04af7e489a0a76e1fe26",
            "0x00000000000000000000000035f3e191523c8701ad315551dcbdcc5708efd7ec",
            "0x0000000000000000000000000000000000000000000000000000000000000001"
          ],
          "data": "0x",
          "blockHash": "0x15c63078caeefb21c9cf8df21d0c80f5c4520a9a4e33e773e9d1eeeba5ffce5d",
          "blockNumber": "0x50e4084",
          "transactionHash": "0x1d40d8734a073920121e56ad299606d0ad7baa88276333e1b876600641b5aacc",
          "transactionIndex": "0x1",
          "logIndex": "0x0",
          "removed": false
        }
      ],
      "logsBloom": "0x00000000000000000000000000000000000000000000000010000000000000000000000000000000000000000000000000000000000000000000000000040000000000000000000000000000000000000000000000040000000000000000000000000000000000000002000000000000000000000000000000000000000000000000000000000000000000000000000000000000000000000000000000000000000000000000000000200000000000000000000000010000000000000000000000002000400000000000000080000020000000000000000000000000000040000000000000000000000000000200000000000000000000000000000000000000",
      "type": "0x2",
      "transactionHash": "0x1d40d8734a073920121e56ad299606d0ad7baa88276333e1b876600641b5aacc",
      "transactionIndex": "0x1",
      "blockHash": "0x15c63078caeefb21c9cf8df21d0c80f5c4520a9a4e33e773e9d1eeeba5ffce5d",
      "blockNumber": "0x50e4084",
      "gasUsed": "0x22677",
      "effectiveGasPrice": "0x5f5e100",
      "from": "0x7caf754c934710d7c73bc453654552beca38223f",
      "to": "0x5752e0fb600c59e140cdafda7ac8933774c19280",
      "contractAddress": null,
      "gasUsedForL1": "0x16b5e",
      "l1BlockNumber": "0x6767f0"
    },
    {
      "status": "0x1",
      "cumulativeGasUsed": "0x1d8a5",
      "logs": [
        {
          "address": "0x56039fa1a804f614ebd714139f29a3ff4db57ad6",
          "topics": [
            "0x715ad5ce61fc9595c7b415289d59cf203f23a94fa06f04af7e489a0a76e1fe26",
            "0x00000000000000000000000035f3e191523c8701ad315551dcbdcc5708efd7ec",
            "0x0000000000000000000000000000000000000000000000000000000000000001"
          ],
          "data": "0x",
          "blockHash": "0x0e12fbe2f37cdc12c9eb401cf3c57cda3f8628291956e5d53b746d5464567e44",
          "blockNumber": "0x50e408a",
          "transactionHash": "0x0bd24011ce38b79fad3f0ae14921db2a03e5280dc4f84c8b5d2c81018e0495b6",
          "transactionIndex": "0x1",
          "logIndex": "0x0",
          "removed": false
        }
      ],
      "logsBloom": "0x00000000000000000000000000000000000000000000400000000000000000000000000000020000000000000000000000000000000000000000000000040000000000000000000000000000000000000000000000040000000010000000000000000000000000000002000000000000000000000000000000000000000000000000000000000000000000000000000000000000000000000000000000000000000000000000000000000000000000000000000000010000000000000000000000002000400000000000000080000000000000000000000000000000000040000000000000000000000000000200000000000000000000000000000000000000",
      "type": "0x2",
      "transactionHash": "0x0bd24011ce38b79fad3f0ae14921db2a03e5280dc4f84c8b5d2c81018e0495b6",
      "transactionIndex": "0x1",
      "blockHash": "0x0e12fbe2f37cdc12c9eb401cf3c57cda3f8628291956e5d53b746d5464567e44",
      "blockNumber": "0x50e408a",
      "gasUsed": "0x1d8a5",
      "effectiveGasPrice": "0x5f5e100",
      "from": "0x7caf754c934710d7c73bc453654552beca38223f",
      "to": "0x56039fa1a804f614ebd714139f29a3ff4db57ad6",
      "contractAddress": null,
      "gasUsedForL1": "0x16b5e",
      "l1BlockNumber": "0x6767f0"
    }
  ],
  "libraries": [],
  "pending": [],
  "returns": {},
  "timestamp": 1727551171,
  "chain": 421614,
  "commit": "d22f87e"
}