{
  "transactions": [
    {
      "hash": "0x8f800ca06b2e066c0191794d717069e84cb1e97a19622c0a074302b42a37004c",
      "transactionType": "CALL",
      "contractName": null,
      "contractAddress": "0xc110ecb55ebaa4ea9efc361c4bbb224a6664ea45",
      "function": "grantRoles(address,uint256)",
      "arguments": [
        "0x35F3e191523C8701aD315551dCbDcC5708efD7ec",
        "1"
      ],
      "transaction": {
        "from": "0x7caf754c934710d7c73bc453654552beca38223f",
        "to": "0xc110ecb55ebaa4ea9efc361c4bbb224a6664ea45",
        "gas": "0x11ad72",
        "value": "0x0",
        "input": "0x1c10893f00000000000000000000000035f3e191523c8701ad315551dcbdcc5708efd7ec0000000000000000000000000000000000000000000000000000000000000001",
        "nonce": "0x1f2",
        "chainId": "0x66eee"
      },
      "additionalContracts": [],
      "isFixedGasLimit": false
    }
  ],
  "receipts": [
    {
      "status": "0x1",
      "cumulativeGasUsed": "0x29bf49",
      "logs": [
        {
          "address": "0xc110ecb55ebaa4ea9efc361c4bbb224a6664ea45",
          "topics": [
            "0x715ad5ce61fc9595c7b415289d59cf203f23a94fa06f04af7e489a0a76e1fe26",
            "0x00000000000000000000000035f3e191523c8701ad315551dcbdcc5708efd7ec",
            "0x0000000000000000000000000000000000000000000000000000000000000001"
          ],
          "data": "0x",
          "blockHash": "0xb6baff89f3619978895cfc91f5952dd811ef2ddc83d0646fddcd7f255d1f7534",
          "blockNumber": "0x3b997d4",
          "transactionHash": "0x8f800ca06b2e066c0191794d717069e84cb1e97a19622c0a074302b42a37004c",
          "transactionIndex": "0x3",
          "logIndex": "0x3",
          "removed": false
        }
      ],
      "logsBloom": "0x00000000000000000000000000000000000000000000000000000000000000000000000000000000000000000000001000000000000000000000000000040000000000000000000000000000000000000000000000040000000000000000000000000000000000000002000000000000000000000000000000000000000000000000400000000000000000000000000000000000000000000000000000000000000000000000000000000000000000000000000000010000000000000000000000002000400000000000000080000000008000000000000000000000000040000000000000000000000000000200000000000000000000000000000000000000",
      "type": "0x2",
      "transactionHash": "0x8f800ca06b2e066c0191794d717069e84cb1e97a19622c0a074302b42a37004c",
      "transactionIndex": "0x3",
      "blockHash": "0xb6baff89f3619978895cfc91f5952dd811ef2ddc83d0646fddcd7f255d1f7534",
      "blockNumber": "0x3b997d4",
      "gasUsed": "0xabc1a",
      "effectiveGasPrice": "0x5f5e100",
      "from": "0x7caf754c934710d7c73bc453654552beca38223f",
      "to": "0xc110ecb55ebaa4ea9efc361c4bbb224a6664ea45",
      "contractAddress": null,
      "gasUsedForL1": "0xa0117",
      "l1BlockNumber": "0x5fc842"
    }
  ],
  "libraries": [],
  "pending": [],
  "returns": {},
  "timestamp": 1720536543,
  "chain": 421614,
  "commit": "8d60795"
}