{
  "transactions": [
    {
      "hash": "0xd7b4e55b62b8980f3ed6fef38ff848ec391956676b11ba056ac4ac0bb0f2c99c",
      "transactionType": "CALL",
      "contractName": "ProductAdministratorRegistry",
      "contractAddress": "0x62254d732c078bf0484ea7dbd61f7f620184f95e",
      "function": "grantRoles(uint256,address,uint256)",
      "arguments": [
        "20376791661718660580662410765070640284736320707848823176694931891585259913409",
        "0xCf4990bBa0B9A56500501d0c6eF139B92a050352",
        "8"
      ],
      "transaction": {
        "from": "0x7caf754c934710d7c73bc453654552beca38223f",
        "to": "0x62254d732c078bf0484ea7dbd61f7f620184f95e",
        "gas": "0x139a6",
        "value": "0x0",
        "input": "0x67b5e23c2d0cdaf9a1153a9a4b68379c64d4397611a0f3d9fa4015376435f9a64aafc0c1000000000000000000000000cf4990bba0b9a56500501d0c6ef139b92a0503520000000000000000000000000000000000000000000000000000000000000008",
        "nonce": "0x2c1",
        "chainId": "0x66eee"
      },
      "additionalContracts": [],
      "isFixedGasLimit": false
    },
    {
      "hash": "0x3eb25343c2e2b0f9802d4c8dea71869dca9b141387cb4b752679ea2329802b12",
      "transactionType": "CALL",
      "contractName": "ProductAdministratorRegistry",
      "contractAddress": "0x62254d732c078bf0484ea7dbd61f7f620184f95e",
      "function": "grantRoles(uint256,address,uint256)",
      "arguments": [
        "33953649417576654953995537313820306697747390492794311279756157547821320957282",
        "0xCf4990bBa0B9A56500501d0c6eF139B92a050352",
        "8"
      ],
      "transaction": {
        "from": "0x7caf754c934710d7c73bc453654552beca38223f",
        "to": "0x62254d732c078bf0484ea7dbd61f7f620184f95e",
        "gas": "0x139a6",
        "value": "0x0",
        "input": "0x67b5e23c4b1115a4946079f8d83c63061f5c49c2f351a054d8dfb284b197f54dbfa8ed62000000000000000000000000cf4990bba0b9a56500501d0c6ef139b92a0503520000000000000000000000000000000000000000000000000000000000000008",
        "nonce": "0x2c2",
        "chainId": "0x66eee"
      },
      "additionalContracts": [],
      "isFixedGasLimit": false
    }
  ],
  "receipts": [
    {
      "status": "0x1",
      "cumulativeGasUsed": "0x4b29a",
      "logs": [
        {
          "address": "0x62254d732c078bf0484ea7dbd61f7f620184f95e",
          "topics": [
            "0xca5f6034cf7475c6c068781b337289c341f3350f95845d98e134a06ce879afa9",
            "0x2d0cdaf9a1153a9a4b68379c64d4397611a0f3d9fa4015376435f9a64aafc0c1",
            "0x000000000000000000000000cf4990bba0b9a56500501d0c6ef139b92a050352"
          ],
          "data": "0x000000000000000000000000000000000000000000000000000000000000000800000000000000000000000000000000000000000000000000000000000000000000000000000000000000000000000000000000000000000000000000000001",
          "blockHash": "0x332360cea4fb5033c483754c08ae031d38f4116c37aaa2ecffcc7123a9749d8b",
          "blockNumber": "0x48549eb",
          "transactionHash": "0xd7b4e55b62b8980f3ed6fef38ff848ec391956676b11ba056ac4ac0bb0f2c99c",
          "transactionIndex": "0x2",
          "logIndex": "0x3",
          "removed": false
        }
      ],
      "logsBloom": "0x00000000000000000000100000000000000000000040000000000010000000000000000000000000000000000000000000000000000000000000000000000000000000000000000000000020000000000000000020000000000000100000000000000000000000000000000000000000000000000000000020000000000000040000000000000000000000000000004000000000000000000000000400000000000000000000000000000000000000000000000000000000000000000040000000000000000000000000000000000000000000000000000000000000000000000000000000000000000000000000000000000000000000000000002000000000",
      "type": "0x2",
      "transactionHash": "0xd7b4e55b62b8980f3ed6fef38ff848ec391956676b11ba056ac4ac0bb0f2c99c",
      "transactionIndex": "0x2",
      "blockHash": "0x332360cea4fb5033c483754c08ae031d38f4116c37aaa2ecffcc7123a9749d8b",
      "blockNumber": "0x48549eb",
      "gasUsed": "0xd803",
      "effectiveGasPrice": "0x5f5e100",
      "from": "0x7caf754c934710d7c73bc453654552beca38223f",
      "to": "0x62254d732c078bf0484ea7dbd61f7f620184f95e",
      "contractAddress": null,
      "gasUsedForL1": "0x5849",
      "l1BlockNumber": "0x64d07b"
    },
    {
      "status": "0x1",
      "cumulativeGasUsed": "0xd803",
      "logs": [
        {
          "address": "0x62254d732c078bf0484ea7dbd61f7f620184f95e",
          "topics": [
            "0xca5f6034cf7475c6c068781b337289c341f3350f95845d98e134a06ce879afa9",
            "0x4b1115a4946079f8d83c63061f5c49c2f351a054d8dfb284b197f54dbfa8ed62",
            "0x000000000000000000000000cf4990bba0b9a56500501d0c6ef139b92a050352"
          ],
          "data": "0x000000000000000000000000000000000000000000000000000000000000000800000000000000000000000000000000000000000000000000000000000000000000000000000000000000000000000000000000000000000000000000000001",
          "blockHash": "0xcaf5d25da1c3451f2f087c1ef5cf6b38c8d4bbc9a4344bf9d0461a65dadbdcfa",
          "blockNumber": "0x48549ee",
          "transactionHash": "0x3eb25343c2e2b0f9802d4c8dea71869dca9b141387cb4b752679ea2329802b12",
          "transactionIndex": "0x1",
          "logIndex": "0x0",
          "removed": false
        }
      ],
      "logsBloom": "0x00000000000000000000000000000000000000000040000008000000000000000000000000000000000000000000000000000000000000000000000000000000000000000000000000000020000000000000000000000000000000100000000000800020000000000000000000000000000000000000000020000000000000040000000000000000000000000000004000000000000000000000000400000000000000000000000000000000000000000000000000000000000000000040000000000000000000000000000000000000000000000000000000000000000000000000000000000000000000000000000000000000000000000000002000000000",
      "type": "0x2",
      "transactionHash": "0x3eb25343c2e2b0f9802d4c8dea71869dca9b141387cb4b752679ea2329802b12",
      "transactionIndex": "0x1",
      "blockHash": "0xcaf5d25da1c3451f2f087c1ef5cf6b38c8d4bbc9a4344bf9d0461a65dadbdcfa",
      "blockNumber": "0x48549ee",
      "gasUsed": "0xd803",
      "effectiveGasPrice": "0x5f5e100",
      "from": "0x7caf754c934710d7c73bc453654552beca38223f",
      "to": "0x62254d732c078bf0484ea7dbd61f7f620184f95e",
      "contractAddress": null,
      "gasUsedForL1": "0x5849",
      "l1BlockNumber": "0x64d07b"
    }
  ],
  "libraries": [],
  "pending": [],
  "returns": {},
  "timestamp": 1725115740,
  "chain": 421614,
  "commit": "fcade3f"
}