{
  "transactions": [
    {
      "hash": "0xe688a20f2d8ff69f4b46b0f6b74ae5b2b95b257ace5ec57cccba6b9fbc2ec88c",
      "transactionType": "CALL",
      "contractName": null,
      "contractAddress": "0xc97d72a8a9d1d2ed326eb04f2d706a21cee2b94e",
      "function": "addOperator(uint256,address)",
      "arguments": [
        "106219508196454080375526586478153583586194937194493887259467424694676997453395",
        "0x286AD1b2A0d94Bd64f260f60b0A17Ea02b8fD8FE"
      ],
      "transaction": {
        "from": "0x7caf754c934710d7c73bc453654552beca38223f",
        "to": "0xc97d72a8a9d1d2ed326eb04f2d706a21cee2b94e",
        "gas": "0x54de9",
        "value": "0x0",
        "input": "0x7d46a713ead61c7340b7cacd78684d4795a617aae5e85cc4b89da34fb05ad55bb6bab653000000000000000000000000286ad1b2a0d94bd64f260f60b0a17ea02b8fd8fe",
        "nonce": "0x1f3",
        "chainId": "0x66eee"
      },
      "additionalContracts": [],
      "isFixedGasLimit": false
    },
    {
      "hash": "0x2c35cc2ed3035f574d0cdb1c9fb360e7782371feedb4f1c8f4432b92c5be6c0b",
      "transactionType": "CALL",
      "contractName": null,
      "contractAddress": "0xc97d72a8a9d1d2ed326eb04f2d706a21cee2b94e",
      "function": "addOperator(uint256,address)",
      "arguments": [
        "108586150798115180574743190405367285583167702751783717273705027881651322809951",
        "0x286AD1b2A0d94Bd64f260f60b0A17Ea02b8fD8FE"
      ],
      "transaction": {
        "from": "0x7caf754c934710d7c73bc453654552beca38223f",
        "to": "0xc97d72a8a9d1d2ed326eb04f2d706a21cee2b94e",
        "gas": "0x54de9",
        "value": "0x0",
        "input": "0x7d46a713f011955832cac97ab1a6534c6b94971325e3be6bfaac1ccae68e3f5c7adcee5f000000000000000000000000286ad1b2a0d94bd64f260f60b0a17ea02b8fd8fe",
        "nonce": "0x1f4",
        "chainId": "0x66eee"
      },
      "additionalContracts": [],
      "isFixedGasLimit": false
    },
    {
      "hash": "0x7e4566133ab1ac072b7496e537a0ae2abceeb8786acec66f7de31af15a841381",
      "transactionType": "CALL",
      "contractName": null,
      "contractAddress": "0xc97d72a8a9d1d2ed326eb04f2d706a21cee2b94e",
      "function": "addOperator(uint256,address)",
      "arguments": [
        "61412812549033025435811962204424170589965658763482764336017940556663446417829",
        "0x286AD1b2A0d94Bd64f260f60b0A17Ea02b8fD8FE"
      ],
      "transaction": {
        "from": "0x7caf754c934710d7c73bc453654552beca38223f",
        "to": "0xc97d72a8a9d1d2ed326eb04f2d706a21cee2b94e",
        "gas": "0x54de9",
        "value": "0x0",
        "input": "0x7d46a71387c66b8c60fd984f739f68f1d83229601131914aaf269874c584e179b37db1a5000000000000000000000000286ad1b2a0d94bd64f260f60b0a17ea02b8fd8fe",
        "nonce": "0x1f5",
        "chainId": "0x66eee"
      },
      "additionalContracts": [],
      "isFixedGasLimit": false
    },
    {
      "hash": "0xfbd669b26d192c6086f6927ed0728ff79b4f68972b972b515a1069638d383656",
      "transactionType": "CALL",
      "contractName": null,
      "contractAddress": "0xc97d72a8a9d1d2ed326eb04f2d706a21cee2b94e",
      "function": "addOperator(uint256,address)",
      "arguments": [
        "20376791661718660580662410765070640284736320707848823176694931891585259913409",
        "0x286AD1b2A0d94Bd64f260f60b0A17Ea02b8fD8FE"
      ],
      "transaction": {
        "from": "0x7caf754c934710d7c73bc453654552beca38223f",
        "to": "0xc97d72a8a9d1d2ed326eb04f2d706a21cee2b94e",
        "gas": "0x54de9",
        "value": "0x0",
        "input": "0x7d46a7132d0cdaf9a1153a9a4b68379c64d4397611a0f3d9fa4015376435f9a64aafc0c1000000000000000000000000286ad1b2a0d94bd64f260f60b0a17ea02b8fd8fe",
        "nonce": "0x1f6",
        "chainId": "0x66eee"
      },
      "additionalContracts": [],
      "isFixedGasLimit": false
    }
  ],
  "receipts": [
    {
      "status": "0x1",
      "cumulativeGasUsed": "0x6341b",
      "logs": [
        {
          "address": "0xc97d72a8a9d1d2ed326eb04f2d706a21cee2b94e",
          "topics": [
            "0x5bb4f0ce0b45958f2f55e7b3c080e51003e6c6714473adb4de547b03274ca29b",
            "0xead61c7340b7cacd78684d4795a617aae5e85cc4b89da34fb05ad55bb6bab653"
          ],
          "data": "0x000000000000000000000000286ad1b2a0d94bd64f260f60b0a17ea02b8fd8fe",
          "blockHash": "0x4e04564590644a28781cfcc45014fa86bd017d6add715840f7867f1a28701473",
          "blockNumber": "0x3c55bb0",
          "transactionHash": "0xe688a20f2d8ff69f4b46b0f6b74ae5b2b95b257ace5ec57cccba6b9fbc2ec88c",
          "transactionIndex": "0x2",
          "logIndex": "0x1",
          "removed": false
        }
      ],
      "logsBloom": "0x00000000000000000000000000000000000000000000000000000000000000000000000000000000000000000000000000000000000000000000000000000000000000004000000000000000000000000000000000000000000000000000000000000000000000000000000000000000000000000000000000000000000000001000000000000000000000000000000000000000000000000000000800000000000000400000000000000000004000000000000000000000000000020000000000000000000000000000201000000000000000000000000000000000000000000000000400000000000000000000000000000000000000000000000000000000",
      "type": "0x2",
      "transactionHash": "0xe688a20f2d8ff69f4b46b0f6b74ae5b2b95b257ace5ec57cccba6b9fbc2ec88c",
      "transactionIndex": "0x2",
      "blockHash": "0x4e04564590644a28781cfcc45014fa86bd017d6add715840f7867f1a28701473",
      "blockNumber": "0x3c55bb0",
      "gasUsed": "0x3597f",
      "effectiveGasPrice": "0x5f5e100",
      "from": "0x7caf754c934710d7c73bc453654552beca38223f",
      "to": "0xc97d72a8a9d1d2ed326eb04f2d706a21cee2b94e",
      "contractAddress": null,
      "gasUsedForL1": "0x27cba",
      "l1BlockNumber": "0x6010aa"
    },
    {
      "status": "0x1",
      "cumulativeGasUsed": "0x97a71",
      "logs": [
        {
          "address": "0xc97d72a8a9d1d2ed326eb04f2d706a21cee2b94e",
          "topics": [
            "0x5bb4f0ce0b45958f2f55e7b3c080e51003e6c6714473adb4de547b03274ca29b",
            "0xf011955832cac97ab1a6534c6b94971325e3be6bfaac1ccae68e3f5c7adcee5f"
          ],
          "data": "0x000000000000000000000000286ad1b2a0d94bd64f260f60b0a17ea02b8fd8fe",
          "blockHash": "0x20fc64055bce6538cf064865039e5991425999c655a5c16e0906e8c035d33b86",
          "blockNumber": "0x3c55bb3",
          "transactionHash": "0x2c35cc2ed3035f574d0cdb1c9fb360e7782371feedb4f1c8f4432b92c5be6c0b",
          "transactionIndex": "0x2",
          "logIndex": "0x1",
          "removed": false
        }
      ],
      "logsBloom": "0x00000000000000000000000000000000000000000000000000000000000000000000000000000000000000000000000000000000000000000000000000000000000000004000000000000000000000000000000000000000000000000000000000000000000000000000000000000000000000000000000000000000000000001800000000000000000000000000000000000000000000000000000800000000000000400000000000000000004000000000000000000000000000400000000000000000000800000000001000000000000000000000000000000000000000000000000000000000000000000000000000000000000000000000000000000000",
      "type": "0x2",
      "transactionHash": "0x2c35cc2ed3035f574d0cdb1c9fb360e7782371feedb4f1c8f4432b92c5be6c0b",
      "transactionIndex": "0x2",
      "blockHash": "0x20fc64055bce6538cf064865039e5991425999c655a5c16e0906e8c035d33b86",
      "blockNumber": "0x3c55bb3",
      "gasUsed": "0x3597f",
      "effectiveGasPrice": "0x5f5e100",
      "from": "0x7caf754c934710d7c73bc453654552beca38223f",
      "to": "0xc97d72a8a9d1d2ed326eb04f2d706a21cee2b94e",
      "contractAddress": null,
      "gasUsedForL1": "0x27cba",
      "l1BlockNumber": "0x6010aa"
    },
    {
      "status": "0x1",
      "cumulativeGasUsed": "0x3597f",
      "logs": [
        {
          "address": "0xc97d72a8a9d1d2ed326eb04f2d706a21cee2b94e",
          "topics": [
            "0x5bb4f0ce0b45958f2f55e7b3c080e51003e6c6714473adb4de547b03274ca29b",
            "0x87c66b8c60fd984f739f68f1d83229601131914aaf269874c584e179b37db1a5"
          ],
          "data": "0x000000000000000000000000286ad1b2a0d94bd64f260f60b0a17ea02b8fd8fe",
          "blockHash": "0x8a0384cf6f2d55a8537c69073604b261b49d02fe95b1b02f61711eb420d27dba",
          "blockNumber": "0x3c55bb4",
          "transactionHash": "0x7e4566133ab1ac072b7496e537a0ae2abceeb8786acec66f7de31af15a841381",
          "transactionIndex": "0x1",
          "logIndex": "0x0",
          "removed": false
        }
      ],
      "logsBloom": "0x00000000000000000000000000000000000000000000000000000000000000000000000100000000000000000000000000000000000000000000000000000000000000004000000000000000000000000000000000000000000000000000000000000000000000000000000000000000000000000000000000000000000000001000000000000000000000000000000000000000000000004000000800000000000000400000000000000000004000000000000000000008000000000000000000000000000000000000001000000000000000000000000000000000000000000000000000000000000000000000000000000000000000000000000000000000",
      "type": "0x2",
      "transactionHash": "0x7e4566133ab1ac072b7496e537a0ae2abceeb8786acec66f7de31af15a841381",
      "transactionIndex": "0x1",
      "blockHash": "0x8a0384cf6f2d55a8537c69073604b261b49d02fe95b1b02f61711eb420d27dba",
      "blockNumber": "0x3c55bb4",
      "gasUsed": "0x3597f",
      "effectiveGasPrice": "0x5f5e100",
      "from": "0x7caf754c934710d7c73bc453654552beca38223f",
      "to": "0xc97d72a8a9d1d2ed326eb04f2d706a21cee2b94e",
      "contractAddress": null,
      "gasUsedForL1": "0x27cba",
      "l1BlockNumber": "0x6010aa"
    },
    {
      "status": "0x1",
      "cumulativeGasUsed": "0x3597f",
      "logs": [
        {
          "address": "0xc97d72a8a9d1d2ed326eb04f2d706a21cee2b94e",
          "topics": [
            "0x5bb4f0ce0b45958f2f55e7b3c080e51003e6c6714473adb4de547b03274ca29b",
            "0x2d0cdaf9a1153a9a4b68379c64d4397611a0f3d9fa4015376435f9a64aafc0c1"
          ],
          "data": "0x000000000000000000000000286ad1b2a0d94bd64f260f60b0a17ea02b8fd8fe",
          "blockHash": "0x7fece1fd7f05a67fd41a09cfe51faac668465efdab651d1e2b426d81fe73bf21",
          "blockNumber": "0x3c55bb6",
          "transactionHash": "0xfbd669b26d192c6086f6927ed0728ff79b4f68972b972b515a1069638d383656",
          "transactionIndex": "0x1",
          "logIndex": "0x0",
          "removed": false
        }
      ],
      "logsBloom": "0x00000000000000000000100000000000000000000000000000000010000000000000000000000000000000000000000000000000000000000000000000000000000000004000000000000000000000000000000020000000000000000000000000000000000000000000000000000000000000000000000000000000000000001000000000000000000000000000000000000000000000000000000800000000000000400000000000000000004000000000000000000000000000000000000000000000000000000000001000000000000000000000000000000000000000000000000000000000000000000000000000000000000000000000000000000000",
      "type": "0x2",
      "transactionHash": "0xfbd669b26d192c6086f6927ed0728ff79b4f68972b972b515a1069638d383656",
      "transactionIndex": "0x1",
      "blockHash": "0x7fece1fd7f05a67fd41a09cfe51faac668465efdab651d1e2b426d81fe73bf21",
      "blockNumber": "0x3c55bb6",
      "gasUsed": "0x3597f",
      "effectiveGasPrice": "0x5f5e100",
      "from": "0x7caf754c934710d7c73bc453654552beca38223f",
      "to": "0xc97d72a8a9d1d2ed326eb04f2d706a21cee2b94e",
      "contractAddress": null,
      "gasUsedForL1": "0x27cba",
      "l1BlockNumber": "0x6010aa"
    }
  ],
  "libraries": [],
  "pending": [],
  "returns": {},
  "timestamp": 1720779940,
  "chain": 421614,
  "commit": "8d60795"
}