{
  "transactions": [
    {
      "hash": "0x780cb8897261e716839cbc0a97e530d79ae51e473820de61412711a7c944abe7",
      "transactionType": "CALL",
      "contractName": null,
      "contractAddress": "0xfe0717cacd6fff3001edd3f360eb2854f54861dd",
      "function": "addOperator(uint256,address)",
      "arguments": [
        "20376791661718660580662410765070640284736320707848823176694931891585259913409",
        "0xCf4990bBa0B9A56500501d0c6eF139B92a050352"
      ],
      "transaction": {
        "from": "0x7caf754c934710d7c73bc453654552beca38223f",
        "to": "0xfe0717cacd6fff3001edd3f360eb2854f54861dd",
        "gas": "0x1d99a6",
        "value": "0x0",
        "input": "0x7d46a7132d0cdaf9a1153a9a4b68379c64d4397611a0f3d9fa4015376435f9a64aafc0c1000000000000000000000000cf4990bba0b9a56500501d0c6ef139b92a050352",
        "nonce": "0x272",
        "chainId": "0x66eee"
      },
      "additionalContracts": [],
      "isFixedGasLimit": false
    },
    {
      "hash": "0xdcf03efa1a461e0a23e9e2d583ba9bae3bf32f93321d35eb126cbfb5b519c753",
      "transactionType": "CALL",
      "contractName": null,
      "contractAddress": "0xfe0717cacd6fff3001edd3f360eb2854f54861dd",
      "function": "addOperator(uint256,address)",
      "arguments": [
        "8073960722007594212918575991467917289452723924551607525414094759273404023523",
        "0xCf4990bBa0B9A56500501d0c6eF139B92a050352"
      ],
      "transaction": {
        "from": "0x7caf754c934710d7c73bc453654552beca38223f",
        "to": "0xfe0717cacd6fff3001edd3f360eb2854f54861dd",
        "gas": "0x1d99a6",
        "value": "0x0",
        "input": "0x7d46a71311d9b327b46d43525821b67e9e75373040aa7f8162b46753eb565065f743c2e3000000000000000000000000cf4990bba0b9a56500501d0c6ef139b92a050352",
        "nonce": "0x273",
        "chainId": "0x66eee"
      },
      "additionalContracts": [],
      "isFixedGasLimit": false
    },
    {
      "hash": "0x07a751518738d2710c5767dad271c493af0c3e799e31415b53cfa23f79fec058",
      "transactionType": "CALL",
      "contractName": null,
      "contractAddress": "0xfe0717cacd6fff3001edd3f360eb2854f54861dd",
      "function": "addOperator(uint256,address)",
      "arguments": [
        "33953649417576654953995537313820306697747390492794311279756157547821320957282",
        "0xCf4990bBa0B9A56500501d0c6eF139B92a050352"
      ],
      "transaction": {
        "from": "0x7caf754c934710d7c73bc453654552beca38223f",
        "to": "0xfe0717cacd6fff3001edd3f360eb2854f54861dd",
        "gas": "0x1d99a6",
        "value": "0x0",
        "input": "0x7d46a7134b1115a4946079f8d83c63061f5c49c2f351a054d8dfb284b197f54dbfa8ed62000000000000000000000000cf4990bba0b9a56500501d0c6ef139b92a050352",
        "nonce": "0x274",
        "chainId": "0x66eee"
      },
      "additionalContracts": [],
      "isFixedGasLimit": false
    }
  ],
  "receipts": [
    {
      "status": "0x1",
      "cumulativeGasUsed": "0x234120",
      "logs": [
        {
          "address": "0xfe0717cacd6fff3001edd3f360eb2854f54861dd",
          "topics": [
            "0x5bb4f0ce0b45958f2f55e7b3c080e51003e6c6714473adb4de547b03274ca29b",
            "0x2d0cdaf9a1153a9a4b68379c64d4397611a0f3d9fa4015376435f9a64aafc0c1"
          ],
          "data": "0x000000000000000000000000cf4990bba0b9a56500501d0c6ef139b92a050352",
          "blockHash": "0x87e8d7aa05edb61b432aaaabf5a56819f3d84d34e23e2e5c1866016326c68f1e",
          "blockNumber": "0x3f6abae",
          "transactionHash": "0x780cb8897261e716839cbc0a97e530d79ae51e473820de61412711a7c944abe7",
          "transactionIndex": "0x2",
          "logIndex": "0x1",
          "removed": false
        }
      ],
      "logsBloom": "0x00000000000000000000100000000000000000000000000000000010000000000000000000000000000000000000000000000000000000000000000000000000000000004000000000000000000000000000000020000000000000000000000000000000000000000000000000000000000000000000000000000000000000000000000000000000000000028000000000000000000000000000000000000000000000400000000000000020004000000000000000000000000000000000000000000000000000000000000000000000000000000000000000000000000000000000000000000000000000000000000000000000000000000000000000000000",
      "type": "0x2",
      "transactionHash": "0x780cb8897261e716839cbc0a97e530d79ae51e473820de61412711a7c944abe7",
      "transactionIndex": "0x2",
      "blockHash": "0x87e8d7aa05edb61b432aaaabf5a56819f3d84d34e23e2e5c1866016326c68f1e",
      "blockNumber": "0x3f6abae",
      "gasUsed": "0x11e818",
      "effectiveGasPrice": "0x5f5e100",
      "from": "0x7caf754c934710d7c73bc453654552beca38223f",
      "to": "0xfe0717cacd6fff3001edd3f360eb2854f54861dd",
      "contractAddress": null,
      "gasUsedForL1": "0x110b5f",
      "l1BlockNumber": "0x61409a"
    },
    {
      "status": "0x1",
      "cumulativeGasUsed": "0x11e818",
      "logs": [
        {
          "address": "0xfe0717cacd6fff3001edd3f360eb2854f54861dd",
          "topics": [
            "0x5bb4f0ce0b45958f2f55e7b3c080e51003e6c6714473adb4de547b03274ca29b",
            "0x11d9b327b46d43525821b67e9e75373040aa7f8162b46753eb565065f743c2e3"
          ],
          "data": "0x000000000000000000000000cf4990bba0b9a56500501d0c6ef139b92a050352",
          "blockHash": "0xd5e05cf32d408aedd76135b993a0c4a547fd5b0be3f9255f004a48fab82848b1",
          "blockNumber": "0x3f6abb0",
          "transactionHash": "0xdcf03efa1a461e0a23e9e2d583ba9bae3bf32f93321d35eb126cbfb5b519c753",
          "transactionIndex": "0x1",
          "logIndex": "0x0",
          "removed": false
        }
      ],
      "logsBloom": "0x00000100000000000000000000000000000000000000000000000000000000000000000000000000000000000000000000000000000000000000000000000000000000004000000000000000000000000000080000000000000000000000000000000000000000000000000000000000000000000000000000000000000000000000000000000000000000028000000000000000000000000000000000000000000000400000000000000020004000000000000000000000000000000000000000000000000000000000000800000000000000000000000000000000000000000000000000000000000000000000000000000000000000000000000000000000",
      "type": "0x2",
      "transactionHash": "0xdcf03efa1a461e0a23e9e2d583ba9bae3bf32f93321d35eb126cbfb5b519c753",
      "transactionIndex": "0x1",
      "blockHash": "0xd5e05cf32d408aedd76135b993a0c4a547fd5b0be3f9255f004a48fab82848b1",
      "blockNumber": "0x3f6abb0",
      "gasUsed": "0x11e818",
      "effectiveGasPrice": "0x5f5e100",
      "from": "0x7caf754c934710d7c73bc453654552beca38223f",
      "to": "0xfe0717cacd6fff3001edd3f360eb2854f54861dd",
      "contractAddress": null,
      "gasUsedForL1": "0x110b5f",
      "l1BlockNumber": "0x61409a"
    },
    {
      "status": "0x1",
      "cumulativeGasUsed": "0x11e818",
      "logs": [
        {
          "address": "0xfe0717cacd6fff3001edd3f360eb2854f54861dd",
          "topics": [
            "0x5bb4f0ce0b45958f2f55e7b3c080e51003e6c6714473adb4de547b03274ca29b",
            "0x4b1115a4946079f8d83c63061f5c49c2f351a054d8dfb284b197f54dbfa8ed62"
          ],
          "data": "0x000000000000000000000000cf4990bba0b9a56500501d0c6ef139b92a050352",
          "blockHash": "0xfb4ea75f18952c215bb9584b98ede00fb513f38e4f22a48cea3f2452c784d547",
          "blockNumber": "0x3f6abb3",
          "transactionHash": "0x07a751518738d2710c5767dad271c493af0c3e799e31415b53cfa23f79fec058",
          "transactionIndex": "0x1",
          "logIndex": "0x0",
          "removed": false
        }
      ],
      "logsBloom": "0x00000000000000000000000000000000000000000000000008000000000000000000000000000000000000000000000000000000000000000000000000000000000000004000000000000000000000000000000000000000000000000000000000800020000000000000000000000000000000000000000000000000000000000000000000000000000000028000000000000000000000000000000000000000000000400000000000000020004000000000000000000000000000000000000000000000000000000000000000000000000000000000000000000000000000000000000000000000000000000000000000000000000000000000000000000000",
      "type": "0x2",
      "transactionHash": "0x07a751518738d2710c5767dad271c493af0c3e799e31415b53cfa23f79fec058",
      "transactionIndex": "0x1",
      "blockHash": "0xfb4ea75f18952c215bb9584b98ede00fb513f38e4f22a48cea3f2452c784d547",
      "blockNumber": "0x3f6abb3",
      "gasUsed": "0x11e818",
      "effectiveGasPrice": "0x5f5e100",
      "from": "0x7caf754c934710d7c73bc453654552beca38223f",
      "to": "0xfe0717cacd6fff3001edd3f360eb2854f54861dd",
      "contractAddress": null,
      "gasUsedForL1": "0x110b5f",
      "l1BlockNumber": "0x61409a"
    }
  ],
  "libraries": [],
  "pending": [],
  "returns": {},
  "timestamp": 1721913684,
  "chain": 421614,
  "commit": "c7ca19a"
}