{
  "transactions": [
    {
      "hash": "0x89b18c575cd9e26074af159946d4aab1a53379558556e413626b27ecad751172",
      "transactionType": "CALL",
      "contractName": null,
      "contractAddress": "0xfe0717cacd6fff3001edd3f360eb2854f54861dd",
      "function": "addOperator(uint256,address)",
      "arguments": [
        "20376791661718660580662410765070640284736320707848823176694931891585259913409",
        "0xE494946dc655e72Aa22F51628FC23B4f8921e7A8"
      ],
      "transaction": {
        "from": "0x7caf754c934710d7c73bc453654552beca38223f",
        "to": "0xfe0717cacd6fff3001edd3f360eb2854f54861dd",
        "gas": "0x12319",
        "value": "0x0",
        "input": "0x7d46a7132d0cdaf9a1153a9a4b68379c64d4397611a0f3d9fa4015376435f9a64aafc0c1000000000000000000000000e494946dc655e72aa22f51628fc23b4f8921e7a8",
        "nonce": "0x27f",
        "chainId": "0x66eee"
      },
      "additionalContracts": [],
      "isFixedGasLimit": false
    },
    {
      "hash": "0xf1e4e2e6fdeb764ea9c6b6331c2dd78ec94a12be0bab916230c74ead8ecc9574",
      "transactionType": "CALL",
      "contractName": null,
      "contractAddress": "0xfe0717cacd6fff3001edd3f360eb2854f54861dd",
      "function": "addOperator(uint256,address)",
      "arguments": [
        "8073960722007594212918575991467917289452723924551607525414094759273404023523",
        "0xE494946dc655e72Aa22F51628FC23B4f8921e7A8"
      ],
      "transaction": {
        "from": "0x7caf754c934710d7c73bc453654552beca38223f",
        "to": "0xfe0717cacd6fff3001edd3f360eb2854f54861dd",
        "gas": "0x12319",
        "value": "0x0",
        "input": "0x7d46a71311d9b327b46d43525821b67e9e75373040aa7f8162b46753eb565065f743c2e3000000000000000000000000e494946dc655e72aa22f51628fc23b4f8921e7a8",
        "nonce": "0x280",
        "chainId": "0x66eee"
      },
      "additionalContracts": [],
      "isFixedGasLimit": false
    },
    {
      "hash": "0x042d3b1e9d1a8b0cef52c4474680532df2d7965ac1c10017a88faad9ea0b7e88",
      "transactionType": "CALL",
      "contractName": null,
      "contractAddress": "0xfe0717cacd6fff3001edd3f360eb2854f54861dd",
      "function": "addOperator(uint256,address)",
      "arguments": [
        "33953649417576654953995537313820306697747390492794311279756157547821320957282",
        "0xE494946dc655e72Aa22F51628FC23B4f8921e7A8"
      ],
      "transaction": {
        "from": "0x7caf754c934710d7c73bc453654552beca38223f",
        "to": "0xfe0717cacd6fff3001edd3f360eb2854f54861dd",
        "gas": "0x12319",
        "value": "0x0",
        "input": "0x7d46a7134b1115a4946079f8d83c63061f5c49c2f351a054d8dfb284b197f54dbfa8ed62000000000000000000000000e494946dc655e72aa22f51628fc23b4f8921e7a8",
        "nonce": "0x281",
        "chainId": "0x66eee"
      },
      "additionalContracts": [],
      "isFixedGasLimit": false
    }
  ],
  "receipts": [
    {
      "status": "0x1",
      "cumulativeGasUsed": "0xdcc5",
      "logs": [
        {
          "address": "0xfe0717cacd6fff3001edd3f360eb2854f54861dd",
          "topics": [
            "0x5bb4f0ce0b45958f2f55e7b3c080e51003e6c6714473adb4de547b03274ca29b",
            "0x2d0cdaf9a1153a9a4b68379c64d4397611a0f3d9fa4015376435f9a64aafc0c1"
          ],
          "data": "0x000000000000000000000000e494946dc655e72aa22f51628fc23b4f8921e7a8",
          "blockHash": "0x4efa2433d97eea962cbea70c5f525f60897884fbf31158cf19bf65be01e75343",
          "blockNumber": "0x4612bb8",
          "transactionHash": "0x89b18c575cd9e26074af159946d4aab1a53379558556e413626b27ecad751172",
          "transactionIndex": "0x1",
          "logIndex": "0x0",
          "removed": false
        }
      ],
      "logsBloom": "0x00000000000000000000100000000000000000000000000000000010000000000000000000000000000000000000000000000000000000000000000000000000000000004000000000000000000000000000000020000000000000000000000000000000000000000000000000000000000000000000000000000000000000000000000000000000000000028000000000000000000000000000000000000000000000400000000000000020004000000000000000000000000000000000000000000000000000000000000000000000000000000000000000000000000000000000000000000000000000000000000000000000000000000000000000000000",
      "type": "0x2",
      "transactionHash": "0x89b18c575cd9e26074af159946d4aab1a53379558556e413626b27ecad751172",
      "transactionIndex": "0x1",
      "blockHash": "0x4efa2433d97eea962cbea70c5f525f60897884fbf31158cf19bf65be01e75343",
      "blockNumber": "0x4612bb8",
      "gasUsed": "0xdcc5",
      "effectiveGasPrice": "0x5f5e100",
      "from": "0x7caf754c934710d7c73bc453654552beca38223f",
      "to": "0xfe0717cacd6fff3001edd3f360eb2854f54861dd",
      "contractAddress": null,
      "gasUsedForL1": "0x0",
      "l1BlockNumber": "0x640896"
    },
    {
      "status": "0x1",
      "cumulativeGasUsed": "0x20517d",
      "logs": [
        {
          "address": "0xfe0717cacd6fff3001edd3f360eb2854f54861dd",
          "topics": [
            "0x5bb4f0ce0b45958f2f55e7b3c080e51003e6c6714473adb4de547b03274ca29b",
            "0x11d9b327b46d43525821b67e9e75373040aa7f8162b46753eb565065f743c2e3"
          ],
          "data": "0x000000000000000000000000e494946dc655e72aa22f51628fc23b4f8921e7a8",
          "blockHash": "0x6854ea9335108f5aabb439e012cebcc3a9b8a4b40bd6ece720ca42b9c4d613e9",
          "blockNumber": "0x4612bbb",
          "transactionHash": "0xf1e4e2e6fdeb764ea9c6b6331c2dd78ec94a12be0bab916230c74ead8ecc9574",
          "transactionIndex": "0x2",
          "logIndex": "0x38",
          "removed": false
        }
      ],
      "logsBloom": "0x00000100000000000000000000000000000000000000000000000000000000000000000000000000000000000000000000000000000000000000000000000000000000004000000000000000000000000000080000000000000000000000000000000000000000000000000000000000000000000000000000000000000000000000000000000000000000028000000000000000000000000000000000000000000000400000000000000020004000000000000000000000000000000000000000000000000000000000000800000000000000000000000000000000000000000000000000000000000000000000000000000000000000000000000000000000",
      "type": "0x2",
      "transactionHash": "0xf1e4e2e6fdeb764ea9c6b6331c2dd78ec94a12be0bab916230c74ead8ecc9574",
      "transactionIndex": "0x2",
      "blockHash": "0x6854ea9335108f5aabb439e012cebcc3a9b8a4b40bd6ece720ca42b9c4d613e9",
      "blockNumber": "0x4612bbb",
      "gasUsed": "0xdcc5",
      "effectiveGasPrice": "0x5f5e100",
      "from": "0x7caf754c934710d7c73bc453654552beca38223f",
      "to": "0xfe0717cacd6fff3001edd3f360eb2854f54861dd",
      "contractAddress": null,
      "gasUsedForL1": "0x0",
      "l1BlockNumber": "0x640896"
    },
    {
      "status": "0x1",
      "cumulativeGasUsed": "0x21e455",
      "logs": [
        {
          "address": "0xfe0717cacd6fff3001edd3f360eb2854f54861dd",
          "topics": [
            "0x5bb4f0ce0b45958f2f55e7b3c080e51003e6c6714473adb4de547b03274ca29b",
            "0x4b1115a4946079f8d83c63061f5c49c2f351a054d8dfb284b197f54dbfa8ed62"
          ],
          "data": "0x000000000000000000000000e494946dc655e72aa22f51628fc23b4f8921e7a8",
          "blockHash": "0xd08c71f3f9604fd2653ad063030bac69e88b8119f0f049a5cfab8b75592c1cc1",
          "blockNumber": "0x4612bbe",
          "transactionHash": "0x042d3b1e9d1a8b0cef52c4474680532df2d7965ac1c10017a88faad9ea0b7e88",
          "transactionIndex": "0x2",
          "logIndex": "0x3f",
          "removed": false
        }
      ],
      "logsBloom": "0x00000000000000000000000000000000000000000000000008000000000000000000000000000000000000000000000000000000000000000000000000000000000000004000000000000000000000000000000000000000000000000000000000800020000000000000000000000000000000000000000000000000000000000000000000000000000000028000000000000000000000000000000000000000000000400000000000000020004000000000000000000000000000000000000000000000000000000000000000000000000000000000000000000000000000000000000000000000000000000000000000000000000000000000000000000000",
      "type": "0x2",
      "transactionHash": "0x042d3b1e9d1a8b0cef52c4474680532df2d7965ac1c10017a88faad9ea0b7e88",
      "transactionIndex": "0x2",
      "blockHash": "0xd08c71f3f9604fd2653ad063030bac69e88b8119f0f049a5cfab8b75592c1cc1",
      "blockNumber": "0x4612bbe",
      "gasUsed": "0xdcc5",
      "effectiveGasPrice": "0x5f5e100",
      "from": "0x7caf754c934710d7c73bc453654552beca38223f",
      "to": "0xfe0717cacd6fff3001edd3f360eb2854f54861dd",
      "contractAddress": null,
      "gasUsedForL1": "0x0",
      "l1BlockNumber": "0x640896"
    }
  ],
  "libraries": [],
  "pending": [],
  "returns": {},
  "timestamp": 1724415178,
  "chain": 421614,
  "commit": "db3ccfa"
}