{
  "transactions": [
    {
      "hash": "0x3ec49592d43147002faf6afab2cbdfb9cc5cb3c56f8ff9b7ef678d7ba0c7b212",
      "transactionType": "CALL",
      "contractName": null,
      "contractAddress": "0xfe0717cacd6fff3001edd3f360eb2854f54861dd",
      "function": "addOperator(uint256,address)",
      "arguments": [
        "20376791661718660580662410765070640284736320707848823176694931891585259913409",
        "0xB875AAD94cd568CE0359A73b62Af1614E4ff0901"
      ],
      "transaction": {
        "from": "0x7caf754c934710d7c73bc453654552beca38223f",
        "to": "0xfe0717cacd6fff3001edd3f360eb2854f54861dd",
        "gas": "0xa973c",
        "value": "0x0",
        "input": "0x7d46a7132d0cdaf9a1153a9a4b68379c64d4397611a0f3d9fa4015376435f9a64aafc0c1000000000000000000000000b875aad94cd568ce0359a73b62af1614e4ff0901",
        "nonce": "0x279",
        "chainId": "0x66eee"
      },
      "additionalContracts": [],
      "isFixedGasLimit": false
    },
    {
      "hash": "0x8846392ab3ade67471560fbd6dba0f550f61325bf79488071530a5e4269d271b",
      "transactionType": "CALL",
      "contractName": null,
      "contractAddress": "0xfe0717cacd6fff3001edd3f360eb2854f54861dd",
      "function": "addOperator(uint256,address)",
      "arguments": [
        "8073960722007594212918575991467917289452723924551607525414094759273404023523",
        "0xB875AAD94cd568CE0359A73b62Af1614E4ff0901"
      ],
      "transaction": {
        "from": "0x7caf754c934710d7c73bc453654552beca38223f",
        "to": "0xfe0717cacd6fff3001edd3f360eb2854f54861dd",
        "gas": "0xa973c",
        "value": "0x0",
        "input": "0x7d46a71311d9b327b46d43525821b67e9e75373040aa7f8162b46753eb565065f743c2e3000000000000000000000000b875aad94cd568ce0359a73b62af1614e4ff0901",
        "nonce": "0x27a",
        "chainId": "0x66eee"
      },
      "additionalContracts": [],
      "isFixedGasLimit": false
    },
    {
      "hash": "0x9deb4dd2ff66e1e6c1e21a5d43c3b32dcf927a71fc7cae882268986daeff0588",
      "transactionType": "CALL",
      "contractName": null,
      "contractAddress": "0xfe0717cacd6fff3001edd3f360eb2854f54861dd",
      "function": "addOperator(uint256,address)",
      "arguments": [
        "33953649417576654953995537313820306697747390492794311279756157547821320957282",
        "0xB875AAD94cd568CE0359A73b62Af1614E4ff0901"
      ],
      "transaction": {
        "from": "0x7caf754c934710d7c73bc453654552beca38223f",
        "to": "0xfe0717cacd6fff3001edd3f360eb2854f54861dd",
        "gas": "0xa973c",
        "value": "0x0",
        "input": "0x7d46a7134b1115a4946079f8d83c63061f5c49c2f351a054d8dfb284b197f54dbfa8ed62000000000000000000000000b875aad94cd568ce0359a73b62af1614e4ff0901",
        "nonce": "0x27b",
        "chainId": "0x66eee"
      },
      "additionalContracts": [],
      "isFixedGasLimit": false
    }
  ],
  "receipts": [
    {
      "status": "0x1",
      "cumulativeGasUsed": "0x41956e",
      "logs": [
        {
          "address": "0xfe0717cacd6fff3001edd3f360eb2854f54861dd",
          "topics": [
            "0x5bb4f0ce0b45958f2f55e7b3c080e51003e6c6714473adb4de547b03274ca29b",
            "0x2d0cdaf9a1153a9a4b68379c64d4397611a0f3d9fa4015376435f9a64aafc0c1"
          ],
          "data": "0x000000000000000000000000b875aad94cd568ce0359a73b62af1614e4ff0901",
          "blockHash": "0x67d1305b7edecfbc296b0073b99bfd3ab34abb727d763dd5e79116a48c1ddb38",
          "blockNumber": "0x3f7376b",
          "transactionHash": "0x3ec49592d43147002faf6afab2cbdfb9cc5cb3c56f8ff9b7ef678d7ba0c7b212",
          "transactionIndex": "0x3",
          "logIndex": "0x4",
          "removed": false
        }
      ],
      "logsBloom": "0x00000000000000000000100000000000000000000000000000000010000000000000000000000000000000000000000000000000000000000000000000000000000000004000000000000000000000000000000020000000000000000000000000000000000000000000000000000000000000000000000000000000000000000000000000000000000000028000000000000000000000000000000000000000000000400000000000000020004000000000000000000000000000000000000000000000000000000000000000000000000000000000000000000000000000000000000000000000000000000000000000000000000000000000000000000000",
      "type": "0x2",
      "transactionHash": "0x3ec49592d43147002faf6afab2cbdfb9cc5cb3c56f8ff9b7ef678d7ba0c7b212",
      "transactionIndex": "0x3",
      "blockHash": "0x67d1305b7edecfbc296b0073b99bfd3ab34abb727d763dd5e79116a48c1ddb38",
      "blockNumber": "0x3f7376b",
      "gasUsed": "0x6845a",
      "effectiveGasPrice": "0x5f5e100",
      "from": "0x7caf754c934710d7c73bc453654552beca38223f",
      "to": "0xfe0717cacd6fff3001edd3f360eb2854f54861dd",
      "contractAddress": null,
      "gasUsedForL1": "0x5a795",
      "l1BlockNumber": "0x6143ba"
    },
    {
      "status": "0x1",
      "cumulativeGasUsed": "0x6845a",
      "logs": [
        {
          "address": "0xfe0717cacd6fff3001edd3f360eb2854f54861dd",
          "topics": [
            "0x5bb4f0ce0b45958f2f55e7b3c080e51003e6c6714473adb4de547b03274ca29b",
            "0x11d9b327b46d43525821b67e9e75373040aa7f8162b46753eb565065f743c2e3"
          ],
          "data": "0x000000000000000000000000b875aad94cd568ce0359a73b62af1614e4ff0901",
          "blockHash": "0x793dd2b4a71470c72c7625d3ee37c1615ae0bf89530fb5c1762e4f34b8ed0662",
          "blockNumber": "0x3f7376e",
          "transactionHash": "0x8846392ab3ade67471560fbd6dba0f550f61325bf79488071530a5e4269d271b",
          "transactionIndex": "0x1",
          "logIndex": "0x0",
          "removed": false
        }
      ],
      "logsBloom": "0x00000100000000000000000000000000000000000000000000000000000000000000000000000000000000000000000000000000000000000000000000000000000000004000000000000000000000000000080000000000000000000000000000000000000000000000000000000000000000000000000000000000000000000000000000000000000000028000000000000000000000000000000000000000000000400000000000000020004000000000000000000000000000000000000000000000000000000000000800000000000000000000000000000000000000000000000000000000000000000000000000000000000000000000000000000000",
      "type": "0x2",
      "transactionHash": "0x8846392ab3ade67471560fbd6dba0f550f61325bf79488071530a5e4269d271b",
      "transactionIndex": "0x1",
      "blockHash": "0x793dd2b4a71470c72c7625d3ee37c1615ae0bf89530fb5c1762e4f34b8ed0662",
      "blockNumber": "0x3f7376e",
      "gasUsed": "0x6845a",
      "effectiveGasPrice": "0x5f5e100",
      "from": "0x7caf754c934710d7c73bc453654552beca38223f",
      "to": "0xfe0717cacd6fff3001edd3f360eb2854f54861dd",
      "contractAddress": null,
      "gasUsedForL1": "0x5a795",
      "l1BlockNumber": "0x6143ba"
    },
    {
      "status": "0x1",
      "cumulativeGasUsed": "0x6845a",
      "logs": [
        {
          "address": "0xfe0717cacd6fff3001edd3f360eb2854f54861dd",
          "topics": [
            "0x5bb4f0ce0b45958f2f55e7b3c080e51003e6c6714473adb4de547b03274ca29b",
            "0x4b1115a4946079f8d83c63061f5c49c2f351a054d8dfb284b197f54dbfa8ed62"
          ],
          "data": "0x000000000000000000000000b875aad94cd568ce0359a73b62af1614e4ff0901",
          "blockHash": "0xedd49310966005c29e2636657db9684b54468e035ce640a10913783f7b75964d",
          "blockNumber": "0x3f73770",
          "transactionHash": "0x9deb4dd2ff66e1e6c1e21a5d43c3b32dcf927a71fc7cae882268986daeff0588",
          "transactionIndex": "0x1",
          "logIndex": "0x0",
          "removed": false
        }
      ],
      "logsBloom": "0x00000000000000000000000000000000000000000000000008000000000000000000000000000000000000000000000000000000000000000000000000000000000000004000000000000000000000000000000000000000000000000000000000800020000000000000000000000000000000000000000000000000000000000000000000000000000000028000000000000000000000000000000000000000000000400000000000000020004000000000000000000000000000000000000000000000000000000000000000000000000000000000000000000000000000000000000000000000000000000000000000000000000000000000000000000000",
      "type": "0x2",
      "transactionHash": "0x9deb4dd2ff66e1e6c1e21a5d43c3b32dcf927a71fc7cae882268986daeff0588",
      "transactionIndex": "0x1",
      "blockHash": "0xedd49310966005c29e2636657db9684b54468e035ce640a10913783f7b75964d",
      "blockNumber": "0x3f73770",
      "gasUsed": "0x6845a",
      "effectiveGasPrice": "0x5f5e100",
      "from": "0x7caf754c934710d7c73bc453654552beca38223f",
      "to": "0xfe0717cacd6fff3001edd3f360eb2854f54861dd",
      "contractAddress": null,
      "gasUsedForL1": "0x5a795",
      "l1BlockNumber": "0x6143ba"
    }
  ],
  "libraries": [],
  "pending": [],
  "returns": {},
  "timestamp": 1721925606,
  "chain": 421614,
  "commit": "c7ca19a"
}