{
  "transactions": [
    {
      "hash": "0xa6d43065d2cd8c70c511359eaa01b0d83391f4daae081ba77385f447a4eff327",
      "transactionType": "CALL",
      "contractName": "ProductAdministratorRegistry",
      "contractAddress": "0x62254d732c078bf0484ea7dbd61f7f620184f95e",
      "function": "grantRoles(uint256,address,uint256)",
      "arguments": [
        "20376791661718660580662410765070640284736320707848823176694931891585259913409",
        "0xCf4990bBa0B9A56500501d0c6eF139B92a050352",
        "8"
      ],
      "transaction": {
        "from": "0x7caf754c934710d7c73bc453654552beca38223f",
        "to": "0x62254d732c078bf0484ea7dbd61f7f620184f95e",
        "gas": "0x1f5d8",
        "value": "0x0",
        "input": "0x67b5e23c2d0cdaf9a1153a9a4b68379c64d4397611a0f3d9fa4015376435f9a64aafc0c1000000000000000000000000cf4990bba0b9a56500501d0c6ef139b92a0503520000000000000000000000000000000000000000000000000000000000000008",
        "nonce": "0x2bb",
        "chainId": "0x66eee"
      },
      "additionalContracts": [],
      "isFixedGasLimit": false
    },
    {
      "hash": "0xa077fb3c9ddff4f7e8a5498a89ea1e7ebaf4024286b6815f74ff101eaecfa091",
      "transactionType": "CALL",
      "contractName": "ProductAdministratorRegistry",
      "contractAddress": "0x62254d732c078bf0484ea7dbd61f7f620184f95e",
      "function": "grantRoles(uint256,address,uint256)",
      "arguments": [
        "33953649417576654953995537313820306697747390492794311279756157547821320957282",
        "0xCf4990bBa0B9A56500501d0c6eF139B92a050352",
        "8"
      ],
      "transaction": {
        "from": "0x7caf754c934710d7c73bc453654552beca38223f",
        "to": "0x62254d732c078bf0484ea7dbd61f7f620184f95e",
        "gas": "0x1f5d8",
        "value": "0x0",
        "input": "0x67b5e23c4b1115a4946079f8d83c63061f5c49c2f351a054d8dfb284b197f54dbfa8ed62000000000000000000000000cf4990bba0b9a56500501d0c6ef139b92a0503520000000000000000000000000000000000000000000000000000000000000008",
        "nonce": "0x2bc",
        "chainId": "0x66eee"
      },
      "additionalContracts": [],
      "isFixedGasLimit": false
    }
  ],
  "receipts": [
    {
      "status": "0x1",
      "cumulativeGasUsed": "0x15aef",
      "logs": [
        {
          "address": "0x62254d732c078bf0484ea7dbd61f7f620184f95e",
          "topics": [
            "0xca5f6034cf7475c6c068781b337289c341f3350f95845d98e134a06ce879afa9",
            "0x2d0cdaf9a1153a9a4b68379c64d4397611a0f3d9fa4015376435f9a64aafc0c1",
            "0x000000000000000000000000cf4990bba0b9a56500501d0c6ef139b92a050352"
          ],
          "data": "0x000000000000000000000000000000000000000000000000000000000000000800000000000000000000000000000000000000000000000000000000000000000000000000000000000000000000000000000000000000000000000000000001",
          "blockHash": "0xe52e0affd49f869c51c76bdc84adfc93bb5d1ddd8d423e00e6ad5ca58d431390",
          "blockNumber": "0x4849b80",
          "transactionHash": "0xa6d43065d2cd8c70c511359eaa01b0d83391f4daae081ba77385f447a4eff327",
          "transactionIndex": "0x1",
          "logIndex": "0x0",
          "removed": false
        }
      ],
      "logsBloom": "0x00000000000000000000100000000000000000000040000000000010000000000000000000000000000000000000000000000000000000000000000000000000000000000000000000000020000000000000000020000000000000100000000000000000000000000000000000000000000000000000000020000000000000040000000000000000000000000000004000000000000000000000000400000000000000000000000000000000000000000000000000000000000000000040000000000000000000000000000000000000000000000000000000000000000000000000000000000000000000000000000000000000000000000000002000000000",
      "type": "0x2",
      "transactionHash": "0xa6d43065d2cd8c70c511359eaa01b0d83391f4daae081ba77385f447a4eff327",
      "transactionIndex": "0x1",
      "blockHash": "0xe52e0affd49f869c51c76bdc84adfc93bb5d1ddd8d423e00e6ad5ca58d431390",
      "blockNumber": "0x4849b80",
      "gasUsed": "0x15aef",
      "effectiveGasPrice": "0x5f5e100",
      "from": "0x7caf754c934710d7c73bc453654552beca38223f",
      "to": "0x62254d732c078bf0484ea7dbd61f7f620184f95e",
      "contractAddress": null,
      "gasUsedForL1": "0x8d79",
      "l1BlockNumber": "0x64ccf3"
    },
    {
      "status": "0x1",
      "cumulativeGasUsed": "0x3a8a2d",
      "logs": [
        {
          "address": "0x62254d732c078bf0484ea7dbd61f7f620184f95e",
          "topics": [
            "0xca5f6034cf7475c6c068781b337289c341f3350f95845d98e134a06ce879afa9",
            "0x4b1115a4946079f8d83c63061f5c49c2f351a054d8dfb284b197f54dbfa8ed62",
            "0x000000000000000000000000cf4990bba0b9a56500501d0c6ef139b92a050352"
          ],
          "data": "0x000000000000000000000000000000000000000000000000000000000000000800000000000000000000000000000000000000000000000000000000000000000000000000000000000000000000000000000000000000000000000000000001",
          "blockHash": "0xa33e750e2f25f547fc8cfb5265f0b1ac636ca6b0219f2ff193c9980d49ebeb2f",
          "blockNumber": "0x4849b83",
          "transactionHash": "0xa077fb3c9ddff4f7e8a5498a89ea1e7ebaf4024286b6815f74ff101eaecfa091",
          "transactionIndex": "0x3",
          "logIndex": "0x4b",
          "removed": false
        }
      ],
      "logsBloom": "0x00000000000000000000000000000000000000000040000008000000000000000000000000000000000000000000000000000000000000000000000000000000000000000000000000000020000000000000000000000000000000100000000000800020000000000000000000000000000000000000000020000000000000040000000000000000000000000000004000000000000000000000000400000000000000000000000000000000000000000000000000000000000000000040000000000000000000000000000000000000000000000000000000000000000000000000000000000000000000000000000000000000000000000000002000000000",
      "type": "0x2",
      "transactionHash": "0xa077fb3c9ddff4f7e8a5498a89ea1e7ebaf4024286b6815f74ff101eaecfa091",
      "transactionIndex": "0x3",
      "blockHash": "0xa33e750e2f25f547fc8cfb5265f0b1ac636ca6b0219f2ff193c9980d49ebeb2f",
      "blockNumber": "0x4849b83",
      "gasUsed": "0x15aef",
      "effectiveGasPrice": "0x5f5e100",
      "from": "0x7caf754c934710d7c73bc453654552beca38223f",
      "to": "0x62254d732c078bf0484ea7dbd61f7f620184f95e",
      "contractAddress": null,
      "gasUsedForL1": "0x8d79",
      "l1BlockNumber": "0x64ccf3"
    }
  ],
  "libraries": [],
  "pending": [],
  "returns": {},
  "timestamp": 1725103361,
  "chain": 421614,
  "commit": "fcade3f"
}