{
  "transactions": [
    {
      "hash": "0x6314b059cecaa25dc20b4b3b29a9154a218d9554e2c41b6b9c5e106f5711ec76",
      "transactionType": "CALL",
      "contractName": "ProductAdministratorRegistry",
      "contractAddress": "0x62254d732c078bf0484ea7dbd61f7f620184f95e",
      "function": "grantRoles(uint256,address,uint256)",
      "arguments": [
        "20376791661718660580662410765070640284736320707848823176694931891585259913409",
        "0x16300eAe310603BA80c537A7e2d514b69B8A015E",
        "12"
      ],
      "transaction": {
        "from": "0x7caf754c934710d7c73bc453654552beca38223f",
        "to": "0x62254d732c078bf0484ea7dbd61f7f620184f95e",
        "gas": "0x11aab",
        "value": "0x0",
        "input": "0x67b5e23c2d0cdaf9a1153a9a4b68379c64d4397611a0f3d9fa4015376435f9a64aafc0c100000000000000000000000016300eae310603ba80c537a7e2d514b69b8a015e000000000000000000000000000000000000000000000000000000000000000c",
        "nonce": "0x2e2",
        "chainId": "0x66eee"
      },
      "additionalContracts": [],
      "isFixedGasLimit": false
    },
    {
      "hash": "0xd32d9f5e018ef7e8e31955632f38157e7a6f13d17bebc07f70effa198e9304ff",
      "transactionType": "CALL",
      "contractName": "ProductAdministratorRegistry",
      "contractAddress": "0x62254d732c078bf0484ea7dbd61f7f620184f95e",
      "function": "grantRoles(uint256,address,uint256)",
      "arguments": [
        "33953649417576654953995537313820306697747390492794311279756157547821320957282",
        "0x16300eAe310603BA80c537A7e2d514b69B8A015E",
        "12"
      ],
      "transaction": {
        "from": "0x7caf754c934710d7c73bc453654552beca38223f",
        "to": "0x62254d732c078bf0484ea7dbd61f7f620184f95e",
        "gas": "0x11aab",
        "value": "0x0",
        "input": "0x67b5e23c4b1115a4946079f8d83c63061f5c49c2f351a054d8dfb284b197f54dbfa8ed6200000000000000000000000016300eae310603ba80c537a7e2d514b69b8a015e000000000000000000000000000000000000000000000000000000000000000c",
        "nonce": "0x2e3",
        "chainId": "0x66eee"
      },
      "additionalContracts": [],
      "isFixedGasLimit": false
    }
  ],
  "receipts": [
    {
      "status": "0x1",
      "cumulativeGasUsed": "0xd48d",
      "logs": [
        {
          "address": "0x62254d732c078bf0484ea7dbd61f7f620184f95e",
          "topics": [
            "0xca5f6034cf7475c6c068781b337289c341f3350f95845d98e134a06ce879afa9",
            "0x2d0cdaf9a1153a9a4b68379c64d4397611a0f3d9fa4015376435f9a64aafc0c1",
            "0x00000000000000000000000016300eae310603ba80c537a7e2d514b69b8a015e"
          ],
          "data": "0x000000000000000000000000000000000000000000000000000000000000000c00000000000000000000000000000000000000000000000000000000000000000000000000000000000000000000000000000000000000000000000000000001",
          "blockHash": "0x2e252925ebf0c7e31dac9c6d64ccb6009482a197d3ef79608801e25e17e14003",
          "blockNumber": "0x4c86ad0",
          "transactionHash": "0x6314b059cecaa25dc20b4b3b29a9154a218d9554e2c41b6b9c5e106f5711ec76",
          "transactionIndex": "0x1",
          "logIndex": "0x0",
          "removed": false
        }
      ],
      "logsBloom": "0x00000000000000000000100000080000000000000040000000000010000000000000000000000000000000000000000000000000000000000000000000000000000000000000000000000000000000000000000020000000000000100000000000000000000000000000000000000000000000000000000020000000080000000000000004000000000000000000004000000000000000000000000000000000000000000000000000000000000000000000000000000000000000000040000000000000000000000000000000000000000000000000000000000000000000000000000000000000000000000000000000000000000000000000002000000000",
      "type": "0x2",
      "transactionHash": "0x6314b059cecaa25dc20b4b3b29a9154a218d9554e2c41b6b9c5e106f5711ec76",
      "transactionIndex": "0x1",
      "blockHash": "0x2e252925ebf0c7e31dac9c6d64ccb6009482a197d3ef79608801e25e17e14003",
      "blockNumber": "0x4c86ad0",
      "gasUsed": "0xd48d",
      "effectiveGasPrice": "0x5f5e100",
      "from": "0x7caf754c934710d7c73bc453654552beca38223f",
      "to": "0x62254d732c078bf0484ea7dbd61f7f620184f95e",
      "contractAddress": null,
      "gasUsedForL1": "0x70b",
      "l1BlockNumber": "0x660078"
    },
    {
      "status": "0x1",
      "cumulativeGasUsed": "0xd48d",
      "logs": [
        {
          "address": "0x62254d732c078bf0484ea7dbd61f7f620184f95e",
          "topics": [
            "0xca5f6034cf7475c6c068781b337289c341f3350f95845d98e134a06ce879afa9",
            "0x4b1115a4946079f8d83c63061f5c49c2f351a054d8dfb284b197f54dbfa8ed62",
            "0x00000000000000000000000016300eae310603ba80c537a7e2d514b69b8a015e"
          ],
          "data": "0x000000000000000000000000000000000000000000000000000000000000000c00000000000000000000000000000000000000000000000000000000000000000000000000000000000000000000000000000000000000000000000000000001",
          "blockHash": "0x9c40332999f5285a98883eb6d24e7cb7942df9e0e3c971f04305e1b2ccd756a7",
          "blockNumber": "0x4c86ad4",
          "transactionHash": "0xd32d9f5e018ef7e8e31955632f38157e7a6f13d17bebc07f70effa198e9304ff",
          "transactionIndex": "0x1",
          "logIndex": "0x0",
          "removed": false
        }
      ],
      "logsBloom": "0x00000000000000000000000000080000000000000040000008000000000000000000000000000000000000000000000000000000000000000000000000000000000000000000000000000000000000000000000000000000000000100000000000800020000000000000000000000000000000000000000020000000080000000000000004000000000000000000004000000000000000000000000000000000000000000000000000000000000000000000000000000000000000000040000000000000000000000000000000000000000000000000000000000000000000000000000000000000000000000000000000000000000000000000002000000000",
      "type": "0x2",
      "transactionHash": "0xd32d9f5e018ef7e8e31955632f38157e7a6f13d17bebc07f70effa198e9304ff",
      "transactionIndex": "0x1",
      "blockHash": "0x9c40332999f5285a98883eb6d24e7cb7942df9e0e3c971f04305e1b2ccd756a7",
      "blockNumber": "0x4c86ad4",
      "gasUsed": "0xd48d",
      "effectiveGasPrice": "0x5f5e100",
      "from": "0x7caf754c934710d7c73bc453654552beca38223f",
      "to": "0x62254d732c078bf0484ea7dbd61f7f620184f95e",
      "contractAddress": null,
      "gasUsedForL1": "0x70b",
      "l1BlockNumber": "0x660078"
    }
  ],
  "libraries": [],
  "pending": [],
  "returns": {},
  "timestamp": 1726243829,
  "chain": 421614,
  "commit": "1cb13a9"
}