{
  "transactions": [
    {
      "hash": "0xa1c5491b08caa76e54f6c001e181f5326a12a9329c1446365afb8fe6b820180e",
      "transactionType": "CALL",
      "contractName": "ProductRegistry",
      "contractAddress": "0x5752e0fb600c59e140cdafda7ac8933774c19280",
      "function": "grantRoles(address,uint256)",
      "arguments": [
        "0x35F3e191523C8701aD315551dCbDcC5708efD7ec",
        "1"
      ],
      "transaction": {
        "from": "0x7caf754c934710d7c73bc453654552beca38223f",
        "to": "0x5752e0fb600c59e140cdafda7ac8933774c19280",
        "gas": "0x2da6c",
        "value": "0x0",
        "input": "0x1c10893f00000000000000000000000035f3e191523c8701ad315551dcbdcc5708efd7ec0000000000000000000000000000000000000000000000000000000000000001",
        "nonce": "0x320",
        "chainId": "0x66eee"
      },
      "additionalContracts": [],
      "isFixedGasLimit": false
    },
    {
      "hash": "0x62165361bc68052a09c214bfc769a21f3d6bea23ac7668435c1253e9980d6737",
      "transactionType": "CALL",
      "contractName": "mUSDToken",
      "contractAddress": "0x56039fa1a804f614ebd714139f29a3ff4db57ad6",
      "function": "grantRoles(address,uint256)",
      "arguments": [
        "0x35F3e191523C8701aD315551dCbDcC5708efD7ec",
        "1"
      ],
      "transaction": {
        "from": "0x7caf754c934710d7c73bc453654552beca38223f",
        "to": "0x56039fa1a804f614ebd714139f29a3ff4db57ad6",
        "gas": "0x2da4f",
        "value": "0x0",
        "input": "0x1c10893f00000000000000000000000035f3e191523c8701ad315551dcbdcc5708efd7ec0000000000000000000000000000000000000000000000000000000000000001",
        "nonce": "0x321",
        "chainId": "0x66eee"
      },
      "additionalContracts": [],
      "isFixedGasLimit": false
    }
  ],
  "receipts": [
    {
      "status": "0x1",
      "cumulativeGasUsed": "0x1cd17",
      "logs": [
        {
          "address": "0x5752e0fb600c59e140cdafda7ac8933774c19280",
          "topics": [
            "0x715ad5ce61fc9595c7b415289d59cf203f23a94fa06f04af7e489a0a76e1fe26",
            "0x00000000000000000000000035f3e191523c8701ad315551dcbdcc5708efd7ec",
            "0x0000000000000000000000000000000000000000000000000000000000000001"
          ],
          "data": "0x",
          "blockHash": "0x28b62519f0b12391b75648cef1234d193953fd1c7ad238d416bbd13cf6886a61",
          "blockNumber": "0x510e014",
          "transactionHash": "0xa1c5491b08caa76e54f6c001e181f5326a12a9329c1446365afb8fe6b820180e",
          "transactionIndex": "0x1",
          "logIndex": "0x0",
          "removed": false
        }
      ],
      "logsBloom": "0x00000000000000000000000000000000000000000000000010000000000000000000000000000000000000000000000000000000000000000000000000040000000000000000000000000000000000000000000000040000000000000000000000000000000000000002000000000000000000000000000000000000000000000000000000000000000000000000000000000000000000000000000000000000000000000000000000200000000000000000000000010000000000000000000000002000400000000000000080000020000000000000000000000000000040000000000000000000000000000200000000000000000000000000000000000000",
      "type": "0x2",
      "transactionHash": "0xa1c5491b08caa76e54f6c001e181f5326a12a9329c1446365afb8fe6b820180e",
      "transactionIndex": "0x1",
      "blockHash": "0x28b62519f0b12391b75648cef1234d193953fd1c7ad238d416bbd13cf6886a61",
      "blockNumber": "0x510e014",
      "gasUsed": "0x1cd17",
      "effectiveGasPrice": "0x5f5e100",
      "from": "0x7caf754c934710d7c73bc453654552beca38223f",
      "to": "0x5752e0fb600c59e140cdafda7ac8933774c19280",
      "contractAddress": null,
      "gasUsedForL1": "0x15fba",
      "l1BlockNumber": "0x677d2b"
    },
    {
      "status": "0x1",
      "cumulativeGasUsed": "0x1898b4",
      "logs": [
        {
          "address": "0x56039fa1a804f614ebd714139f29a3ff4db57ad6",
          "topics": [
            "0x715ad5ce61fc9595c7b415289d59cf203f23a94fa06f04af7e489a0a76e1fe26",
            "0x00000000000000000000000035f3e191523c8701ad315551dcbdcc5708efd7ec",
            "0x0000000000000000000000000000000000000000000000000000000000000001"
          ],
          "data": "0x",
          "blockHash": "0x0dd7fb2c949cdbbb23d18225affc49c01ed005381808a0d143b883ffd94cb6db",
          "blockNumber": "0x510e019",
          "transactionHash": "0x62165361bc68052a09c214bfc769a21f3d6bea23ac7668435c1253e9980d6737",
          "transactionIndex": "0x2",
          "logIndex": "0x1",
          "removed": false
        }
      ],
      "logsBloom": "0x00000000000000000000000000000000000000000000400000000000000000000000000000020000000000000000000000000000000000000000000000040000000000000000000000000000000000000000000000040000000010000000000000000000000000000002000000000000000000000000000000000000000000000000000000000000000000000000000000000000000000000000000000000000000000000000000000000000000000000000000000010000000000000000000000002000400000000000000080000000000000000000000000000000000040000000000000000000000000000200000000000000000000000000000000000000",
      "type": "0x2",
      "transactionHash": "0x62165361bc68052a09c214bfc769a21f3d6bea23ac7668435c1253e9980d6737",
      "transactionIndex": "0x2",
      "blockHash": "0x0dd7fb2c949cdbbb23d18225affc49c01ed005381808a0d143b883ffd94cb6db",
      "blockNumber": "0x510e019",
      "gasUsed": "0x1cd01",
      "effectiveGasPrice": "0x5f5e100",
      "from": "0x7caf754c934710d7c73bc453654552beca38223f",
      "to": "0x56039fa1a804f614ebd714139f29a3ff4db57ad6",
      "contractAddress": null,
      "gasUsedForL1": "0x15fba",
      "l1BlockNumber": "0x677d2b"
    }
  ],
  "libraries": [],
  "pending": [],
  "returns": {},
  "timestamp": 1727624470,
  "chain": 421614,
  "commit": "11bd0a3"
}