{
  "transactions": [
    {
      "hash": "0x4635c5c7c1eeecb5f6d3ef8aa964fe78823864f7ee9efa6f38e19c8ba220d965",
      "transactionType": "CALL",
      "contractName": "ProductAdministratorRegistry",
      "contractAddress": "0x62254d732c078bf0484ea7dbd61f7f620184f95e",
      "function": "grantRoles(uint256,address,uint256)",
      "arguments": [
        "20376791661718660580662410765070640284736320707848823176694931891585259913409",
        "0xB875AAD94cd568CE0359A73b62Af1614E4ff0901",
        "8"
      ],
      "transaction": {
        "from": "0x7caf754c934710d7c73bc453654552beca38223f",
        "to": "0x62254d732c078bf0484ea7dbd61f7f620184f95e",
        "gas": "0x33d07",
        "value": "0x0",
        "input": "0x67b5e23c2d0cdaf9a1153a9a4b68379c64d4397611a0f3d9fa4015376435f9a64aafc0c1000000000000000000000000b875aad94cd568ce0359a73b62af1614e4ff09010000000000000000000000000000000000000000000000000000000000000008",
        "nonce": "0x2bf",
        "chainId": "0x66eee"
      },
      "additionalContracts": [],
      "isFixedGasLimit": false
    },
    {
      "hash": "0x9c6968c612c81c720c445dcc9b6096b5981347bd820bfb94206acb2706744565",
      "transactionType": "CALL",
      "contractName": "ProductAdministratorRegistry",
      "contractAddress": "0x62254d732c078bf0484ea7dbd61f7f620184f95e",
      "function": "grantRoles(uint256,address,uint256)",
      "arguments": [
        "33953649417576654953995537313820306697747390492794311279756157547821320957282",
        "0xB875AAD94cd568CE0359A73b62Af1614E4ff0901",
        "8"
      ],
      "transaction": {
        "from": "0x7caf754c934710d7c73bc453654552beca38223f",
        "to": "0x62254d732c078bf0484ea7dbd61f7f620184f95e",
        "gas": "0x33d07",
        "value": "0x0",
        "input": "0x67b5e23c4b1115a4946079f8d83c63061f5c49c2f351a054d8dfb284b197f54dbfa8ed62000000000000000000000000b875aad94cd568ce0359a73b62af1614e4ff09010000000000000000000000000000000000000000000000000000000000000008",
        "nonce": "0x2c0",
        "chainId": "0x66eee"
      },
      "additionalContracts": [],
      "isFixedGasLimit": false
    }
  ],
  "receipts": [
    {
      "status": "0x1",
      "cumulativeGasUsed": "0x21038",
      "logs": [
        {
          "address": "0x62254d732c078bf0484ea7dbd61f7f620184f95e",
          "topics": [
            "0xca5f6034cf7475c6c068781b337289c341f3350f95845d98e134a06ce879afa9",
            "0x2d0cdaf9a1153a9a4b68379c64d4397611a0f3d9fa4015376435f9a64aafc0c1",
            "0x000000000000000000000000b875aad94cd568ce0359a73b62af1614e4ff0901"
          ],
          "data": "0x000000000000000000000000000000000000000000000000000000000000000800000000000000000000000000000000000000000000000000000000000000000000000000000000000000000000000000000000000000000000000000000001",
          "blockHash": "0x104e8892f863cf1ce418ef31ccd9f4fe2bab7532199810b85c4b3daa7f015a6d",
          "blockNumber": "0x4852f1c",
          "transactionHash": "0x4635c5c7c1eeecb5f6d3ef8aa964fe78823864f7ee9efa6f38e19c8ba220d965",
          "transactionIndex": "0x1",
          "logIndex": "0x0",
          "removed": false
        }
      ],
      "logsBloom": "0x00000000000000000000100000000000000000000040000000000010000000000000000000000000000000000000000000000000000000000000000000000000000000000000000000000000000000000000000020000000000000100000000000000000020000000000000000000000000000000000010020000000000000000000000000000000000000000000004000000000000000000000000000000000000000000000008000000000000000000000000000000000000000000040000000000000000000000000000000000000000000000000000000000000000000000000000000000000000000000000000000000000000000000000002000000000",
      "type": "0x2",
      "transactionHash": "0x4635c5c7c1eeecb5f6d3ef8aa964fe78823864f7ee9efa6f38e19c8ba220d965",
      "transactionIndex": "0x1",
      "blockHash": "0x104e8892f863cf1ce418ef31ccd9f4fe2bab7532199810b85c4b3daa7f015a6d",
      "blockNumber": "0x4852f1c",
      "gasUsed": "0x21038",
      "effectiveGasPrice": "0x5f5e100",
      "from": "0x7caf754c934710d7c73bc453654552beca38223f",
      "to": "0x62254d732c078bf0484ea7dbd61f7f620184f95e",
      "contractAddress": null,
      "gasUsedForL1": "0x19072",
      "l1BlockNumber": "0x64cfea"
    },
    {
      "status": "0x1",
      "cumulativeGasUsed": "0x3b2998",
      "logs": [
        {
          "address": "0x62254d732c078bf0484ea7dbd61f7f620184f95e",
          "topics": [
            "0xca5f6034cf7475c6c068781b337289c341f3350f95845d98e134a06ce879afa9",
            "0x4b1115a4946079f8d83c63061f5c49c2f351a054d8dfb284b197f54dbfa8ed62",
            "0x000000000000000000000000b875aad94cd568ce0359a73b62af1614e4ff0901"
          ],
          "data": "0x000000000000000000000000000000000000000000000000000000000000000800000000000000000000000000000000000000000000000000000000000000000000000000000000000000000000000000000000000000000000000000000001",
          "blockHash": "0x5267538b3cbee99a87826cd4328339384e6b580b5fe310e5163baa76cb30c729",
          "blockNumber": "0x4852f20",
          "transactionHash": "0x9c6968c612c81c720c445dcc9b6096b5981347bd820bfb94206acb2706744565",
          "transactionIndex": "0x2",
          "logIndex": "0x30",
          "removed": false
        }
      ],
      "logsBloom": "0x00000000000000000000000000000000000000000040000008000000000000000000000000000000000000000000000000000000000000000000000000000000000000000000000000000000000000000000000000000000000000100000000000800020020000000000000000000000000000000000010020000000000000000000000000000000000000000000004000000000000000000000000000000000000000000000008000000000000000000000000000000000000000000040000000000000000000000000000000000000000000000000000000000000000000000000000000000000000000000000000000000000000000000000002000000000",
      "type": "0x2",
      "transactionHash": "0x9c6968c612c81c720c445dcc9b6096b5981347bd820bfb94206acb2706744565",
      "transactionIndex": "0x2",
      "blockHash": "0x5267538b3cbee99a87826cd4328339384e6b580b5fe310e5163baa76cb30c729",
      "blockNumber": "0x4852f20",
      "gasUsed": "0x21038",
      "effectiveGasPrice": "0x5f5e100",
      "from": "0x7caf754c934710d7c73bc453654552beca38223f",
      "to": "0x62254d732c078bf0484ea7dbd61f7f620184f95e",
      "contractAddress": null,
      "gasUsedForL1": "0x19072",
      "l1BlockNumber": "0x64cfea"
    }
  ],
  "libraries": [],
  "pending": [],
  "returns": {},
  "timestamp": 1725113813,
  "chain": 421614,
  "commit": "fcade3f"
}