{
  "transactions": [
    {
      "hash": "0x2b57c985212cb526cc21e69d15ca52c99ebc4e2f228e39adf95574a56d508c58",
      "transactionType": "CALL",
      "contractName": "ProductAdministratorRegistry",
      "contractAddress": "0x62254d732c078bf0484ea7dbd61f7f620184f95e",
      "function": "grantRoles(uint256,address,uint256)",
      "arguments": [
        "20376791661718660580662410765070640284736320707848823176694931891585259913409",
        "0xE494946dc655e72Aa22F51628FC23B4f8921e7A8",
        "12"
      ],
      "transaction": {
        "from": "0x7caf754c934710d7c73bc453654552beca38223f",
        "to": "0x62254d732c078bf0484ea7dbd61f7f620184f95e",
        "gas": "0x12fdfc",
        "value": "0x0",
        "input": "0x67b5e23c2d0cdaf9a1153a9a4b68379c64d4397611a0f3d9fa4015376435f9a64aafc0c1000000000000000000000000e494946dc655e72aa22f51628fc23b4f8921e7a8000000000000000000000000000000000000000000000000000000000000000c",
        "nonce": "0x2cd",
        "chainId": "0x66eee"
      },
      "additionalContracts": [],
      "isFixedGasLimit": false
    },
    {
      "hash": "0xf0729ab9243512c6d0a370f85315684dab7d28c1bfbe0054241163f96313d73b",
      "transactionType": "CALL",
      "contractName": "ProductAdministratorRegistry",
      "contractAddress": "0x62254d732c078bf0484ea7dbd61f7f620184f95e",
      "function": "grantRoles(uint256,address,uint256)",
      "arguments": [
        "33953649417576654953995537313820306697747390492794311279756157547821320957282",
        "0xE494946dc655e72Aa22F51628FC23B4f8921e7A8",
        "12"
      ],
      "transaction": {
        "from": "0x7caf754c934710d7c73bc453654552beca38223f",
        "to": "0x62254d732c078bf0484ea7dbd61f7f620184f95e",
        "gas": "0x12fdfc",
        "value": "0x0",
        "input": "0x67b5e23c4b1115a4946079f8d83c63061f5c49c2f351a054d8dfb284b197f54dbfa8ed62000000000000000000000000e494946dc655e72aa22f51628fc23b4f8921e7a8000000000000000000000000000000000000000000000000000000000000000c",
        "nonce": "0x2ce",
        "chainId": "0x66eee"
      },
      "additionalContracts": [],
      "isFixedGasLimit": false
    }
  ],
  "receipts": [
    {
      "status": "0x1",
      "cumulativeGasUsed": "0x21034e",
      "logs": [
        {
          "address": "0x62254d732c078bf0484ea7dbd61f7f620184f95e",
          "topics": [
            "0xca5f6034cf7475c6c068781b337289c341f3350f95845d98e134a06ce879afa9",
            "0x2d0cdaf9a1153a9a4b68379c64d4397611a0f3d9fa4015376435f9a64aafc0c1",
            "0x000000000000000000000000e494946dc655e72aa22f51628fc23b4f8921e7a8"
          ],
          "data": "0x000000000000000000000000000000000000000000000000000000000000000c00000000000000000000000000000000000000000000000000000000000000000000000000000000000000000000000000000000000000000000000000000001",
          "blockHash": "0x78464889579b0d83b02e0aebd59b6d075f0ec39dee80236ad74e3b1dc15f35cc",
          "blockNumber": "0x498202e",
          "transactionHash": "0x2b57c985212cb526cc21e69d15ca52c99ebc4e2f228e39adf95574a56d508c58",
          "transactionIndex": "0x3",
          "logIndex": "0x2",
          "removed": false
        }
      ],
      "logsBloom": "0x00000000000000000000100000000000000000000040000000000010000000000000000000000000000000000000000000000000000000000000000000000000000000000000000000000000000000000000000020000000000000100000000000000000000000000000000000000000000000000020000020000000000000000000000000000000000000000000004000000000000000000000000000000000000000000000000000000000000000000000000000000000000000000040000000000000000000000000000000000000000000000000000000000000000000000800000000000000000000000000000000000000000000000002002000000000",
      "type": "0x2",
      "transactionHash": "0x2b57c985212cb526cc21e69d15ca52c99ebc4e2f228e39adf95574a56d508c58",
      "transactionIndex": "0x3",
      "blockHash": "0x78464889579b0d83b02e0aebd59b6d075f0ec39dee80236ad74e3b1dc15f35cc",
      "blockNumber": "0x498202e",
      "gasUsed": "0xbbed2",
      "effectiveGasPrice": "0x5f5e100",
      "from": "0x7caf754c934710d7c73bc453654552beca38223f",
      "to": "0x62254d732c078bf0484ea7dbd61f7f620184f95e",
      "contractAddress": null,
      "gasUsedForL1": "0xaf150",
      "l1BlockNumber": "0x652ae2"
    },
    {
      "status": "0x1",
      "cumulativeGasUsed": "0x4185c8",
      "logs": [
        {
          "address": "0x62254d732c078bf0484ea7dbd61f7f620184f95e",
          "topics": [
            "0xca5f6034cf7475c6c068781b337289c341f3350f95845d98e134a06ce879afa9",
            "0x4b1115a4946079f8d83c63061f5c49c2f351a054d8dfb284b197f54dbfa8ed62",
            "0x000000000000000000000000e494946dc655e72aa22f51628fc23b4f8921e7a8"
          ],
          "data": "0x000000000000000000000000000000000000000000000000000000000000000c00000000000000000000000000000000000000000000000000000000000000000000000000000000000000000000000000000000000000000000000000000001",
          "blockHash": "0xe16941bbbedc8e6af777a2dd5eaff135af3f4a86eee08daf0ea36b631d283e6d",
          "blockNumber": "0x4982031",
          "transactionHash": "0xf0729ab9243512c6d0a370f85315684dab7d28c1bfbe0054241163f96313d73b",
          "transactionIndex": "0x3",
          "logIndex": "0x6",
          "removed": false
        }
      ],
      "logsBloom": "0x00000000000000000000000000000000000000000040000008000000000000000000000000000000000000000000000000000000000000000000000000000000000000000000000000000000000000000000000000000000000000100000000000800020000000000000000000000000000000000020000020000000000000000000000000000000000000000000004000000000000000000000000000000000000000000000000000000000000000000000000000000000000000000040000000000000000000000000000000000000000000000000000000000000000000000800000000000000000000000000000000000000000000000002002000000000",
      "type": "0x2",
      "transactionHash": "0xf0729ab9243512c6d0a370f85315684dab7d28c1bfbe0054241163f96313d73b",
      "transactionIndex": "0x3",
      "blockHash": "0xe16941bbbedc8e6af777a2dd5eaff135af3f4a86eee08daf0ea36b631d283e6d",
      "blockNumber": "0x4982031",
      "gasUsed": "0xbbed2",
      "effectiveGasPrice": "0x5f5e100",
      "from": "0x7caf754c934710d7c73bc453654552beca38223f",
      "to": "0x62254d732c078bf0484ea7dbd61f7f620184f95e",
      "contractAddress": null,
      "gasUsedForL1": "0xaf150",
      "l1BlockNumber": "0x652ae2"
    }
  ],
  "libraries": [],
  "pending": [],
  "returns": {},
  "timestamp": 1725435951,
  "chain": 421614,
  "commit": "49d0394"
}