{
  "transactions": [
    {
      "hash": "0xfc6de7b6a4aa98ef09e9af58ec78ae674eeb77a6cd65481bb8c4ea2b68ee85b3",
      "transactionType": "CALL",
      "contractName": null,
      "contractAddress": "0xfe0717cacd6fff3001edd3f360eb2854f54861dd",
      "function": "addOperator(uint256,address)",
      "arguments": [
        "20376791661718660580662410765070640284736320707848823176694931891585259913409",
        "0x01DfD3B1cC545B6cd470aAb1E626b71bF98159c4"
      ],
      "transaction": {
        "from": "0x7caf754c934710d7c73bc453654552beca38223f",
        "to": "0xfe0717cacd6fff3001edd3f360eb2854f54861dd",
        "gas": "0x12319",
        "value": "0x0",
        "input": "0x7d46a7132d0cdaf9a1153a9a4b68379c64d4397611a0f3d9fa4015376435f9a64aafc0c100000000000000000000000001dfd3b1cc545b6cd470aab1e626b71bf98159c4",
        "nonce": "0x27c",
        "chainId": "0x66eee"
      },
      "additionalContracts": [],
      "isFixedGasLimit": false
    },
    {
      "hash": "0xf29b3fea13658b521f53a04a66baa8790c832d544da0bf1ad3031ce9a99a3d71",
      "transactionType": "CALL",
      "contractName": null,
      "contractAddress": "0xfe0717cacd6fff3001edd3f360eb2854f54861dd",
      "function": "addOperator(uint256,address)",
      "arguments": [
        "8073960722007594212918575991467917289452723924551607525414094759273404023523",
        "0x01DfD3B1cC545B6cd470aAb1E626b71bF98159c4"
      ],
      "transaction": {
        "from": "0x7caf754c934710d7c73bc453654552beca38223f",
        "to": "0xfe0717cacd6fff3001edd3f360eb2854f54861dd",
        "gas": "0x12319",
        "value": "0x0",
        "input": "0x7d46a71311d9b327b46d43525821b67e9e75373040aa7f8162b46753eb565065f743c2e300000000000000000000000001dfd3b1cc545b6cd470aab1e626b71bf98159c4",
        "nonce": "0x27d",
        "chainId": "0x66eee"
      },
      "additionalContracts": [],
      "isFixedGasLimit": false
    },
    {
      "hash": "0x113a39b4012803d21846c805502f8d457f7674f0c0fc6a354b3fd89bcf222c30",
      "transactionType": "CALL",
      "contractName": null,
      "contractAddress": "0xfe0717cacd6fff3001edd3f360eb2854f54861dd",
      "function": "addOperator(uint256,address)",
      "arguments": [
        "33953649417576654953995537313820306697747390492794311279756157547821320957282",
        "0x01DfD3B1cC545B6cd470aAb1E626b71bF98159c4"
      ],
      "transaction": {
        "from": "0x7caf754c934710d7c73bc453654552beca38223f",
        "to": "0xfe0717cacd6fff3001edd3f360eb2854f54861dd",
        "gas": "0x12319",
        "value": "0x0",
        "input": "0x7d46a7134b1115a4946079f8d83c63061f5c49c2f351a054d8dfb284b197f54dbfa8ed6200000000000000000000000001dfd3b1cc545b6cd470aab1e626b71bf98159c4",
        "nonce": "0x27e",
        "chainId": "0x66eee"
      },
      "additionalContracts": [],
      "isFixedGasLimit": false
    }
  ],
  "receipts": [
    {
      "status": "0x1",
      "cumulativeGasUsed": "0xdcc5",
      "logs": [
        {
          "address": "0xfe0717cacd6fff3001edd3f360eb2854f54861dd",
          "topics": [
            "0x5bb4f0ce0b45958f2f55e7b3c080e51003e6c6714473adb4de547b03274ca29b",
            "0x2d0cdaf9a1153a9a4b68379c64d4397611a0f3d9fa4015376435f9a64aafc0c1"
          ],
          "data": "0x00000000000000000000000001dfd3b1cc545b6cd470aab1e626b71bf98159c4",
          "blockHash": "0x7b93565451e27502277c7c164583692415c3181d98c0a3366ace466ecaeaf2db",
          "blockNumber": "0x4612ae5",
          "transactionHash": "0xfc6de7b6a4aa98ef09e9af58ec78ae674eeb77a6cd65481bb8c4ea2b68ee85b3",
          "transactionIndex": "0x1",
          "logIndex": "0x0",
          "removed": false
        }
      ],
      "logsBloom": "0x00000000000000000000100000000000000000000000000000000010000000000000000000000000000000000000000000000000000000000000000000000000000000004000000000000000000000000000000020000000000000000000000000000000000000000000000000000000000000000000000000000000000000000000000000000000000000028000000000000000000000000000000000000000000000400000000000000020004000000000000000000000000000000000000000000000000000000000000000000000000000000000000000000000000000000000000000000000000000000000000000000000000000000000000000000000",
      "type": "0x2",
      "transactionHash": "0xfc6de7b6a4aa98ef09e9af58ec78ae674eeb77a6cd65481bb8c4ea2b68ee85b3",
      "transactionIndex": "0x1",
      "blockHash": "0x7b93565451e27502277c7c164583692415c3181d98c0a3366ace466ecaeaf2db",
      "blockNumber": "0x4612ae5",
      "gasUsed": "0xdcc5",
      "effectiveGasPrice": "0x5f5e100",
      "from": "0x7caf754c934710d7c73bc453654552beca38223f",
      "to": "0xfe0717cacd6fff3001edd3f360eb2854f54861dd",
      "contractAddress": null,
      "gasUsedForL1": "0x0",
      "l1BlockNumber": "0x640891"
    },
    {
      "status": "0x1",
      "cumulativeGasUsed": "0xdcc5",
      "logs": [
        {
          "address": "0xfe0717cacd6fff3001edd3f360eb2854f54861dd",
          "topics": [
            "0x5bb4f0ce0b45958f2f55e7b3c080e51003e6c6714473adb4de547b03274ca29b",
            "0x11d9b327b46d43525821b67e9e75373040aa7f8162b46753eb565065f743c2e3"
          ],
          "data": "0x00000000000000000000000001dfd3b1cc545b6cd470aab1e626b71bf98159c4",
          "blockHash": "0xa4b0820d0fdc847ef1a8b57dc32ca7e32549c76dc151c0b266cbbf7039719716",
          "blockNumber": "0x4612ae8",
          "transactionHash": "0xf29b3fea13658b521f53a04a66baa8790c832d544da0bf1ad3031ce9a99a3d71",
          "transactionIndex": "0x1",
          "logIndex": "0x0",
          "removed": false
        }
      ],
      "logsBloom": "0x00000100000000000000000000000000000000000000000000000000000000000000000000000000000000000000000000000000000000000000000000000000000000004000000000000000000000000000080000000000000000000000000000000000000000000000000000000000000000000000000000000000000000000000000000000000000000028000000000000000000000000000000000000000000000400000000000000020004000000000000000000000000000000000000000000000000000000000000800000000000000000000000000000000000000000000000000000000000000000000000000000000000000000000000000000000",
      "type": "0x2",
      "transactionHash": "0xf29b3fea13658b521f53a04a66baa8790c832d544da0bf1ad3031ce9a99a3d71",
      "transactionIndex": "0x1",
      "blockHash": "0xa4b0820d0fdc847ef1a8b57dc32ca7e32549c76dc151c0b266cbbf7039719716",
      "blockNumber": "0x4612ae8",
      "gasUsed": "0xdcc5",
      "effectiveGasPrice": "0x5f5e100",
      "from": "0x7caf754c934710d7c73bc453654552beca38223f",
      "to": "0xfe0717cacd6fff3001edd3f360eb2854f54861dd",
      "contractAddress": null,
      "gasUsedForL1": "0x0",
      "l1BlockNumber": "0x640891"
    },
    {
      "status": "0x1",
      "cumulativeGasUsed": "0x2290fe",
      "logs": [
        {
          "address": "0xfe0717cacd6fff3001edd3f360eb2854f54861dd",
          "topics": [
            "0x5bb4f0ce0b45958f2f55e7b3c080e51003e6c6714473adb4de547b03274ca29b",
            "0x4b1115a4946079f8d83c63061f5c49c2f351a054d8dfb284b197f54dbfa8ed62"
          ],
          "data": "0x00000000000000000000000001dfd3b1cc545b6cd470aab1e626b71bf98159c4",
          "blockHash": "0xb5ef28a2929f788d7fe343be04717423102d6ba3d5b043730377773f39c8498e",
          "blockNumber": "0x4612aeb",
          "transactionHash": "0x113a39b4012803d21846c805502f8d457f7674f0c0fc6a354b3fd89bcf222c30",
          "transactionIndex": "0x2",
          "logIndex": "0x3c",
          "removed": false
        }
      ],
      "logsBloom": "0x00000000000000000000000000000000000000000000000008000000000000000000000000000000000000000000000000000000000000000000000000000000000000004000000000000000000000000000000000000000000000000000000000800020000000000000000000000000000000000000000000000000000000000000000000000000000000028000000000000000000000000000000000000000000000400000000000000020004000000000000000000000000000000000000000000000000000000000000000000000000000000000000000000000000000000000000000000000000000000000000000000000000000000000000000000000",
      "type": "0x2",
      "transactionHash": "0x113a39b4012803d21846c805502f8d457f7674f0c0fc6a354b3fd89bcf222c30",
      "transactionIndex": "0x2",
      "blockHash": "0xb5ef28a2929f788d7fe343be04717423102d6ba3d5b043730377773f39c8498e",
      "blockNumber": "0x4612aeb",
      "gasUsed": "0xdcc5",
      "effectiveGasPrice": "0x5f5e100",
      "from": "0x7caf754c934710d7c73bc453654552beca38223f",
      "to": "0xfe0717cacd6fff3001edd3f360eb2854f54861dd",
      "contractAddress": null,
      "gasUsedForL1": "0x0",
      "l1BlockNumber": "0x640891"
    }
  ],
  "libraries": [],
  "pending": [],
  "returns": {},
  "timestamp": 1724415120,
  "chain": 421614,
  "commit": "db3ccfa"
}