{
  "transactions": [
    {
      "hash": "0xaa186175f19ba14f1298d6d93da5916f9643d684cfddddc3397b6acbf7fd36bf",
      "transactionType": "CALL",
      "contractName": "ProductAdministratorRegistry",
      "contractAddress": "0x62254d732c078bf0484ea7dbd61f7f620184f95e",
      "function": "grantRoles(uint256,address,uint256)",
      "arguments": [
        "20376791661718660580662410765070640284736320707848823176694931891585259913409",
        "0xCf4990bBa0B9A56500501d0c6eF139B92a050352",
        "12"
      ],
      "transaction": {
        "from": "0x7caf754c934710d7c73bc453654552beca38223f",
        "to": "0x62254d732c078bf0484ea7dbd61f7f620184f95e",
        "gas": "0xf21e",
        "value": "0x0",
        "input": "0x67b5e23c2d0cdaf9a1153a9a4b68379c64d4397611a0f3d9fa4015376435f9a64aafc0c1000000000000000000000000cf4990bba0b9a56500501d0c6ef139b92a050352000000000000000000000000000000000000000000000000000000000000000c",
        "nonce": "0x2f7",
        "chainId": "0x66eee"
      },
      "additionalContracts": [],
      "isFixedGasLimit": false
    },
    {
      "hash": "0xb4ed005b3c2e305bad4b97881f74cfd463c3c5922edd75cb281371f49873dc70",
      "transactionType": "CALL",
      "contractName": "ProductAdministratorRegistry",
      "contractAddress": "0x62254d732c078bf0484ea7dbd61f7f620184f95e",
      "function": "grantRoles(uint256,address,uint256)",
      "arguments": [
        "33953649417576654953995537313820306697747390492794311279756157547821320957282",
        "0xCf4990bBa0B9A56500501d0c6eF139B92a050352",
        "12"
      ],
      "transaction": {
        "from": "0x7caf754c934710d7c73bc453654552beca38223f",
        "to": "0x62254d732c078bf0484ea7dbd61f7f620184f95e",
        "gas": "0x1005d",
        "value": "0x0",
        "input": "0x67b5e23c4b1115a4946079f8d83c63061f5c49c2f351a054d8dfb284b197f54dbfa8ed62000000000000000000000000cf4990bba0b9a56500501d0c6ef139b92a050352000000000000000000000000000000000000000000000000000000000000000c",
        "nonce": "0x2f8",
        "chainId": "0x66eee"
      },
      "additionalContracts": [],
      "isFixedGasLimit": false
    }
  ],
  "receipts": [
    {
      "status": "0x1",
      "cumulativeGasUsed": "0xad25",
      "logs": [
        {
          "address": "0x62254d732c078bf0484ea7dbd61f7f620184f95e",
          "topics": [
            "0xca5f6034cf7475c6c068781b337289c341f3350f95845d98e134a06ce879afa9",
            "0x2d0cdaf9a1153a9a4b68379c64d4397611a0f3d9fa4015376435f9a64aafc0c1",
            "0x000000000000000000000000cf4990bba0b9a56500501d0c6ef139b92a050352"
          ],
          "data": "0x000000000000000000000000000000000000000000000000000000000000000c00000000000000000000000000000000000000000000000000000000000000000000000000000000000000000000000000000000000000000000000000000001",
          "blockHash": "0xf53aa6b2fea8bc250cbffe8ff64867342bd1ee5493bb77ebff96e529587a035f",
          "blockNumber": "0x4f35e6b",
          "transactionHash": "0xaa186175f19ba14f1298d6d93da5916f9643d684cfddddc3397b6acbf7fd36bf",
          "transactionIndex": "0x1",
          "logIndex": "0x0",
          "removed": false
        }
      ],
      "logsBloom": "0x00000000000000000000100000000000000000000040000000000010000000000000000000000000000000000000000000000000000000000000000000000000000000000000000000000020000000000000000020000000000000100000000000000000000000000000000000000000000000000000000020000000000000040000000000000000000000000000004000000000000000000000000400000000000000000000000000000000000000000000000000000000000000000040000000000000000000000000000000000000000000000000000000000000000000000000000000000000000000000000000000000000000000000000002000000000",
      "type": "0x2",
      "transactionHash": "0xaa186175f19ba14f1298d6d93da5916f9643d684cfddddc3397b6acbf7fd36bf",
      "transactionIndex": "0x1",
      "blockHash": "0xf53aa6b2fea8bc250cbffe8ff64867342bd1ee5493bb77ebff96e529587a035f",
      "blockNumber": "0x4f35e6b",
      "gasUsed": "0xad25",
      "effectiveGasPrice": "0x5f5e100",
      "from": "0x7caf754c934710d7c73bc453654552beca38223f",
      "to": "0x62254d732c078bf0484ea7dbd61f7f620184f95e",
      "contractAddress": null,
      "gasUsedForL1": "0x2d6b",
      "l1BlockNumber": "0x66d321"
    },
    {
      "status": "0x1",
      "cumulativeGasUsed": "0xb84b",
      "logs": [
        {
          "address": "0x62254d732c078bf0484ea7dbd61f7f620184f95e",
          "topics": [
            "0xca5f6034cf7475c6c068781b337289c341f3350f95845d98e134a06ce879afa9",
            "0x4b1115a4946079f8d83c63061f5c49c2f351a054d8dfb284b197f54dbfa8ed62",
            "0x000000000000000000000000cf4990bba0b9a56500501d0c6ef139b92a050352"
          ],
          "data": "0x000000000000000000000000000000000000000000000000000000000000000c00000000000000000000000000000000000000000000000000000000000000000000000000000000000000000000000000000000000000000000000000000001",
          "blockHash": "0xc6d9aa1d80b16915e971cd8dec1e702a900007076e79e488b3761452368fe509",
          "blockNumber": "0x4f35e70",
          "transactionHash": "0xb4ed005b3c2e305bad4b97881f74cfd463c3c5922edd75cb281371f49873dc70",
          "transactionIndex": "0x1",
          "logIndex": "0x0",
          "removed": false
        }
      ],
      "logsBloom": "0x00000000000000000000000000000000000000000040000008000000000000000000000000000000000000000000000000000000000000000000000000000000000000000000000000000020000000000000000000000000000000100000000000800020000000000000000000000000000000000000000020000000000000040000000000000000000000000000004000000000000000000000000400000000000000000000000000000000000000000000000000000000000000000040000000000000000000000000000000000000000000000000000000000000000000000000000000000000000000000000000000000000000000000000002000000000",
      "type": "0x2",
      "transactionHash": "0xb4ed005b3c2e305bad4b97881f74cfd463c3c5922edd75cb281371f49873dc70",
      "transactionIndex": "0x1",
      "blockHash": "0xc6d9aa1d80b16915e971cd8dec1e702a900007076e79e488b3761452368fe509",
      "blockNumber": "0x4f35e70",
      "gasUsed": "0xb84b",
      "effectiveGasPrice": "0x5f5e100",
      "from": "0x7caf754c934710d7c73bc453654552beca38223f",
      "to": "0x62254d732c078bf0484ea7dbd61f7f620184f95e",
      "contractAddress": null,
      "gasUsedForL1": "0x2da1",
      "l1BlockNumber": "0x66d321"
    }
  ],
  "libraries": [],
  "pending": [],
  "returns": {},
  "timestamp": 1727002544,
  "chain": 421614,
  "commit": "18eeb19"
}