{
  "transactions": [
    {
      "hash": "0xe70b78b2e07dfcb54ff52ec8ab86f7d789cf572f206af336fa17c6d9e7df4f34",
      "transactionType": "CALL",
      "contractName": null,
      "contractAddress": "0xc97d72a8a9d1d2ed326eb04f2d706a21cee2b94e",
      "function": "addOperator(uint256,address)",
      "arguments": [
        "106219508196454080375526586478153583586194937194493887259467424694676997453395",
        "0x04C799736D1aCfA30a0B952c2be5ADF960d5dDaa"
      ],
      "transaction": {
        "from": "0x7caf754c934710d7c73bc453654552beca38223f",
        "to": "0xc97d72a8a9d1d2ed326eb04f2d706a21cee2b94e",
        "gas": "0xcb68b",
        "value": "0x0",
        "input": "0x7d46a713ead61c7340b7cacd78684d4795a617aae5e85cc4b89da34fb05ad55bb6bab65300000000000000000000000004c799736d1acfa30a0b952c2be5adf960d5ddaa",
        "nonce": "0x1db",
        "chainId": "0x66eee"
      },
      "additionalContracts": [],
      "isFixedGasLimit": false
    },
    {
      "hash": "0xd2e9c6a102fc39bfefcd2b054200c8635085f73485e57fa647c695f05b08278d",
      "transactionType": "CALL",
      "contractName": null,
      "contractAddress": "0xc97d72a8a9d1d2ed326eb04f2d706a21cee2b94e",
      "function": "addOperator(uint256,address)",
      "arguments": [
        "108586150798115180574743190405367285583167702751783717273705027881651322809951",
        "0x04C799736D1aCfA30a0B952c2be5ADF960d5dDaa"
      ],
      "transaction": {
        "from": "0x7caf754c934710d7c73bc453654552beca38223f",
        "to": "0xc97d72a8a9d1d2ed326eb04f2d706a21cee2b94e",
        "gas": "0xcb68b",
        "value": "0x0",
        "input": "0x7d46a713f011955832cac97ab1a6534c6b94971325e3be6bfaac1ccae68e3f5c7adcee5f00000000000000000000000004c799736d1acfa30a0b952c2be5adf960d5ddaa",
        "nonce": "0x1dc",
        "chainId": "0x66eee"
      },
      "additionalContracts": [],
      "isFixedGasLimit": false
    },
    {
      "hash": "0xc30201caa0edd3a6435b86c70388f971448297ba2f9e5d7815209075e3b3be61",
      "transactionType": "CALL",
      "contractName": null,
      "contractAddress": "0xc97d72a8a9d1d2ed326eb04f2d706a21cee2b94e",
      "function": "addOperator(uint256,address)",
      "arguments": [
        "61412812549033025435811962204424170589965658763482764336017940556663446417829",
        "0x04C799736D1aCfA30a0B952c2be5ADF960d5dDaa"
      ],
      "transaction": {
        "from": "0x7caf754c934710d7c73bc453654552beca38223f",
        "to": "0xc97d72a8a9d1d2ed326eb04f2d706a21cee2b94e",
        "gas": "0xcb68b",
        "value": "0x0",
        "input": "0x7d46a71387c66b8c60fd984f739f68f1d83229601131914aaf269874c584e179b37db1a500000000000000000000000004c799736d1acfa30a0b952c2be5adf960d5ddaa",
        "nonce": "0x1dd",
        "chainId": "0x66eee"
      },
      "additionalContracts": [],
      "isFixedGasLimit": false
    },
    {
      "hash": "0x5619f8145502d8e6d00b0c0e006c4518ff0e8d7e4d3602db9c6d539aaff22fa0",
      "transactionType": "CALL",
      "contractName": null,
      "contractAddress": "0xc97d72a8a9d1d2ed326eb04f2d706a21cee2b94e",
      "function": "addOperator(uint256,address)",
      "arguments": [
        "20376791661718660580662410765070640284736320707848823176694931891585259913409",
        "0x04C799736D1aCfA30a0B952c2be5ADF960d5dDaa"
      ],
      "transaction": {
        "from": "0x7caf754c934710d7c73bc453654552beca38223f",
        "to": "0xc97d72a8a9d1d2ed326eb04f2d706a21cee2b94e",
        "gas": "0xcb68b",
        "value": "0x0",
        "input": "0x7d46a7132d0cdaf9a1153a9a4b68379c64d4397611a0f3d9fa4015376435f9a64aafc0c100000000000000000000000004c799736d1acfa30a0b952c2be5adf960d5ddaa",
        "nonce": "0x1de",
        "chainId": "0x66eee"
      },
      "additionalContracts": [],
      "isFixedGasLimit": false
    }
  ],
  "receipts": [
    {
      "status": "0x1",
      "cumulativeGasUsed": "0x7c9e2",
      "logs": [
        {
          "address": "0xc97d72a8a9d1d2ed326eb04f2d706a21cee2b94e",
          "topics": [
            "0x5bb4f0ce0b45958f2f55e7b3c080e51003e6c6714473adb4de547b03274ca29b",
            "0xead61c7340b7cacd78684d4795a617aae5e85cc4b89da34fb05ad55bb6bab653"
          ],
          "data": "0x00000000000000000000000004c799736d1acfa30a0b952c2be5adf960d5ddaa",
          "blockHash": "0x949ae6683d857888a7ce23fa76b0436b84481605ad9001cfa65ce4db15d5bd94",
          "blockNumber": "0x395e34b",
          "transactionHash": "0xe70b78b2e07dfcb54ff52ec8ab86f7d789cf572f206af336fa17c6d9e7df4f34",
          "transactionIndex": "0x1",
          "logIndex": "0x0",
          "removed": false
        }
      ],
      "logsBloom": "0x00000000000000000000000000000000000000000000000000000000000000000000000000000000000000000000000000000000000000000000000000000000000000004000000000000000000000000000000000000000000000000000000000000000000000000000000000000000000000000000000000000000000000001000000000000000000000000000000000000000000000000000000800000000000000400000000000000000004000000000000000000000000000020000000000000000000000000000201000000000000000000000000000000000000000000000000400000000000000000000000000000000000000000000000000000000",
      "type": "0x2",
      "transactionHash": "0xe70b78b2e07dfcb54ff52ec8ab86f7d789cf572f206af336fa17c6d9e7df4f34",
      "transactionIndex": "0x1",
      "blockHash": "0x949ae6683d857888a7ce23fa76b0436b84481605ad9001cfa65ce4db15d5bd94",
      "blockNumber": "0x395e34b",
      "gasUsed": "0x7c9e2",
      "effectiveGasPrice": "0x5f5e100",
      "from": "0x7caf754c934710d7c73bc453654552beca38223f",
      "to": "0xc97d72a8a9d1d2ed326eb04f2d706a21cee2b94e",
      "contractAddress": null,
      "gasUsedForL1": "0x6ed1d",
      "l1BlockNumber": "0x5f034b"
    },
    {
      "status": "0x1",
      "cumulativeGasUsed": "0x12a712",
      "logs": [
        {
          "address": "0xc97d72a8a9d1d2ed326eb04f2d706a21cee2b94e",
          "topics": [
            "0x5bb4f0ce0b45958f2f55e7b3c080e51003e6c6714473adb4de547b03274ca29b",
            "0xf011955832cac97ab1a6534c6b94971325e3be6bfaac1ccae68e3f5c7adcee5f"
          ],
          "data": "0x00000000000000000000000004c799736d1acfa30a0b952c2be5adf960d5ddaa",
          "blockHash": "0x2c95271b38659c57603946313533d49034dd256fa14c74273648986c6f87a7c4",
          "blockNumber": "0x395e34e",
          "transactionHash": "0xd2e9c6a102fc39bfefcd2b054200c8635085f73485e57fa647c695f05b08278d",
          "transactionIndex": "0x2",
          "logIndex": "0x3",
          "removed": false
        }
      ],
      "logsBloom": "0x00000000000000000000000000000000000000000000000000000000000000000000000000000000000000000000000000000000000000000000000000000000000000004000000000000000000000000000000000000000000000000000000000000000000000000000000000000000000000000000000000000000000000001800000000000000000000000000000000000000000000000000000800000000000000400000000000000000004000000000000000000000000000400000000000000000000800000000001000000000000000000000000000000000000000000000000000000000000000000000000000000000000000000000000000000000",
      "type": "0x2",
      "transactionHash": "0xd2e9c6a102fc39bfefcd2b054200c8635085f73485e57fa647c695f05b08278d",
      "transactionIndex": "0x2",
      "blockHash": "0x2c95271b38659c57603946313533d49034dd256fa14c74273648986c6f87a7c4",
      "blockNumber": "0x395e34e",
      "gasUsed": "0x7c9e2",
      "effectiveGasPrice": "0x5f5e100",
      "from": "0x7caf754c934710d7c73bc453654552beca38223f",
      "to": "0xc97d72a8a9d1d2ed326eb04f2d706a21cee2b94e",
      "contractAddress": null,
      "gasUsedForL1": "0x6ed1d",
      "l1BlockNumber": "0x5f034b"
    },
    {
      "status": "0x1",
      "cumulativeGasUsed": "0x7c9e2",
      "logs": [
        {
          "address": "0xc97d72a8a9d1d2ed326eb04f2d706a21cee2b94e",
          "topics": [
            "0x5bb4f0ce0b45958f2f55e7b3c080e51003e6c6714473adb4de547b03274ca29b",
            "0x87c66b8c60fd984f739f68f1d83229601131914aaf269874c584e179b37db1a5"
          ],
          "data": "0x00000000000000000000000004c799736d1acfa30a0b952c2be5adf960d5ddaa",
          "blockHash": "0xaee17555bad05a3fcf1a6a4c386c273822217e492deb8a386edaf44573084517",
          "blockNumber": "0x395e351",
          "transactionHash": "0xc30201caa0edd3a6435b86c70388f971448297ba2f9e5d7815209075e3b3be61",
          "transactionIndex": "0x1",
          "logIndex": "0x0",
          "removed": false
        }
      ],
      "logsBloom": "0x00000000000000000000000000000000000000000000000000000000000000000000000100000000000000000000000000000000000000000000000000000000000000004000000000000000000000000000000000000000000000000000000000000000000000000000000000000000000000000000000000000000000000001000000000000000000000000000000000000000000000004000000800000000000000400000000000000000004000000000000000000008000000000000000000000000000000000000001000000000000000000000000000000000000000000000000000000000000000000000000000000000000000000000000000000000",
      "type": "0x2",
      "transactionHash": "0xc30201caa0edd3a6435b86c70388f971448297ba2f9e5d7815209075e3b3be61",
      "transactionIndex": "0x1",
      "blockHash": "0xaee17555bad05a3fcf1a6a4c386c273822217e492deb8a386edaf44573084517",
      "blockNumber": "0x395e351",
      "gasUsed": "0x7c9e2",
      "effectiveGasPrice": "0x5f5e100",
      "from": "0x7caf754c934710d7c73bc453654552beca38223f",
      "to": "0xc97d72a8a9d1d2ed326eb04f2d706a21cee2b94e",
      "contractAddress": null,
      "gasUsedForL1": "0x6ed1d",
      "l1BlockNumber": "0x5f034b"
    },
    {
      "status": "0x1",
      "cumulativeGasUsed": "0x7c9e2",
      "logs": [
        {
          "address": "0xc97d72a8a9d1d2ed326eb04f2d706a21cee2b94e",
          "topics": [
            "0x5bb4f0ce0b45958f2f55e7b3c080e51003e6c6714473adb4de547b03274ca29b",
            "0x2d0cdaf9a1153a9a4b68379c64d4397611a0f3d9fa4015376435f9a64aafc0c1"
          ],
          "data": "0x00000000000000000000000004c799736d1acfa30a0b952c2be5adf960d5ddaa",
          "blockHash": "0x1be3fa9864f58609d098de0a6a70f83c0c7f8b932d4f55409da886f8bc7b8526",
          "blockNumber": "0x395e354",
          "transactionHash": "0x5619f8145502d8e6d00b0c0e006c4518ff0e8d7e4d3602db9c6d539aaff22fa0",
          "transactionIndex": "0x1",
          "logIndex": "0x0",
          "removed": false
        }
      ],
      "logsBloom": "0x00000000000000000000100000000000000000000000000000000010000000000000000000000000000000000000000000000000000000000000000000000000000000004000000000000000000000000000000020000000000000000000000000000000000000000000000000000000000000000000000000000000000000001000000000000000000000000000000000000000000000000000000800000000000000400000000000000000004000000000000000000000000000000000000000000000000000000000001000000000000000000000000000000000000000000000000000000000000000000000000000000000000000000000000000000000",
      "type": "0x2",
      "transactionHash": "0x5619f8145502d8e6d00b0c0e006c4518ff0e8d7e4d3602db9c6d539aaff22fa0",
      "transactionIndex": "0x1",
      "blockHash": "0x1be3fa9864f58609d098de0a6a70f83c0c7f8b932d4f55409da886f8bc7b8526",
      "blockNumber": "0x395e354",
      "gasUsed": "0x7c9e2",
      "effectiveGasPrice": "0x5f5e100",
      "from": "0x7caf754c934710d7c73bc453654552beca38223f",
      "to": "0xc97d72a8a9d1d2ed326eb04f2d706a21cee2b94e",
      "contractAddress": null,
      "gasUsedForL1": "0x6ed1d",
      "l1BlockNumber": "0x5f034b"
    }
  ],
  "libraries": [],
  "pending": [],
  "returns": {},
  "timestamp": 1719854745,
  "chain": 421614,
  "commit": "46bb2de"
}