{
  "transactions": [
    {
      "hash": "0x7e025d1054cfb43b98ee22b8b7401b62bb788335b422d61bd88b4f80e6dbcf58",
      "transactionType": "CALL",
      "contractName": null,
      "contractAddress": "0x4b8350e6291063bf14ca1e4379147a3bd23714cb",
      "function": "grantRoles(address,uint256)",
      "arguments": [
        "0x35F3e191523C8701aD315551dCbDcC5708efD7ec",
        "2"
      ],
      "transaction": {
        "from": "0x7caf754c934710d7c73bc453654552beca38223f",
        "to": "0x4b8350e6291063bf14ca1e4379147a3bd23714cb",
        "gas": "0x2bc0a",
        "value": "0x0",
        "input": "0x1c10893f00000000000000000000000035f3e191523c8701ad315551dcbdcc5708efd7ec0000000000000000000000000000000000000000000000000000000000000002",
        "nonce": "0x244",
        "chainId": "0x66eee"
      },
      "additionalContracts": [],
      "isFixedGasLimit": false
    }
  ],
  "receipts": [
    {
      "status": "0x1",
      "cumulativeGasUsed": "0x1cb81",
      "logs": [
        {
          "address": "0x4b8350e6291063bf14ca1e4379147a3bd23714cb",
          "topics": [
            "0x715ad5ce61fc9595c7b415289d59cf203f23a94fa06f04af7e489a0a76e1fe26",
            "0x00000000000000000000000035f3e191523c8701ad315551dcbdcc5708efd7ec",
            "0x0000000000000000000000000000000000000000000000000000000000000002"
          ],
          "data": "0x",
          "blockHash": "0xe4ca25e74fb1ecb726e2e593c525c1b1405d1e3b599bcc49cdc1e69621e6ac45",
          "blockNumber": "0x3d4a4b2",
          "transactionHash": "0x7e025d1054cfb43b98ee22b8b7401b62bb788335b422d61bd88b4f80e6dbcf58",
          "transactionIndex": "0x1",
          "logIndex": "0x0",
          "removed": false
        }
      ],
      "logsBloom": "0x04000000000000000000000000000000000000000000000000000000000000040000400000000000000000000000000000000000001000000000000000000000000000000000000000000000000000000000000000000000000000000000000000000000000000000002000000000000000000000000000000000000000000000000000000000000000000000000000000000000000000000000000000000000000000000000000000000100000000000000000000010000000000000000000000002000400000000000000080000000000000000000000000000000000000000000000000000000000000000200000000000000008000000000000000000000",
      "type": "0x2",
      "transactionHash": "0x7e025d1054cfb43b98ee22b8b7401b62bb788335b422d61bd88b4f80e6dbcf58",
      "transactionIndex": "0x1",
      "blockHash": "0xe4ca25e74fb1ecb726e2e593c525c1b1405d1e3b599bcc49cdc1e69621e6ac45",
      "blockNumber": "0x3d4a4b2",
      "gasUsed": "0x1cb81",
      "effectiveGasPrice": "0x5f5e100",
      "from": "0x7caf754c934710d7c73bc453654552beca38223f",
      "to": "0x4b8350e6291063bf14ca1e4379147a3bd23714cb",
      "contractAddress": null,
      "gasUsedForL1": "0x1107e",
      "l1BlockNumber": "0x6074ab"
    }
  ],
  "libraries": [],
  "pending": [],
  "returns": {},
  "timestamp": 1721135053,
  "chain": 421614,
  "commit": "3bfe1da"
}