{
  "transactions": [
    {
      "hash": "0xed92d46fb75eb5218189151880b6c6e42a44e727bef9a7beda5a1bd85348d418",
      "transactionType": "CALL",
      "contractName": "InteractionDelegator",
      "contractAddress": "0x4b8350e6291063bf14ca1e4379147a3bd23714cb",
      "function": "grantRoles(address,uint256)",
      "arguments": [
        "0xDd2926b47A2ea470632a45143CB2b45d4b1B60eC",
        "2"
      ],
      "transaction": {
        "from": "0x7caf754c934710d7c73bc453654552beca38223f",
        "to": "0x4b8350e6291063bf14ca1e4379147a3bd23714cb",
        "gas": "0x5aa1d",
        "value": "0x0",
        "input": "0x1c10893f000000000000000000000000dd2926b47a2ea470632a45143cb2b45d4b1b60ec0000000000000000000000000000000000000000000000000000000000000002",
        "nonce": "0x2dd",
        "chainId": "0x66eee"
      },
      "additionalContracts": [],
      "isFixedGasLimit": false
    }
  ],
  "receipts": [
    {
      "status": "0x1",
      "cumulativeGasUsed": "0x5ed08e",
      "logs": [
        {
          "address": "0x4b8350e6291063bf14ca1e4379147a3bd23714cb",
          "topics": [
            "0x715ad5ce61fc9595c7b415289d59cf203f23a94fa06f04af7e489a0a76e1fe26",
            "0x000000000000000000000000dd2926b47a2ea470632a45143cb2b45d4b1b60ec",
            "0x0000000000000000000000000000000000000000000000000000000000000002"
          ],
          "data": "0x",
          "blockHash": "0x1f71c40bacb892d48b3ff51986e5c3dd5dac8b93d4a73ff9f533cd73834c98ea",
          "blockNumber": "0x499e1de",
          "transactionHash": "0xed92d46fb75eb5218189151880b6c6e42a44e727bef9a7beda5a1bd85348d418",
          "transactionIndex": "0x4",
          "logIndex": "0x23",
          "removed": false
        }
      ],
      "logsBloom": "0x04000000000000000000000000000000000000000000000000000000000000040040400000000000000000000000000000000000001000000000000000000000000000000000000000000000000000000000000000000000000000000000000000000000000000000000000000000000000000000000000000000000000000000000000000000000000000000000000000000004000000000000000000000000000000000000000000000100000000000000000000010000000000000000000000002000400000000000000000000000000000000000000000000000000000000000000000000000000000000000000000000000008000000000000000000000",
      "type": "0x2",
      "transactionHash": "0xed92d46fb75eb5218189151880b6c6e42a44e727bef9a7beda5a1bd85348d418",
      "transactionIndex": "0x4",
      "blockHash": "0x1f71c40bacb892d48b3ff51986e5c3dd5dac8b93d4a73ff9f533cd73834c98ea",
      "blockNumber": "0x499e1de",
      "gasUsed": "0x3897c",
      "effectiveGasPrice": "0x5f5e100",
      "from": "0x7caf754c934710d7c73bc453654552beca38223f",
      "to": "0x4b8350e6291063bf14ca1e4379147a3bd23714cb",
      "contractAddress": null,
      "gasUsedForL1": "0x2ce79",
      "l1BlockNumber": "0x653291"
    }
  ],
  "libraries": [],
  "pending": [],
  "returns": {},
  "timestamp": 1725464729,
  "chain": 421614,
  "commit": "6b2a32c"
}