{
  "transactions": [
    {
      "hash": "0x040d8cd80e72cef363ea976e9389b3a4361e237df86f400274149839e591f99a",
      "transactionType": "CALL",
      "contractName": "InteractionDelegator",
      "contractAddress": "0x4b8350e6291063bf14ca1e4379147a3bd23714cb",
      "function": "grantRoles(address,uint256)",
      "arguments": [
        "0x0612994c389F253f22AF91B63DD622049b7D42C5",
        "2"
      ],
      "transaction": {
        "from": "0x7caf754c934710d7c73bc453654552beca38223f",
        "to": "0x4b8350e6291063bf14ca1e4379147a3bd23714cb",
        "gas": "0x2542f",
        "value": "0x0",
        "input": "0x1c10893f0000000000000000000000000612994c389f253f22af91b63dd622049b7d42c50000000000000000000000000000000000000000000000000000000000000002",
        "nonce": "0x2fb",
        "chainId": "0x66eee"
      },
      "additionalContracts": [],
      "isFixedGasLimit": false
    }
  ],
  "receipts": [
    {
      "status": "0x1",
      "cumulativeGasUsed": "0x17012",
      "logs": [
        {
          "address": "0x4b8350e6291063bf14ca1e4379147a3bd23714cb",
          "topics": [
            "0x715ad5ce61fc9595c7b415289d59cf203f23a94fa06f04af7e489a0a76e1fe26",
            "0x0000000000000000000000000612994c389f253f22af91b63dd622049b7d42c5",
            "0x0000000000000000000000000000000000000000000000000000000000000002"
          ],
          "data": "0x",
          "blockHash": "0x09ac52d28eff8237be9d10dc091cd9c729e834af54c84ff10c8789a7c3474f64",
          "blockNumber": "0x50626f4",
          "transactionHash": "0x040d8cd80e72cef363ea976e9389b3a4361e237df86f400274149839e591f99a",
          "transactionIndex": "0x1",
          "logIndex": "0x0",
          "removed": false
        }
      ],
      "logsBloom": "0x04000000000000000000000000000000000000000000000000000000000000040000400000000000000000010000000000000000001000000000000000000000000000000000000000000000000000000000000000000000000000000000000000000000000000000000000000000000000000000000000000000000000000000000000000000000000000000000000000000000000000001000000000000000000000000000000000200100000000000000000000010000000000000000000000002000400000000000000000000000000000000000000000000000000000000000000000000000000000000000000000000000008000000000000000000000",
      "type": "0x2",
      "transactionHash": "0x040d8cd80e72cef363ea976e9389b3a4361e237df86f400274149839e591f99a",
      "transactionIndex": "0x1",
      "blockHash": "0x09ac52d28eff8237be9d10dc091cd9c729e834af54c84ff10c8789a7c3474f64",
      "blockNumber": "0x50626f4",
      "gasUsed": "0x17012",
      "effectiveGasPrice": "0x258c9450",
      "from": "0x7caf754c934710d7c73bc453654552beca38223f",
      "to": "0x4b8350e6291063bf14ca1e4379147a3bd23714cb",
      "contractAddress": null,
      "gasUsedForL1": "0xb50f",
      "l1BlockNumber": "0x6734ac"
    }
  ],
  "libraries": [],
  "pending": [],
  "returns": {},
  "timestamp": 1727362570,
  "chain": 421614,
  "commit": "18eeb19"
}