{
  "transactions": [
    {
      "hash": "0x16f3d14435943d3aa9252826c573ad529d821050ffb9c69c96de4eb728cb092f",
      "transactionType": "CALL",
      "contractName": "InteractionDelegator",
      "contractAddress": "0x4b8350e6291063bf14ca1e4379147a3bd23714cb",
      "function": "grantRoles(address,uint256)",
      "arguments": [
        "0x0612994c389F253f22AF91B63DD622049b7D42C5",
        "2"
      ],
      "transaction": {
        "from": "0x7caf754c934710d7c73bc453654552beca38223f",
        "to": "0x4b8350e6291063bf14ca1e4379147a3bd23714cb",
        "gas": "0x2d5ba",
        "value": "0x0",
        "input": "0x1c10893f0000000000000000000000000612994c389f253f22af91b63dd622049b7d42c50000000000000000000000000000000000000000000000000000000000000002",
        "nonce": "0x30c",
        "chainId": "0x66eee"
      },
      "additionalContracts": [],
      "isFixedGasLimit": false
    }
  ],
  "receipts": [
    {
      "status": "0x1",
      "cumulativeGasUsed": "0x1ca41",
      "logs": [
        {
          "address": "0x4b8350e6291063bf14ca1e4379147a3bd23714cb",
          "topics": [
            "0x715ad5ce61fc9595c7b415289d59cf203f23a94fa06f04af7e489a0a76e1fe26",
            "0x0000000000000000000000000612994c389f253f22af91b63dd622049b7d42c5",
            "0x0000000000000000000000000000000000000000000000000000000000000002"
          ],
          "data": "0x",
          "blockHash": "0x9f8cf35015c2d91cd53df530e605929cefd24916390761ba5f7d9f635b56518f",
          "blockNumber": "0x50d87a0",
          "transactionHash": "0x16f3d14435943d3aa9252826c573ad529d821050ffb9c69c96de4eb728cb092f",
          "transactionIndex": "0x1",
          "logIndex": "0x0",
          "removed": false
        }
      ],
      "logsBloom": "0x04000000000000000000000000000000000000000000000000000000000000040000400000000000000000010000000000000000001000000000000000000000000000000000000000000000000000000000000000000000000000000000000000000000000000000000000000000000000000000000000000000000000000000000000000000000000000000000000000000000000000001000000000000000000000000000000000200100000000000000000000010000000000000000000000002000400000000000000000000000000000000000000000000000000000000000000000000000000000000000000000000000008000000000000000000000",
      "type": "0x2",
      "transactionHash": "0x16f3d14435943d3aa9252826c573ad529d821050ffb9c69c96de4eb728cb092f",
      "transactionIndex": "0x1",
      "blockHash": "0x9f8cf35015c2d91cd53df530e605929cefd24916390761ba5f7d9f635b56518f",
      "blockNumber": "0x50d87a0",
      "gasUsed": "0x1ca41",
      "effectiveGasPrice": "0x5f5e100",
      "from": "0x7caf754c934710d7c73bc453654552beca38223f",
      "to": "0x4b8350e6291063bf14ca1e4379147a3bd23714cb",
      "contractAddress": null,
      "gasUsedForL1": "0x15cfa",
      "l1BlockNumber": "0x6762d8"
    }
  ],
  "libraries": [],
  "pending": [],
  "returns": {},
  "timestamp": 1727533384,
  "chain": 421614,
  "commit": "62127c4"
}