{
  "transactions": [
    {
      "hash": "0x06996f5a94a099608143a8a8a426d0210ec22e463c6e5539885c67ab57408137",
      "transactionType": "CALL",
      "contractName": "InteractionDelegator",
      "contractAddress": "0x4b8350e6291063bf14ca1e4379147a3bd23714cb",
      "function": "grantRoles(address,uint256)",
      "arguments": [
        "0x0612994c389F253f22AF91B63DD622049b7D42C5",
        "2"
      ],
      "transaction": {
        "from": "0x7caf754c934710d7c73bc453654552beca38223f",
        "to": "0x4b8350e6291063bf14ca1e4379147a3bd23714cb",
        "gas": "0x2da4f",
        "value": "0x0",
        "input": "0x1c10893f0000000000000000000000000612994c389f253f22af91b63dd622049b7d42c50000000000000000000000000000000000000000000000000000000000000002",
        "nonce": "0x322",
        "chainId": "0x66eee"
      },
      "additionalContracts": [],
      "isFixedGasLimit": false
    },
    {
      "hash": "0xc32e9f5a3e70d8a091dea8206ca7af231cfa79fce53e9de8a363f9fd21d4e05e",
      "transactionType": "CALL",
      "contractName": "InteractionDelegator",
      "contractAddress": "0x4b8350e6291063bf14ca1e4379147a3bd23714cb",
      "function": "grantRoles(address,uint256)",
      "arguments": [
        "0xef33C59086808F63733C3b92d273930772466b08",
        "2"
      ],
      "transaction": {
        "from": "0x7caf754c934710d7c73bc453654552beca38223f",
        "to": "0x4b8350e6291063bf14ca1e4379147a3bd23714cb",
        "gas": "0x34601",
        "value": "0x0",
        "input": "0x1c10893f000000000000000000000000ef33c59086808f63733c3b92d273930772466b080000000000000000000000000000000000000000000000000000000000000002",
        "nonce": "0x323",
        "chainId": "0x66eee"
      },
      "additionalContracts": [],
      "isFixedGasLimit": false
    }
  ],
  "receipts": [
    {
      "status": "0x1",
      "cumulativeGasUsed": "0x1cd01",
      "logs": [
        {
          "address": "0x4b8350e6291063bf14ca1e4379147a3bd23714cb",
          "topics": [
            "0x715ad5ce61fc9595c7b415289d59cf203f23a94fa06f04af7e489a0a76e1fe26",
            "0x0000000000000000000000000612994c389f253f22af91b63dd622049b7d42c5",
            "0x0000000000000000000000000000000000000000000000000000000000000002"
          ],
          "data": "0x",
          "blockHash": "0xab7914d04d9e1bf0fb38172d509fa0b6cd5756b9c6591ab3edb9ab3df0d563f9",
          "blockNumber": "0x510e0bb",
          "transactionHash": "0x06996f5a94a099608143a8a8a426d0210ec22e463c6e5539885c67ab57408137",
          "transactionIndex": "0x1",
          "logIndex": "0x0",
          "removed": false
        }
      ],
      "logsBloom": "0x04000000000000000000000000000000000000000000000000000000000000040000400000000000000000010000000000000000001000000000000000000000000000000000000000000000000000000000000000000000000000000000000000000000000000000000000000000000000000000000000000000000000000000000000000000000000000000000000000000000000000001000000000000000000000000000000000200100000000000000000000010000000000000000000000002000400000000000000000000000000000000000000000000000000000000000000000000000000000000000000000000000008000000000000000000000",
      "type": "0x2",
      "transactionHash": "0x06996f5a94a099608143a8a8a426d0210ec22e463c6e5539885c67ab57408137",
      "transactionIndex": "0x1",
      "blockHash": "0xab7914d04d9e1bf0fb38172d509fa0b6cd5756b9c6591ab3edb9ab3df0d563f9",
      "blockNumber": "0x510e0bb",
      "gasUsed": "0x1cd01",
      "effectiveGasPrice": "0x5f5e100",
      "from": "0x7caf754c934710d7c73bc453654552beca38223f",
      "to": "0x4b8350e6291063bf14ca1e4379147a3bd23714cb",
      "contractAddress": null,
      "gasUsedForL1": "0x15fba",
      "l1BlockNumber": "0x677d2e"
    },
    {
      "status": "0x1",
      "cumulativeGasUsed": "0x21abd",
      "logs": [
        {
          "address": "0x4b8350e6291063bf14ca1e4379147a3bd23714cb",
          "topics": [
            "0x715ad5ce61fc9595c7b415289d59cf203f23a94fa06f04af7e489a0a76e1fe26",
            "0x000000000000000000000000ef33c59086808f63733c3b92d273930772466b08",
            "0x0000000000000000000000000000000000000000000000000000000000000002"
          ],
          "data": "0x",
          "blockHash": "0x06f11542411dea39362349bb29a9e0e8de9ee785dc5952605eea619b42cde622",
          "blockNumber": "0x510e0bf",
          "transactionHash": "0xc32e9f5a3e70d8a091dea8206ca7af231cfa79fce53e9de8a363f9fd21d4e05e",
          "transactionIndex": "0x1",
          "logIndex": "0x0",
          "removed": false
        }
      ],
      "logsBloom": "0x04000000000000000000000000000000000000000000000000000000000000440000400000000000000000000000000000000000001000000000000000000000000000000000000000000000000000000000000000000000000000000000000000000000000000000000000000000000000000000000000000000000000000000000000000000000000000000000000100000000000000000000000000000000000000000000000000000100000000000000000000010000000000000000000000002000400000000000000000000008000000000000000000000000000000000000000000000000000000000000000000000000008000000000000000000000",
      "type": "0x2",
      "transactionHash": "0xc32e9f5a3e70d8a091dea8206ca7af231cfa79fce53e9de8a363f9fd21d4e05e",
      "transactionIndex": "0x1",
      "blockHash": "0x06f11542411dea39362349bb29a9e0e8de9ee785dc5952605eea619b42cde622",
      "blockNumber": "0x510e0bf",
      "gasUsed": "0x21abd",
      "effectiveGasPrice": "0x5f5e100",
      "from": "0x7caf754c934710d7c73bc453654552beca38223f",
      "to": "0x4b8350e6291063bf14ca1e4379147a3bd23714cb",
      "contractAddress": null,
      "gasUsedForL1": "0x15fba",
      "l1BlockNumber": "0x677d2f"
    }
  ],
  "libraries": [],
  "pending": [],
  "returns": {},
  "timestamp": 1727624541,
  "chain": 421614,
  "commit": "11bd0a3"
}