{
  "transactions": [
    {
      "hash": "0xf1fd99de010e3590c0b68021492fd07105769c88bbac6bd866dfae2a674bd4e9",
      "transactionType": "CALL",
      "contractName": "InteractionDelegator",
      "contractAddress": "0x4b8350e6291063bf14ca1e4379147a3bd23714cb",
      "function": "grantRoles(address,uint256)",
      "arguments": [
        "0x35F3e191523C8701aD315551dCbDcC5708efD7ec",
        "2"
      ],
      "transaction": {
        "from": "0x7caf754c934710d7c73bc453654552beca38223f",
        "to": "0x4b8350e6291063bf14ca1e4379147a3bd23714cb",
        "gas": "0xb3f6",
        "value": "0x0",
        "input": "0x1c10893f00000000000000000000000035f3e191523c8701ad315551dcbdcc5708efd7ec0000000000000000000000000000000000000000000000000000000000000002",
        "nonce": "0x29a",
        "chainId": "0x66eee"
      },
      "additionalContracts": [],
      "isFixedGasLimit": false
    }
  ],
  "receipts": [
    {
      "status": "0x1",
      "cumulativeGasUsed": "0x1dddd1",
      "logs": [
        {
          "address": "0x4b8350e6291063bf14ca1e4379147a3bd23714cb",
          "topics": [
            "0x715ad5ce61fc9595c7b415289d59cf203f23a94fa06f04af7e489a0a76e1fe26",
            "0x00000000000000000000000035f3e191523c8701ad315551dcbdcc5708efd7ec",
            "0x0000000000000000000000000000000000000000000000000000000000000002"
          ],
          "data": "0x",
          "blockHash": "0x5f274b3f6619785f1bbd4e97ffab1cc1113f42b5d26995b0b9b37f98b048aaa2",
          "blockNumber": "0x46f4359",
          "transactionHash": "0xf1fd99de010e3590c0b68021492fd07105769c88bbac6bd866dfae2a674bd4e9",
          "transactionIndex": "0x2",
          "logIndex": "0x35",
          "removed": false
        }
      ],
      "logsBloom": "0x04000000000000000000000000000000000000000000000000000000000000040000400000000000000000000000000000000000001000000000000000000000000000000000000000000000000000000000000000000000000000000000000000000000000000000002000000000000000000000000000000000000000000000000000000000000000000000000000000000000000000000000000000000000000000000000000000000100000000000000000000010000000000000000000000002000400000000000000080000000000000000000000000000000000000000000000000000000000000000200000000000000008000000000000000000000",
      "type": "0x2",
      "transactionHash": "0xf1fd99de010e3590c0b68021492fd07105769c88bbac6bd866dfae2a674bd4e9",
      "transactionIndex": "0x2",
      "blockHash": "0x5f274b3f6619785f1bbd4e97ffab1cc1113f42b5d26995b0b9b37f98b048aaa2",
      "blockNumber": "0x46f4359",
      "gasUsed": "0x81d8",
      "effectiveGasPrice": "0x5f5e100",
      "from": "0x7caf754c934710d7c73bc453654552beca38223f",
      "to": "0x4b8350e6291063bf14ca1e4379147a3bd23714cb",
      "contractAddress": null,
      "gasUsedForL1": "0x1491",
      "l1BlockNumber": "0x645765"
    }
  ],
  "libraries": [],
  "pending": [],
  "returns": {},
  "timestamp": 1724690414,
  "chain": 421614,
  "commit": "c2ca663"
}