{
  "transactions": [
    {
      "hash": "0x4788a0bc5205e47af84723c726b974df49cef73adfd1cf8c3090920eee8461b7",
      "transactionType": "CALL",
      "contractName": null,
      "contractAddress": "0x3c4f3e8a3977f00647b516cd1aef3f964c009ae6",
      "function": "grantRoles(address,uint256)",
      "arguments": [
        "0x35F3e191523C8701aD315551dCbDcC5708efD7ec",
        "2"
      ],
      "transaction": {
        "from": "0x7caf754c934710d7c73bc453654552beca38223f",
        "to": "0x3c4f3e8a3977f00647b516cd1aef3f964c009ae6",
        "gas": "0x26f5e",
        "value": "0x0",
        "input": "0x1c10893f00000000000000000000000035f3e191523c8701ad315551dcbdcc5708efd7ec0000000000000000000000000000000000000000000000000000000000000002",
        "nonce": "0x23f",
        "chainId": "0x66eee"
      },
      "additionalContracts": [],
      "isFixedGasLimit": false
    }
  ],
  "receipts": [
    {
      "status": "0x1",
      "cumulativeGasUsed": "0x22ae37",
      "logs": [
        {
          "address": "0x3c4f3e8a3977f00647b516cd1aef3f964c009ae6",
          "topics": [
            "0x715ad5ce61fc9595c7b415289d59cf203f23a94fa06f04af7e489a0a76e1fe26",
            "0x00000000000000000000000035f3e191523c8701ad315551dcbdcc5708efd7ec",
            "0x0000000000000000000000000000000000000000000000000000000000000002"
          ],
          "data": "0x",
          "blockHash": "0x9bd3fbe7f0531bd20f399e2527a6419b8f1c0f4bf56ff18cf7c000f22edb9a27",
          "blockNumber": "0x3d46642",
          "transactionHash": "0x4788a0bc5205e47af84723c726b974df49cef73adfd1cf8c3090920eee8461b7",
          "transactionIndex": "0x3",
          "logIndex": "0x1b",
          "removed": false
        }
      ],
      "logsBloom": "0x04000000000000000000000000000000000000000000000000000000000000000000000000000001000000000000000000000000004000000000000000000000000000000000000000000000000000000000000000000000000000000000000000000000000000000002000000000000000000000000000000000000000000000000000000000000000000000000000000000000000000000000400000000000000000000000000000000100000000000000000000010000000000000000000000002000400000000000000080000000000000000000000000000000000000000000000000000000000000000200000000000000008000000000000000000000",
      "type": "0x2",
      "transactionHash": "0x4788a0bc5205e47af84723c726b974df49cef73adfd1cf8c3090920eee8461b7",
      "transactionIndex": "0x3",
      "blockHash": "0x9bd3fbe7f0531bd20f399e2527a6419b8f1c0f4bf56ff18cf7c000f22edb9a27",
      "blockNumber": "0x3d46642",
      "gasUsed": "0x19d61",
      "effectiveGasPrice": "0x5f5e100",
      "from": "0x7caf754c934710d7c73bc453654552beca38223f",
      "to": "0x3c4f3e8a3977f00647b516cd1aef3f964c009ae6",
      "contractAddress": null,
      "gasUsedForL1": "0xe264",
      "l1BlockNumber": "0x607344"
    }
  ],
  "libraries": [],
  "pending": [],
  "returns": {},
  "timestamp": 1721130017,
  "chain": 421614,
  "commit": "3bfe1da"
}