{
  "transactions": [
    {
      "hash": "0xcc0f1bf4390f1f73e1d93af7e64b78479734fb2c1bb3c35e2ceafe10b07fd6aa",
      "transactionType": "CALL",
      "contractName": null,
      "contractAddress": "0x886dca033838236b3851c90b79c67aa77c9ba4c0",
      "function": "grantRoles(address,uint256)",
      "arguments": [
        "0x35F3e191523C8701aD315551dCbDcC5708efD7ec",
        "2"
      ],
      "transaction": {
        "from": "0x7caf754c934710d7c73bc453654552beca38223f",
        "to": "0x886dca033838236b3851c90b79c67aa77c9ba4c0",
        "gas": "0x54dde",
        "value": "0x0",
        "input": "0x1c10893f00000000000000000000000035f3e191523c8701ad315551dcbdcc5708efd7ec0000000000000000000000000000000000000000000000000000000000000002",
        "nonce": "0x23c",
        "chainId": "0x66eee"
      },
      "additionalContracts": [],
      "isFixedGasLimit": false
    }
  ],
  "receipts": [
    {
      "status": "0x1",
      "cumulativeGasUsed": "0x35236",
      "logs": [
        {
          "address": "0x886dca033838236b3851c90b79c67aa77c9ba4c0",
          "topics": [
            "0x715ad5ce61fc9595c7b415289d59cf203f23a94fa06f04af7e489a0a76e1fe26",
            "0x00000000000000000000000035f3e191523c8701ad315551dcbdcc5708efd7ec",
            "0x0000000000000000000000000000000000000000000000000000000000000002"
          ],
          "data": "0x",
          "blockHash": "0xbf2f9ae44858585d2bf556cb292798da66024ba227da0cecd69d683f2f4a5bb5",
          "blockNumber": "0x3d458ac",
          "transactionHash": "0xcc0f1bf4390f1f73e1d93af7e64b78479734fb2c1bb3c35e2ceafe10b07fd6aa",
          "transactionIndex": "0x1",
          "logIndex": "0x0",
          "removed": false
        }
      ],
      "logsBloom": "0x04000000000000000000000000000000000000000000000400000000000000000000000000000000000000000000000000000000000000000000000000000000000000000000000000000000000000000000000000000000000000000000000000000000000000000002000000000000000000000000000000000000000000000000000000000000000000000040000000000000000000000000000000000000000000000000000000000100000000000000000000010000000000000000000000002000400000000000000080000000000000000000000000000000000000000000000000000000400000000200000000000000008000000000000000000000",
      "type": "0x2",
      "transactionHash": "0xcc0f1bf4390f1f73e1d93af7e64b78479734fb2c1bb3c35e2ceafe10b07fd6aa",
      "transactionIndex": "0x1",
      "blockHash": "0xbf2f9ae44858585d2bf556cb292798da66024ba227da0cecd69d683f2f4a5bb5",
      "blockNumber": "0x3d458ac",
      "gasUsed": "0x35236",
      "effectiveGasPrice": "0x5f5e100",
      "from": "0x7caf754c934710d7c73bc453654552beca38223f",
      "to": "0x886dca033838236b3851c90b79c67aa77c9ba4c0",
      "contractAddress": null,
      "gasUsedForL1": "0x29739",
      "l1BlockNumber": "0x6072fa"
    }
  ],
  "libraries": [],
  "pending": [],
  "returns": {},
  "timestamp": 1721128918,
  "chain": 421614,
  "commit": "3bfe1da"
}