{
  "transactions": [
    {
      "hash": "0x944fc62129fa7ef09f64acaf58057b501238b77d9a07d2467ca31fbe2d38ad04",
      "transactionType": "CALL",
      "contractName": null,
      "contractAddress": "0xf98ba1b2fc7c55a01efa6c8872bcee85c6ec54e7",
      "function": "allowCommunityToken(uint256)",
      "arguments": [
        "0"
      ],
      "transaction": {
        "from": "0x7caf754c934710d7c73bc453654552beca38223f",
        "to": "0xf98ba1b2fc7c55a01efa6c8872bcee85c6ec54e7",
        "gas": "0x109a0",
        "value": "0x0",
        "input": "0x01ee6f610000000000000000000000000000000000000000000000000000000000000000",
        "nonce": "0x30",
        "chainId": "0x66eee",
        "accessList": null,
        "type": null
      },
      "additionalContracts": [],
      "isFixedGasLimit": false
    },
    {
      "hash": "0x2224d6a694a9ea00d6db5a7d9234cff01e3c707e18d3b92811d48a8d6d89686f",
      "transactionType": "CALL",
      "contractName": null,
      "contractAddress": "0xf98ba1b2fc7c55a01efa6c8872bcee85c6ec54e7",
      "function": "allowCommunityToken(uint256)",
      "arguments": [
        "1"
      ],
      "transaction": {
        "from": "0x7caf754c934710d7c73bc453654552beca38223f",
        "to": "0xf98ba1b2fc7c55a01efa6c8872bcee85c6ec54e7",
        "gas": "0x109b0",
        "value": "0x0",
        "input": "0x01ee6f610000000000000000000000000000000000000000000000000000000000000001",
        "nonce": "0x31",
        "chainId": "0x66eee",
        "accessList": null,
        "type": null
      },
      "additionalContracts": [],
      "isFixedGasLimit": false
    },
    {
      "hash": "0xeaa111527fe0a09178112178522625a058656b3c7c1279fcb5ce5c75e125120e",
      "transactionType": "CALL",
      "contractName": null,
      "contractAddress": "0xf98ba1b2fc7c55a01efa6c8872bcee85c6ec54e7",
      "function": "allowCommunityToken(uint256)",
      "arguments": [
        "2"
      ],
      "transaction": {
        "from": "0x7caf754c934710d7c73bc453654552beca38223f",
        "to": "0xf98ba1b2fc7c55a01efa6c8872bcee85c6ec54e7",
        "gas": "0x109b0",
        "value": "0x0",
        "input": "0x01ee6f610000000000000000000000000000000000000000000000000000000000000002",
        "nonce": "0x32",
        "chainId": "0x66eee",
        "accessList": null,
        "type": null
      },
      "additionalContracts": [],
      "isFixedGasLimit": false
    }
  ],
  "receipts": [
    {
      "status": "0x1",
      "cumulativeGasUsed": "0x49b8c",
      "logs": [],
      "logsBloom": "0x00000000000000000000000000000000000000000000000000000000000000000000000000000000000000000000000000000000000000000000000000000000000000000000000000000000000000000000000000000000000000000000000000000000000000000000000000000000000000000000000000000000000000000000000000000000000000000000000000000000000000000000000000000000000000000000000000000000000000000000000000000000000000000000000000000000000000000000000000000000000000000000000000000000000000000000000000000000000000000000000000000000000000000000000000000000",
      "type": "0x2",
      "transactionHash": "0x944fc62129fa7ef09f64acaf58057b501238b77d9a07d2467ca31fbe2d38ad04",
      "transactionIndex": "0x3",
      "blockHash": "0x5c16addec415af0ab5a972aef84159329c7b56c70dca41ccdea49ba1e6bcfc99",
      "blockNumber": "0x22ecccc",
      "gasUsed": "0xcc54",
      "effectiveGasPrice": "0x5f5e100",
      "from": "0x7caf754c934710d7c73bc453654552beca38223f",
      "to": "0xf98ba1b2fc7c55a01efa6c8872bcee85c6ec54e7",
      "contractAddress": null,
      "gasUsedForL1": "0x0",
      "l1BlockNumber": "0x57dfd1"
    },
    {
      "status": "0x1",
      "cumulativeGasUsed": "0x1cac90",
      "logs": [],
      "logsBloom": "0x00000000000000000000000000000000000000000000000000000000000000000000000000000000000000000000000000000000000000000000000000000000000000000000000000000000000000000000000000000000000000000000000000000000000000000000000000000000000000000000000000000000000000000000000000000000000000000000000000000000000000000000000000000000000000000000000000000000000000000000000000000000000000000000000000000000000000000000000000000000000000000000000000000000000000000000000000000000000000000000000000000000000000000000000000000000",
      "type": "0x2",
      "transactionHash": "0x2224d6a694a9ea00d6db5a7d9234cff01e3c707e18d3b92811d48a8d6d89686f",
      "transactionIndex": "0x4",
      "blockHash": "0x6b028c781913865859d2da850b3ed924aa0552eaf98f54126eda098f7e60ef1f",
      "blockNumber": "0x22eccd0",
      "gasUsed": "0xcc60",
      "effectiveGasPrice": "0x5f5e100",
      "from": "0x7caf754c934710d7c73bc453654552beca38223f",
      "to": "0xf98ba1b2fc7c55a01efa6c8872bcee85c6ec54e7",
      "contractAddress": null,
      "gasUsedForL1": "0x0",
      "l1BlockNumber": "0x57dfd2"
    },
    {
      "status": "0x1",
      "cumulativeGasUsed": "0x25e63",
      "logs": [],
      "logsBloom": "0x00000000000000000000000000000000000000000000000000000000000000000000000000000000000000000000000000000000000000000000000000000000000000000000000000000000000000000000000000000000000000000000000000000000000000000000000000000000000000000000000000000000000000000000000000000000000000000000000000000000000000000000000000000000000000000000000000000000000000000000000000000000000000000000000000000000000000000000000000000000000000000000000000000000000000000000000000000000000000000000000000000000000000000000000000000000",
      "type": "0x2",
      "transactionHash": "0xeaa111527fe0a09178112178522625a058656b3c7c1279fcb5ce5c75e125120e",
      "transactionIndex": "0x3",
      "blockHash": "0x99336b2cbed2f2eb06bc0c7a0fb1907e151d806029ea8b3af739c8c3d68f70af",
      "blockNumber": "0x22eccd3",
      "gasUsed": "0xcc60",
      "effectiveGasPrice": "0x5f5e100",
      "from": "0x7caf754c934710d7c73bc453654552beca38223f",
      "to": "0xf98ba1b2fc7c55a01efa6c8872bcee85c6ec54e7",
      "contractAddress": null,
      "gasUsedForL1": "0x0",
      "l1BlockNumber": "0x57dfd2"
    }
  ],
  "libraries": [],
  "pending": [],
  "returns": {},
  "timestamp": 1713860143,
  "chain": 421614,
  "commit": "d3d029c"
}