{
  "transactions": [
    {
      "hash": "0x4f943078d83633c2ea2c8d4958b05c9433eb3cf53e539a2ee3f080724a93cb15",
      "transactionType": "CALL",
      "contractName": null,
      "contractAddress": "0x101c5efd61d4fe9f1f2994bfed732c32f82b80b2",
      "function": "allowCommunityToken(uint256)",
      "arguments": [
        "106219508196454080375526586478153583586194937194493887259467424694676997453395"
      ],
      "transaction": {
        "from": "0x7caf754c934710d7c73bc453654552beca38223f",
        "to": "0x101c5efd61d4fe9f1f2994bfed732c32f82b80b2",
        "gas": "0x2e31cb",
        "value": "0x0",
        "input": "0x01ee6f61ead61c7340b7cacd78684d4795a617aae5e85cc4b89da34fb05ad55bb6bab653",
        "nonce": "0x65",
        "chainId": "0x66eee"
      },
      "additionalContracts": [],
      "isFixedGasLimit": false
    },
    {
      "hash": "0x8b146c57284a563055e5e201880c3d5a1b65bf543d41116e5556b6dc5d22f3c8",
      "transactionType": "CALL",
      "contractName": null,
      "contractAddress": "0x101c5efd61d4fe9f1f2994bfed732c32f82b80b2",
      "function": "allowCommunityToken(uint256)",
      "arguments": [
        "108586150798115180574743190405367285583167702751783717273705027881651322809951"
      ],
      "transaction": {
        "from": "0x7caf754c934710d7c73bc453654552beca38223f",
        "to": "0x101c5efd61d4fe9f1f2994bfed732c32f82b80b2",
        "gas": "0x2e31cb",
        "value": "0x0",
        "input": "0x01ee6f61f011955832cac97ab1a6534c6b94971325e3be6bfaac1ccae68e3f5c7adcee5f",
        "nonce": "0x66",
        "chainId": "0x66eee"
      },
      "additionalContracts": [],
      "isFixedGasLimit": false
    },
    {
      "hash": "0xae775aa8a96453cc37501c79ab2072cc04c276e6e8bda4b8f635d9a3ff9bfde0",
      "transactionType": "CALL",
      "contractName": null,
      "contractAddress": "0x101c5efd61d4fe9f1f2994bfed732c32f82b80b2",
      "function": "allowCommunityToken(uint256)",
      "arguments": [
        "61412812549033025435811962204424170589965658763482764336017940556663446417829"
      ],
      "transaction": {
        "from": "0x7caf754c934710d7c73bc453654552beca38223f",
        "to": "0x101c5efd61d4fe9f1f2994bfed732c32f82b80b2",
        "gas": "0x2e31cb",
        "value": "0x0",
        "input": "0x01ee6f6187c66b8c60fd984f739f68f1d83229601131914aaf269874c584e179b37db1a5",
        "nonce": "0x67",
        "chainId": "0x66eee"
      },
      "additionalContracts": [],
      "isFixedGasLimit": false
    },
    {
      "hash": "0xe48347116ebe082a4971bdf712dd9788b7377f743078f8d8cb51e07026ed7677",
      "transactionType": "CALL",
      "contractName": null,
      "contractAddress": "0x101c5efd61d4fe9f1f2994bfed732c32f82b80b2",
      "function": "allowCommunityToken(uint256)",
      "arguments": [
        "20376791661718660580662410765070640284736320707848823176694931891585259913409"
      ],
      "transaction": {
        "from": "0x7caf754c934710d7c73bc453654552beca38223f",
        "to": "0x101c5efd61d4fe9f1f2994bfed732c32f82b80b2",
        "gas": "0x2e31cb",
        "value": "0x0",
        "input": "0x01ee6f612d0cdaf9a1153a9a4b68379c64d4397611a0f3d9fa4015376435f9a64aafc0c1",
        "nonce": "0x68",
        "chainId": "0x66eee"
      },
      "additionalContracts": [],
      "isFixedGasLimit": false
    }
  ],
  "receipts": [
    {
      "status": "0x1",
      "cumulativeGasUsed": "0x1ac077",
      "logs": [],
      "logsBloom": "0x00000000000000000000000000000000000000000000000000000000000000000000000000000000000000000000000000000000000000000000000000000000000000000000000000000000000000000000000000000000000000000000000000000000000000000000000000000000000000000000000000000000000000000000000000000000000000000000000000000000000000000000000000000000000000000000000000000000000000000000000000000000000000000000000000000000000000000000000000000000000000000000000000000000000000000000000000000000000000000000000000000000000000000000000000000000",
      "type": "0x2",
      "transactionHash": "0x4f943078d83633c2ea2c8d4958b05c9433eb3cf53e539a2ee3f080724a93cb15",
      "transactionIndex": "0x1",
      "blockHash": "0xab495eb55b5fb21e813a702137bc4511625893c5429cac90becfb7b2819940d3",
      "blockNumber": "0x3114a21",
      "gasUsed": "0x1ac077",
      "effectiveGasPrice": "0x5f5e100",
      "from": "0x7caf754c934710d7c73bc453654552beca38223f",
      "to": "0x101c5efd61d4fe9f1f2994bfed732c32f82b80b2",
      "contractAddress": null,
      "gasUsedForL1": "0x19f262",
      "l1BlockNumber": "0x5c3844"
    },
    {
      "status": "0x1",
      "cumulativeGasUsed": "0x1ac077",
      "logs": [],
      "logsBloom": "0x00000000000000000000000000000000000000000000000000000000000000000000000000000000000000000000000000000000000000000000000000000000000000000000000000000000000000000000000000000000000000000000000000000000000000000000000000000000000000000000000000000000000000000000000000000000000000000000000000000000000000000000000000000000000000000000000000000000000000000000000000000000000000000000000000000000000000000000000000000000000000000000000000000000000000000000000000000000000000000000000000000000000000000000000000000000",
      "type": "0x2",
      "transactionHash": "0x8b146c57284a563055e5e201880c3d5a1b65bf543d41116e5556b6dc5d22f3c8",
      "transactionIndex": "0x1",
      "blockHash": "0xe2058dbf9bfc5e00f133f03721af9d1b4c43472a4e8a21c1aa1c365f1cece3d4",
      "blockNumber": "0x3114a24",
      "gasUsed": "0x1ac077",
      "effectiveGasPrice": "0x5f5e100",
      "from": "0x7caf754c934710d7c73bc453654552beca38223f",
      "to": "0x101c5efd61d4fe9f1f2994bfed732c32f82b80b2",
      "contractAddress": null,
      "gasUsedForL1": "0x19f262",
      "l1BlockNumber": "0x5c3844"
    },
    {
      "status": "0x1",
      "cumulativeGasUsed": "0xc8935b",
      "logs": [],
      "logsBloom": "0x00000000000000000000000000000000000000000000000000000000000000000000000000000000000000000000000000000000000000000000000000000000000000000000000000000000000000000000000000000000000000000000000000000000000000000000000000000000000000000000000000000000000000000000000000000000000000000000000000000000000000000000000000000000000000000000000000000000000000000000000000000000000000000000000000000000000000000000000000000000000000000000000000000000000000000000000000000000000000000000000000000000000000000000000000000000",
      "type": "0x2",
      "transactionHash": "0xae775aa8a96453cc37501c79ab2072cc04c276e6e8bda4b8f635d9a3ff9bfde0",
      "transactionIndex": "0x4",
      "blockHash": "0x43cee9f9d785521709f09761a930a3c68090ba3aa6d6fca50908b6b49a3bc278",
      "blockNumber": "0x3114a28",
      "gasUsed": "0x1ac077",
      "effectiveGasPrice": "0x5f5e100",
      "from": "0x7caf754c934710d7c73bc453654552beca38223f",
      "to": "0x101c5efd61d4fe9f1f2994bfed732c32f82b80b2",
      "contractAddress": null,
      "gasUsedForL1": "0x19f262",
      "l1BlockNumber": "0x5c3844"
    },
    {
      "status": "0x1",
      "cumulativeGasUsed": "0x1565a33",
      "logs": [],
      "logsBloom": "0x00000000000000000000000000000000000000000000000000000000000000000000000000000000000000000000000000000000000000000000000000000000000000000000000000000000000000000000000000000000000000000000000000000000000000000000000000000000000000000000000000000000000000000000000000000000000000000000000000000000000000000000000000000000000000000000000000000000000000000000000000000000000000000000000000000000000000000000000000000000000000000000000000000000000000000000000000000000000000000000000000000000000000000000000000000000",
      "type": "0x2",
      "transactionHash": "0xe48347116ebe082a4971bdf712dd9788b7377f743078f8d8cb51e07026ed7677",
      "transactionIndex": "0x5",
      "blockHash": "0xf2318761372a616295a9566f3d2a6f50c324c3883cdb8ecd0ba8342e8d0066e4",
      "blockNumber": "0x3114a2d",
      "gasUsed": "0x1ac077",
      "effectiveGasPrice": "0x5f5e100",
      "from": "0x7caf754c934710d7c73bc453654552beca38223f",
      "to": "0x101c5efd61d4fe9f1f2994bfed732c32f82b80b2",
      "contractAddress": null,
      "gasUsedForL1": "0x19f262",
      "l1BlockNumber": "0x5c3844"
    }
  ],
  "libraries": [],
  "pending": [],
  "returns": {},
  "timestamp": 1717582699,
  "chain": 421614,
  "commit": "cda56de"
}