{
  "transactions": [
    {
      "hash": "0x774afb8b0146978b51c30b16a2a5553e6ee2a30589101a43c58c7d8d5837d8a2",
      "transactionType": "CREATE2",
      "contractName": null,
      "contractAddress": "0xfb31da57aa2bdb0220d8e189e0a08b0cc55ee186",
      "function": null,
      "arguments": null,
      "transaction": {
        "from": "0x7caf754c934710d7c73bc453654552beca38223f",
        "to": "0x4e59b44847b379578588920ca78fbf26c0b4956c",
        "gas": "0x2f5a1",
        "value": "0x0",
        "input": "0x0000000000000000000000000000000000000000000000000000000000000000603d3d8160223d39736358161956fe824f61fa3a051451236529625dfc60095155f3363d3d373d3d363d7f360894a13ba1a3210667c828492db98dca3e2076cc3735a920a3ca505d382bbc545af43d6000803e6038573d6000fd5b3d6000f3",
        "nonce": "0x81",
        "chainId": "0x66eee"
      },
      "additionalContracts": [],
      "isFixedGasLimit": false
    },
    {
      "hash": "0x7d695376cb251066e3e234e16ac6bb0aaf0b846ba598d764f514dd3a8287da36",
      "transactionType": "CALL",
      "contractName": null,
      "contractAddress": "0xfb31da57aa2bdb0220d8e189e0a08b0cc55ee186",
      "function": "init(address)",
      "arguments": [
        "0x7caF754C934710D7C73bc453654552BEcA38223F"
      ],
      "transaction": {
        "from": "0x7caf754c934710d7c73bc453654552beca38223f",
        "to": "0xfb31da57aa2bdb0220d8e189e0a08b0cc55ee186",
        "gas": "0x13658",
        "value": "0x0",
        "input": "0x19ab453c0000000000000000000000007caf754c934710d7c73bc453654552beca38223f",
        "nonce": "0x82",
        "chainId": "0x66eee"
      },
      "additionalContracts": [],
      "isFixedGasLimit": false
    },
    {
      "hash": "0x70f9a822aca031237155aef287066949163a7908424c8e8685e8c6491497bb97",
      "transactionType": "CALL",
      "contractName": null,
      "contractAddress": "0x0a1d4292bc42d39e02b98a6af9d2e49f16dbed43",
      "function": "grantRoles(address,uint256)",
      "arguments": [
        "0xfB31dA57Aa2BDb0220d8e189E0a08b0cc55Ee186",
        "16"
      ],
      "transaction": {
        "from": "0x7caf754c934710d7c73bc453654552beca38223f",
        "to": "0x0a1d4292bc42d39e02b98a6af9d2e49f16dbed43",
        "gas": "0x1e1e2",
        "value": "0x0",
        "input": "0x1c10893f000000000000000000000000fb31da57aa2bdb0220d8e189e0a08b0cc55ee1860000000000000000000000000000000000000000000000000000000000000010",
        "nonce": "0x83",
        "chainId": "0x66eee"
      },
      "additionalContracts": [],
      "isFixedGasLimit": false
    }
  ],
  "receipts": [
    {
      "status": "0x1",
      "cumulativeGasUsed": "0x2024f5",
      "logs": [],
      "logsBloom": "0x00000000000000000000000000000000000000000000000000000000000000000000000000000000000000000000000000000000000000000000000000000000000000000000000000000000000000000000000000000000000000000000000000000000000000000000000000000000000000000000000000000000000000000000000000000000000000000000000000000000000000000000000000000000000000000000000000000000000000000000000000000000000000000000000000000000000000000000000000000000000000000000000000000000000000000000000000000000000000000000000000000000000000000000000000000000",
      "type": "0x2",
      "transactionHash": "0x774afb8b0146978b51c30b16a2a5553e6ee2a30589101a43c58c7d8d5837d8a2",
      "transactionIndex": "0x5",
      "blockHash": "0x29c62facf58cd404ece8b526c7f26a90fc41e06b037b2b5516d961af6da83ca0",
      "blockNumber": "0x312cdda",
      "gasUsed": "0x215ba",
      "effectiveGasPrice": "0x5f5e100",
      "from": "0x7caf754c934710d7c73bc453654552beca38223f",
      "to": "0x4e59b44847b379578588920ca78fbf26c0b4956c",
      "contractAddress": "0xfb31da57aa2bdb0220d8e189e0a08b0cc55ee186",
      "gasUsedForL1": "0xb9ca",
      "l1BlockNumber": "0x5c3ff2"
    },
    {
      "status": "0x1",
      "cumulativeGasUsed": "0x30a98a",
      "logs": [
        {
          "address": "0xfb31da57aa2bdb0220d8e189e0a08b0cc55ee186",
          "topics": [
            "0x8be0079c531659141344cd1fd0a4f28419497f9722a3daafe3b4186f6b6457e0",
            "0x0000000000000000000000000000000000000000000000000000000000000000",
            "0x0000000000000000000000007caf754c934710d7c73bc453654552beca38223f"
          ],
          "data": "0x",
          "blockHash": "0xc2768afa65dfc614468930f7b3926f7643792104601f7fe246b9af7de3709ac7",
          "blockNumber": "0x312cddd",
          "transactionHash": "0x7d695376cb251066e3e234e16ac6bb0aaf0b846ba598d764f514dd3a8287da36",
          "transactionIndex": "0x6",
          "logIndex": "0x17",
          "removed": false
        },
        {
          "address": "0xfb31da57aa2bdb0220d8e189e0a08b0cc55ee186",
          "topics": [
            "0x715ad5ce61fc9595c7b415289d59cf203f23a94fa06f04af7e489a0a76e1fe26",
            "0x0000000000000000000000007caf754c934710d7c73bc453654552beca38223f",
            "0x0000000000000000000000000000000000000000000000000000000000000002"
          ],
          "data": "0x",
          "blockHash": "0xc2768afa65dfc614468930f7b3926f7643792104601f7fe246b9af7de3709ac7",
          "blockNumber": "0x312cddd",
          "transactionHash": "0x7d695376cb251066e3e234e16ac6bb0aaf0b846ba598d764f514dd3a8287da36",
          "transactionIndex": "0x6",
          "logIndex": "0x18",
          "removed": false
        },
        {
          "address": "0xfb31da57aa2bdb0220d8e189e0a08b0cc55ee186",
          "topics": [
            "0xc7f505b2f371ae2175ee4913f4499e1f2633a7b5936321eed1cdaeb6115181d2"
          ],
          "data": "0x0000000000000000000000000000000000000000000000000000000000000001",
          "blockHash": "0xc2768afa65dfc614468930f7b3926f7643792104601f7fe246b9af7de3709ac7",
          "blockNumber": "0x312cddd",
          "transactionHash": "0x7d695376cb251066e3e234e16ac6bb0aaf0b846ba598d764f514dd3a8287da36",
          "transactionIndex": "0x6",
          "logIndex": "0x19",
          "removed": false
        }
      ],
      "logsBloom": "0x04000000000000000000000000000000000200000000000000800000000000000000000000000000000000000000000000000000000000000000000000000000000000000000000000000000000000000001000000000000000000000000000000000000020000000000000000000802000000000000000000000000000000400000000000000000000800000000000000000000000080000000000000000040000000000000000000000100000000000000000000018000000000000000000000002100400000000000000000000000000000000004000000000000000020000000000000000000000004000000000000000000008000000000000000000000",
      "type": "0x2",
      "transactionHash": "0x7d695376cb251066e3e234e16ac6bb0aaf0b846ba598d764f514dd3a8287da36",
      "transactionIndex": "0x6",
      "blockHash": "0xc2768afa65dfc614468930f7b3926f7643792104601f7fe246b9af7de3709ac7",
      "blockNumber": "0x312cddd",
      "gasUsed": "0x1eed2",
      "effectiveGasPrice": "0x5f5e100",
      "from": "0x7caf754c934710d7c73bc453654552beca38223f",
      "to": "0xfb31da57aa2bdb0220d8e189e0a08b0cc55ee186",
      "contractAddress": null,
      "gasUsedForL1": "0x7328",
      "l1BlockNumber": "0x5c3ff2"
    },
    {
      "status": "0x1",
      "cumulativeGasUsed": "0x210784",
      "logs": [
        {
          "address": "0x0a1d4292bc42d39e02b98a6af9d2e49f16dbed43",
          "topics": [
            "0x715ad5ce61fc9595c7b415289d59cf203f23a94fa06f04af7e489a0a76e1fe26",
            "0x000000000000000000000000fb31da57aa2bdb0220d8e189e0a08b0cc55ee186",
            "0x0000000000000000000000000000000000000000000000000000000000000010"
          ],
          "data": "0x",
          "blockHash": "0x4edf65ed96bb8129d332eb05244742cdcbe1abcfaeb45e4b114ba7daacf608ed",
          "blockNumber": "0x312cde0",
          "transactionHash": "0x70f9a822aca031237155aef287066949163a7908424c8e8685e8c6491497bb97",
          "transactionIndex": "0x3",
          "logIndex": "0x8",
          "removed": false
        }
      ],
      "logsBloom": "0x00000000100000000000000000000000000000000000000000000000010000000000000000000000000000000000002000000000000000000000000000000000000000000000000000000000000000000000000000000000000000000000000000000000000000000000000000000000000000000000000000000000040000000000000000000000000020000000000000000100200000000000000000000000000000000000000000000000000000000000000000010000000000000000000000002000400000000000000000000000000000000000000000000000000000000000000000000000000000000002000000000000000000000001000000000000",
      "type": "0x2",
      "transactionHash": "0x70f9a822aca031237155aef287066949163a7908424c8e8685e8c6491497bb97",
      "transactionIndex": "0x3",
      "blockHash": "0x4edf65ed96bb8129d332eb05244742cdcbe1abcfaeb45e4b114ba7daacf608ed",
      "blockNumber": "0x312cde0",
      "gasUsed": "0x14782",
      "effectiveGasPrice": "0x5f5e100",
      "from": "0x7caf754c934710d7c73bc453654552beca38223f",
      "to": "0x0a1d4292bc42d39e02b98a6af9d2e49f16dbed43",
      "contractAddress": null,
      "gasUsedForL1": "0x8c7e",
      "l1BlockNumber": "0x5c3ff2"
    }
  ],
  "libraries": [],
  "pending": [],
  "returns": {},
  "timestamp": 1717607467,
  "chain": 421614,
  "commit": "cda56de"
}