{
  "transactions": [
    {
      "hash": "0xbdbd4c9b1c3aa95b9759133c5eed8c0dfeb359d281b516f1a68b2005c90ac776",
      "transactionType": "CALL",
      "contractName": "mUSDToken",
      "contractAddress": "0x56039fa1a804f614ebd714139f29a3ff4db57ad6",
      "function": "mint(address,uint256)",
      "arguments": [
        "0xd0d3E757626d221f2Fd1ddA62da46CcA67622C99",
        "10000000000000000000000"
      ],
      "transaction": {
        "from": "0x7caf754c934710d7c73bc453654552beca38223f",
        "to": "0x56039fa1a804f614ebd714139f29a3ff4db57ad6",
        "gas": "0x153c1",
        "value": "0x0",
        "input": "0x40c10f19000000000000000000000000d0d3e757626d221f2fd1dda62da46cca67622c9900000000000000000000000000000000000000000000021e19e0c9bab2400000",
        "nonce": "0x2f3",
        "chainId": "0x66eee"
      },
      "additionalContracts": [],
      "isFixedGasLimit": false
    },
    {
      "hash": "0x98f54648a932532987b2c91e0a8d9278252619e4539fe90c7dc72c267d891f60",
      "transactionType": "CALL",
      "contractName": null,
      "contractAddress": "0xd0d3e757626d221f2fd1dda62da46cca67622c99",
      "function": "updateDistributionState(bool)",
      "arguments": [
        "true"
      ],
      "transaction": {
        "from": "0x7caf754c934710d7c73bc453654552beca38223f",
        "to": "0xd0d3e757626d221f2fd1dda62da46cca67622c99",
        "gas": "0x156ff",
        "value": "0x0",
        "input": "0xf84f32870000000000000000000000000000000000000000000000000000000000000001",
        "nonce": "0x2f4",
        "chainId": "0x66eee"
      },
      "additionalContracts": [],
      "isFixedGasLimit": false
    },
    {
      "hash": "0x81d19c191112ed9fa19c73af1251de2306376fb5f8015902a5ea007a596b443c",
      "transactionType": "CALL",
      "contractName": "mUSDToken",
      "contractAddress": "0x56039fa1a804f614ebd714139f29a3ff4db57ad6",
      "function": "mint(address,uint256)",
      "arguments": [
        "0xdc473FB7f56004bBD6AD019090e9BdD57e885242",
        "10000000000000000000000"
      ],
      "transaction": {
        "from": "0x7caf754c934710d7c73bc453654552beca38223f",
        "to": "0x56039fa1a804f614ebd714139f29a3ff4db57ad6",
        "gas": "0x153c1",
        "value": "0x0",
        "input": "0x40c10f19000000000000000000000000dc473fb7f56004bbd6ad019090e9bdd57e88524200000000000000000000000000000000000000000000021e19e0c9bab2400000",
        "nonce": "0x2f5",
        "chainId": "0x66eee"
      },
      "additionalContracts": [],
      "isFixedGasLimit": false
    },
    {
      "hash": "0xaed99c4a80103313a3e0caba06b1a1523fd6587d52f4f8332478223a5c472f32",
      "transactionType": "CALL",
      "contractName": null,
      "contractAddress": "0xdc473fb7f56004bbd6ad019090e9bdd57e885242",
      "function": "updateDistributionState(bool)",
      "arguments": [
        "true"
      ],
      "transaction": {
        "from": "0x7caf754c934710d7c73bc453654552beca38223f",
        "to": "0xdc473fb7f56004bbd6ad019090e9bdd57e885242",
        "gas": "0x156ff",
        "value": "0x0",
        "input": "0xf84f32870000000000000000000000000000000000000000000000000000000000000001",
        "nonce": "0x2f6",
        "chainId": "0x66eee"
      },
      "additionalContracts": [],
      "isFixedGasLimit": false
    }
  ],
  "receipts": [
    {
      "status": "0x1",
      "cumulativeGasUsed": "0xf75a",
      "logs": [
        {
          "address": "0x56039fa1a804f614ebd714139f29a3ff4db57ad6",
          "topics": [
            "0xddf252ad1be2c89b69c2b068fc378daa952ba7f163c4a11628f55a4df523b3ef",
            "0x0000000000000000000000000000000000000000000000000000000000000000",
            "0x000000000000000000000000d0d3e757626d221f2fd1dda62da46cca67622c99"
          ],
          "data": "0x00000000000000000000000000000000000000000000021e19e0c9bab2400000",
          "blockHash": "0xcbbf03add6df9101bc82fbf45bfd3b0e945620b6e4870585332c120f0262ce7d",
          "blockNumber": "0x4f33db0",
          "transactionHash": "0xbdbd4c9b1c3aa95b9759133c5eed8c0dfeb359d281b516f1a68b2005c90ac776",
          "transactionIndex": "0x1",
          "logIndex": "0x0",
          "removed": false
        }
      ],
      "logsBloom": "0x00000000000000000000000000000000000000000000400000000000000000000000000000020004000000000000000000000000000000000000000000000000000000000000000000000008000000000000000000000000000010000000000000000000020000000000000000000800000000000000000000000010000000000000040000000000000000000000000000000000000000000000000000000000000000000000000000000000000000000000000000000000000000000000000000000002000000000000000000000000000000000000000000000000000020000001000000000000000000000000000000000000000000000000000000000000",
      "type": "0x2",
      "transactionHash": "0xbdbd4c9b1c3aa95b9759133c5eed8c0dfeb359d281b516f1a68b2005c90ac776",
      "transactionIndex": "0x1",
      "blockHash": "0xcbbf03add6df9101bc82fbf45bfd3b0e945620b6e4870585332c120f0262ce7d",
      "blockNumber": "0x4f33db0",
      "gasUsed": "0xf75a",
      "effectiveGasPrice": "0x5f5e100",
      "from": "0x7caf754c934710d7c73bc453654552beca38223f",
      "to": "0x56039fa1a804f614ebd714139f29a3ff4db57ad6",
      "contractAddress": null,
      "gasUsedForL1": "0x2714",
      "l1BlockNumber": "0x66d27c"
    },
    {
      "status": "0x1",
      "cumulativeGasUsed": "0xfa9b",
      "logs": [
        {
          "address": "0xd0d3e757626d221f2fd1dda62da46cca67622c99",
          "topics": [
            "0x8c9bbe491ad07e24c4a81818e88e4b5fa5ba9f0b1fbc2a01abab14d22dbdabcb"
          ],
          "data": "0x0000000000000000000000000000000000000000000000000000000000000001",
          "blockHash": "0xea2a559d007628832de04a77703f679953c22248f643e460ff1cd89a2ef9c2d1",
          "blockNumber": "0x4f33db4",
          "transactionHash": "0x98f54648a932532987b2c91e0a8d9278252619e4539fe90c7dc72c267d891f60",
          "transactionIndex": "0x1",
          "logIndex": "0x0",
          "removed": false
        }
      ],
      "logsBloom": "0x00000000000000000000000000000000000000000000000000000000000000000000000000000000000000000c00800000000000000000000000000000000000000000000000000000000020000000000000000000000000000000000000000000000000000000000000000000000000000000000000000000000000000000000000000000000000000000000000000000000000000000000000080000000000000000000000000000000000000000000000000000000000000000000000000000000000000000000000000000000000000000000000000000000000000000000000000000000000000000000000000000000000000000004000000000000000",
      "type": "0x2",
      "transactionHash": "0x98f54648a932532987b2c91e0a8d9278252619e4539fe90c7dc72c267d891f60",
      "transactionIndex": "0x1",
      "blockHash": "0xea2a559d007628832de04a77703f679953c22248f643e460ff1cd89a2ef9c2d1",
      "blockNumber": "0x4f33db4",
      "gasUsed": "0xfa9b",
      "effectiveGasPrice": "0x5f5e100",
      "from": "0x7caf754c934710d7c73bc453654552beca38223f",
      "to": "0xd0d3e757626d221f2fd1dda62da46cca67622c99",
      "contractAddress": null,
      "gasUsedForL1": "0x2012",
      "l1BlockNumber": "0x66d27c"
    },
    {
      "status": "0x1",
      "cumulativeGasUsed": "0xf75a",
      "logs": [
        {
          "address": "0x56039fa1a804f614ebd714139f29a3ff4db57ad6",
          "topics": [
            "0xddf252ad1be2c89b69c2b068fc378daa952ba7f163c4a11628f55a4df523b3ef",
            "0x0000000000000000000000000000000000000000000000000000000000000000",
            "0x000000000000000000000000dc473fb7f56004bbd6ad019090e9bdd57e885242"
          ],
          "data": "0x00000000000000000000000000000000000000000000021e19e0c9bab2400000",
          "blockHash": "0x83827f137697a963858d7cf3709f70942055b599e138539190d914de6ba5eb1e",
          "blockNumber": "0x4f33db6",
          "transactionHash": "0x81d19c191112ed9fa19c73af1251de2306376fb5f8015902a5ea007a596b443c",
          "transactionIndex": "0x1",
          "logIndex": "0x0",
          "removed": false
        }
      ],
      "logsBloom": "0x00000000000000000000000000000000000000000000400000000000000000000000000000020000000000000000000000000000000000000000000000000000000000000000000000000008000000000000000000000000000010000000000000000000020000000000000040000800000000000000000000000010000000000000000000000000002000000000020000000000000000000000000000000000000000000000000000000000000000000000000000000000000000000000000000000002000000000000000000000000000000000000000000000000000020000000000000000000000000000000000000000000000000000000000000000000",
      "type": "0x2",
      "transactionHash": "0x81d19c191112ed9fa19c73af1251de2306376fb5f8015902a5ea007a596b443c",
      "transactionIndex": "0x1",
      "blockHash": "0x83827f137697a963858d7cf3709f70942055b599e138539190d914de6ba5eb1e",
      "blockNumber": "0x4f33db6",
      "gasUsed": "0xf75a",
      "effectiveGasPrice": "0x5f5e100",
      "from": "0x7caf754c934710d7c73bc453654552beca38223f",
      "to": "0x56039fa1a804f614ebd714139f29a3ff4db57ad6",
      "contractAddress": null,
      "gasUsedForL1": "0x2714",
      "l1BlockNumber": "0x66d27c"
    },
    {
      "status": "0x1",
      "cumulativeGasUsed": "0xfa9b",
      "logs": [
        {
          "address": "0xdc473fb7f56004bbd6ad019090e9bdd57e885242",
          "topics": [
            "0x8c9bbe491ad07e24c4a81818e88e4b5fa5ba9f0b1fbc2a01abab14d22dbdabcb"
          ],
          "data": "0x0000000000000000000000000000000000000000000000000000000000000001",
          "blockHash": "0xe1e84f70205cccd458fdfcf3bac1d4512aa9fa7414553cd7fca60c61ea81766d",
          "blockNumber": "0x4f33dba",
          "transactionHash": "0xaed99c4a80103313a3e0caba06b1a1523fd6587d52f4f8332478223a5c472f32",
          "transactionIndex": "0x1",
          "logIndex": "0x0",
          "removed": false
        }
      ],
      "logsBloom": "0x00000000000000000000000000000000000000000000000000000000000000000000000000000000000000000c00000000000000000000000000000000000000000000000000000000000020000000000000000000000000000000000000000000000000000000000000000000000000000000000000000000000000000000000000000000000000000000000100000000000000000000000000000000000000000008000000000000000000000000000000000000000000000000000000000000000000000000000000000000000000000000000000000000000000000000000000000004000000000000000000000000000000000000000000000000000000",
      "type": "0x2",
      "transactionHash": "0xaed99c4a80103313a3e0caba06b1a1523fd6587d52f4f8332478223a5c472f32",
      "transactionIndex": "0x1",
      "blockHash": "0xe1e84f70205cccd458fdfcf3bac1d4512aa9fa7414553cd7fca60c61ea81766d",
      "blockNumber": "0x4f33dba",
      "gasUsed": "0xfa9b",
      "effectiveGasPrice": "0x5f5e100",
      "from": "0x7caf754c934710d7c73bc453654552beca38223f",
      "to": "0xdc473fb7f56004bbd6ad019090e9bdd57e885242",
      "contractAddress": null,
      "gasUsedForL1": "0x2012",
      "l1BlockNumber": "0x66d27d"
    }
  ],
  "libraries": [],
  "pending": [],
  "returns": {},
  "timestamp": 1727000206,
  "chain": 421614,
  "commit": "9bc73d8"
}