{
  "transactions": [
    {
      "hash": "0x79981a6eccbdb76972dcb86a5972b8563b31cd67e039b69651f1f3490c982f35",
      "transactionType": "CALL",
      "contractName": null,
      "contractAddress": "0x7e328974649540bbb883badc382d2476855c1180",
      "function": "deployInteractionContract(uint256)",
      "arguments": [
        "20376791661718660580662410765070640284736320707848823176694931891585259913409"
      ],
      "transaction": {
        "from": "0x7caf754c934710d7c73bc453654552beca38223f",
        "to": "0x7e328974649540bbb883badc382d2476855c1180",
        "gas": "0x29a665",
        "value": "0x0",
        "input": "0x00316a342d0cdaf9a1153a9a4b68379c64d4397611a0f3d9fa4015376435f9a64aafc0c1",
        "nonce": "0x2ef",
        "chainId": "0x66eee"
      },
      "additionalContracts": [],
      "isFixedGasLimit": false
    },
    {
      "hash": "0xd4ce8f7ceebd1bd219729833eaa8989bbdcee4e2b5d60e94c1f80a74fb8cb469",
      "transactionType": "CALL",
      "contractName": null,
      "contractAddress": "0x7e328974649540bbb883badc382d2476855c1180",
      "function": "deployInteractionContract(uint256)",
      "arguments": [
        "33953649417576654953995537313820306697747390492794311279756157547821320957282"
      ],
      "transaction": {
        "from": "0x7caf754c934710d7c73bc453654552beca38223f",
        "to": "0x7e328974649540bbb883badc382d2476855c1180",
        "gas": "0x2a2bff",
        "value": "0x0",
        "input": "0x00316a344b1115a4946079f8d83c63061f5c49c2f351a054d8dfb284b197f54dbfa8ed62",
        "nonce": "0x2f0",
        "chainId": "0x66eee"
      },
      "additionalContracts": [],
      "isFixedGasLimit": false
    },
    {
      "hash": "0x3098c2db82ffcea7a05435fdd6a521b4e1fc47dd040df3a4a42115cc406f0695",
      "transactionType": "CALL",
      "contractName": "CampaignBankFactory",
      "contractAddress": "0xd785cadfc8abf9145a076d8509cca4f6718a39e2",
      "function": "deployCampaignBank(uint256,address)",
      "arguments": [
        "20376791661718660580662410765070640284736320707848823176694931891585259913409",
        "0x56039fa1a804F614eBD714139F29a3ff4DB57ad6"
      ],
      "transaction": {
        "from": "0x7caf754c934710d7c73bc453654552beca38223f",
        "to": "0xd785cadfc8abf9145a076d8509cca4f6718a39e2",
        "gas": "0x12e69c",
        "value": "0x0",
        "input": "0x5ef597902d0cdaf9a1153a9a4b68379c64d4397611a0f3d9fa4015376435f9a64aafc0c100000000000000000000000056039fa1a804f614ebd714139f29a3ff4db57ad6",
        "nonce": "0x2f1",
        "chainId": "0x66eee"
      },
      "additionalContracts": [],
      "isFixedGasLimit": false
    },
    {
      "hash": "0xd55b1d66bdb5dce58cae1d6732f5fac9efe1275f76e62850d5477e1d1bfb78f0",
      "transactionType": "CALL",
      "contractName": "CampaignBankFactory",
      "contractAddress": "0xd785cadfc8abf9145a076d8509cca4f6718a39e2",
      "function": "deployCampaignBank(uint256,address)",
      "arguments": [
        "33953649417576654953995537313820306697747390492794311279756157547821320957282",
        "0x56039fa1a804F614eBD714139F29a3ff4DB57ad6"
      ],
      "transaction": {
        "from": "0x7caf754c934710d7c73bc453654552beca38223f",
        "to": "0xd785cadfc8abf9145a076d8509cca4f6718a39e2",
        "gas": "0x12e69c",
        "value": "0x0",
        "input": "0x5ef597904b1115a4946079f8d83c63061f5c49c2f351a054d8dfb284b197f54dbfa8ed6200000000000000000000000056039fa1a804f614ebd714139f29a3ff4db57ad6",
        "nonce": "0x2f2",
        "chainId": "0x66eee"
      },
      "additionalContracts": [],
      "isFixedGasLimit": false
    }
  ],
  "receipts": [
    {
      "status": "0x1",
      "cumulativeGasUsed": "0x1f74ee",
      "logs": [
        {
          "address": "0xec00bfafeb997f74cf238f6225e7d4f53c6b4b11",
          "topics": [
            "0xc7f505b2f371ae2175ee4913f4499e1f2633a7b5936321eed1cdaeb6115181d2"
          ],
          "data": "0x000000000000000000000000000000000000000000000000ffffffffffffffff",
          "blockHash": "0xd98faa3a0aa9fbf6d26ba81c161b948c63f333d880a4618ee8652cfab2822e3b",
          "blockNumber": "0x4efb0b2",
          "transactionHash": "0x79981a6eccbdb76972dcb86a5972b8563b31cd67e039b69651f1f3490c982f35",
          "transactionIndex": "0x1",
          "logIndex": "0x0",
          "removed": false
        },
        {
          "address": "0xec00bfafeb997f74cf238f6225e7d4f53c6b4b11",
          "topics": [
            "0x8be0079c531659141344cd1fd0a4f28419497f9722a3daafe3b4186f6b6457e0",
            "0x0000000000000000000000000000000000000000000000000000000000000000",
            "0x0000000000000000000000007e328974649540bbb883badc382d2476855c1180"
          ],
          "data": "0x",
          "blockHash": "0xd98faa3a0aa9fbf6d26ba81c161b948c63f333d880a4618ee8652cfab2822e3b",
          "blockNumber": "0x4efb0b2",
          "transactionHash": "0x79981a6eccbdb76972dcb86a5972b8563b31cd67e039b69651f1f3490c982f35",
          "transactionIndex": "0x1",
          "logIndex": "0x1",
          "removed": false
        },
        {
          "address": "0xec00bfafeb997f74cf238f6225e7d4f53c6b4b11",
          "topics": [
            "0x715ad5ce61fc9595c7b415289d59cf203f23a94fa06f04af7e489a0a76e1fe26",
            "0x0000000000000000000000007e328974649540bbb883badc382d2476855c1180",
            "0x0000000000000000000000000000000000000000000000000000000000000002"
          ],
          "data": "0x",
          "blockHash": "0xd98faa3a0aa9fbf6d26ba81c161b948c63f333d880a4618ee8652cfab2822e3b",
          "blockNumber": "0x4efb0b2",
          "transactionHash": "0x79981a6eccbdb76972dcb86a5972b8563b31cd67e039b69651f1f3490c982f35",
          "transactionIndex": "0x1",
          "logIndex": "0x2",
          "removed": false
        },
        {
          "address": "0x7e328974649540bbb883badc382d2476855c1180",
          "topics": [
            "0x77a3414c535688f81cd85546e65fbd4ff1cd89a82113527f2a72896ba19d0925",
            "0x2d0cdaf9a1153a9a4b68379c64d4397611a0f3d9fa4015376435f9a64aafc0c1"
          ],
          "data": "0x000000000000000000000000ec00bfafeb997f74cf238f6225e7d4f53c6b4b11",
          "blockHash": "0xd98faa3a0aa9fbf6d26ba81c161b948c63f333d880a4618ee8652cfab2822e3b",
          "blockNumber": "0x4efb0b2",
          "transactionHash": "0x79981a6eccbdb76972dcb86a5972b8563b31cd67e039b69651f1f3490c982f35",
          "transactionIndex": "0x1",
          "logIndex": "0x3",
          "removed": false
        }
      ],
      "logsBloom": "0x04000000000000000000100000000000000000000000400000800010000000000000000000000000000000000000000000001000000000000000000000000000000000000000000000000000000000000001000020800000000000000000000000000000020000000008000000000800000000000000000000000000000000400000000000000000000800002000000000000000000080000000000000000000000000000000000000004100000000000010020080010000000000000040000000002000400000000000100000000000000000000004000000000000000020000000000000000000000000000000000000000000008000000000000001000000",
      "type": "0x2",
      "transactionHash": "0x79981a6eccbdb76972dcb86a5972b8563b31cd67e039b69651f1f3490c982f35",
      "transactionIndex": "0x1",
      "blockHash": "0xd98faa3a0aa9fbf6d26ba81c161b948c63f333d880a4618ee8652cfab2822e3b",
      "blockNumber": "0x4efb0b2",
      "gasUsed": "0x1f74ee",
      "effectiveGasPrice": "0x5f5e100",
      "from": "0x7caf754c934710d7c73bc453654552beca38223f",
      "to": "0x7e328974649540bbb883badc382d2476855c1180",
      "contractAddress": null,
      "gasUsedForL1": "0x260e",
      "l1BlockNumber": "0x66bf9c"
    },
    {
      "status": "0x1",
      "cumulativeGasUsed": "0x1fda18",
      "logs": [
        {
          "address": "0x714803008c47c6a92f751f4ada847a2dce30d3b7",
          "topics": [
            "0xc7f505b2f371ae2175ee4913f4499e1f2633a7b5936321eed1cdaeb6115181d2"
          ],
          "data": "0x000000000000000000000000000000000000000000000000ffffffffffffffff",
          "blockHash": "0x0064444937d10c4b9ea2869c7ca57d65273cd1ef7d732e4d8c092127ccc23356",
          "blockNumber": "0x4efb0b5",
          "transactionHash": "0xd4ce8f7ceebd1bd219729833eaa8989bbdcee4e2b5d60e94c1f80a74fb8cb469",
          "transactionIndex": "0x1",
          "logIndex": "0x0",
          "removed": false
        },
        {
          "address": "0x714803008c47c6a92f751f4ada847a2dce30d3b7",
          "topics": [
            "0x8be0079c531659141344cd1fd0a4f28419497f9722a3daafe3b4186f6b6457e0",
            "0x0000000000000000000000000000000000000000000000000000000000000000",
            "0x0000000000000000000000007e328974649540bbb883badc382d2476855c1180"
          ],
          "data": "0x",
          "blockHash": "0x0064444937d10c4b9ea2869c7ca57d65273cd1ef7d732e4d8c092127ccc23356",
          "blockNumber": "0x4efb0b5",
          "transactionHash": "0xd4ce8f7ceebd1bd219729833eaa8989bbdcee4e2b5d60e94c1f80a74fb8cb469",
          "transactionIndex": "0x1",
          "logIndex": "0x1",
          "removed": false
        },
        {
          "address": "0x714803008c47c6a92f751f4ada847a2dce30d3b7",
          "topics": [
            "0x715ad5ce61fc9595c7b415289d59cf203f23a94fa06f04af7e489a0a76e1fe26",
            "0x0000000000000000000000007e328974649540bbb883badc382d2476855c1180",
            "0x0000000000000000000000000000000000000000000000000000000000000002"
          ],
          "data": "0x",
          "blockHash": "0x0064444937d10c4b9ea2869c7ca57d65273cd1ef7d732e4d8c092127ccc23356",
          "blockNumber": "0x4efb0b5",
          "transactionHash": "0xd4ce8f7ceebd1bd219729833eaa8989bbdcee4e2b5d60e94c1f80a74fb8cb469",
          "transactionIndex": "0x1",
          "logIndex": "0x2",
          "removed": false
        },
        {
          "address": "0x7e328974649540bbb883badc382d2476855c1180",
          "topics": [
            "0x77a3414c535688f81cd85546e65fbd4ff1cd89a82113527f2a72896ba19d0925",
            "0x4b1115a4946079f8d83c63061f5c49c2f351a054d8dfb284b197f54dbfa8ed62"
          ],
          "data": "0x000000000000000000000000714803008c47c6a92f751f4ada847a2dce30d3b7",
          "blockHash": "0x0064444937d10c4b9ea2869c7ca57d65273cd1ef7d732e4d8c092127ccc23356",
          "blockNumber": "0x4efb0b5",
          "transactionHash": "0xd4ce8f7ceebd1bd219729833eaa8989bbdcee4e2b5d60e94c1f80a74fb8cb469",
          "transactionIndex": "0x1",
          "logIndex": "0x3",
          "removed": false
        }
      ],
      "logsBloom": "0x04000000000000000000000000000000000000000000400008800000000000000000000000000000000000000000000000000000000000000000000000000000000000000000000000000000000000000001000000800000000000000000080000800020020000000008000000000800000000000000000000000000000000400000000000000000000800002000000000000000000080000000000000000000000000000000000000004100000000000500020080010000000000000040000000002000400000000000100000000000000000000004000000000000000020000000000000000000000000000000000000000000008000000000000000000000",
      "type": "0x2",
      "transactionHash": "0xd4ce8f7ceebd1bd219729833eaa8989bbdcee4e2b5d60e94c1f80a74fb8cb469",
      "transactionIndex": "0x1",
      "blockHash": "0x0064444937d10c4b9ea2869c7ca57d65273cd1ef7d732e4d8c092127ccc23356",
      "blockNumber": "0x4efb0b5",
      "gasUsed": "0x1fda18",
      "effectiveGasPrice": "0x5f5e100",
      "from": "0x7caf754c934710d7c73bc453654552beca38223f",
      "to": "0x7e328974649540bbb883badc382d2476855c1180",
      "contractAddress": null,
      "gasUsedForL1": "0x260e",
      "l1BlockNumber": "0x66bf9c"
    },
    {
      "status": "0x1",
      "cumulativeGasUsed": "0xe3a2c",
      "logs": [
        {
          "address": "0xd785cadfc8abf9145a076d8509cca4f6718a39e2",
          "topics": [
            "0xe6e0f2bb70f7273868e11d8662ffd06a4699f98d7905e6d65e9bbd006fbdc3d6"
          ],
          "data": "0x000000000000000000000000dc473fb7f56004bbd6ad019090e9bdd57e885242",
          "blockHash": "0xd708a2e378472023b53d0b56807d2613915c5217687fc28d5f5c09c97920ca3f",
          "blockNumber": "0x4efb0b7",
          "transactionHash": "0x3098c2db82ffcea7a05435fdd6a521b4e1fc47dd040df3a4a42115cc406f0695",
          "transactionIndex": "0x1",
          "logIndex": "0x0",
          "removed": false
        }
      ],
      "logsBloom": "0x00000000000000000000000000000004000000000000000000000000000000000000000000000000000000000000000000000000000000000000000000000000000000000000000020000000000000000000000000000000000000000000000000000000000000000000000000000000000000000000000000000000000000000000000000000000000000000000000000000000000000000000000040000000000000000000000000000000000000000000800000000000000000000000000000000000000000000000000080000000000000000000000000000000000000000000000000000000000000000000000000000000000000000000000400000000",
      "type": "0x2",
      "transactionHash": "0x3098c2db82ffcea7a05435fdd6a521b4e1fc47dd040df3a4a42115cc406f0695",
      "transactionIndex": "0x1",
      "blockHash": "0xd708a2e378472023b53d0b56807d2613915c5217687fc28d5f5c09c97920ca3f",
      "blockNumber": "0x4efb0b7",
      "gasUsed": "0xe3a2c",
      "effectiveGasPrice": "0x5f5e100",
      "from": "0x7caf754c934710d7c73bc453654552beca38223f",
      "to": "0xd785cadfc8abf9145a076d8509cca4f6718a39e2",
      "contractAddress": null,
      "gasUsedForL1": "0x2e5f",
      "l1BlockNumber": "0x66bf9c"
    },
    {
      "status": "0x1",
      "cumulativeGasUsed": "0xe3a2c",
      "logs": [
        {
          "address": "0xd785cadfc8abf9145a076d8509cca4f6718a39e2",
          "topics": [
            "0xe6e0f2bb70f7273868e11d8662ffd06a4699f98d7905e6d65e9bbd006fbdc3d6"
          ],
          "data": "0x000000000000000000000000d0d3e757626d221f2fd1dda62da46cca67622c99",
          "blockHash": "0x2414edf6bb88c71dec43f239e555c28f2f01af79509db8b846ed59e0e2b156cd",
          "blockNumber": "0x4efb0bb",
          "transactionHash": "0xd55b1d66bdb5dce58cae1d6732f5fac9efe1275f76e62850d5477e1d1bfb78f0",
          "transactionIndex": "0x1",
          "logIndex": "0x0",
          "removed": false
        }
      ],
      "logsBloom": "0x00000000000000000000000000000004000000000000000000000000000000000000000000000000000000000000000000000000000000000000000000000000000000000000000020000000000000000000000000000000000000000000000000000000000000000000000000000000000000000000000000000000000000000000000000000000000000000000000000000000000000000000000040000000000000000000000000000000000000000000800000000000000000000000000000000000000000000000000080000000000000000000000000000000000000000000000000000000000000000000000000000000000000000000000400000000",
      "type": "0x2",
      "transactionHash": "0xd55b1d66bdb5dce58cae1d6732f5fac9efe1275f76e62850d5477e1d1bfb78f0",
      "transactionIndex": "0x1",
      "blockHash": "0x2414edf6bb88c71dec43f239e555c28f2f01af79509db8b846ed59e0e2b156cd",
      "blockNumber": "0x4efb0bb",
      "gasUsed": "0xe3a2c",
      "effectiveGasPrice": "0x5f5e100",
      "from": "0x7caf754c934710d7c73bc453654552beca38223f",
      "to": "0xd785cadfc8abf9145a076d8509cca4f6718a39e2",
      "contractAddress": null,
      "gasUsedForL1": "0x2e5f",
      "l1BlockNumber": "0x66bf9d"
    }
  ],
  "libraries": [],
  "pending": [],
  "returns": {},
  "timestamp": 1726929694,
  "chain": 421614,
  "commit": "a9370a6"
}