{
  "transactions": [
    {
      "hash": null,
      "transactionType": "CALL",
      "contractName": null,
      "contractAddress": "0xD4BCd67b1C62aB27FC04FBd49f3142413aBFC753",
      "function": "mint(bytes)",
      "arguments": [
        "0x0000000000000000000000000000000000000000000000000000000000000020000000000000000000000000000000000000000000000000000000000000004011d9b327b46d43525821b67e9e75373040aa7f8162b46753eb565065f743c2e300000000000000000000000000000000000000000000000000000000000000084c65204d6f6e6465000000000000000000000000000000000000000000000000"
      ],
      "transaction": {
        "type": "0x02",
        "from": "0x7caf754c934710d7c73bc453654552beca38223f",
        "to": "0xd4bcd67b1c62ab27fc04fbd49f3142413abfc753",
        "gas": "0x23634",
        "value": "0x0",
        "data": "0x7ba0e2e7000000000000000000000000000000000000000000000000000000000000002000000000000000000000000000000000000000000000000000000000000000a00000000000000000000000000000000000000000000000000000000000000020000000000000000000000000000000000000000000000000000000000000004011d9b327b46d43525821b67e9e75373040aa7f8162b46753eb565065f743c2e300000000000000000000000000000000000000000000000000000000000000084c65204d6f6e6465000000000000000000000000000000000000000000000000",
        "nonce": "0x25bc",
        "accessList": []
      },
      "additionalContracts": [],
      "isFixedGasLimit": false
    },
    {
      "hash": null,
      "transactionType": "CALL",
      "contractName": null,
      "contractAddress": "0xD4BCd67b1C62aB27FC04FBd49f3142413aBFC753",
      "function": "mint(bytes)",
      "arguments": [
        "0x0000000000000000000000000000000000000000000000000000000000000020000000000000000000000000000000000000000000000000000000000000004011d9b327b46d43525821b67e9e75373040aa7f8162b46753eb565065f743c2e300000000000000000000000000000000000000000000000000000000000000084c27657175697065000000000000000000000000000000000000000000000000"
      ],
      "transaction": {
        "type": "0x02",
        "from": "0x7caf754c934710d7c73bc453654552beca38223f",
        "to": "0xd4bcd67b1c62ab27fc04fbd49f3142413abfc753",
        "gas": "0x23634",
        "value": "0x0",
        "data": "0x7ba0e2e7000000000000000000000000000000000000000000000000000000000000002000000000000000000000000000000000000000000000000000000000000000a00000000000000000000000000000000000000000000000000000000000000020000000000000000000000000000000000000000000000000000000000000004011d9b327b46d43525821b67e9e75373040aa7f8162b46753eb565065f743c2e300000000000000000000000000000000000000000000000000000000000000084c27657175697065000000000000000000000000000000000000000000000000",
        "nonce": "0x25bd",
        "accessList": []
      },
      "additionalContracts": [],
      "isFixedGasLimit": false
    },
    {
      "hash": null,
      "transactionType": "CALL",
      "contractName": null,
      "contractAddress": "0xD4BCd67b1C62aB27FC04FBd49f3142413aBFC753",
      "function": "mint(bytes)",
      "arguments": [
        "0x0000000000000000000000000000000000000000000000000000000000000020000000000000000000000000000000000000000000000000000000000000004011d9b327b46d43525821b67e9e75373040aa7f8162b46753eb565065f743c2e300000000000000000000000000000000000000000000000000000000000000055769726564000000000000000000000000000000000000000000000000000000"
      ],
      "transaction": {
        "type": "0x02",
        "from": "0x7caf754c934710d7c73bc453654552beca38223f",
        "to": "0xd4bcd67b1c62ab27fc04fbd49f3142413abfc753",
        "gas": "0x2574f",
        "value": "0x0",
        "data": "0x7ba0e2e7000000000000000000000000000000000000000000000000000000000000002000000000000000000000000000000000000000000000000000000000000000a00000000000000000000000000000000000000000000000000000000000000020000000000000000000000000000000000000000000000000000000000000004011d9b327b46d43525821b67e9e75373040aa7f8162b46753eb565065f743c2e300000000000000000000000000000000000000000000000000000000000000055769726564000000000000000000000000000000000000000000000000000000",
        "nonce": "0x25be",
        "accessList": []
      },
      "additionalContracts": [],
      "isFixedGasLimit": false
    },
    {
      "hash": null,
      "transactionType": "CALL",
      "contractName": null,
      "contractAddress": "0x86111534dF499bBB10Dd7f4e069d5758172a9B22",
      "function": "addPrice(uint256,(uint256,uint32,bool))",
      "arguments": [
        "3",
        "(50000000000000000000, 86400, true)"
      ],
      "transaction": {
        "type": "0x02",
        "from": "0x7caf754c934710d7c73bc453654552beca38223f",
        "to": "0x86111534df499bbb10dd7f4e069d5758172a9b22",
        "gas": "0x207d9",
        "value": "0x0",
        "data": "0x443de9c90000000000000000000000000000000000000000000000000000000000000003000000000000000000000000000000000000000000000002b5e3af16b188000000000000000000000000000000000000000000000000000000000000000151800000000000000000000000000000000000000000000000000000000000000001",
        "nonce": "0x25bf",
        "accessList": []
      },
      "additionalContracts": [],
      "isFixedGasLimit": false
    },
    {
      "hash": null,
      "transactionType": "CALL",
      "contractName": null,
      "contractAddress": "0x86111534dF499bBB10Dd7f4e069d5758172a9B22",
      "function": "addPrice(uint256,(uint256,uint32,bool))",
      "arguments": [
        "3",
        "(300000000000000000000, 604800, true)"
      ],
      "transaction": {
        "type": "0x02",
        "from": "0x7caf754c934710d7c73bc453654552beca38223f",
        "to": "0x86111534df499bbb10dd7f4e069d5758172a9b22",
        "gas": "0x1c4bd",
        "value": "0x0",
        "data": "0x443de9c9000000000000000000000000000000000000000000000000000000000000000300000000000000000000000000000000000000000000001043561a88293000000000000000000000000000000000000000000000000000000000000000093a800000000000000000000000000000000000000000000000000000000000000001",
        "nonce": "0x25c0",
        "accessList": []
      },
      "additionalContracts": [],
      "isFixedGasLimit": false
    },
    {
      "hash": null,
      "transactionType": "CALL",
      "contractName": null,
      "contractAddress": "0x86111534dF499bBB10Dd7f4e069d5758172a9B22",
      "function": "addPrice(uint256,(uint256,uint32,bool))",
      "arguments": [
        "3",
        "(1000000000000000000000, 2592000, true)"
      ],
      "transaction": {
        "type": "0x02",
        "from": "0x7caf754c934710d7c73bc453654552beca38223f",
        "to": "0x86111534df499bbb10dd7f4e069d5758172a9b22",
        "gas": "0x1ab85",
        "value": "0x0",
        "data": "0x443de9c9000000000000000000000000000000000000000000000000000000000000000300000000000000000000000000000000000000000000003635c9adc5dea000000000000000000000000000000000000000000000000000000000000000278d000000000000000000000000000000000000000000000000000000000000000001",
        "nonce": "0x25c1",
        "accessList": []
      },
      "additionalContracts": [],
      "isFixedGasLimit": false
    },
    {
      "hash": null,
      "transactionType": "CALL",
      "contractName": null,
      "contractAddress": "0x86111534dF499bBB10Dd7f4e069d5758172a9B22",
      "function": "addPrice(uint256,(uint256,uint32,bool))",
      "arguments": [
        "4",
        "(50000000000000000000, 86400, true)"
      ],
      "transaction": {
        "type": "0x02",
        "from": "0x7caf754c934710d7c73bc453654552beca38223f",
        "to": "0x86111534df499bbb10dd7f4e069d5758172a9b22",
        "gas": "0x207d9",
        "value": "0x0",
        "data": "0x443de9c90000000000000000000000000000000000000000000000000000000000000004000000000000000000000000000000000000000000000002b5e3af16b188000000000000000000000000000000000000000000000000000000000000000151800000000000000000000000000000000000000000000000000000000000000001",
        "nonce": "0x25c2",
        "accessList": []
      },
      "additionalContracts": [],
      "isFixedGasLimit": false
    },
    {
      "hash": null,
      "transactionType": "CALL",
      "contractName": null,
      "contractAddress": "0x86111534dF499bBB10Dd7f4e069d5758172a9B22",
      "function": "addPrice(uint256,(uint256,uint32,bool))",
      "arguments": [
        "4",
        "(300000000000000000000, 604800, true)"
      ],
      "transaction": {
        "type": "0x02",
        "from": "0x7caf754c934710d7c73bc453654552beca38223f",
        "to": "0x86111534df499bbb10dd7f4e069d5758172a9b22",
        "gas": "0x1c4bd",
        "value": "0x0",
        "data": "0x443de9c9000000000000000000000000000000000000000000000000000000000000000400000000000000000000000000000000000000000000001043561a88293000000000000000000000000000000000000000000000000000000000000000093a800000000000000000000000000000000000000000000000000000000000000001",
        "nonce": "0x25c3",
        "accessList": []
      },
      "additionalContracts": [],
      "isFixedGasLimit": false
    },
    {
      "hash": null,
      "transactionType": "CALL",
      "contractName": null,
      "contractAddress": "0x86111534dF499bBB10Dd7f4e069d5758172a9B22",
      "function": "addPrice(uint256,(uint256,uint32,bool))",
      "arguments": [
        "4",
        "(1000000000000000000000, 2592000, true)"
      ],
      "transaction": {
        "type": "0x02",
        "from": "0x7caf754c934710d7c73bc453654552beca38223f",
        "to": "0x86111534df499bbb10dd7f4e069d5758172a9b22",
        "gas": "0x1ab85",
        "value": "0x0",
        "data": "0x443de9c9000000000000000000000000000000000000000000000000000000000000000400000000000000000000000000000000000000000000003635c9adc5dea000000000000000000000000000000000000000000000000000000000000000278d000000000000000000000000000000000000000000000000000000000000000001",
        "nonce": "0x25c4",
        "accessList": []
      },
      "additionalContracts": [],
      "isFixedGasLimit": false
    },
    {
      "hash": null,
      "transactionType": "CALL",
      "contractName": null,
      "contractAddress": "0x86111534dF499bBB10Dd7f4e069d5758172a9B22",
      "function": "addPrice(uint256,(uint256,uint32,bool))",
      "arguments": [
        "5",
        "(50000000000000000000, 86400, true)"
      ],
      "transaction": {
        "type": "0x02",
        "from": "0x7caf754c934710d7c73bc453654552beca38223f",
        "to": "0x86111534df499bbb10dd7f4e069d5758172a9b22",
        "gas": "0x207d9",
        "value": "0x0",
        "data": "0x443de9c90000000000000000000000000000000000000000000000000000000000000005000000000000000000000000000000000000000000000002b5e3af16b188000000000000000000000000000000000000000000000000000000000000000151800000000000000000000000000000000000000000000000000000000000000001",
        "nonce": "0x25c5",
        "accessList": []
      },
      "additionalContracts": [],
      "isFixedGasLimit": false
    },
    {
      "hash": null,
      "transactionType": "CALL",
      "contractName": null,
      "contractAddress": "0x86111534dF499bBB10Dd7f4e069d5758172a9B22",
      "function": "addPrice(uint256,(uint256,uint32,bool))",
      "arguments": [
        "5",
        "(300000000000000000000, 604800, true)"
      ],
      "transaction": {
        "type": "0x02",
        "from": "0x7caf754c934710d7c73bc453654552beca38223f",
        "to": "0x86111534df499bbb10dd7f4e069d5758172a9b22",
        "gas": "0x1c4bd",
        "value": "0x0",
        "data": "0x443de9c9000000000000000000000000000000000000000000000000000000000000000500000000000000000000000000000000000000000000001043561a88293000000000000000000000000000000000000000000000000000000000000000093a800000000000000000000000000000000000000000000000000000000000000001",
        "nonce": "0x25c6",
        "accessList": []
      },
      "additionalContracts": [],
      "isFixedGasLimit": false
    },
    {
      "hash": null,
      "transactionType": "CALL",
      "contractName": null,
      "contractAddress": "0x86111534dF499bBB10Dd7f4e069d5758172a9B22",
      "function": "addPrice(uint256,(uint256,uint32,bool))",
      "arguments": [
        "5",
        "(1000000000000000000000, 2592000, true)"
      ],
      "transaction": {
        "type": "0x02",
        "from": "0x7caf754c934710d7c73bc453654552beca38223f",
        "to": "0x86111534df499bbb10dd7f4e069d5758172a9b22",
        "gas": "0x1ab85",
        "value": "0x0",
        "data": "0x443de9c9000000000000000000000000000000000000000000000000000000000000000500000000000000000000000000000000000000000000003635c9adc5dea000000000000000000000000000000000000000000000000000000000000000278d000000000000000000000000000000000000000000000000000000000000000001",
        "nonce": "0x25c7",
        "accessList": []
      },
      "additionalContracts": [],
      "isFixedGasLimit": false
    }
  ],
  "receipts": [],
  "libraries": [],
  "pending": [],
  "returns": {},
  "timestamp": 1712067798,
  "chain": 80001,
  "commit": "1947557"
}