{
  "transactions": [
    {
      "hash": "0x307777371aba26d05e6b982c1b53d0827863faa4713a127c92661619fdc73dd3",
      "transactionType": "CALL",
      "contractName": null,
      "contractAddress": "0xc97d72a8a9d1d2ed326eb04f2d706a21cee2b94e",
      "function": "updateCampaignFactory(address)",
      "arguments": [
        "0x440B19d7694f4B8949b02e674870880c5e40250C"
      ],
      "transaction": {
        "from": "0x7caf754c934710d7c73bc453654552beca38223f",
        "to": "0xc97d72a8a9d1d2ed326eb04f2d706a21cee2b94e",
        "gas": "0x3410a",
        "value": "0x0",
        "input": "0xd9146d77000000000000000000000000440b19d7694f4b8949b02e674870880c5e40250c",
        "nonce": "0x1e8",
        "chainId": "0x66eee"
      },
      "additionalContracts": [],
      "isFixedGasLimit": false
    }
  ],
  "receipts": [
    {
      "status": "0x1",
      "cumulativeGasUsed": "0x4326f",
      "logs": [],
      "logsBloom": "0x00000000000000000000000000000000000000000000000000000000000000000000000000000000000000000000000000000000000000000000000000000000000000000000000000000000000000000000000000000000000000000000000000000000000000000000000000000000000000000000000000000000000000000000000000000000000000000000000000000000000000000000000000000000000000000000000000000000000000000000000000000000000000000000000000000000000000000000000000000000000000000000000000000000000000000000000000000000000000000000000000000000000000000000000000000000",
      "type": "0x2",
      "transactionHash": "0x307777371aba26d05e6b982c1b53d0827863faa4713a127c92661619fdc73dd3",
      "transactionIndex": "0x2",
      "blockHash": "0x1e9af111bf850b3cb158a20b7c13398c2d436b67b94e5acf54398aae9ed53fa8",
      "blockNumber": "0x396f66e",
      "gasUsed": "0x20149",
      "effectiveGasPrice": "0x5f5e100",
      "from": "0x7caf754c934710d7c73bc453654552beca38223f",
      "to": "0xc97d72a8a9d1d2ed326eb04f2d706a21cee2b94e",
      "contractAddress": null,
      "gasUsedForL1": "0x17d29",
      "l1BlockNumber": "0x5f0977"
    }
  ],
  "libraries": [],
  "pending": [],
  "returns": {},
  "timestamp": 1719875585,
  "chain": 421614,
  "commit": "46bb2de"
}