{
  "transactions": [
    {
      "hash": "0xa9dcfd72eeb548f301dfa88eebcc852bc9b8bfd95d31607b494f9db9cdeb66eb",
      "transactionType": "CALL",
      "contractName": null,
      "contractAddress": "0xc9d1bab1b9a07c11ab0c264b13affd500dd4c2ee",
      "function": "updateFacetsFactory(address)",
      "arguments": [
        "0xAC09E547d3f21F1E0aCbe76dde44BB1BcFFb9D7D"
      ],
      "transaction": {
        "from": "0x7caf754c934710d7c73bc453654552beca38223f",
        "to": "0xc9d1bab1b9a07c11ab0c264b13affd500dd4c2ee",
        "gas": "0x11e25",
        "value": "0x0",
        "input": "0xa042ea40000000000000000000000000ac09e547d3f21f1e0acbe76dde44bb1bcffb9d7d",
        "nonce": "0x2df",
        "chainId": "0x66eee"
      },
      "additionalContracts": [],
      "isFixedGasLimit": false
    },
    {
      "hash": "0x40a55399ec6b8cef90d368064cb0f3e2518361551afec6c90e24c2dba6a95cda",
      "transactionType": "CALL",
      "contractName": null,
      "contractAddress": "0xc9d1bab1b9a07c11ab0c264b13affd500dd4c2ee",
      "function": "updateInteractionContract(uint256)",
      "arguments": [
        "20376791661718660580662410765070640284736320707848823176694931891585259913409"
      ],
      "transaction": {
        "from": "0x7caf754c934710d7c73bc453654552beca38223f",
        "to": "0xc9d1bab1b9a07c11ab0c264b13affd500dd4c2ee",
        "gas": "0x1e191",
        "value": "0x0",
        "input": "0x64032f592d0cdaf9a1153a9a4b68379c64d4397611a0f3d9fa4015376435f9a64aafc0c1",
        "nonce": "0x2e0",
        "chainId": "0x66eee"
      },
      "additionalContracts": [],
      "isFixedGasLimit": false
    },
    {
      "hash": "0xcee7a7dff7b27dad4dd8a3a4251dda2f402a25ea82375124ad437698669bc37d",
      "transactionType": "CALL",
      "contractName": null,
      "contractAddress": "0xc9d1bab1b9a07c11ab0c264b13affd500dd4c2ee",
      "function": "updateInteractionContract(uint256)",
      "arguments": [
        "33953649417576654953995537313820306697747390492794311279756157547821320957282"
      ],
      "transaction": {
        "from": "0x7caf754c934710d7c73bc453654552beca38223f",
        "to": "0xc9d1bab1b9a07c11ab0c264b13affd500dd4c2ee",
        "gas": "0x20174",
        "value": "0x0",
        "input": "0x64032f594b1115a4946079f8d83c63061f5c49c2f351a054d8dfb284b197f54dbfa8ed62",
        "nonce": "0x2e1",
        "chainId": "0x66eee"
      },
      "additionalContracts": [],
      "isFixedGasLimit": false
    }
  ],
  "receipts": [
    {
      "status": "0x1",
      "cumulativeGasUsed": "0x1dfec",
      "logs": [],
      "logsBloom": "0x00000000000000000000000000000000000000000000000000000000000000000000000000000000000000000000000000000000000000000000000000000000000000000000000000000000000000000000000000000000000000000000000000000000000000000000000000000000000000000000000000000000000000000000000000000000000000000000000000000000000000000000000000000000000000000000000000000000000000000000000000000000000000000000000000000000000000000000000000000000000000000000000000000000000000000000000000000000000000000000000000000000000000000000000000000000",
      "type": "0x2",
      "transactionHash": "0xa9dcfd72eeb548f301dfa88eebcc852bc9b8bfd95d31607b494f9db9cdeb66eb",
      "transactionIndex": "0x2",
      "blockHash": "0x25371f68797a2b21f291e43982629527eed7509e9e6dd5b1c87a6cb07f44c22f",
      "blockNumber": "0x49a99d4",
      "gasUsed": "0xbd8e",
      "effectiveGasPrice": "0x5f5e100",
      "from": "0x7caf754c934710d7c73bc453654552beca38223f",
      "to": "0xc9d1bab1b9a07c11ab0c264b13affd500dd4c2ee",
      "contractAddress": null,
      "gasUsedForL1": "0x448a",
      "l1BlockNumber": "0x6535b9"
    },
    {
      "status": "0x1",
      "cumulativeGasUsed": "0x155c9",
      "logs": [
        {
          "address": "0xc9d1bab1b9a07c11ab0c264b13affd500dd4c2ee",
          "topics": [
            "0xe6018505858eceb835b8280d364146d12a63551fe63d393b1b120fdbe28fe08d"
          ],
          "data": "0x2d0cdaf9a1153a9a4b68379c64d4397611a0f3d9fa4015376435f9a64aafc0c1000000000000000000000000a6c7b08ca81da85d8741d7996acd938d29347023",
          "blockHash": "0x231df3248ea6d231f518a00f8aba9ebcc62f99889b3ce2de00a49dd24d159894",
          "blockNumber": "0x49a99d6",
          "transactionHash": "0x40a55399ec6b8cef90d368064cb0f3e2518361551afec6c90e24c2dba6a95cda",
          "transactionIndex": "0x1",
          "logIndex": "0x0",
          "removed": false
        }
      ],
      "logsBloom": "0x00000000000000000000000000000000000000000000000000000000000000000000000000000000000000000000000000000000000000000200000000000000100000000000000000000000000000000000000000000000000000000000000000000000000000000000000000000000000000000000000000000000000000000000000000000000000000000000000000000000001000000000000000000000000000000000002000000000000000000000000000000000000000080000000000000000000000000000000000000000000000000000000000000000000000000000000000000000000000000000010000000000000000000000000000000000",
      "type": "0x2",
      "transactionHash": "0x40a55399ec6b8cef90d368064cb0f3e2518361551afec6c90e24c2dba6a95cda",
      "transactionIndex": "0x1",
      "blockHash": "0x231df3248ea6d231f518a00f8aba9ebcc62f99889b3ce2de00a49dd24d159894",
      "blockNumber": "0x49a99d6",
      "gasUsed": "0x155c9",
      "effectiveGasPrice": "0x5f5e100",
      "from": "0x7caf754c934710d7c73bc453654552beca38223f",
      "to": "0xc9d1bab1b9a07c11ab0c264b13affd500dd4c2ee",
      "contractAddress": null,
      "gasUsedForL1": "0x448a",
      "l1BlockNumber": "0x6535b9"
    },
    {
      "status": "0x1",
      "cumulativeGasUsed": "0x51301",
      "logs": [
        {
          "address": "0xc9d1bab1b9a07c11ab0c264b13affd500dd4c2ee",
          "topics": [
            "0xe6018505858eceb835b8280d364146d12a63551fe63d393b1b120fdbe28fe08d"
          ],
          "data": "0x4b1115a4946079f8d83c63061f5c49c2f351a054d8dfb284b197f54dbfa8ed62000000000000000000000000480ed11019014a132117a5d65cc3bb646a36269a",
          "blockHash": "0xf3e2dce3e1c209411836e8c23e099b1db5baebdb5b91504cb485665ad60ed81d",
          "blockNumber": "0x49a99da",
          "transactionHash": "0xcee7a7dff7b27dad4dd8a3a4251dda2f402a25ea82375124ad437698669bc37d",
          "transactionIndex": "0x3",
          "logIndex": "0x8",
          "removed": false
        }
      ],
      "logsBloom": "0x00000000000000000000000000000000000000000000000000000000000000000000000000000000000000000000000000000000000000000200000000000000100000000000000000000000000000000000000000000000000000000000000000000000000000000000000000000000000000000000000000000000000000000000000000000000000000000000000000000000001000000000000000000000000000000000002000000000000000000000000000000000000000080000000000000000000000000000000000000000000000000000000000000000000000000000000000000000000000000000010000000000000000000000000000000000",
      "type": "0x2",
      "transactionHash": "0xcee7a7dff7b27dad4dd8a3a4251dda2f402a25ea82375124ad437698669bc37d",
      "transactionIndex": "0x3",
      "blockHash": "0xf3e2dce3e1c209411836e8c23e099b1db5baebdb5b91504cb485665ad60ed81d",
      "blockNumber": "0x49a99da",
      "gasUsed": "0x16e1f",
      "effectiveGasPrice": "0x5f5e100",
      "from": "0x7caf754c934710d7c73bc453654552beca38223f",
      "to": "0xc9d1bab1b9a07c11ab0c264b13affd500dd4c2ee",
      "contractAddress": null,
      "gasUsedForL1": "0x448a",
      "l1BlockNumber": "0x6535b9"
    }
  ],
  "libraries": [],
  "pending": [],
  "returns": {},
  "timestamp": 1725476401,
  "chain": 421614,
  "commit": "6b2a32c"
}