{
  "transactions": [
    {
      "hash": "0xf331f15c2fefb52a60a2de8c1ba8a1d9ee571ae80414f3384b8913aabeed8958",
      "transactionType": "CALL",
      "contractName": null,
      "contractAddress": "0x7e328974649540bbb883badc382d2476855c1180",
      "function": "updateFacetsFactory(address)",
      "arguments": [
        "0x7Db1473e226Ac406e485155FBFAA34F3B1FC84C5"
      ],
      "transaction": {
        "from": "0x7caf754c934710d7c73bc453654552beca38223f",
        "to": "0x7e328974649540bbb883badc382d2476855c1180",
        "gas": "0x1f21d",
        "value": "0x0",
        "input": "0xa042ea400000000000000000000000007db1473e226ac406e485155fbfaa34f3b1fc84c5",
        "nonce": "0x2fe",
        "chainId": "0x66eee"
      },
      "additionalContracts": [],
      "isFixedGasLimit": false
    },
    {
      "hash": "0x14da14f6fb9d4921efd866944610d53850a9f8fa395769ff16ad4172aef22a83",
      "transactionType": "CALL",
      "contractName": null,
      "contractAddress": "0x7e328974649540bbb883badc382d2476855c1180",
      "function": "updateInteractionContract(uint256)",
      "arguments": [
        "20376791661718660580662410765070640284736320707848823176694931891585259913409"
      ],
      "transaction": {
        "from": "0x7caf754c934710d7c73bc453654552beca38223f",
        "to": "0x7e328974649540bbb883badc382d2476855c1180",
        "gas": "0x2b1d1",
        "value": "0x0",
        "input": "0x64032f592d0cdaf9a1153a9a4b68379c64d4397611a0f3d9fa4015376435f9a64aafc0c1",
        "nonce": "0x2ff",
        "chainId": "0x66eee"
      },
      "additionalContracts": [],
      "isFixedGasLimit": false
    },
    {
      "hash": "0x16f4f5f42ae27df6117d28ec1a8ca5d980f368bc9c8e957d8d95ffcecca00264",
      "transactionType": "CALL",
      "contractName": null,
      "contractAddress": "0x7e328974649540bbb883badc382d2476855c1180",
      "function": "updateInteractionContract(uint256)",
      "arguments": [
        "33953649417576654953995537313820306697747390492794311279756157547821320957282"
      ],
      "transaction": {
        "from": "0x7caf754c934710d7c73bc453654552beca38223f",
        "to": "0x7e328974649540bbb883badc382d2476855c1180",
        "gas": "0x2d1b4",
        "value": "0x0",
        "input": "0x64032f594b1115a4946079f8d83c63061f5c49c2f351a054d8dfb284b197f54dbfa8ed62",
        "nonce": "0x300",
        "chainId": "0x66eee"
      },
      "additionalContracts": [],
      "isFixedGasLimit": false
    }
  ],
  "receipts": [
    {
      "status": "0x1",
      "cumulativeGasUsed": "0x140ea",
      "logs": [],
      "logsBloom": "0x00000000000000000000000000000000000000000000000000000000000000000000000000000000000000000000000000000000000000000000000000000000000000000000000000000000000000000000000000000000000000000000000000000000000000000000000000000000000000000000000000000000000000000000000000000000000000000000000000000000000000000000000000000000000000000000000000000000000000000000000000000000000000000000000000000000000000000000000000000000000000000000000000000000000000000000000000000000000000000000000000000000000000000000000000000000",
      "type": "0x2",
      "transactionHash": "0xf331f15c2fefb52a60a2de8c1ba8a1d9ee571ae80414f3384b8913aabeed8958",
      "transactionIndex": "0x1",
      "blockHash": "0x4c845a54a5098c807f31395bb6db848e68135944bd71a85692120aa88dca2f2d",
      "blockNumber": "0x50a452e",
      "gasUsed": "0x140ea",
      "effectiveGasPrice": "0x5f5e100",
      "from": "0x7caf754c934710d7c73bc453654552beca38223f",
      "to": "0x7e328974649540bbb883badc382d2476855c1180",
      "contractAddress": null,
      "gasUsedForL1": "0xbcf6",
      "l1BlockNumber": "0x674f20"
    },
    {
      "status": "0x1",
      "cumulativeGasUsed": "0x1e555",
      "logs": [
        {
          "address": "0x7e328974649540bbb883badc382d2476855c1180",
          "topics": [
            "0xe6018505858eceb835b8280d364146d12a63551fe63d393b1b120fdbe28fe08d",
            "0x2d0cdaf9a1153a9a4b68379c64d4397611a0f3d9fa4015376435f9a64aafc0c1"
          ],
          "data": "0x000000000000000000000000ec00bfafeb997f74cf238f6225e7d4f53c6b4b11",
          "blockHash": "0xdc29d59a39ab7b2227293679b56cfc3b619af2698a08a9edf3c77f9cc5e6e609",
          "blockNumber": "0x50a4531",
          "transactionHash": "0x14da14f6fb9d4921efd866944610d53850a9f8fa395769ff16ad4172aef22a83",
          "transactionIndex": "0x1",
          "logIndex": "0x0",
          "removed": false
        }
      ],
      "logsBloom": "0x00000000000000000000100000000000000000000000400000000010000000000000000000000000000000000000000000000000000000000200000000000000000000000000000000000000000000000000000020000000000000000000000000000000000000000008000000000000000000000000000000000000000000000000000000000000000000000000000000000000000000000000000000000000000000000000002000000000000000000000000000000000000000000000000000000000000000000000100000000000000000000000000000000000000000000000000000000000000000000000010000000000000000000000000000000000",
      "type": "0x2",
      "transactionHash": "0x14da14f6fb9d4921efd866944610d53850a9f8fa395769ff16ad4172aef22a83",
      "transactionIndex": "0x1",
      "blockHash": "0xdc29d59a39ab7b2227293679b56cfc3b619af2698a08a9edf3c77f9cc5e6e609",
      "blockNumber": "0x50a4531",
      "gasUsed": "0x1e555",
      "effectiveGasPrice": "0x5f5e100",
      "from": "0x7caf754c934710d7c73bc453654552beca38223f",
      "to": "0x7e328974649540bbb883badc382d2476855c1180",
      "contractAddress": null,
      "gasUsedForL1": "0xbcf6",
      "l1BlockNumber": "0x674f20"
    },
    {
      "status": "0x1",
      "cumulativeGasUsed": "0x2089b",
      "logs": [
        {
          "address": "0x7e328974649540bbb883badc382d2476855c1180",
          "topics": [
            "0xe6018505858eceb835b8280d364146d12a63551fe63d393b1b120fdbe28fe08d",
            "0x4b1115a4946079f8d83c63061f5c49c2f351a054d8dfb284b197f54dbfa8ed62"
          ],
          "data": "0x000000000000000000000000714803008c47c6a92f751f4ada847a2dce30d3b7",
          "blockHash": "0xdb4eb47461b17aef357754602ff298cbbff0455cee336ceee4bfd3f6581d9050",
          "blockNumber": "0x50a4534",
          "transactionHash": "0x16f4f5f42ae27df6117d28ec1a8ca5d980f368bc9c8e957d8d95ffcecca00264",
          "transactionIndex": "0x1",
          "logIndex": "0x0",
          "removed": false
        }
      ],
      "logsBloom": "0x00000000000000000000000000000000000000000000400008000000000000000000000000000000000000000000000000000000000000000200000000000000000000000000000000000000000000000000000000000000000000000000000000800020000000000008000000000000000000000000000000000000000000000000000000000000000000000000000000000000000000000000000000000000000000000000002000000000000000000000000000000000000000000000000000000000000000000000100000000000000000000000000000000000000000000000000000000000000000000000010000000000000000000000000000000000",
      "type": "0x2",
      "transactionHash": "0x16f4f5f42ae27df6117d28ec1a8ca5d980f368bc9c8e957d8d95ffcecca00264",
      "transactionIndex": "0x1",
      "blockHash": "0xdb4eb47461b17aef357754602ff298cbbff0455cee336ceee4bfd3f6581d9050",
      "blockNumber": "0x50a4534",
      "gasUsed": "0x2089b",
      "effectiveGasPrice": "0x5f5e100",
      "from": "0x7caf754c934710d7c73bc453654552beca38223f",
      "to": "0x7e328974649540bbb883badc382d2476855c1180",
      "contractAddress": null,
      "gasUsedForL1": "0xbcf6",
      "l1BlockNumber": "0x674f20"
    }
  ],
  "libraries": [],
  "pending": [],
  "returns": {},
  "timestamp": 1727460948,
  "chain": 421614,
  "commit": "18eeb19"
}