{
  "transactions": [
    {
      "hash": "0x6ca237058e13598d2e297c9e3fafce9cb09a4dc0a6bd703734231127d1e14773",
      "transactionType": "CALL",
      "contractName": null,
      "contractAddress": "0x089369ad02bc21459fe4101151fd6d2bbd7fa08a",
      "function": "updateFacetsFactory(address)",
      "arguments": [
        "0x69e37f52E1A2Fff5026b212b32207d3E0Cdceb58"
      ],
      "transaction": {
        "from": "0x7caf754c934710d7c73bc453654552beca38223f",
        "to": "0x089369ad02bc21459fe4101151fd6d2bbd7fa08a",
        "gas": "0x29c7c",
        "value": "0x0",
        "input": "0xa042ea4000000000000000000000000069e37f52e1a2fff5026b212b32207d3e0cdceb58",
        "nonce": "0x31d",
        "chainId": "0x66eee"
      },
      "additionalContracts": [],
      "isFixedGasLimit": false
    },
    {
      "hash": "0xcc5cff9e2ebcef1cccf95b7beedf74290fa297db5b90d0c69091d7e51fc5e722",
      "transactionType": "CALL",
      "contractName": null,
      "contractAddress": "0x089369ad02bc21459fe4101151fd6d2bbd7fa08a",
      "function": "updateInteractionContract(uint256)",
      "arguments": [
        "20376791661718660580662410765070640284736320707848823176694931891585259913409"
      ],
      "transaction": {
        "from": "0x7caf754c934710d7c73bc453654552beca38223f",
        "to": "0x089369ad02bc21459fe4101151fd6d2bbd7fa08a",
        "gas": "0x34c8d",
        "value": "0x0",
        "input": "0x64032f592d0cdaf9a1153a9a4b68379c64d4397611a0f3d9fa4015376435f9a64aafc0c1",
        "nonce": "0x31e",
        "chainId": "0x66eee"
      },
      "additionalContracts": [],
      "isFixedGasLimit": false
    },
    {
      "hash": "0xf5ad50cfc807c267068a93398391c3ba30f15903c43e19d7f29275de6dc98b6b",
      "transactionType": "CALL",
      "contractName": null,
      "contractAddress": "0x089369ad02bc21459fe4101151fd6d2bbd7fa08a",
      "function": "updateInteractionContract(uint256)",
      "arguments": [
        "33953649417576654953995537313820306697747390492794311279756157547821320957282"
      ],
      "transaction": {
        "from": "0x7caf754c934710d7c73bc453654552beca38223f",
        "to": "0x089369ad02bc21459fe4101151fd6d2bbd7fa08a",
        "gas": "0x3ab05",
        "value": "0x0",
        "input": "0x64032f594b1115a4946079f8d83c63061f5c49c2f351a054d8dfb284b197f54dbfa8ed62",
        "nonce": "0x31f",
        "chainId": "0x66eee"
      },
      "additionalContracts": [],
      "isFixedGasLimit": false
    }
  ],
  "receipts": [
    {
      "status": "0x1",
      "cumulativeGasUsed": "0x1a499",
      "logs": [],
      "logsBloom": "0x00000000000000000000000000000000000000000000000000000000000000000000000000000000000000000000000000000000000000000000000000000000000000000000000000000000000000000000000000000000000000000000000000000000000000000000000000000000000000000000000000000000000000000000000000000000000000000000000000000000000000000000000000000000000000000000000000000000000000000000000000000000000000000000000000000000000000000000000000000000000000000000000000000000000000000000000000000000000000000000000000000000000000000000000000000000",
      "type": "0x2",
      "transactionHash": "0x6ca237058e13598d2e297c9e3fafce9cb09a4dc0a6bd703734231127d1e14773",
      "transactionIndex": "0x1",
      "blockHash": "0xd3b5901c95e556fb9bce98978f3bed76bce21791d4a8423aa59e438743ea9b3d",
      "blockNumber": "0x510dfd3",
      "gasUsed": "0x1a499",
      "effectiveGasPrice": "0x5f5e100",
      "from": "0x7caf754c934710d7c73bc453654552beca38223f",
      "to": "0x089369ad02bc21459fe4101151fd6d2bbd7fa08a",
      "contractAddress": null,
      "gasUsedForL1": "0x120a5",
      "l1BlockNumber": "0x677d28"
    },
    {
      "status": "0x1",
      "cumulativeGasUsed": "0x23c92",
      "logs": [
        {
          "address": "0x089369ad02bc21459fe4101151fd6d2bbd7fa08a",
          "topics": [
            "0xe6018505858eceb835b8280d364146d12a63551fe63d393b1b120fdbe28fe08d",
            "0x2d0cdaf9a1153a9a4b68379c64d4397611a0f3d9fa4015376435f9a64aafc0c1"
          ],
          "data": "0x000000000000000000000000c8b4539f24a7a8c2c5b3ca99e9bff49a4debfeb8",
          "blockHash": "0x04ba3ddc8b4eb58533217abc0773ba1ae7f1e84eb880c7ba5206e4066d783ffa",
          "blockNumber": "0x510dfd5",
          "transactionHash": "0xcc5cff9e2ebcef1cccf95b7beedf74290fa297db5b90d0c69091d7e51fc5e722",
          "transactionIndex": "0x1",
          "logIndex": "0x0",
          "removed": false
        }
      ],
      "logsBloom": "0x00000000000000000004100000000000000000000000000000000010000000000000000000000000000000000000000000000000000000000200000000000000000000000000000000000000000000000000000020000000000000000000000000000000000000000000000000000000000000000000000000000000000000080000000000000000000000000000000000000000000000000000000000000080000000000000002000000000000000000000000000000000000000000000000000000000000000000000000000000000000000000000000000000000000000000000000000000000000000000000010000000000000000000000000000000000",
      "type": "0x2",
      "transactionHash": "0xcc5cff9e2ebcef1cccf95b7beedf74290fa297db5b90d0c69091d7e51fc5e722",
      "transactionIndex": "0x1",
      "blockHash": "0x04ba3ddc8b4eb58533217abc0773ba1ae7f1e84eb880c7ba5206e4066d783ffa",
      "blockNumber": "0x510dfd5",
      "gasUsed": "0x23c92",
      "effectiveGasPrice": "0x5f5e100",
      "from": "0x7caf754c934710d7c73bc453654552beca38223f",
      "to": "0x089369ad02bc21459fe4101151fd6d2bbd7fa08a",
      "contractAddress": null,
      "gasUsedForL1": "0x120a5",
      "l1BlockNumber": "0x677d28"
    },
    {
      "status": "0x1",
      "cumulativeGasUsed": "0x2a57b",
      "logs": [
        {
          "address": "0x089369ad02bc21459fe4101151fd6d2bbd7fa08a",
          "topics": [
            "0xe6018505858eceb835b8280d364146d12a63551fe63d393b1b120fdbe28fe08d",
            "0x4b1115a4946079f8d83c63061f5c49c2f351a054d8dfb284b197f54dbfa8ed62"
          ],
          "data": "0x0000000000000000000000007c6c9a645de693b789036c83cd57948e1f4442e5",
          "blockHash": "0xbf66571c2f790e5906ca572754767c571b94fd4bca06ebadd264417b58a7ecbe",
          "blockNumber": "0x510dfd9",
          "transactionHash": "0xf5ad50cfc807c267068a93398391c3ba30f15903c43e19d7f29275de6dc98b6b",
          "transactionIndex": "0x1",
          "logIndex": "0x0",
          "removed": false
        }
      ],
      "logsBloom": "0x00000000000000000004000000000000000000000000000008000000000000000000000000000000000000000000000000000000000000000200000000000000000000000000000000000000000000000000000000000000000000000000000000800020000000000000000000000000000000000000000000000000000000080000000000000000000000000000000000000000000000000000000000000080000000000000002000000000000000000000000000000000000000000000000000000000000000000000000000000000000000000000000000000000000000000000000000000000000000000000010000000000000000000000000000000000",
      "type": "0x2",
      "transactionHash": "0xf5ad50cfc807c267068a93398391c3ba30f15903c43e19d7f29275de6dc98b6b",
      "transactionIndex": "0x1",
      "blockHash": "0xbf66571c2f790e5906ca572754767c571b94fd4bca06ebadd264417b58a7ecbe",
      "blockNumber": "0x510dfd9",
      "gasUsed": "0x2a57b",
      "effectiveGasPrice": "0x5f5e100",
      "from": "0x7caf754c934710d7c73bc453654552beca38223f",
      "to": "0x089369ad02bc21459fe4101151fd6d2bbd7fa08a",
      "contractAddress": null,
      "gasUsedForL1": "0x120a5",
      "l1BlockNumber": "0x677d28"
    }
  ],
  "libraries": [],
  "pending": [],
  "returns": {},
  "timestamp": 1727624446,
  "chain": 421614,
  "commit": "11bd0a3"
}