{
  "transactions": [
    {
      "hash": "0x2c71365c8e94e32d2b42417aa4b883addbd16eb4406d7359605a04c5f50d8d23",
      "transactionType": "CALL",
      "contractName": null,
      "contractAddress": "0x758f01b484212b38eae264f75c0dd7842d510d9c",
      "function": "updateMetadata(uint256,uint256,string)",
      "arguments": [
        "20376791661718660580662410765070640284736320707848823176694931891585259913409",
        "1073741828",
        "\"A Positivie World\""
      ],
      "transaction": {
        "from": "0x7caf754c934710d7c73bc453654552beca38223f",
        "to": "0x758f01b484212b38eae264f75c0dd7842d510d9c",
        "gas": "0x207310",
        "value": "0x0",
        "input": "0xff09a1a42d0cdaf9a1153a9a4b68379c64d4397611a0f3d9fa4015376435f9a64aafc0c10000000000000000000000000000000000000000000000000000000040000004000000000000000000000000000000000000000000000000000000000000006000000000000000000000000000000000000000000000000000000000000000114120506f7369746976696520576f726c64000000000000000000000000000000",
        "nonce": "0x254",
        "chainId": "0x66eee"
      },
      "additionalContracts": [],
      "isFixedGasLimit": false
    },
    {
      "hash": "0xba91334fb2229c6033b9443f6a92f039f3fa92175079e2941faf4f946786140e",
      "transactionType": "CALL",
      "contractName": null,
      "contractAddress": "0xfe0717cacd6fff3001edd3f360eb2854f54861dd",
      "function": "updateFacetsFactory(address)",
      "arguments": [
        "0xCB5207712044eC3B3787269CAA2B90c120Bc24e6"
      ],
      "transaction": {
        "from": "0x7caf754c934710d7c73bc453654552beca38223f",
        "to": "0xfe0717cacd6fff3001edd3f360eb2854f54861dd",
        "gas": "0x12ff30",
        "value": "0x0",
        "input": "0xa042ea40000000000000000000000000cb5207712044ec3b3787269caa2b90c120bc24e6",
        "nonce": "0x255",
        "chainId": "0x66eee"
      },
      "additionalContracts": [],
      "isFixedGasLimit": false
    },
    {
      "hash": "0xccafaf2af7840a91ed41538b66e2f62e2e1a1f9b106bb9e7ae3ca57743374c5c",
      "transactionType": "CALL",
      "contractName": null,
      "contractAddress": "0xfe0717cacd6fff3001edd3f360eb2854f54861dd",
      "function": "updateCampaignFactory(address)",
      "arguments": [
        "0xeBFCD452F92C679B85C00a9E2A6D299A73F48C5A"
      ],
      "transaction": {
        "from": "0x7caf754c934710d7c73bc453654552beca38223f",
        "to": "0xfe0717cacd6fff3001edd3f360eb2854f54861dd",
        "gas": "0x12ff13",
        "value": "0x0",
        "input": "0xd9146d77000000000000000000000000ebfcd452f92c679b85c00a9e2a6d299a73f48c5a",
        "nonce": "0x256",
        "chainId": "0x66eee"
      },
      "additionalContracts": [],
      "isFixedGasLimit": false
    }
  ],
  "receipts": [
    {
      "status": "0x1",
      "cumulativeGasUsed": "0x1400d9",
      "logs": [
        {
          "address": "0x758f01b484212b38eae264f75c0dd7842d510d9c",
          "topics": [
            "0xa442a2713138c7ca8f7668db503be2e9b3e54cc16d86c7220fed0c0534c13fca",
            "0x2d0cdaf9a1153a9a4b68379c64d4397611a0f3d9fa4015376435f9a64aafc0c1"
          ],
          "data": "0x0000000000000000000000000000000000000000000000000000000040000004000000000000000000000000000000000000000000000000000000000000004000000000000000000000000000000000000000000000000000000000000000114120506f7369746976696520576f726c64000000000000000000000000000000",
          "blockHash": "0x20c818bb6882114f9343818d28c9604bc7297991a0468de0d9fae83e83d686a2",
          "blockNumber": "0x3f2c216",
          "transactionHash": "0x2c71365c8e94e32d2b42417aa4b883addbd16eb4406d7359605a04c5f50d8d23",
          "transactionIndex": "0x1",
          "logIndex": "0x0",
          "removed": false
        }
      ],
      "logsBloom": "0x00000000000000100000100000000000000000000000800000000010000000000000000000000000000000000000000000000000000000000000001000000000000000000000000000000000000000000000000020000000000000000000000000000000000000000000000000020000000000000000000008000000000000000000000000000000000000000000000000000000000000000000000000000000000000000000000000000000000000000000000001000000000000000000000000000000000000000000000000000000000000000000000000000000000000000000000000000000000000000000000000000000000000000000000000000000",
      "type": "0x2",
      "transactionHash": "0x2c71365c8e94e32d2b42417aa4b883addbd16eb4406d7359605a04c5f50d8d23",
      "transactionIndex": "0x1",
      "blockHash": "0x20c818bb6882114f9343818d28c9604bc7297991a0468de0d9fae83e83d686a2",
      "blockNumber": "0x3f2c216",
      "gasUsed": "0x1400d9",
      "effectiveGasPrice": "0x5f5e100",
      "from": "0x7caf754c934710d7c73bc453654552beca38223f",
      "to": "0x758f01b484212b38eae264f75c0dd7842d510d9c",
      "contractAddress": null,
      "gasUsedForL1": "0x136bcc",
      "l1BlockNumber": "0x61285d"
    },
    {
      "status": "0x1",
      "cumulativeGasUsed": "0x3c64da",
      "logs": [],
      "logsBloom": "0x00000000000000000000000000000000000000000000000000000000000000000000000000000000000000000000000000000000000000000000000000000000000000000000000000000000000000000000000000000000000000000000000000000000000000000000000000000000000000000000000000000000000000000000000000000000000000000000000000000000000000000000000000000000000000000000000000000000000000000000000000000000000000000000000000000000000000000000000000000000000000000000000000000000000000000000000000000000000000000000000000000000000000000000000000000000",
      "type": "0x2",
      "transactionHash": "0xba91334fb2229c6033b9443f6a92f039f3fa92175079e2941faf4f946786140e",
      "transactionIndex": "0x4",
      "blockHash": "0x80a587a2bf9c1fc6b5e3a696448a4d3777b0d5ab735a3c1604d7c7e788d903b2",
      "blockNumber": "0x3f2c219",
      "gasUsed": "0xb2e2e",
      "effectiveGasPrice": "0x5f5e100",
      "from": "0x7caf754c934710d7c73bc453654552beca38223f",
      "to": "0xfe0717cacd6fff3001edd3f360eb2854f54861dd",
      "contractAddress": null,
      "gasUsedForL1": "0xaa9f8",
      "l1BlockNumber": "0x61285d"
    },
    {
      "status": "0x1",
      "cumulativeGasUsed": "0x6035ba",
      "logs": [],
      "logsBloom": "0x00000000000000000000000000000000000000000000000000000000000000000000000000000000000000000000000000000000000000000000000000000000000000000000000000000000000000000000000000000000000000000000000000000000000000000000000000000000000000000000000000000000000000000000000000000000000000000000000000000000000000000000000000000000000000000000000000000000000000000000000000000000000000000000000000000000000000000000000000000000000000000000000000000000000000000000000000000000000000000000000000000000000000000000000000000000",
      "type": "0x2",
      "transactionHash": "0xccafaf2af7840a91ed41538b66e2f62e2e1a1f9b106bb9e7ae3ca57743374c5c",
      "transactionIndex": "0x2",
      "blockHash": "0xa93de9962e1a2b427267cb90c23252cb44a7ca1b356e07cd7b9278f8937a19f9",
      "blockNumber": "0x3f2c21c",
      "gasUsed": "0xb2e18",
      "effectiveGasPrice": "0x5f5e100",
      "from": "0x7caf754c934710d7c73bc453654552beca38223f",
      "to": "0xfe0717cacd6fff3001edd3f360eb2854f54861dd",
      "contractAddress": null,
      "gasUsedForL1": "0xaa9f8",
      "l1BlockNumber": "0x61285d"
    }
  ],
  "libraries": [],
  "pending": [],
  "returns": {},
  "timestamp": 1721820404,
  "chain": 421614,
  "commit": "024f89a"
}