{
  "transactions": [
    {
      "hash": "0x335abce26832f725e8b37d5d4eb009474e9e06bc535cbd99ba0a0dfbdb985918",
      "transactionType": "CALL",
      "contractName": null,
      "contractAddress": "0x603674006fe11c38449c22ba56c40444c8e4cc5c",
      "function": "updateInteractionContract(uint256)",
      "arguments": [
        "79779516358427208576129661848423776934526633566649852115422670859041784133448"
      ],
      "transaction": {
        "from": "0x7caf754c934710d7c73bc453654552beca38223f",
        "to": "0x603674006fe11c38449c22ba56c40444c8e4cc5c",
        "gas": "0x1926a",
        "value": "0x0",
        "input": "0x64032f59b0619b27c165cb8eb016dbfdcdbebed113641649d139147c3130c58eec9ef748",
        "nonce": "0x186",
        "chainId": "0x66eee"
      },
      "additionalContracts": [],
      "isFixedGasLimit": false
    }
  ],
  "receipts": [
    {
      "status": "0x1",
      "cumulativeGasUsed": "0x1320f",
      "logs": [
        {
          "address": "0x603674006fe11c38449c22ba56c40444c8e4cc5c",
          "topics": [
            "0xe6018505858eceb835b8280d364146d12a63551fe63d393b1b120fdbe28fe08d"
          ],
          "data": "0xb0619b27c165cb8eb016dbfdcdbebed113641649d139147c3130c58eec9ef748000000000000000000000000bf0431a66278b19c8eaf07160defd0ec1f1d6981",
          "blockHash": "0xb0a36852a7cc7a63649fe1e1af3f510af34a164692e6b9cd76cd5c1bcb2a7de6",
          "blockNumber": "0x363efe1",
          "transactionHash": "0x335abce26832f725e8b37d5d4eb009474e9e06bc535cbd99ba0a0dfbdb985918",
          "transactionIndex": "0x1",
          "logIndex": "0x0",
          "removed": false
        }
      ],
      "logsBloom": "0x00000000000000000000000000000000000000000000000000000000000000008000000000000000000000000000000000000000000000000200000000000000000000000000000000000000000000000000000000000000000000000000000000000000000000000000000000000000000000000000000000000000000000000000000000000000000000000000000000000000000000000000000000000000000000000000002000000000000000000000000000000000000000000000000000000000000000000000000000000000000400000000000000000000000000000000001000000000000000000000010000000000000000000000000000000000",
      "type": "0x2",
      "transactionHash": "0x335abce26832f725e8b37d5d4eb009474e9e06bc535cbd99ba0a0dfbdb985918",
      "transactionIndex": "0x1",
      "blockHash": "0xb0a36852a7cc7a63649fe1e1af3f510af34a164692e6b9cd76cd5c1bcb2a7de6",
      "blockNumber": "0x363efe1",
      "gasUsed": "0x1320f",
      "effectiveGasPrice": "0x5f5e100",
      "from": "0x7caf754c934710d7c73bc453654552beca38223f",
      "to": "0x603674006fe11c38449c22ba56c40444c8e4cc5c",
      "contractAddress": null,
      "gasUsedForL1": "0x0",
      "l1BlockNumber": "0x5de70f"
    }
  ],
  "libraries": [],
  "pending": [],
  "returns": {},
  "timestamp": 1718964053,
  "chain": 421614,
  "commit": "091c3b2"
}