{
  "transactions": [
    {
      "hash": "0x801fe7894cb9c992db6081a46398bc5a73eb59daea10e123756d1e44babbaf71",
      "transactionType": "CALL",
      "contractName": null,
      "contractAddress": "0x5c449c1777fa729c4136ddf81585fdd7512ae8bb",
      "function": "updateCampaignFactory(address)",
      "arguments": [
        "0xB375B53C13eE2664DD9bD16f5624fE5097870543"
      ],
      "transaction": {
        "from": "0x7caf754c934710d7c73bc453654552beca38223f",
        "to": "0x5c449c1777fa729c4136ddf81585fdd7512ae8bb",
        "gas": "0x1b540",
        "value": "0x0",
        "input": "0xd9146d77000000000000000000000000b375b53c13ee2664dd9bd16f5624fe5097870543",
        "nonce": "0x2c8",
        "chainId": "0x66eee"
      },
      "additionalContracts": [],
      "isFixedGasLimit": false
    }
  ],
  "receipts": [
    {
      "status": "0x1",
      "cumulativeGasUsed": "0x13b24",
      "logs": [],
      "logsBloom": "0x00000000000000000000000000000000000000000000000000000000000000000000000000000000000000000000000000000000000000000000000000000000000000000000000000000000000000000000000000000000000000000000000000000000000000000000000000000000000000000000000000000000000000000000000000000000000000000000000000000000000000000000000000000000000000000000000000000000000000000000000000000000000000000000000000000000000000000000000000000000000000000000000000000000000000000000000000000000000000000000000000000000000000000000000000000000",
      "type": "0x2",
      "transactionHash": "0x801fe7894cb9c992db6081a46398bc5a73eb59daea10e123756d1e44babbaf71",
      "transactionIndex": "0x1",
      "blockHash": "0x848dfb7e3c42a720e22fe8cf75d186fb1a999c00336c81ee61d6184a55c7560a",
      "blockNumber": "0x4856112",
      "gasUsed": "0x13b24",
      "effectiveGasPrice": "0x5f5e100",
      "from": "0x7caf754c934710d7c73bc453654552beca38223f",
      "to": "0x5c449c1777fa729c4136ddf81585fdd7512ae8bb",
      "contractAddress": null,
      "gasUsedForL1": "0xb704",
      "l1BlockNumber": "0x64d0f1"
    }
  ],
  "libraries": [],
  "pending": [],
  "returns": {},
  "timestamp": 1725117375,
  "chain": 421614,
  "commit": "fcade3f"
}