{
  "transactions": [
    {
      "hash": "0x1cd88574ee6a0f1c110167eb21258b98ecd1011b62d901ef1d6da8759b6488aa",
      "transactionType": "CALL",
      "contractName": null,
      "contractAddress": "0x758f01b484212b38eae264f75c0dd7842d510d9c",
      "function": "updateMetadata(uint256,uint256,string)",
      "arguments": [
        "20376791661718660580662410765070640284736320707848823176694931891585259913409",
        "1073741828",
        "\"A Positivie World\""
      ],
      "transaction": {
        "from": "0x7caf754c934710d7c73bc453654552beca38223f",
        "to": "0x758f01b484212b38eae264f75c0dd7842d510d9c",
        "gas": "0x205666",
        "value": "0x0",
        "input": "0xff09a1a42d0cdaf9a1153a9a4b68379c64d4397611a0f3d9fa4015376435f9a64aafc0c10000000000000000000000000000000000000000000000000000000040000004000000000000000000000000000000000000000000000000000000000000006000000000000000000000000000000000000000000000000000000000000000114120506f7369746976696520576f726c64000000000000000000000000000000",
        "nonce": "0x268",
        "chainId": "0x66eee"
      },
      "additionalContracts": [],
      "isFixedGasLimit": false
    },
    {
      "hash": "0x088db7c9aa1893b545f170a51e5f5392735fa09e53a3a68fc237e79e09327a5a",
      "transactionType": "CALL",
      "contractName": null,
      "contractAddress": "0x758f01b484212b38eae264f75c0dd7842d510d9c",
      "function": "updateMetadata(uint256,uint256,string)",
      "arguments": [
        "8073960722007594212918575991467917289452723924551607525414094759273404023523",
        "1073741828",
        "\"Frak - Gating Example\""
      ],
      "transaction": {
        "from": "0x7caf754c934710d7c73bc453654552beca38223f",
        "to": "0x758f01b484212b38eae264f75c0dd7842d510d9c",
        "gas": "0x2056a6",
        "value": "0x0",
        "input": "0xff09a1a411d9b327b46d43525821b67e9e75373040aa7f8162b46753eb565065f743c2e30000000000000000000000000000000000000000000000000000000040000004000000000000000000000000000000000000000000000000000000000000006000000000000000000000000000000000000000000000000000000000000000154672616b202d20476174696e67204578616d706c650000000000000000000000",
        "nonce": "0x269",
        "chainId": "0x66eee"
      },
      "additionalContracts": [],
      "isFixedGasLimit": false
    },
    {
      "hash": "0x3bfb19210593434c834e02d6a74381b35e889cf7ed66c28c851ea4b778b355be",
      "transactionType": "CALL",
      "contractName": null,
      "contractAddress": "0x758f01b484212b38eae264f75c0dd7842d510d9c",
      "function": "updateMetadata(uint256,uint256,string)",
      "arguments": [
        "33953649417576654953995537313820306697747390492794311279756157547821320957282",
        "1073741830",
        "\"Frak - EthCC demo\""
      ],
      "transaction": {
        "from": "0x7caf754c934710d7c73bc453654552beca38223f",
        "to": "0x758f01b484212b38eae264f75c0dd7842d510d9c",
        "gas": "0x205666",
        "value": "0x0",
        "input": "0xff09a1a44b1115a4946079f8d83c63061f5c49c2f351a054d8dfb284b197f54dbfa8ed620000000000000000000000000000000000000000000000000000000040000006000000000000000000000000000000000000000000000000000000000000006000000000000000000000000000000000000000000000000000000000000000114672616b202d2045746843432064656d6f000000000000000000000000000000",
        "nonce": "0x26a",
        "chainId": "0x66eee"
      },
      "additionalContracts": [],
      "isFixedGasLimit": false
    },
    {
      "hash": "0x3b8681ebccc1ea12c44c874b5916c626dd711ce09ced2daf2ab8747a904ae4dc",
      "transactionType": "CALL",
      "contractName": null,
      "contractAddress": "0xfe0717cacd6fff3001edd3f360eb2854f54861dd",
      "function": "updateFacetsFactory(address)",
      "arguments": [
        "0xCB5207712044eC3B3787269CAA2B90c120Bc24e6"
      ],
      "transaction": {
        "from": "0x7caf754c934710d7c73bc453654552beca38223f",
        "to": "0xfe0717cacd6fff3001edd3f360eb2854f54861dd",
        "gas": "0x12f0db",
        "value": "0x0",
        "input": "0xa042ea40000000000000000000000000cb5207712044ec3b3787269caa2b90c120bc24e6",
        "nonce": "0x26b",
        "chainId": "0x66eee"
      },
      "additionalContracts": [],
      "isFixedGasLimit": false
    },
    {
      "hash": "0xb2090d5209b0ae06c02b7c72be3fbef12ebe2ab9405d3a027afa18e052626c7d",
      "transactionType": "CALL",
      "contractName": null,
      "contractAddress": "0xfe0717cacd6fff3001edd3f360eb2854f54861dd",
      "function": "updateInteractionContract(uint256)",
      "arguments": [
        "20376791661718660580662410765070640284736320707848823176694931891585259913409"
      ],
      "transaction": {
        "from": "0x7caf754c934710d7c73bc453654552beca38223f",
        "to": "0xfe0717cacd6fff3001edd3f360eb2854f54861dd",
        "gas": "0x141c0f",
        "value": "0x0",
        "input": "0x64032f592d0cdaf9a1153a9a4b68379c64d4397611a0f3d9fa4015376435f9a64aafc0c1",
        "nonce": "0x26c",
        "chainId": "0x66eee"
      },
      "additionalContracts": [],
      "isFixedGasLimit": false
    },
    {
      "hash": "0xb44792c06d8246158f3beda5155adeb364e528702648c41ed6184c7675f015c7",
      "transactionType": "CALL",
      "contractName": null,
      "contractAddress": "0xfe0717cacd6fff3001edd3f360eb2854f54861dd",
      "function": "updateInteractionContract(uint256)",
      "arguments": [
        "8073960722007594212918575991467917289452723924551607525414094759273404023523"
      ],
      "transaction": {
        "from": "0x7caf754c934710d7c73bc453654552beca38223f",
        "to": "0xfe0717cacd6fff3001edd3f360eb2854f54861dd",
        "gas": "0x13a7de",
        "value": "0x0",
        "input": "0x64032f5911d9b327b46d43525821b67e9e75373040aa7f8162b46753eb565065f743c2e3",
        "nonce": "0x26d",
        "chainId": "0x66eee"
      },
      "additionalContracts": [],
      "isFixedGasLimit": false
    },
    {
      "hash": "0x3aca51ca1c1499312917eb2ff4d585dc1f4edf5300bb7d72ee57ed93e88b0f5c",
      "transactionType": "CALL",
      "contractName": null,
      "contractAddress": "0xfe0717cacd6fff3001edd3f360eb2854f54861dd",
      "function": "updateInteractionContract(uint256)",
      "arguments": [
        "33953649417576654953995537313820306697747390492794311279756157547821320957282"
      ],
      "transaction": {
        "from": "0x7caf754c934710d7c73bc453654552beca38223f",
        "to": "0xfe0717cacd6fff3001edd3f360eb2854f54861dd",
        "gas": "0x13c7a5",
        "value": "0x0",
        "input": "0x64032f594b1115a4946079f8d83c63061f5c49c2f351a054d8dfb284b197f54dbfa8ed62",
        "nonce": "0x26e",
        "chainId": "0x66eee"
      },
      "additionalContracts": [],
      "isFixedGasLimit": false
    },
    {
      "hash": "0xf1a530bed3ac149165889469a851297bc011eeaf6900e8951ed40d73022e838d",
      "transactionType": "CALL",
      "contractName": null,
      "contractAddress": "0xfe0717cacd6fff3001edd3f360eb2854f54861dd",
      "function": "updateCampaignFactory(address)",
      "arguments": [
        "0xeBFCD452F92C679B85C00a9E2A6D299A73F48C5A"
      ],
      "transaction": {
        "from": "0x7caf754c934710d7c73bc453654552beca38223f",
        "to": "0xfe0717cacd6fff3001edd3f360eb2854f54861dd",
        "gas": "0x12f0bd",
        "value": "0x0",
        "input": "0xd9146d77000000000000000000000000ebfcd452f92c679b85c00a9e2a6d299a73f48c5a",
        "nonce": "0x26f",
        "chainId": "0x66eee"
      },
      "additionalContracts": [],
      "isFixedGasLimit": false
    }
  ],
  "receipts": [
    {
      "status": "0x1",
      "cumulativeGasUsed": "0x13d8e5",
      "logs": [
        {
          "address": "0x758f01b484212b38eae264f75c0dd7842d510d9c",
          "topics": [
            "0xa442a2713138c7ca8f7668db503be2e9b3e54cc16d86c7220fed0c0534c13fca",
            "0x2d0cdaf9a1153a9a4b68379c64d4397611a0f3d9fa4015376435f9a64aafc0c1"
          ],
          "data": "0x0000000000000000000000000000000000000000000000000000000040000004000000000000000000000000000000000000000000000000000000000000004000000000000000000000000000000000000000000000000000000000000000114120506f7369746976696520576f726c64000000000000000000000000000000",
          "blockHash": "0x7e09125e485ac5cb0072b43269594ecd988ed9c9aa29ecd68c4635307348965d",
          "blockNumber": "0x3f2c398",
          "transactionHash": "0x1cd88574ee6a0f1c110167eb21258b98ecd1011b62d901ef1d6da8759b6488aa",
          "transactionIndex": "0x1",
          "logIndex": "0x0",
          "removed": false
        }
      ],
      "logsBloom": "0x00000000000000100000100000000000000000000000800000000010000000000000000000000000000000000000000000000000000000000000001000000000000000000000000000000000000000000000000020000000000000000000000000000000000000000000000000020000000000000000000008000000000000000000000000000000000000000000000000000000000000000000000000000000000000000000000000000000000000000000000001000000000000000000000000000000000000000000000000000000000000000000000000000000000000000000000000000000000000000000000000000000000000000000000000000000",
      "type": "0x2",
      "transactionHash": "0x1cd88574ee6a0f1c110167eb21258b98ecd1011b62d901ef1d6da8759b6488aa",
      "transactionIndex": "0x1",
      "blockHash": "0x7e09125e485ac5cb0072b43269594ecd988ed9c9aa29ecd68c4635307348965d",
      "blockNumber": "0x3f2c398",
      "gasUsed": "0x13d8e5",
      "effectiveGasPrice": "0x5f5e100",
      "from": "0x7caf754c934710d7c73bc453654552beca38223f",
      "to": "0x758f01b484212b38eae264f75c0dd7842d510d9c",
      "contractAddress": null,
      "gasUsedForL1": "0x1359b8",
      "l1BlockNumber": "0x612864"
    },
    {
      "status": "0x1",
      "cumulativeGasUsed": "0x1457a3",
      "logs": [
        {
          "address": "0x758f01b484212b38eae264f75c0dd7842d510d9c",
          "topics": [
            "0xa442a2713138c7ca8f7668db503be2e9b3e54cc16d86c7220fed0c0534c13fca",
            "0x11d9b327b46d43525821b67e9e75373040aa7f8162b46753eb565065f743c2e3"
          ],
          "data": "0x0000000000000000000000000000000000000000000000000000000040000004000000000000000000000000000000000000000000000000000000000000004000000000000000000000000000000000000000000000000000000000000000154672616b202d20476174696e67204578616d706c650000000000000000000000",
          "blockHash": "0x745e007186ae2609f54a3758f6e207d393b91097242bfc9baf7e198ac345620c",
          "blockNumber": "0x3f2c39a",
          "transactionHash": "0x088db7c9aa1893b545f170a51e5f5392735fa09e53a3a68fc237e79e09327a5a",
          "transactionIndex": "0x1",
          "logIndex": "0x0",
          "removed": false
        }
      ],
      "logsBloom": "0x00000100000000100000000000000000000000000000800000000000000000000000000000000000000000000000000000000000000000000000001000000000000000000000000000000000000000000000080000000000000000000000000000000000000000000000000000020000000000000000000008000000000000000000000000000000000000000000000000000000000000000000000000000000000000000000000000000000000000000000000001000000000000000000000000000000000000000000000800000000000000000000000000000000000000000000000000000000000000000000000000000000000000000000000000000000",
      "type": "0x2",
      "transactionHash": "0x088db7c9aa1893b545f170a51e5f5392735fa09e53a3a68fc237e79e09327a5a",
      "transactionIndex": "0x1",
      "blockHash": "0x745e007186ae2609f54a3758f6e207d393b91097242bfc9baf7e198ac345620c",
      "blockNumber": "0x3f2c39a",
      "gasUsed": "0x1457a3",
      "effectiveGasPrice": "0x5f5e100",
      "from": "0x7caf754c934710d7c73bc453654552beca38223f",
      "to": "0x758f01b484212b38eae264f75c0dd7842d510d9c",
      "contractAddress": null,
      "gasUsedForL1": "0x13d846",
      "l1BlockNumber": "0x612864"
    },
    {
      "status": "0x1",
      "cumulativeGasUsed": "0x145773",
      "logs": [
        {
          "address": "0x758f01b484212b38eae264f75c0dd7842d510d9c",
          "topics": [
            "0xa442a2713138c7ca8f7668db503be2e9b3e54cc16d86c7220fed0c0534c13fca",
            "0x4b1115a4946079f8d83c63061f5c49c2f351a054d8dfb284b197f54dbfa8ed62"
          ],
          "data": "0x0000000000000000000000000000000000000000000000000000000040000006000000000000000000000000000000000000000000000000000000000000004000000000000000000000000000000000000000000000000000000000000000114672616b202d2045746843432064656d6f000000000000000000000000000000",
          "blockHash": "0x455f03541576c5f1aefdcdda09a9f19d7f0e0d18239d970b95e708e3135e972a",
          "blockNumber": "0x3f2c39d",
          "transactionHash": "0x3bfb19210593434c834e02d6a74381b35e889cf7ed66c28c851ea4b778b355be",
          "transactionIndex": "0x1",
          "logIndex": "0x0",
          "removed": false
        }
      ],
      "logsBloom": "0x00000000000000100000000000000000000000000000800008000000000000000000000000000000000000000000000000000000000000000000001000000000000000000000000000000000000000000000000000000000000000000000000000800020000000000000000000020000000000000000000008000000000000000000000000000000000000000000000000000000000000000000000000000000000000000000000000000000000000000000000001000000000000000000000000000000000000000000000000000000000000000000000000000000000000000000000000000000000000000000000000000000000000000000000000000000",
      "type": "0x2",
      "transactionHash": "0x3bfb19210593434c834e02d6a74381b35e889cf7ed66c28c851ea4b778b355be",
      "transactionIndex": "0x1",
      "blockHash": "0x455f03541576c5f1aefdcdda09a9f19d7f0e0d18239d970b95e708e3135e972a",
      "blockNumber": "0x3f2c39d",
      "gasUsed": "0x145773",
      "effectiveGasPrice": "0x5f5e100",
      "from": "0x7caf754c934710d7c73bc453654552beca38223f",
      "to": "0x758f01b484212b38eae264f75c0dd7842d510d9c",
      "contractAddress": null,
      "gasUsedForL1": "0x13d846",
      "l1BlockNumber": "0x612864"
    },
    {
      "status": "0x1",
      "cumulativeGasUsed": "0xb233e",
      "logs": [],
      "logsBloom": "0x00000000000000000000000000000000000000000000000000000000000000000000000000000000000000000000000000000000000000000000000000000000000000000000000000000000000000000000000000000000000000000000000000000000000000000000000000000000000000000000000000000000000000000000000000000000000000000000000000000000000000000000000000000000000000000000000000000000000000000000000000000000000000000000000000000000000000000000000000000000000000000000000000000000000000000000000000000000000000000000000000000000000000000000000000000000",
      "type": "0x2",
      "transactionHash": "0x3b8681ebccc1ea12c44c874b5916c626dd711ce09ced2daf2ab8747a904ae4dc",
      "transactionIndex": "0x1",
      "blockHash": "0x5c75ec3284230a4f9bbbf5fa877b827e67fd0153919d16825f9979a451961832",
      "blockNumber": "0x3f2c3a1",
      "gasUsed": "0xb233e",
      "effectiveGasPrice": "0x5f5e100",
      "from": "0x7caf754c934710d7c73bc453654552beca38223f",
      "to": "0xfe0717cacd6fff3001edd3f360eb2854f54861dd",
      "contractAddress": null,
      "gasUsedForL1": "0xaa9f8",
      "l1BlockNumber": "0x612864"
    },
    {
      "status": "0x1",
      "cumulativeGasUsed": "0xc0796",
      "logs": [
        {
          "address": "0xfe0717cacd6fff3001edd3f360eb2854f54861dd",
          "topics": [
            "0xe6018505858eceb835b8280d364146d12a63551fe63d393b1b120fdbe28fe08d"
          ],
          "data": "0x2d0cdaf9a1153a9a4b68379c64d4397611a0f3d9fa4015376435f9a64aafc0c10000000000000000000000004c65cbf4bcd5098e4643c2dfc84919b4ff26bc8b",
          "blockHash": "0x804df24e164a092b65bbff2d198cf42d82979b4319a549722266a5bafdb797af",
          "blockNumber": "0x3f2c3a5",
          "transactionHash": "0xb2090d5209b0ae06c02b7c72be3fbef12ebe2ab9405d3a027afa18e052626c7d",
          "transactionIndex": "0x1",
          "logIndex": "0x0",
          "removed": false
        }
      ],
      "logsBloom": "0x00000000000000000000000000000000000000000000000000000000000000000000000000000000000000000000000000000000000000000200000000000000000000000000000000000000000000000000000000000000000000000000000000000000000000000000000000000000000000000000000000000000000000000000000000000000000000028000000000000000000000000000000000000000000000000000002000000020000000000000000000000000000000000000000000000000000000000000000000000000000000000000000000000000000000000000000000000000000000000000010000000000000000000000000000000000",
      "type": "0x2",
      "transactionHash": "0xb2090d5209b0ae06c02b7c72be3fbef12ebe2ab9405d3a027afa18e052626c7d",
      "transactionIndex": "0x1",
      "blockHash": "0x804df24e164a092b65bbff2d198cf42d82979b4319a549722266a5bafdb797af",
      "blockNumber": "0x3f2c3a5",
      "gasUsed": "0xc0796",
      "effectiveGasPrice": "0x5f5e100",
      "from": "0x7caf754c934710d7c73bc453654552beca38223f",
      "to": "0xfe0717cacd6fff3001edd3f360eb2854f54861dd",
      "contractAddress": null,
      "gasUsedForL1": "0xaa9f8",
      "l1BlockNumber": "0x612864"
    },
    {
      "status": "0x1",
      "cumulativeGasUsed": "0xbaeea",
      "logs": [
        {
          "address": "0xfe0717cacd6fff3001edd3f360eb2854f54861dd",
          "topics": [
            "0xe6018505858eceb835b8280d364146d12a63551fe63d393b1b120fdbe28fe08d"
          ],
          "data": "0x11d9b327b46d43525821b67e9e75373040aa7f8162b46753eb565065f743c2e30000000000000000000000009a23a126487cd412102cfb63c42cbb706d8dcbb8",
          "blockHash": "0x87c45416559fecc9b01934b6294d15fbdf2e72c8b4414ec4431d2ead03bf97a7",
          "blockNumber": "0x3f2c3a8",
          "transactionHash": "0xb44792c06d8246158f3beda5155adeb364e528702648c41ed6184c7675f015c7",
          "transactionIndex": "0x1",
          "logIndex": "0x0",
          "removed": false
        }
      ],
      "logsBloom": "0x00000000000000000000000000000000000000000000000000000000000000000000000000000000000000000000000000000000000000000200000000000000000000000000000000000000000000000000000000000000000000000000000000000000000000000000000000000000000000000000000000000000000000000000000000000000000000028000000000000000000000000000000000000000000000000000002000000020000000000000000000000000000000000000000000000000000000000000000000000000000000000000000000000000000000000000000000000000000000000000010000000000000000000000000000000000",
      "type": "0x2",
      "transactionHash": "0xb44792c06d8246158f3beda5155adeb364e528702648c41ed6184c7675f015c7",
      "transactionIndex": "0x1",
      "blockHash": "0x87c45416559fecc9b01934b6294d15fbdf2e72c8b4414ec4431d2ead03bf97a7",
      "blockNumber": "0x3f2c3a8",
      "gasUsed": "0xbaeea",
      "effectiveGasPrice": "0x5f5e100",
      "from": "0x7caf754c934710d7c73bc453654552beca38223f",
      "to": "0xfe0717cacd6fff3001edd3f360eb2854f54861dd",
      "contractAddress": null,
      "gasUsedForL1": "0xaa9f8",
      "l1BlockNumber": "0x612864"
    },
    {
      "status": "0x1",
      "cumulativeGasUsed": "0xbc72a",
      "logs": [
        {
          "address": "0xfe0717cacd6fff3001edd3f360eb2854f54861dd",
          "topics": [
            "0xe6018505858eceb835b8280d364146d12a63551fe63d393b1b120fdbe28fe08d"
          ],
          "data": "0x4b1115a4946079f8d83c63061f5c49c2f351a054d8dfb284b197f54dbfa8ed620000000000000000000000003da6b94f11a8a8d8ebf42cc7b12f7d621965dd0b",
          "blockHash": "0x3ff09fb82072119b4bf624cff4a08dd2b14f41336bc1b27690bc506933fac5aa",
          "blockNumber": "0x3f2c3ab",
          "transactionHash": "0x3aca51ca1c1499312917eb2ff4d585dc1f4edf5300bb7d72ee57ed93e88b0f5c",
          "transactionIndex": "0x1",
          "logIndex": "0x0",
          "removed": false
        }
      ],
      "logsBloom": "0x00000000000000000000000000000000000000000000000000000000000000000000000000000000000000000000000000000000000000000200000000000000000000000000000000000000000000000000000000000000000000000000000000000000000000000000000000000000000000000000000000000000000000000000000000000000000000028000000000000000000000000000000000000000000000000000002000000020000000000000000000000000000000000000000000000000000000000000000000000000000000000000000000000000000000000000000000000000000000000000010000000000000000000000000000000000",
      "type": "0x2",
      "transactionHash": "0x3aca51ca1c1499312917eb2ff4d585dc1f4edf5300bb7d72ee57ed93e88b0f5c",
      "transactionIndex": "0x1",
      "blockHash": "0x3ff09fb82072119b4bf624cff4a08dd2b14f41336bc1b27690bc506933fac5aa",
      "blockNumber": "0x3f2c3ab",
      "gasUsed": "0xbc72a",
      "effectiveGasPrice": "0x5f5e100",
      "from": "0x7caf754c934710d7c73bc453654552beca38223f",
      "to": "0xfe0717cacd6fff3001edd3f360eb2854f54861dd",
      "contractAddress": null,
      "gasUsedForL1": "0xaa9f8",
      "l1BlockNumber": "0x612864"
    },
    {
      "status": "0x1",
      "cumulativeGasUsed": "0xb2328",
      "logs": [],
      "logsBloom": "0x00000000000000000000000000000000000000000000000000000000000000000000000000000000000000000000000000000000000000000000000000000000000000000000000000000000000000000000000000000000000000000000000000000000000000000000000000000000000000000000000000000000000000000000000000000000000000000000000000000000000000000000000000000000000000000000000000000000000000000000000000000000000000000000000000000000000000000000000000000000000000000000000000000000000000000000000000000000000000000000000000000000000000000000000000000000",
      "type": "0x2",
      "transactionHash": "0xf1a530bed3ac149165889469a851297bc011eeaf6900e8951ed40d73022e838d",
      "transactionIndex": "0x1",
      "blockHash": "0x20ffa22ceeb3a57c4aa3dc735f585d7b93408c47e01f04f78b82feead9a16720",
      "blockNumber": "0x3f2c3ae",
      "gasUsed": "0xb2328",
      "effectiveGasPrice": "0x5f5e100",
      "from": "0x7caf754c934710d7c73bc453654552beca38223f",
      "to": "0xfe0717cacd6fff3001edd3f360eb2854f54861dd",
      "contractAddress": null,
      "gasUsedForL1": "0xaa9f8",
      "l1BlockNumber": "0x612866"
    }
  ],
  "libraries": [],
  "pending": [],
  "returns": {},
  "timestamp": 1721820541,
  "chain": 421614,
  "commit": "024f89a"
}