{
  "transactions": [
    {
      "hash": "0xb4bd742a30829e023fcffa426cd7047cbca5d5fbc5e1157f6e23be2d733f795f",
      "transactionType": "CALL",
      "contractName": null,
      "contractAddress": "0xfe0717cacd6fff3001edd3f360eb2854f54861dd",
      "function": "updateCampaignFactory(address)",
      "arguments": [
        "0x2c0cD8e217AAAA73A0a756B1D82e67Ad6aF7fA04"
      ],
      "transaction": {
        "from": "0x7caf754c934710d7c73bc453654552beca38223f",
        "to": "0xfe0717cacd6fff3001edd3f360eb2854f54861dd",
        "gas": "0x2e705",
        "value": "0x0",
        "input": "0xd9146d770000000000000000000000002c0cd8e217aaaa73a0a756b1d82e67ad6af7fa04",
        "nonce": "0x285",
        "chainId": "0x66eee"
      },
      "additionalContracts": [],
      "isFixedGasLimit": false
    }
  ],
  "receipts": [
    {
      "status": "0x1",
      "cumulativeGasUsed": "0x1d041",
      "logs": [],
      "logsBloom": "0x00000000000000000000000000000000000000000000000000000000000000000000000000000000000000000000000000000000000000000000000000000000000000000000000000000000000000000000000000000000000000000000000000000000000000000000000000000000000000000000000000000000000000000000000000000000000000000000000000000000000000000000000000000000000000000000000000000000000000000000000000000000000000000000000000000000000000000000000000000000000000000000000000000000000000000000000000000000000000000000000000000000000000000000000000000000",
      "type": "0x2",
      "transactionHash": "0xb4bd742a30829e023fcffa426cd7047cbca5d5fbc5e1157f6e23be2d733f795f",
      "transactionIndex": "0x1",
      "blockHash": "0x74529a72b73a4f97f89b0701df423dc744911f1b8d0b3dcbb1a741afc273098b",
      "blockNumber": "0x46edb76",
      "gasUsed": "0x1d041",
      "effectiveGasPrice": "0x5f5e100",
      "from": "0x7caf754c934710d7c73bc453654552beca38223f",
      "to": "0xfe0717cacd6fff3001edd3f360eb2854f54861dd",
      "contractAddress": null,
      "gasUsedForL1": "0x14c21",
      "l1BlockNumber": "0x645524"
    }
  ],
  "libraries": [],
  "pending": [],
  "returns": {},
  "timestamp": 1724682583,
  "chain": 421614,
  "commit": "f34d1ab"
}