{
  "transactions": [
    {
      "hash": "0x453f780c46d86f7089e144beb09e229a72d037cdcf2ae981f0085e235aa3147a",
      "transactionType": "CALL",
      "contractName": null,
      "contractAddress": "0x603674006fe11c38449c22ba56c40444c8e4cc5c",
      "function": "updateFacetsFactory(address)",
      "arguments": [
        "0x5F6F8a9C9fAE35f9df07172c0D04c85F7E20920f"
      ],
      "transaction": {
        "from": "0x7caf754c934710d7c73bc453654552beca38223f",
        "to": "0x603674006fe11c38449c22ba56c40444c8e4cc5c",
        "gas": "0xb1ca",
        "value": "0x0",
        "input": "0xa042ea400000000000000000000000005f6f8a9c9fae35f9df07172c0d04c85f7e20920f",
        "nonce": "0x17f",
        "chainId": "0x66eee"
      },
      "additionalContracts": [],
      "isFixedGasLimit": false
    },
    {
      "hash": "0x44a585cd8416738028978b051d81957f68174ec4e2c2402cb628ce731d2097a1",
      "transactionType": "CALL",
      "contractName": null,
      "contractAddress": "0x603674006fe11c38449c22ba56c40444c8e4cc5c",
      "function": "updateInteractionContract(uint256)",
      "arguments": [
        "106219508196454080375526586478153583586194937194493887259467424694676997453395"
      ],
      "transaction": {
        "from": "0x7caf754c934710d7c73bc453654552beca38223f",
        "to": "0x603674006fe11c38449c22ba56c40444c8e4cc5c",
        "gas": "0x134f7",
        "value": "0x0",
        "input": "0x64032f59ead61c7340b7cacd78684d4795a617aae5e85cc4b89da34fb05ad55bb6bab653",
        "nonce": "0x180",
        "chainId": "0x66eee"
      },
      "additionalContracts": [],
      "isFixedGasLimit": false
    },
    {
      "hash": "0xcb7dd5f162f2aa58629caeaacc29b8750294271388167693fea304c7f698c775",
      "transactionType": "CALL",
      "contractName": null,
      "contractAddress": "0x603674006fe11c38449c22ba56c40444c8e4cc5c",
      "function": "updateInteractionContract(uint256)",
      "arguments": [
        "108586150798115180574743190405367285583167702751783717273705027881651322809951"
      ],
      "transaction": {
        "from": "0x7caf754c934710d7c73bc453654552beca38223f",
        "to": "0x603674006fe11c38449c22ba56c40444c8e4cc5c",
        "gas": "0x134f7",
        "value": "0x0",
        "input": "0x64032f59f011955832cac97ab1a6534c6b94971325e3be6bfaac1ccae68e3f5c7adcee5f",
        "nonce": "0x181",
        "chainId": "0x66eee"
      },
      "additionalContracts": [],
      "isFixedGasLimit": false
    },
    {
      "hash": "0xa2509788a4553da74f5d4a11f568c97f60c6b515b3d66b8fd92ac4af92317cf3",
      "transactionType": "CALL",
      "contractName": null,
      "contractAddress": "0x603674006fe11c38449c22ba56c40444c8e4cc5c",
      "function": "updateInteractionContract(uint256)",
      "arguments": [
        "61412812549033025435811962204424170589965658763482764336017940556663446417829"
      ],
      "transaction": {
        "from": "0x7caf754c934710d7c73bc453654552beca38223f",
        "to": "0x603674006fe11c38449c22ba56c40444c8e4cc5c",
        "gas": "0x134f7",
        "value": "0x0",
        "input": "0x64032f5987c66b8c60fd984f739f68f1d83229601131914aaf269874c584e179b37db1a5",
        "nonce": "0x182",
        "chainId": "0x66eee"
      },
      "additionalContracts": [],
      "isFixedGasLimit": false
    },
    {
      "hash": "0x29c0bcdd98987ccfad2aeca2086e6b5e6e6ab583db9c5c70153b295fee08113f",
      "transactionType": "CALL",
      "contractName": null,
      "contractAddress": "0x603674006fe11c38449c22ba56c40444c8e4cc5c",
      "function": "updateInteractionContract(uint256)",
      "arguments": [
        "20376791661718660580662410765070640284736320707848823176694931891585259913409"
      ],
      "transaction": {
        "from": "0x7caf754c934710d7c73bc453654552beca38223f",
        "to": "0x603674006fe11c38449c22ba56c40444c8e4cc5c",
        "gas": "0x134f7",
        "value": "0x0",
        "input": "0x64032f592d0cdaf9a1153a9a4b68379c64d4397611a0f3d9fa4015376435f9a64aafc0c1",
        "nonce": "0x183",
        "chainId": "0x66eee"
      },
      "additionalContracts": [],
      "isFixedGasLimit": false
    }
  ],
  "receipts": [
    {
      "status": "0x1",
      "cumulativeGasUsed": "0x840a",
      "logs": [],
      "logsBloom": "0x00000000000000000000000000000000000000000000000000000000000000000000000000000000000000000000000000000000000000000000000000000000000000000000000000000000000000000000000000000000000000000000000000000000000000000000000000000000000000000000000000000000000000000000000000000000000000000000000000000000000000000000000000000000000000000000000000000000000000000000000000000000000000000000000000000000000000000000000000000000000000000000000000000000000000000000000000000000000000000000000000000000000000000000000000000000",
      "type": "0x2",
      "transactionHash": "0x453f780c46d86f7089e144beb09e229a72d037cdcf2ae981f0085e235aa3147a",
      "transactionIndex": "0x1",
      "blockHash": "0x4e64256688e5ca720ce0ea79ec601bbf06d4e8a2624ad19e400946866b2b3036",
      "blockNumber": "0x363eb33",
      "gasUsed": "0x840a",
      "effectiveGasPrice": "0x5f5e100",
      "from": "0x7caf754c934710d7c73bc453654552beca38223f",
      "to": "0x603674006fe11c38449c22ba56c40444c8e4cc5c",
      "contractAddress": null,
      "gasUsedForL1": "0x0",
      "l1BlockNumber": "0x5de6f3"
    },
    {
      "status": "0x1",
      "cumulativeGasUsed": "0x140ec",
      "logs": [
        {
          "address": "0x603674006fe11c38449c22ba56c40444c8e4cc5c",
          "topics": [
            "0xe6018505858eceb835b8280d364146d12a63551fe63d393b1b120fdbe28fe08d"
          ],
          "data": "0xead61c7340b7cacd78684d4795a617aae5e85cc4b89da34fb05ad55bb6bab653000000000000000000000000d8414239f011cfc309d144a570ff3a74ab91f177",
          "blockHash": "0x0db1164f0107de8a8d7510eeb4292a748bc71507f73e5411a2aa7f574237e159",
          "blockNumber": "0x363eb36",
          "transactionHash": "0x44a585cd8416738028978b051d81957f68174ec4e2c2402cb628ce731d2097a1",
          "transactionIndex": "0x2",
          "logIndex": "0x0",
          "removed": false
        }
      ],
      "logsBloom": "0x00000000000000000000000000000000000000000000000000000000000000008000000000000000000000000000000000000000000000000200000000000000000000000000000000000000000000000000000000000000000000000000000000000000000000000000000000000000000000000000000000000000000000000000000000000000000000000000000000000000000000000000000000000000000000000000002000000000000000000000000000000000000000000000000000000000000000000000000000000000000400000000000000000000000000000000001000000000000000000000010000000000000000000000000000000000",
      "type": "0x2",
      "transactionHash": "0x44a585cd8416738028978b051d81957f68174ec4e2c2402cb628ce731d2097a1",
      "transactionIndex": "0x2",
      "blockHash": "0x0db1164f0107de8a8d7510eeb4292a748bc71507f73e5411a2aa7f574237e159",
      "blockNumber": "0x363eb36",
      "gasUsed": "0xeee4",
      "effectiveGasPrice": "0x5f5e100",
      "from": "0x7caf754c934710d7c73bc453654552beca38223f",
      "to": "0x603674006fe11c38449c22ba56c40444c8e4cc5c",
      "contractAddress": null,
      "gasUsedForL1": "0x0",
      "l1BlockNumber": "0x5de6f4"
    },
    {
      "status": "0x1",
      "cumulativeGasUsed": "0x1122ff",
      "logs": [
        {
          "address": "0x603674006fe11c38449c22ba56c40444c8e4cc5c",
          "topics": [
            "0xe6018505858eceb835b8280d364146d12a63551fe63d393b1b120fdbe28fe08d"
          ],
          "data": "0xf011955832cac97ab1a6534c6b94971325e3be6bfaac1ccae68e3f5c7adcee5f0000000000000000000000009c78aefc3d1c7f2e15b30403c79f00423dd797a0",
          "blockHash": "0x4ab0e820555f2f6cd1a01f0ac6fa1bbe942ff9e054a2afbce7059e490180d5c4",
          "blockNumber": "0x363eb39",
          "transactionHash": "0xcb7dd5f162f2aa58629caeaacc29b8750294271388167693fea304c7f698c775",
          "transactionIndex": "0x5",
          "logIndex": "0x12",
          "removed": false
        }
      ],
      "logsBloom": "0x00000000000000000000000000000000000000000000000000000000000000008000000000000000000000000000000000000000000000000200000000000000000000000000000000000000000000000000000000000000000000000000000000000000000000000000000000000000000000000000000000000000000000000000000000000000000000000000000000000000000000000000000000000000000000000000002000000000000000000000000000000000000000000000000000000000000000000000000000000000000400000000000000000000000000000000001000000000000000000000010000000000000000000000000000000000",
      "type": "0x2",
      "transactionHash": "0xcb7dd5f162f2aa58629caeaacc29b8750294271388167693fea304c7f698c775",
      "transactionIndex": "0x5",
      "blockHash": "0x4ab0e820555f2f6cd1a01f0ac6fa1bbe942ff9e054a2afbce7059e490180d5c4",
      "blockNumber": "0x363eb39",
      "gasUsed": "0xeee4",
      "effectiveGasPrice": "0x5f5e100",
      "from": "0x7caf754c934710d7c73bc453654552beca38223f",
      "to": "0x603674006fe11c38449c22ba56c40444c8e4cc5c",
      "contractAddress": null,
      "gasUsedForL1": "0x0",
      "l1BlockNumber": "0x5de6f4"
    },
    {
      "status": "0x1",
      "cumulativeGasUsed": "0xeee4",
      "logs": [
        {
          "address": "0x603674006fe11c38449c22ba56c40444c8e4cc5c",
          "topics": [
            "0xe6018505858eceb835b8280d364146d12a63551fe63d393b1b120fdbe28fe08d"
          ],
          "data": "0x87c66b8c60fd984f739f68f1d83229601131914aaf269874c584e179b37db1a5000000000000000000000000bd15bf5d8472d79ddfde9f7eede5476d4b8cdbc6",
          "blockHash": "0x0a224eed0300c21c4e9ac20c775d47297b31bc46f148d97e6214aa8612e23dcb",
          "blockNumber": "0x363eb3d",
          "transactionHash": "0xa2509788a4553da74f5d4a11f568c97f60c6b515b3d66b8fd92ac4af92317cf3",
          "transactionIndex": "0x1",
          "logIndex": "0x0",
          "removed": false
        }
      ],
      "logsBloom": "0x00000000000000000000000000000000000000000000000000000000000000008000000000000000000000000000000000000000000000000200000000000000000000000000000000000000000000000000000000000000000000000000000000000000000000000000000000000000000000000000000000000000000000000000000000000000000000000000000000000000000000000000000000000000000000000000002000000000000000000000000000000000000000000000000000000000000000000000000000000000000400000000000000000000000000000000001000000000000000000000010000000000000000000000000000000000",
      "type": "0x2",
      "transactionHash": "0xa2509788a4553da74f5d4a11f568c97f60c6b515b3d66b8fd92ac4af92317cf3",
      "transactionIndex": "0x1",
      "blockHash": "0x0a224eed0300c21c4e9ac20c775d47297b31bc46f148d97e6214aa8612e23dcb",
      "blockNumber": "0x363eb3d",
      "gasUsed": "0xeee4",
      "effectiveGasPrice": "0x5f5e100",
      "from": "0x7caf754c934710d7c73bc453654552beca38223f",
      "to": "0x603674006fe11c38449c22ba56c40444c8e4cc5c",
      "contractAddress": null,
      "gasUsedForL1": "0x0",
      "l1BlockNumber": "0x5de6f4"
    },
    {
      "status": "0x1",
      "cumulativeGasUsed": "0xeee4",
      "logs": [
        {
          "address": "0x603674006fe11c38449c22ba56c40444c8e4cc5c",
          "topics": [
            "0xe6018505858eceb835b8280d364146d12a63551fe63d393b1b120fdbe28fe08d"
          ],
          "data": "0x2d0cdaf9a1153a9a4b68379c64d4397611a0f3d9fa4015376435f9a64aafc0c100000000000000000000000024169fc732c806405a0d79d23104ba22d9816be6",
          "blockHash": "0x939291f02399657b833d655589078e88cedc8c84d4c5b0216eb889b2dc72cf9d",
          "blockNumber": "0x363eb41",
          "transactionHash": "0x29c0bcdd98987ccfad2aeca2086e6b5e6e6ab583db9c5c70153b295fee08113f",
          "transactionIndex": "0x1",
          "logIndex": "0x0",
          "removed": false
        }
      ],
      "logsBloom": "0x00000000000000000000000000000000000000000000000000000000000000008000000000000000000000000000000000000000000000000200000000000000000000000000000000000000000000000000000000000000000000000000000000000000000000000000000000000000000000000000000000000000000000000000000000000000000000000000000000000000000000000000000000000000000000000000002000000000000000000000000000000000000000000000000000000000000000000000000000000000000400000000000000000000000000000000001000000000000000000000010000000000000000000000000000000000",
      "type": "0x2",
      "transactionHash": "0x29c0bcdd98987ccfad2aeca2086e6b5e6e6ab583db9c5c70153b295fee08113f",
      "transactionIndex": "0x1",
      "blockHash": "0x939291f02399657b833d655589078e88cedc8c84d4c5b0216eb889b2dc72cf9d",
      "blockNumber": "0x363eb41",
      "gasUsed": "0xeee4",
      "effectiveGasPrice": "0x5f5e100",
      "from": "0x7caf754c934710d7c73bc453654552beca38223f",
      "to": "0x603674006fe11c38449c22ba56c40444c8e4cc5c",
      "contractAddress": null,
      "gasUsedForL1": "0x0",
      "l1BlockNumber": "0x5de6f4"
    }
  ],
  "libraries": [],
  "pending": [],
  "returns": {},
  "timestamp": 1718963738,
  "chain": 421614,
  "commit": "091c3b2"
}