{
  "transactions": [
    {
      "hash": "0x208f9d7129102ede0c1ce81c194a8687336b7c3391393c54bcb3f0056f96b5d2",
      "transactionType": "CALL",
      "contractName": null,
      "contractAddress": "0xfe0717cacd6fff3001edd3f360eb2854f54861dd",
      "function": "updateCampaignFactory(address)",
      "arguments": [
        "0xE22B28190d0805331B3EA75cf045c65c2d4EceA3"
      ],
      "transaction": {
        "from": "0x7caf754c934710d7c73bc453654552beca38223f",
        "to": "0xfe0717cacd6fff3001edd3f360eb2854f54861dd",
        "gas": "0x2de07",
        "value": "0x0",
        "input": "0xd9146d77000000000000000000000000e22b28190d0805331b3ea75cf045c65c2d4ecea3",
        "nonce": "0x283",
        "chainId": "0x66eee"
      },
      "additionalContracts": [],
      "isFixedGasLimit": false
    }
  ],
  "receipts": [
    {
      "status": "0x1",
      "cumulativeGasUsed": "0x45f43c",
      "logs": [],
      "logsBloom": "0x00000000000000000000000000000000000000000000000000000000000000000000000000000000000000000000000000000000000000000000000000000000000000000000000000000000000000000000000000000000000000000000000000000000000000000000000000000000000000000000000000000000000000000000000000000000000000000000000000000000000000000000000000000000000000000000000000000000000000000000000000000000000000000000000000000000000000000000000000000000000000000000000000000000000000000000000000000000000000000000000000000000000000000000000000000000",
      "type": "0x2",
      "transactionHash": "0x208f9d7129102ede0c1ce81c194a8687336b7c3391393c54bcb3f0056f96b5d2",
      "transactionIndex": "0x2",
      "blockHash": "0x27ac691b37a215df332d8d5c0b8ef36330fd30df9e80b495f14afe9689972202",
      "blockNumber": "0x46ed67c",
      "gasUsed": "0x1cafe",
      "effectiveGasPrice": "0x5f5e100",
      "from": "0x7caf754c934710d7c73bc453654552beca38223f",
      "to": "0xfe0717cacd6fff3001edd3f360eb2854f54861dd",
      "contractAddress": null,
      "gasUsedForL1": "0x146de",
      "l1BlockNumber": "0x64550b"
    }
  ],
  "libraries": [],
  "pending": [],
  "returns": {},
  "timestamp": 1724682192,
  "chain": 421614,
  "commit": "db3ccfa"
}