{
  "transactions": [
    {
      "hash": "0x28a826b61cecb23710645e1647d6230e13b17f14203349cf174855e4074c5b4b",
      "transactionType": "CALL",
      "contractName": null,
      "contractAddress": "0x5c449c1777fa729c4136ddf81585fdd7512ae8bb",
      "function": "updateFacetsFactory(address)",
      "arguments": [
        "0x2f22e1EF391E744be68bB5Ac4D2f3024F2d6A9b8"
      ],
      "transaction": {
        "from": "0x7caf754c934710d7c73bc453654552beca38223f",
        "to": "0x5c449c1777fa729c4136ddf81585fdd7512ae8bb",
        "gas": "0xad5b",
        "value": "0x0",
        "input": "0xa042ea400000000000000000000000002f22e1ef391e744be68bb5ac4d2f3024f2d6a9b8",
        "nonce": "0x2ca",
        "chainId": "0x66eee"
      },
      "additionalContracts": [],
      "isFixedGasLimit": false
    },
    {
      "hash": "0xdbe6076667a09fcbe21d3b9b1adf54e93eb16c8883ee485447cbbd97dfa09c3a",
      "transactionType": "CALL",
      "contractName": null,
      "contractAddress": "0x5c449c1777fa729c4136ddf81585fdd7512ae8bb",
      "function": "updateInteractionContract(uint256)",
      "arguments": [
        "20376791661718660580662410765070640284736320707848823176694931891585259913409"
      ],
      "transaction": {
        "from": "0x7caf754c934710d7c73bc453654552beca38223f",
        "to": "0x5c449c1777fa729c4136ddf81585fdd7512ae8bb",
        "gas": "0x16c16",
        "value": "0x0",
        "input": "0x64032f592d0cdaf9a1153a9a4b68379c64d4397611a0f3d9fa4015376435f9a64aafc0c1",
        "nonce": "0x2cb",
        "chainId": "0x66eee"
      },
      "additionalContracts": [],
      "isFixedGasLimit": false
    },
    {
      "hash": "0x4586069acb83535a5843d1f046dbb598ecb67d2c0f61f9bd9c438427536a8160",
      "transactionType": "CALL",
      "contractName": null,
      "contractAddress": "0x5c449c1777fa729c4136ddf81585fdd7512ae8bb",
      "function": "updateInteractionContract(uint256)",
      "arguments": [
        "33953649417576654953995537313820306697747390492794311279756157547821320957282"
      ],
      "transaction": {
        "from": "0x7caf754c934710d7c73bc453654552beca38223f",
        "to": "0x5c449c1777fa729c4136ddf81585fdd7512ae8bb",
        "gas": "0x19079",
        "value": "0x0",
        "input": "0x64032f594b1115a4946079f8d83c63061f5c49c2f351a054d8dfb284b197f54dbfa8ed62",
        "nonce": "0x2cc",
        "chainId": "0x66eee"
      },
      "additionalContracts": [],
      "isFixedGasLimit": false
    }
  ],
  "receipts": [
    {
      "status": "0x1",
      "cumulativeGasUsed": "0x165e7",
      "logs": [],
      "logsBloom": "0x00000000000000000000000000000000000000000000000000000000000000000000000000000000000000000000000000000000000000000000000000000000000000000000000000000000000000000000000000000000000000000000000000000000000000000000000000000000000000000000000000000000000000000000000000000000000000000000000000000000000000000000000000000000000000000000000000000000000000000000000000000000000000000000000000000000000000000000000000000000000000000000000000000000000000000000000000000000000000000000000000000000000000000000000000000000",
      "type": "0x2",
      "transactionHash": "0x28a826b61cecb23710645e1647d6230e13b17f14203349cf174855e4074c5b4b",
      "transactionIndex": "0x2",
      "blockHash": "0x7708d45ca70accbcc848d1c9a1d5a06bda5209c76e53006c93a7283a0d1e6e2c",
      "blockNumber": "0x4965828",
      "gasUsed": "0x83f4",
      "effectiveGasPrice": "0x5f5e100",
      "from": "0x7caf754c934710d7c73bc453654552beca38223f",
      "to": "0x5c449c1777fa729c4136ddf81585fdd7512ae8bb",
      "contractAddress": null,
      "gasUsedForL1": "0x0",
      "l1BlockNumber": "0x652272"
    },
    {
      "status": "0x1",
      "cumulativeGasUsed": "0x12736",
      "logs": [
        {
          "address": "0x5c449c1777fa729c4136ddf81585fdd7512ae8bb",
          "topics": [
            "0xe6018505858eceb835b8280d364146d12a63551fe63d393b1b120fdbe28fe08d"
          ],
          "data": "0x2d0cdaf9a1153a9a4b68379c64d4397611a0f3d9fa4015376435f9a64aafc0c10000000000000000000000008058e501d2a460da92bfb2e989c351edb986fdba",
          "blockHash": "0x631bd29c27d77a248bd36abea2e2dc9feff7494027b5781dd220c019643a0253",
          "blockNumber": "0x496582b",
          "transactionHash": "0xdbe6076667a09fcbe21d3b9b1adf54e93eb16c8883ee485447cbbd97dfa09c3a",
          "transactionIndex": "0x1",
          "logIndex": "0x0",
          "removed": false
        }
      ],
      "logsBloom": "0x00000000000000000000000000000000000000000000000000000000000000000000000000000000000000000000000000000000000000000200000000000000000000000000000000000000000000004000000000000000000000000000000000000000000000000000000000000000000000000000000000000000000000000000000000000001000000000000000000000000000000000000000000000000000000000000002000000000000000000000000000000000000000000000000000000000000002000000000000000000000000000000000000000000000000000000000000000000000000000000010000000000000000000000000000000000",
      "type": "0x2",
      "transactionHash": "0xdbe6076667a09fcbe21d3b9b1adf54e93eb16c8883ee485447cbbd97dfa09c3a",
      "transactionIndex": "0x1",
      "blockHash": "0x631bd29c27d77a248bd36abea2e2dc9feff7494027b5781dd220c019643a0253",
      "blockNumber": "0x496582b",
      "gasUsed": "0x12736",
      "effectiveGasPrice": "0x5f5e100",
      "from": "0x7caf754c934710d7c73bc453654552beca38223f",
      "to": "0x5c449c1777fa729c4136ddf81585fdd7512ae8bb",
      "contractAddress": null,
      "gasUsedForL1": "0x0",
      "l1BlockNumber": "0x652272"
    },
    {
      "status": "0x1",
      "cumulativeGasUsed": "0x34702",
      "logs": [
        {
          "address": "0x5c449c1777fa729c4136ddf81585fdd7512ae8bb",
          "topics": [
            "0xe6018505858eceb835b8280d364146d12a63551fe63d393b1b120fdbe28fe08d"
          ],
          "data": "0x4b1115a4946079f8d83c63061f5c49c2f351a054d8dfb284b197f54dbfa8ed6200000000000000000000000011b93c8646600fb0ea524a6a90bad5d0cbbf4eb8",
          "blockHash": "0xf89f8d6b7271a7a89c155e9e08005ff027aeb647b8a5dba0427f3ebcf15028a4",
          "blockNumber": "0x496582e",
          "transactionHash": "0x4586069acb83535a5843d1f046dbb598ecb67d2c0f61f9bd9c438427536a8160",
          "transactionIndex": "0x3",
          "logIndex": "0x2",
          "removed": false
        }
      ],
      "logsBloom": "0x00000000000000000000000000000000000000000000000000000000000000000000000000000000000000000000000000000000000000000200000000000000000000000000000000000000000000004000000000000000000000000000000000000000000000000000000000000000000000000000000000000000000000000000000000000001000000000000000000000000000000000000000000000000000000000000002000000000000000000000000000000000000000000000000000000000000002000000000000000000000000000000000000000000000000000000000000000000000000000000010000000000000000000000000000000000",
      "type": "0x2",
      "transactionHash": "0x4586069acb83535a5843d1f046dbb598ecb67d2c0f61f9bd9c438427536a8160",
      "transactionIndex": "0x3",
      "blockHash": "0xf89f8d6b7271a7a89c155e9e08005ff027aeb647b8a5dba0427f3ebcf15028a4",
      "blockNumber": "0x496582e",
      "gasUsed": "0x14a7c",
      "effectiveGasPrice": "0x5f5e100",
      "from": "0x7caf754c934710d7c73bc453654552beca38223f",
      "to": "0x5c449c1777fa729c4136ddf81585fdd7512ae8bb",
      "contractAddress": null,
      "gasUsedForL1": "0x0",
      "l1BlockNumber": "0x652272"
    }
  ],
  "libraries": [],
  "pending": [],
  "returns": {},
  "timestamp": 1725404691,
  "chain": 421614,
  "commit": "9070552"
}