{
  "transactions": [
    {
      "hash": "0x7c7273dea76d44803a56f6528a03cc4e85f2fbc9eebbc0c15c1217694422da88",
      "transactionType": "CALL",
      "contractName": "CampaignBankFactory",
      "contractAddress": "0x383922f9ab2ee7b61cd2bff1deb782733edc246f",
      "function": "deployCampaignBank(uint256,address)",
      "arguments": [
        "20376791661718660580662410765070640284736320707848823176694931891585259913409",
        "0x56039fa1a804F614eBD714139F29a3ff4DB57ad6"
      ],
      "transaction": {
        "from": "0x7caf754c934710d7c73bc453654552beca38223f",
        "to": "0x383922f9ab2ee7b61cd2bff1deb782733edc246f",
        "gas": "0x145ddf",
        "value": "0x0",
        "input": "0x5ef597902d0cdaf9a1153a9a4b68379c64d4397611a0f3d9fa4015376435f9a64aafc0c100000000000000000000000056039fa1a804f614ebd714139f29a3ff4db57ad6",
        "nonce": "0x30f",
        "chainId": "0x66eee"
      },
      "additionalContracts": [],
      "isFixedGasLimit": false
    },
    {
      "hash": "0x878a5d1a236bd0d91a819243913007b279a1ac9c9ea192a538cbca29c57f2e8f",
      "transactionType": "CALL",
      "contractName": "mUSDToken",
      "contractAddress": "0x56039fa1a804f614ebd714139f29a3ff4db57ad6",
      "function": "mint(address,uint256)",
      "arguments": [
        "0xbc0Faab52f1580bf2DE79630efE2A1B50Af4c8DC",
        "10000000000000000000000"
      ],
      "transaction": {
        "from": "0x7caf754c934710d7c73bc453654552beca38223f",
        "to": "0x56039fa1a804f614ebd714139f29a3ff4db57ad6",
        "gas": "0x3cf05",
        "value": "0x0",
        "input": "0x40c10f19000000000000000000000000bc0faab52f1580bf2de79630efe2a1b50af4c8dc00000000000000000000000000000000000000000000021e19e0c9bab2400000",
        "nonce": "0x310",
        "chainId": "0x66eee"
      },
      "additionalContracts": [],
      "isFixedGasLimit": false
    },
    {
      "hash": "0x665896839004a31cf7478921153c749175d4c8e88e1aed9b9b508cc85548c23e",
      "transactionType": "CALL",
      "contractName": "CampaignBank",
      "contractAddress": "0xbc0faab52f1580bf2de79630efe2a1b50af4c8dc",
      "function": "updateDistributionState(bool)",
      "arguments": [
        "true"
      ],
      "transaction": {
        "from": "0x7caf754c934710d7c73bc453654552beca38223f",
        "to": "0xbc0faab52f1580bf2de79630efe2a1b50af4c8dc",
        "gas": "0x2b816",
        "value": "0x0",
        "input": "0xf84f32870000000000000000000000000000000000000000000000000000000000000001",
        "nonce": "0x311",
        "chainId": "0x66eee"
      },
      "additionalContracts": [],
      "isFixedGasLimit": false
    },
    {
      "hash": "0x3dbb637109d7275899005cfecf18537e7d67c0df74213969ad30d04b6b780d6d",
      "transactionType": "CALL",
      "contractName": "CampaignBankFactory",
      "contractAddress": "0x383922f9ab2ee7b61cd2bff1deb782733edc246f",
      "function": "deployCampaignBank(uint256,address)",
      "arguments": [
        "33953649417576654953995537313820306697747390492794311279756157547821320957282",
        "0x56039fa1a804F614eBD714139F29a3ff4DB57ad6"
      ],
      "transaction": {
        "from": "0x7caf754c934710d7c73bc453654552beca38223f",
        "to": "0x383922f9ab2ee7b61cd2bff1deb782733edc246f",
        "gas": "0x145ddf",
        "value": "0x0",
        "input": "0x5ef597904b1115a4946079f8d83c63061f5c49c2f351a054d8dfb284b197f54dbfa8ed6200000000000000000000000056039fa1a804f614ebd714139f29a3ff4db57ad6",
        "nonce": "0x312",
        "chainId": "0x66eee"
      },
      "additionalContracts": [],
      "isFixedGasLimit": false
    },
    {
      "hash": "0xb4f4d9b291349e59b29258e7aeb37bd15838ac34e49fba53b8dc67120ab7384d",
      "transactionType": "CALL",
      "contractName": "mUSDToken",
      "contractAddress": "0x56039fa1a804f614ebd714139f29a3ff4db57ad6",
      "function": "mint(address,uint256)",
      "arguments": [
        "0x42bd74930545731FDc13ACF576aa6926E6136F60",
        "10000000000000000000000"
      ],
      "transaction": {
        "from": "0x7caf754c934710d7c73bc453654552beca38223f",
        "to": "0x56039fa1a804f614ebd714139f29a3ff4db57ad6",
        "gas": "0x3cf05",
        "value": "0x0",
        "input": "0x40c10f1900000000000000000000000042bd74930545731fdc13acf576aa6926e6136f6000000000000000000000000000000000000000000000021e19e0c9bab2400000",
        "nonce": "0x313",
        "chainId": "0x66eee"
      },
      "additionalContracts": [],
      "isFixedGasLimit": false
    },
    {
      "hash": "0x12fedad47565494b24ba717e6e09d2748c3dd515566beb2e22cc69687783f14f",
      "transactionType": "CALL",
      "contractName": "CampaignBank",
      "contractAddress": "0x42bd74930545731fdc13acf576aa6926e6136f60",
      "function": "updateDistributionState(bool)",
      "arguments": [
        "true"
      ],
      "transaction": {
        "from": "0x7caf754c934710d7c73bc453654552beca38223f",
        "to": "0x42bd74930545731fdc13acf576aa6926e6136f60",
        "gas": "0x2b816",
        "value": "0x0",
        "input": "0xf84f32870000000000000000000000000000000000000000000000000000000000000001",
        "nonce": "0x314",
        "chainId": "0x66eee"
      },
      "additionalContracts": [],
      "isFixedGasLimit": false
    },
    {
      "hash": "0x35f5608e4438320442e9b8a9719ffc4f7857e99f1d3b82161e266ffd5a3b3f57",
      "transactionType": "CALL",
      "contractName": "CampaignBankFactory",
      "contractAddress": "0x383922f9ab2ee7b61cd2bff1deb782733edc246f",
      "function": "deployCampaignBank(uint256,address)",
      "arguments": [
        "2068430514047650913405585016200588010129844134212590945021429797155348147564",
        "0x56039fa1a804F614eBD714139F29a3ff4DB57ad6"
      ],
      "transaction": {
        "from": "0x7caf754c934710d7c73bc453654552beca38223f",
        "to": "0x383922f9ab2ee7b61cd2bff1deb782733edc246f",
        "gas": "0x145ddf",
        "value": "0x0",
        "input": "0x5ef597900492b0afd98946a7041772b747fd12b5b734043da5948f58afe0ca2287d3ed6c00000000000000000000000056039fa1a804f614ebd714139f29a3ff4db57ad6",
        "nonce": "0x315",
        "chainId": "0x66eee"
      },
      "additionalContracts": [],
      "isFixedGasLimit": false
    },
    {
      "hash": "0xc354dd0532e587355784d76c75473227aaa4a708fbaba698fbe7b79fc39ef13d",
      "transactionType": "CALL",
      "contractName": "mUSDToken",
      "contractAddress": "0x56039fa1a804f614ebd714139f29a3ff4db57ad6",
      "function": "mint(address,uint256)",
      "arguments": [
        "0xaF5571a9b101EAE162021A0c7c503D972842dB6b",
        "10000000000000000000000"
      ],
      "transaction": {
        "from": "0x7caf754c934710d7c73bc453654552beca38223f",
        "to": "0x56039fa1a804f614ebd714139f29a3ff4db57ad6",
        "gas": "0x3cf05",
        "value": "0x0",
        "input": "0x40c10f19000000000000000000000000af5571a9b101eae162021a0c7c503d972842db6b00000000000000000000000000000000000000000000021e19e0c9bab2400000",
        "nonce": "0x316",
        "chainId": "0x66eee"
      },
      "additionalContracts": [],
      "isFixedGasLimit": false
    },
    {
      "hash": "0x37dcfa38870663707d8be52a4d33d5073d188376117778352167ba2029154aa6",
      "transactionType": "CALL",
      "contractName": "CampaignBank",
      "contractAddress": "0xaf5571a9b101eae162021a0c7c503d972842db6b",
      "function": "updateDistributionState(bool)",
      "arguments": [
        "true"
      ],
      "transaction": {
        "from": "0x7caf754c934710d7c73bc453654552beca38223f",
        "to": "0xaf5571a9b101eae162021a0c7c503d972842db6b",
        "gas": "0x2b816",
        "value": "0x0",
        "input": "0xf84f32870000000000000000000000000000000000000000000000000000000000000001",
        "nonce": "0x317",
        "chainId": "0x66eee"
      },
      "additionalContracts": [],
      "isFixedGasLimit": false
    },
    {
      "hash": "0x7c3771e01288c1973acc6f4188c62756d4af3ec2cb32b1417fb218d3a1c8b102",
      "transactionType": "CALL",
      "contractName": "CampaignBankFactory",
      "contractAddress": "0x383922f9ab2ee7b61cd2bff1deb782733edc246f",
      "function": "deployCampaignBank(uint256,address)",
      "arguments": [
        "78039019097813453052283579479546565566018031674579644824047040084256397198572",
        "0x56039fa1a804F614eBD714139F29a3ff4DB57ad6"
      ],
      "transaction": {
        "from": "0x7caf754c934710d7c73bc453654552beca38223f",
        "to": "0x383922f9ab2ee7b61cd2bff1deb782733edc246f",
        "gas": "0x145dc0",
        "value": "0x0",
        "input": "0x5ef59790ac8885004fee2cfa1e20f8ae581b79340670b72f80f4369c863c22e7c20004ec00000000000000000000000056039fa1a804f614ebd714139f29a3ff4db57ad6",
        "nonce": "0x318",
        "chainId": "0x66eee"
      },
      "additionalContracts": [],
      "isFixedGasLimit": false
    },
    {
      "hash": "0x5993b74fb389ea90c35c07923f0af235f8f734957009b65f5c62a553bc9a8592",
      "transactionType": "CALL",
      "contractName": "mUSDToken",
      "contractAddress": "0x56039fa1a804f614ebd714139f29a3ff4db57ad6",
      "function": "mint(address,uint256)",
      "arguments": [
        "0x1537cc832F4f49448Be271e031245e724F82EB6B",
        "10000000000000000000000"
      ],
      "transaction": {
        "from": "0x7caf754c934710d7c73bc453654552beca38223f",
        "to": "0x56039fa1a804f614ebd714139f29a3ff4db57ad6",
        "gas": "0x3cf05",
        "value": "0x0",
        "input": "0x40c10f190000000000000000000000001537cc832f4f49448be271e031245e724f82eb6b00000000000000000000000000000000000000000000021e19e0c9bab2400000",
        "nonce": "0x319",
        "chainId": "0x66eee"
      },
      "additionalContracts": [],
      "isFixedGasLimit": false
    },
    {
      "hash": "0xed44752304abad12e677727dd21b2d49c629b8cbc957f7dcd2cd1d7a0b9a990f",
      "transactionType": "CALL",
      "contractName": "CampaignBank",
      "contractAddress": "0x1537cc832f4f49448be271e031245e724f82eb6b",
      "function": "updateDistributionState(bool)",
      "arguments": [
        "true"
      ],
      "transaction": {
        "from": "0x7caf754c934710d7c73bc453654552beca38223f",
        "to": "0x1537cc832f4f49448be271e031245e724f82eb6b",
        "gas": "0x2b816",
        "value": "0x0",
        "input": "0xf84f32870000000000000000000000000000000000000000000000000000000000000001",
        "nonce": "0x31a",
        "chainId": "0x66eee"
      },
      "additionalContracts": [],
      "isFixedGasLimit": false
    }
  ],
  "receipts": [
    {
      "status": "0x1",
      "cumulativeGasUsed": "0xef0d6",
      "logs": [
        {
          "address": "0x383922f9ab2ee7b61cd2bff1deb782733edc246f",
          "topics": [
            "0xe6e0f2bb70f7273868e11d8662ffd06a4699f98d7905e6d65e9bbd006fbdc3d6"
          ],
          "data": "0x000000000000000000000000bc0faab52f1580bf2de79630efe2a1b50af4c8dc",
          "blockHash": "0xb4d0b1e771a11696bd0ba07bb9a1f882aacb6f0b4b20f849a8ab4e7b7e65494f",
          "blockNumber": "0x5100c5c",
          "transactionHash": "0x7c7273dea76d44803a56f6528a03cc4e85f2fbc9eebbc0c15c1217694422da88",
          "transactionIndex": "0x1",
          "logIndex": "0x0",
          "removed": false
        }
      ],
      "logsBloom": "0x00000100000000000000000000000000000000000000000000000000000000000000000000000000000000000000000000000000000000000000000000000000000000000000000020000000000000000000000000000000000000000000000000000000000000000000000000000000000000000000000000000000000000000000000000000000000000000000000000000000000000000000000040000000000000000000000000000000000000000000000000000000000000000000000000000000000000000000000080000000000000004000000000000000000000000000000000000000000000000000000000000000000000000000000400000000",
      "type": "0x2",
      "transactionHash": "0x7c7273dea76d44803a56f6528a03cc4e85f2fbc9eebbc0c15c1217694422da88",
      "transactionIndex": "0x1",
      "blockHash": "0xb4d0b1e771a11696bd0ba07bb9a1f882aacb6f0b4b20f849a8ab4e7b7e65494f",
      "blockNumber": "0x5100c5c",
      "gasUsed": "0xef0d6",
      "effectiveGasPrice": "0x5f5e100",
      "from": "0x7caf754c934710d7c73bc453654552beca38223f",
      "to": "0x383922f9ab2ee7b61cd2bff1deb782733edc246f",
      "contractAddress": null,
      "gasUsedForL1": "0x1a120",
      "l1BlockNumber": "0x6776d2"
    },
    {
      "status": "0x1",
      "cumulativeGasUsed": "0x27166",
      "logs": [
        {
          "address": "0x56039fa1a804f614ebd714139f29a3ff4db57ad6",
          "topics": [
            "0xddf252ad1be2c89b69c2b068fc378daa952ba7f163c4a11628f55a4df523b3ef",
            "0x0000000000000000000000000000000000000000000000000000000000000000",
            "0x000000000000000000000000bc0faab52f1580bf2de79630efe2a1b50af4c8dc"
          ],
          "data": "0x00000000000000000000000000000000000000000000021e19e0c9bab2400000",
          "blockHash": "0x68a6f58cfa88e5119d3f112f630f62a383eefcf216a3b8fb07eacb4df1fc9282",
          "blockNumber": "0x5100c5e",
          "transactionHash": "0x878a5d1a236bd0d91a819243913007b279a1ac9c9ea192a538cbca29c57f2e8f",
          "transactionIndex": "0x1",
          "logIndex": "0x0",
          "removed": false
        }
      ],
      "logsBloom": "0x00000000000000000000000000000000000000000000400000000000000000000000000000020000000000000000000000000000000000000000000000000000000080000000000000000008000000000000000000000000000010000000000000000000020000000000000000000800000000000000000000000010000000000000000000000000000000000000000004000000000040000000000000000000000000000000000000000000000000000000000000000000000000000000000000000002000000000000000000000000000000000000000000000000000020000000000000000000000000000000000000000000000000000000000000000000",
      "type": "0x2",
      "transactionHash": "0x878a5d1a236bd0d91a819243913007b279a1ac9c9ea192a538cbca29c57f2e8f",
      "transactionIndex": "0x1",
      "blockHash": "0x68a6f58cfa88e5119d3f112f630f62a383eefcf216a3b8fb07eacb4df1fc9282",
      "blockNumber": "0x5100c5e",
      "gasUsed": "0x27166",
      "effectiveGasPrice": "0x5f5e100",
      "from": "0x7caf754c934710d7c73bc453654552beca38223f",
      "to": "0x56039fa1a804f614ebd714139f29a3ff4db57ad6",
      "contractAddress": null,
      "gasUsedForL1": "0x1a120",
      "l1BlockNumber": "0x6776d2"
    },
    {
      "status": "0x1",
      "cumulativeGasUsed": "0x21a8b",
      "logs": [
        {
          "address": "0xbc0faab52f1580bf2de79630efe2a1b50af4c8dc",
          "topics": [
            "0x8c9bbe491ad07e24c4a81818e88e4b5fa5ba9f0b1fbc2a01abab14d22dbdabcb"
          ],
          "data": "0x0000000000000000000000000000000000000000000000000000000000000001",
          "blockHash": "0xc9684fd43eb425e0e506389c0bc89b6180ab6e9ed627241ff678cbd5a068191c",
          "blockNumber": "0x5100c60",
          "transactionHash": "0x665896839004a31cf7478921153c749175d4c8e88e1aed9b9b508cc85548c23e",
          "transactionIndex": "0x1",
          "logIndex": "0x0",
          "removed": false
        }
      ],
      "logsBloom": "0x00000000000000000000000000000000000000000000000000000000000000000000000000000000000000000c00800000000000000000000000000000000000000000000000000000000020000000000000000000000000000000000000000000000000000000000000000000000000000000008000000000000000000000000000000000000000000000000000000000000000000000000000000000000000000000000000000000000000000000000000000000000000000000000000000000000000000000000000000000000000000000000000000000000000000000000000000000000000000000000000000000000000000000000000000080000000",
      "type": "0x2",
      "transactionHash": "0x665896839004a31cf7478921153c749175d4c8e88e1aed9b9b508cc85548c23e",
      "transactionIndex": "0x1",
      "blockHash": "0xc9684fd43eb425e0e506389c0bc89b6180ab6e9ed627241ff678cbd5a068191c",
      "blockNumber": "0x5100c60",
      "gasUsed": "0x21a8b",
      "effectiveGasPrice": "0x5f5e100",
      "from": "0x7caf754c934710d7c73bc453654552beca38223f",
      "to": "0xbc0faab52f1580bf2de79630efe2a1b50af4c8dc",
      "contractAddress": null,
      "gasUsedForL1": "0x15651",
      "l1BlockNumber": "0x6776d2"
    },
    {
      "status": "0x1",
      "cumulativeGasUsed": "0x15bb05",
      "logs": [
        {
          "address": "0x383922f9ab2ee7b61cd2bff1deb782733edc246f",
          "topics": [
            "0xe6e0f2bb70f7273868e11d8662ffd06a4699f98d7905e6d65e9bbd006fbdc3d6"
          ],
          "data": "0x00000000000000000000000042bd74930545731fdc13acf576aa6926e6136f60",
          "blockHash": "0xfba40907b50de69cf81208cb5cb7c72781b2fa4b8c9f0e99a615ff88a83fac44",
          "blockNumber": "0x5100c63",
          "transactionHash": "0x3dbb637109d7275899005cfecf18537e7d67c0df74213969ad30d04b6b780d6d",
          "transactionIndex": "0x2",
          "logIndex": "0x3",
          "removed": false
        }
      ],
      "logsBloom": "0x00000100000000000000000000000000000000000000000000000000000000000000000000000000000000000000000000000000000000000000000000000000000000000000000020000000000000000000000000000000000000000000000000000000000000000000000000000000000000000000000000000000000000000000000000000000000000000000000000000000000000000000000040000000000000000000000000000000000000000000000000000000000000000000000000000000000000000000000080000000000000004000000000000000000000000000000000000000000000000000000000000000000000000000000400000000",
      "type": "0x2",
      "transactionHash": "0x3dbb637109d7275899005cfecf18537e7d67c0df74213969ad30d04b6b780d6d",
      "transactionIndex": "0x2",
      "blockHash": "0xfba40907b50de69cf81208cb5cb7c72781b2fa4b8c9f0e99a615ff88a83fac44",
      "blockNumber": "0x5100c63",
      "gasUsed": "0xef0d6",
      "effectiveGasPrice": "0x5f5e100",
      "from": "0x7caf754c934710d7c73bc453654552beca38223f",
      "to": "0x383922f9ab2ee7b61cd2bff1deb782733edc246f",
      "contractAddress": null,
      "gasUsedForL1": "0x1a120",
      "l1BlockNumber": "0x6776d2"
    },
    {
      "status": "0x1",
      "cumulativeGasUsed": "0x27166",
      "logs": [
        {
          "address": "0x56039fa1a804f614ebd714139f29a3ff4db57ad6",
          "topics": [
            "0xddf252ad1be2c89b69c2b068fc378daa952ba7f163c4a11628f55a4df523b3ef",
            "0x0000000000000000000000000000000000000000000000000000000000000000",
            "0x00000000000000000000000042bd74930545731fdc13acf576aa6926e6136f60"
          ],
          "data": "0x00000000000000000000000000000000000000000000021e19e0c9bab2400000",
          "blockHash": "0x785abf3c55969a8078d3589c2f716fc12cf89f90981280fcdbaca6de88ff197c",
          "blockNumber": "0x5100c65",
          "transactionHash": "0xb4f4d9b291349e59b29258e7aeb37bd15838ac34e49fba53b8dc67120ab7384d",
          "transactionIndex": "0x1",
          "logIndex": "0x0",
          "removed": false
        }
      ],
      "logsBloom": "0x00000000000000000000000000000000000000000000400000000000000000000000000000020000000000000000000000000000000000000000000000000000000000000000000000000008000000000000000000000000000010000000000000000000020040000000000000000800000000000000000000000010000000000000000000000000000000000000000000000000000000000000000000000000000000000000000000000000000000000000000000000000000000000000000000000002000000000000000000080000000000000000000000000000000020020000000000000000000000000000000000000000000000000000000000000000",
      "type": "0x2",
      "transactionHash": "0xb4f4d9b291349e59b29258e7aeb37bd15838ac34e49fba53b8dc67120ab7384d",
      "transactionIndex": "0x1",
      "blockHash": "0x785abf3c55969a8078d3589c2f716fc12cf89f90981280fcdbaca6de88ff197c",
      "blockNumber": "0x5100c65",
      "gasUsed": "0x27166",
      "effectiveGasPrice": "0x5f5e100",
      "from": "0x7caf754c934710d7c73bc453654552beca38223f",
      "to": "0x56039fa1a804f614ebd714139f29a3ff4db57ad6",
      "contractAddress": null,
      "gasUsedForL1": "0x1a120",
      "l1BlockNumber": "0x6776d2"
    },
    {
      "status": "0x1",
      "cumulativeGasUsed": "0x21a8b",
      "logs": [
        {
          "address": "0x42bd74930545731fdc13acf576aa6926e6136f60",
          "topics": [
            "0x8c9bbe491ad07e24c4a81818e88e4b5fa5ba9f0b1fbc2a01abab14d22dbdabcb"
          ],
          "data": "0x0000000000000000000000000000000000000000000000000000000000000001",
          "blockHash": "0xbca5bbc0c78649ca19b5f87621de31fe0d16f8e2a95a0cf7aeeb410d535bd211",
          "blockNumber": "0x5100c68",
          "transactionHash": "0x12fedad47565494b24ba717e6e09d2748c3dd515566beb2e22cc69687783f14f",
          "transactionIndex": "0x1",
          "logIndex": "0x0",
          "removed": false
        }
      ],
      "logsBloom": "0x00000000000000004000000000000000000000000000000000000000000000000000000000000000000000000c00000000000000000000000000000000000000000000000000000000000020000000000000000000000000000000000000000000000000000000000000000000000000000000000000000000000000000000800000000000000000000000000000000000000000000000000000000000000000000000000000000000000000000000000000002000000000000000000000000000000000000000000000000000000000000000000000000000000000000000000000000000000000000000000000000000000000000000000000000000000000",
      "type": "0x2",
      "transactionHash": "0x12fedad47565494b24ba717e6e09d2748c3dd515566beb2e22cc69687783f14f",
      "transactionIndex": "0x1",
      "blockHash": "0xbca5bbc0c78649ca19b5f87621de31fe0d16f8e2a95a0cf7aeeb410d535bd211",
      "blockNumber": "0x5100c68",
      "gasUsed": "0x21a8b",
      "effectiveGasPrice": "0x5f5e100",
      "from": "0x7caf754c934710d7c73bc453654552beca38223f",
      "to": "0x42bd74930545731fdc13acf576aa6926e6136f60",
      "contractAddress": null,
      "gasUsedForL1": "0x15651",
      "l1BlockNumber": "0x6776d2"
    },
    {
      "status": "0x1",
      "cumulativeGasUsed": "0xef0d6",
      "logs": [
        {
          "address": "0x383922f9ab2ee7b61cd2bff1deb782733edc246f",
          "topics": [
            "0xe6e0f2bb70f7273868e11d8662ffd06a4699f98d7905e6d65e9bbd006fbdc3d6"
          ],
          "data": "0x000000000000000000000000af5571a9b101eae162021a0c7c503d972842db6b",
          "blockHash": "0x1a2983bee8118427e63b93ff19a35e6ba64333ad7de5b58272e04e5a5cfeaa57",
          "blockNumber": "0x5100c6c",
          "transactionHash": "0x35f5608e4438320442e9b8a9719ffc4f7857e99f1d3b82161e266ffd5a3b3f57",
          "transactionIndex": "0x1",
          "logIndex": "0x0",
          "removed": false
        }
      ],
      "logsBloom": "0x00000100000000000000000000000000000000000000000000000000000000000000000000000000000000000000000000000000000000000000000000000000000000000000000020000000000000000000000000000000000000000000000000000000000000000000000000000000000000000000000000000000000000000000000000000000000000000000000000000000000000000000000040000000000000000000000000000000000000000000000000000000000000000000000000000000000000000000000080000000000000004000000000000000000000000000000000000000000000000000000000000000000000000000000400000000",
      "type": "0x2",
      "transactionHash": "0x35f5608e4438320442e9b8a9719ffc4f7857e99f1d3b82161e266ffd5a3b3f57",
      "transactionIndex": "0x1",
      "blockHash": "0x1a2983bee8118427e63b93ff19a35e6ba64333ad7de5b58272e04e5a5cfeaa57",
      "blockNumber": "0x5100c6c",
      "gasUsed": "0xef0d6",
      "effectiveGasPrice": "0x5f5e100",
      "from": "0x7caf754c934710d7c73bc453654552beca38223f",
      "to": "0x383922f9ab2ee7b61cd2bff1deb782733edc246f",
      "contractAddress": null,
      "gasUsedForL1": "0x1a120",
      "l1BlockNumber": "0x6776d2"
    },
    {
      "status": "0x1",
      "cumulativeGasUsed": "0x27166",
      "logs": [
        {
          "address": "0x56039fa1a804f614ebd714139f29a3ff4db57ad6",
          "topics": [
            "0xddf252ad1be2c89b69c2b068fc378daa952ba7f163c4a11628f55a4df523b3ef",
            "0x0000000000000000000000000000000000000000000000000000000000000000",
            "0x000000000000000000000000af5571a9b101eae162021a0c7c503d972842db6b"
          ],
          "data": "0x00000000000000000000000000000000000000000000021e19e0c9bab2400000",
          "blockHash": "0xb348ba82a7d215a5f4f4cdb96a998fd1d71cae7733809820c8b5283633b4b154",
          "blockNumber": "0x5100c6d",
          "transactionHash": "0xc354dd0532e587355784d76c75473227aaa4a708fbaba698fbe7b79fc39ef13d",
          "transactionIndex": "0x1",
          "logIndex": "0x0",
          "removed": false
        }
      ],
      "logsBloom": "0x00000000000000000000000000000000000000000000400000000000000000000000000000020000000000000000000000000000000400000000000000000000000000000000000000000008000000000000000000000000000010000000000000000000020000000000000000000800000000400000000000000010000000000000000000000000000000000000004000000000000000000000000000000000000000000000000000000000000000000000000000000000000000000000000000000002000000000000000000000000000000000000000000000000000020000000000000000000000000000000000000000000000000000000000000000000",
      "type": "0x2",
      "transactionHash": "0xc354dd0532e587355784d76c75473227aaa4a708fbaba698fbe7b79fc39ef13d",
      "transactionIndex": "0x1",
      "blockHash": "0xb348ba82a7d215a5f4f4cdb96a998fd1d71cae7733809820c8b5283633b4b154",
      "blockNumber": "0x5100c6d",
      "gasUsed": "0x27166",
      "effectiveGasPrice": "0x5f5e100",
      "from": "0x7caf754c934710d7c73bc453654552beca38223f",
      "to": "0x56039fa1a804f614ebd714139f29a3ff4db57ad6",
      "contractAddress": null,
      "gasUsedForL1": "0x1a120",
      "l1BlockNumber": "0x6776d2"
    },
    {
      "status": "0x1",
      "cumulativeGasUsed": "0x21a8b",
      "logs": [
        {
          "address": "0xaf5571a9b101eae162021a0c7c503d972842db6b",
          "topics": [
            "0x8c9bbe491ad07e24c4a81818e88e4b5fa5ba9f0b1fbc2a01abab14d22dbdabcb"
          ],
          "data": "0x0000000000000000000000000000000000000000000000000000000000000001",
          "blockHash": "0xacd92f53686eccc9ea915718425f2910a0f8ecf4557d83e4212a314a36e86450",
          "blockNumber": "0x5100c6f",
          "transactionHash": "0x37dcfa38870663707d8be52a4d33d5073d188376117778352167ba2029154aa6",
          "transactionIndex": "0x1",
          "logIndex": "0x0",
          "removed": false
        }
      ],
      "logsBloom": "0x00000000000000000000000000000000000002000000000000000000000000000000000000000000000000000c00000000000000000000000000000000000000000000000000000000000020000000000000000000000000000000000000000000000000000000000000000000000000080002000000000000000000000000000000000000000000000000000000000000000000000000000000000000000000000000000000000000000000000000000000000000000000000000000000000000000000000000000000000000000000000000000000000000000000000000000000000000000000000000000000000000000000000000000000000000000000",
      "type": "0x2",
      "transactionHash": "0x37dcfa38870663707d8be52a4d33d5073d188376117778352167ba2029154aa6",
      "transactionIndex": "0x1",
      "blockHash": "0xacd92f53686eccc9ea915718425f2910a0f8ecf4557d83e4212a314a36e86450",
      "blockNumber": "0x5100c6f",
      "gasUsed": "0x21a8b",
      "effectiveGasPrice": "0x5f5e100",
      "from": "0x7caf754c934710d7c73bc453654552beca38223f",
      "to": "0xaf5571a9b101eae162021a0c7c503d972842db6b",
      "contractAddress": null,
      "gasUsedForL1": "0x15651",
      "l1BlockNumber": "0x6776d2"
    },
    {
      "status": "0x1",
      "cumulativeGasUsed": "0xef0be",
      "logs": [
        {
          "address": "0x383922f9ab2ee7b61cd2bff1deb782733edc246f",
          "topics": [
            "0xe6e0f2bb70f7273868e11d8662ffd06a4699f98d7905e6d65e9bbd006fbdc3d6"
          ],
          "data": "0x0000000000000000000000001537cc832f4f49448be271e031245e724f82eb6b",
          "blockHash": "0x8f0834b55eca17b4c38ff008c9459a666b88428ad2695fa1b80a3ca45217cc2d",
          "blockNumber": "0x5100c71",
          "transactionHash": "0x7c3771e01288c1973acc6f4188c62756d4af3ec2cb32b1417fb218d3a1c8b102",
          "transactionIndex": "0x1",
          "logIndex": "0x0",
          "removed": false
        }
      ],
      "logsBloom": "0x00000100000000000000000000000000000000000000000000000000000000000000000000000000000000000000000000000000000000000000000000000000000000000000000020000000000000000000000000000000000000000000000000000000000000000000000000000000000000000000000000000000000000000000000000000000000000000000000000000000000000000000000040000000000000000000000000000000000000000000000000000000000000000000000000000000000000000000000080000000000000004000000000000000000000000000000000000000000000000000000000000000000000000000000400000000",
      "type": "0x2",
      "transactionHash": "0x7c3771e01288c1973acc6f4188c62756d4af3ec2cb32b1417fb218d3a1c8b102",
      "transactionIndex": "0x1",
      "blockHash": "0x8f0834b55eca17b4c38ff008c9459a666b88428ad2695fa1b80a3ca45217cc2d",
      "blockNumber": "0x5100c71",
      "gasUsed": "0xef0be",
      "effectiveGasPrice": "0x5f5e100",
      "from": "0x7caf754c934710d7c73bc453654552beca38223f",
      "to": "0x383922f9ab2ee7b61cd2bff1deb782733edc246f",
      "contractAddress": null,
      "gasUsedForL1": "0x1a120",
      "l1BlockNumber": "0x6776d2"
    },
    {
      "status": "0x1",
      "cumulativeGasUsed": "0x57287",
      "logs": [
        {
          "address": "0x56039fa1a804f614ebd714139f29a3ff4db57ad6",
          "topics": [
            "0xddf252ad1be2c89b69c2b068fc378daa952ba7f163c4a11628f55a4df523b3ef",
            "0x0000000000000000000000000000000000000000000000000000000000000000",
            "0x0000000000000000000000001537cc832f4f49448be271e031245e724f82eb6b"
          ],
          "data": "0x00000000000000000000000000000000000000000000021e19e0c9bab2400000",
          "blockHash": "0xc3e675acc4d04b07d734d7f1087777e5152577781ab13b4655d705033583ae2d",
          "blockNumber": "0x5100c75",
          "transactionHash": "0x5993b74fb389ea90c35c07923f0af235f8f734957009b65f5c62a553bc9a8592",
          "transactionIndex": "0x2",
          "logIndex": "0x1",
          "removed": false
        }
      ],
      "logsBloom": "0x00000000000000000000000000000000000000000000400000000000000000000000000000020000000000000000000000000000000000000000000000000000000000000000000080000008000000000000000000000000000010000000000020000000020000000000000000000800000000000000000000000010000000000000000000000000000000000000000000000000000000000000000000000000000000000000000000000000000000000000000000000000000000000000000000000002000000000000000000000000000000000000000000000000000020020000000000000000000000000000000000000000000000000000000000000000",
      "type": "0x2",
      "transactionHash": "0x5993b74fb389ea90c35c07923f0af235f8f734957009b65f5c62a553bc9a8592",
      "transactionIndex": "0x2",
      "blockHash": "0xc3e675acc4d04b07d734d7f1087777e5152577781ab13b4655d705033583ae2d",
      "blockNumber": "0x5100c75",
      "gasUsed": "0x27166",
      "effectiveGasPrice": "0x5f5e100",
      "from": "0x7caf754c934710d7c73bc453654552beca38223f",
      "to": "0x56039fa1a804f614ebd714139f29a3ff4db57ad6",
      "contractAddress": null,
      "gasUsedForL1": "0x1a120",
      "l1BlockNumber": "0x6776d2"
    },
    {
      "status": "0x1",
      "cumulativeGasUsed": "0x21a8b",
      "logs": [
        {
          "address": "0x1537cc832f4f49448be271e031245e724f82eb6b",
          "topics": [
            "0x8c9bbe491ad07e24c4a81818e88e4b5fa5ba9f0b1fbc2a01abab14d22dbdabcb"
          ],
          "data": "0x0000000000000000000000000000000000000000000000000000000000000001",
          "blockHash": "0x328a8fd606856acd91059c4e405d8b5bb21d05552c498766a5788d2bac40f7da",
          "blockNumber": "0x5100c78",
          "transactionHash": "0xed44752304abad12e677727dd21b2d49c629b8cbc957f7dcd2cd1d7a0b9a990f",
          "transactionIndex": "0x1",
          "logIndex": "0x0",
          "removed": false
        }
      ],
      "logsBloom": "0x00000000000000000000000000000000000000000000000000000000000000000000000000000000000000000c00000000000000000000000000000000000000000000000000000000840020000000000000000000000000000000000000000000000000000000000000000000000000000001000000000000000000000000000000000000000000000000000000000000000000000000000000000000000000000000000000000000000000000000000000000000000000000000000000000000000000000000000000000000000000000000000000000000000000000000000000000000000000000000000000000000000000000000000000000000000000",
      "type": "0x2",
      "transactionHash": "0xed44752304abad12e677727dd21b2d49c629b8cbc957f7dcd2cd1d7a0b9a990f",
      "transactionIndex": "0x1",
      "blockHash": "0x328a8fd606856acd91059c4e405d8b5bb21d05552c498766a5788d2bac40f7da",
      "blockNumber": "0x5100c78",
      "gasUsed": "0x21a8b",
      "effectiveGasPrice": "0x5f5e100",
      "from": "0x7caf754c934710d7c73bc453654552beca38223f",
      "to": "0x1537cc832f4f49448be271e031245e724f82eb6b",
      "contractAddress": null,
      "gasUsedForL1": "0x15651",
      "l1BlockNumber": "0x6776d2"
    }
  ],
  "libraries": [],
  "pending": [],
  "returns": {},
  "timestamp": 1727602695,
  "chain": 421614,
  "commit": "d22f87e"
}