{
  "transactions": [
    {
      "hash": "0x4bc48d8c13124cbbca100da05b01dfc0442e072928d739cd1dd45d5e13219f99",
      "transactionType": "CALL",
      "contractName": null,
      "contractAddress": "0xa0fc454ac469081d95c231f569105585e5b30cfd",
      "function": "withdraw()",
      "arguments": [],
      "transaction": {
        "from": "0x7caf754c934710d7c73bc453654552beca38223f",
        "to": "0xa0fc454ac469081d95c231f569105585e5b30cfd",
        "gas": "0x1474ce",
        "value": "0x0",
        "input": "0x3ccfd60b",
        "nonce": "0x1b3",
        "chainId": "0x66eee"
      },
      "additionalContracts": [],
      "isFixedGasLimit": false
    },
    {
      "hash": "0xbcffbef755dda7123895c7953a89f4317279902f9980e93afb11c37873ea7a05",
      "transactionType": "CALL",
      "contractName": null,
      "contractAddress": "0x76091a17b9f0c53ea826e04bd5e586c143afc30e",
      "function": "detachCampaigns(uint256,address[])",
      "arguments": [
        "106219508196454080375526586478153583586194937194493887259467424694676997453395",
        "[0xa0FC454aC469081D95c231F569105585e5b30cfd]"
      ],
      "transaction": {
        "from": "0x7caf754c934710d7c73bc453654552beca38223f",
        "to": "0x76091a17b9f0c53ea826e04bd5e586c143afc30e",
        "gas": "0x24c1d1",
        "value": "0x0",
        "input": "0xae6d310fead61c7340b7cacd78684d4795a617aae5e85cc4b89da34fb05ad55bb6bab65300000000000000000000000000000000000000000000000000000000000000400000000000000000000000000000000000000000000000000000000000000001000000000000000000000000a0fc454ac469081d95c231f569105585e5b30cfd",
        "nonce": "0x1b4",
        "chainId": "0x66eee"
      },
      "additionalContracts": [],
      "isFixedGasLimit": false
    },
    {
      "hash": "0x06a7938b6dabc9cda19c5328b00863c5551dec0d3db73b08aee3e1f17bf57310",
      "transactionType": "CALL",
      "contractName": null,
      "contractAddress": "0xffbe0acdcff49c410ca8832daf01e4c3234809a6",
      "function": "withdraw()",
      "arguments": [],
      "transaction": {
        "from": "0x7caf754c934710d7c73bc453654552beca38223f",
        "to": "0xffbe0acdcff49c410ca8832daf01e4c3234809a6",
        "gas": "0x1474ce",
        "value": "0x0",
        "input": "0x3ccfd60b",
        "nonce": "0x1b5",
        "chainId": "0x66eee"
      },
      "additionalContracts": [],
      "isFixedGasLimit": false
    },
    {
      "hash": "0xd957f72f9154cad875634e5b84ac01b069512219a180cdc5497d3aca10e4da06",
      "transactionType": "CALL",
      "contractName": null,
      "contractAddress": "0x76091a17b9f0c53ea826e04bd5e586c143afc30e",
      "function": "detachCampaigns(uint256,address[])",
      "arguments": [
        "108586150798115180574743190405367285583167702751783717273705027881651322809951",
        "[0xFFbe0ACDcff49c410Ca8832DAf01E4C3234809a6]"
      ],
      "transaction": {
        "from": "0x7caf754c934710d7c73bc453654552beca38223f",
        "to": "0x76091a17b9f0c53ea826e04bd5e586c143afc30e",
        "gas": "0x24c1d1",
        "value": "0x0",
        "input": "0xae6d310ff011955832cac97ab1a6534c6b94971325e3be6bfaac1ccae68e3f5c7adcee5f00000000000000000000000000000000000000000000000000000000000000400000000000000000000000000000000000000000000000000000000000000001000000000000000000000000ffbe0acdcff49c410ca8832daf01e4c3234809a6",
        "nonce": "0x1b6",
        "chainId": "0x66eee"
      },
      "additionalContracts": [],
      "isFixedGasLimit": false
    },
    {
      "hash": "0xa14dcefd2942908eb10995f6817879cb0c3ee20df019094091f4f16ddd470be1",
      "transactionType": "CALL",
      "contractName": null,
      "contractAddress": "0x9ecc17172af39a81b2547c53880d4633a8f27606",
      "function": "withdraw()",
      "arguments": [],
      "transaction": {
        "from": "0x7caf754c934710d7c73bc453654552beca38223f",
        "to": "0x9ecc17172af39a81b2547c53880d4633a8f27606",
        "gas": "0x1474ce",
        "value": "0x0",
        "input": "0x3ccfd60b",
        "nonce": "0x1b7",
        "chainId": "0x66eee"
      },
      "additionalContracts": [],
      "isFixedGasLimit": false
    },
    {
      "hash": "0x79e4d56fe3c4cb9a9b6f19ea923c085fd13f4ab2855d81e48b10fad822111577",
      "transactionType": "CALL",
      "contractName": null,
      "contractAddress": "0x76091a17b9f0c53ea826e04bd5e586c143afc30e",
      "function": "detachCampaigns(uint256,address[])",
      "arguments": [
        "61412812549033025435811962204424170589965658763482764336017940556663446417829",
        "[0x9ecc17172Af39A81B2547C53880D4633A8f27606]"
      ],
      "transaction": {
        "from": "0x7caf754c934710d7c73bc453654552beca38223f",
        "to": "0x76091a17b9f0c53ea826e04bd5e586c143afc30e",
        "gas": "0x24c1d1",
        "value": "0x0",
        "input": "0xae6d310f87c66b8c60fd984f739f68f1d83229601131914aaf269874c584e179b37db1a5000000000000000000000000000000000000000000000000000000000000004000000000000000000000000000000000000000000000000000000000000000010000000000000000000000009ecc17172af39a81b2547c53880d4633a8f27606",
        "nonce": "0x1b8",
        "chainId": "0x66eee"
      },
      "additionalContracts": [],
      "isFixedGasLimit": false
    },
    {
      "hash": "0x1122bffa4947be1b46c6af414de92ddeab05bdaf5b07c974d48b9517018397a3",
      "transactionType": "CALL",
      "contractName": null,
      "contractAddress": "0x16bf9a503bc4cac31d7c3f220598c8a6f315400c",
      "function": "withdraw()",
      "arguments": [],
      "transaction": {
        "from": "0x7caf754c934710d7c73bc453654552beca38223f",
        "to": "0x16bf9a503bc4cac31d7c3f220598c8a6f315400c",
        "gas": "0x1474ce",
        "value": "0x0",
        "input": "0x3ccfd60b",
        "nonce": "0x1b9",
        "chainId": "0x66eee"
      },
      "additionalContracts": [],
      "isFixedGasLimit": false
    },
    {
      "hash": "0x296872eeb6282d89fe1b73db811e7de165317d7f0077d42415a2b371c5bdd5ab",
      "transactionType": "CALL",
      "contractName": null,
      "contractAddress": "0x76091a17b9f0c53ea826e04bd5e586c143afc30e",
      "function": "detachCampaigns(uint256,address[])",
      "arguments": [
        "20376791661718660580662410765070640284736320707848823176694931891585259913409",
        "[0x16BF9a503bc4CAc31D7c3f220598C8a6f315400c]"
      ],
      "transaction": {
        "from": "0x7caf754c934710d7c73bc453654552beca38223f",
        "to": "0x76091a17b9f0c53ea826e04bd5e586c143afc30e",
        "gas": "0x24c1d1",
        "value": "0x0",
        "input": "0xae6d310f2d0cdaf9a1153a9a4b68379c64d4397611a0f3d9fa4015376435f9a64aafc0c10000000000000000000000000000000000000000000000000000000000000040000000000000000000000000000000000000000000000000000000000000000100000000000000000000000016bf9a503bc4cac31d7c3f220598c8a6f315400c",
        "nonce": "0x1ba",
        "chainId": "0x66eee"
      },
      "additionalContracts": [],
      "isFixedGasLimit": false
    }
  ],
  "receipts": [
    {
      "status": "0x1",
      "cumulativeGasUsed": "0xbbe1e",
      "logs": [
        {
          "address": "0x56039fa1a804f614ebd714139f29a3ff4db57ad6",
          "topics": [
            "0xddf252ad1be2c89b69c2b068fc378daa952ba7f163c4a11628f55a4df523b3ef",
            "0x000000000000000000000000a0fc454ac469081d95c231f569105585e5b30cfd",
            "0x0000000000000000000000007caf754c934710d7c73bc453654552beca38223f"
          ],
          "data": "0x00000000000000000000000000000000000000000000152d02c7e14af6800000",
          "blockHash": "0xe181b90c18be5817100524ecd856f86006d0462f9038b97294d0cd4d14bdf370",
          "blockNumber": "0x3955725",
          "transactionHash": "0x4bc48d8c13124cbbca100da05b01dfc0442e072928d739cd1dd45d5e13219f99",
          "transactionIndex": "0x1",
          "logIndex": "0x0",
          "removed": false
        }
      ],
      "logsBloom": "0x00000000000000000800000000000000000200000000400000000000000000000000000000020000000000000000000000000000000000000000000000000000000000000000000000400008000000000000000000000000000010000000000000000000000000000000000000000002000000000000000000000010000000000000000000000000000000000000000000000000000000000000000000000000000000000000004000000000000000000000000000008000000000000000000000000002000000000000000000000000000000000000000000000000000000000000000000000000000000000000000000000000000000000000000000000000",
      "type": "0x2",
      "transactionHash": "0x4bc48d8c13124cbbca100da05b01dfc0442e072928d739cd1dd45d5e13219f99",
      "transactionIndex": "0x1",
      "blockHash": "0xe181b90c18be5817100524ecd856f86006d0462f9038b97294d0cd4d14bdf370",
      "blockNumber": "0x3955725",
      "gasUsed": "0xbbe1e",
      "effectiveGasPrice": "0x5f5e100",
      "from": "0x7caf754c934710d7c73bc453654552beca38223f",
      "to": "0xa0fc454ac469081d95c231f569105585e5b30cfd",
      "contractAddress": null,
      "gasUsedForL1": "0xa9d1c",
      "l1BlockNumber": "0x5f002d"
    },
    {
      "status": "0x1",
      "cumulativeGasUsed": "0xdc2c4e",
      "logs": [
        {
          "address": "0xa0fc454ac469081d95c231f569105585e5b30cfd",
          "topics": [
            "0x715ad5ce61fc9595c7b415289d59cf203f23a94fa06f04af7e489a0a76e1fe26",
            "0x0000000000000000000000005c3b3474d1219fa657fec664a66435c11a32f2c8",
            "0x0000000000000000000000000000000000000000000000000000000000000000"
          ],
          "data": "0x",
          "blockHash": "0x780b42b5fe9f565796a6bebcafb55144b67d91f90acf56ee8b9b72cd73241497",
          "blockNumber": "0x3955728",
          "transactionHash": "0xbcffbef755dda7123895c7953a89f4317279902f9980e93afb11c37873ea7a05",
          "transactionIndex": "0x4",
          "logIndex": "0xe",
          "removed": false
        }
      ],
      "logsBloom": "0x00000000000000000000000000000000000000000000000020000002000040000000000000000000000000000000000000000000000000000000000000000000000000000000000000000000000000000000000000000000000000000000000000000000020000000000000000000800000000000000000000000000000000000000000000000000000000000000000000000000000000000000000000000000000000000000000000000000000000000000000000010002000000000000000000002000400000000000000000000000000000000000000000000000000020000000000000000000400000008000000000000000000000000000000000000000",
      "type": "0x2",
      "transactionHash": "0xbcffbef755dda7123895c7953a89f4317279902f9980e93afb11c37873ea7a05",
      "transactionIndex": "0x4",
      "blockHash": "0x780b42b5fe9f565796a6bebcafb55144b67d91f90acf56ee8b9b72cd73241497",
      "blockNumber": "0x3955728",
      "gasUsed": "0x16e757",
      "effectiveGasPrice": "0x5f5e100",
      "from": "0x7caf754c934710d7c73bc453654552beca38223f",
      "to": "0x76091a17b9f0c53ea826e04bd5e586c143afc30e",
      "contractAddress": null,
      "gasUsedForL1": "0x161e8e",
      "l1BlockNumber": "0x5f002d"
    },
    {
      "status": "0x1",
      "cumulativeGasUsed": "0x287c0f",
      "logs": [
        {
          "address": "0x56039fa1a804f614ebd714139f29a3ff4db57ad6",
          "topics": [
            "0xddf252ad1be2c89b69c2b068fc378daa952ba7f163c4a11628f55a4df523b3ef",
            "0x000000000000000000000000ffbe0acdcff49c410ca8832daf01e4c3234809a6",
            "0x0000000000000000000000007caf754c934710d7c73bc453654552beca38223f"
          ],
          "data": "0x00000000000000000000000000000000000000000000152d02c7e14af6800000",
          "blockHash": "0x75639aa2ae30474e83f8bcb39e7b0f1db000afc095971e55e5e428c9d206baa6",
          "blockNumber": "0x395572d",
          "transactionHash": "0x06a7938b6dabc9cda19c5328b00863c5551dec0d3db73b08aee3e1f17bf57310",
          "transactionIndex": "0x2",
          "logIndex": "0x6",
          "removed": false
        }
      ],
      "logsBloom": "0x00000000000000000000000000000000000200000000400000000000000000000000000000020000000000000000000000000000000000000000000000000000000000000000000000000008000000000000000000000000200010000000040000000000000000000000000000000002000000000000000000000010000000000000000000000000000000000000000000000000000000000000000000000000000000000000000040000000000000000000000000008000000000000000000000000002000000000000000000000000000000000000000000000000000000000000000000000000000000000000000000000000000000000000000000000000",
      "type": "0x2",
      "transactionHash": "0x06a7938b6dabc9cda19c5328b00863c5551dec0d3db73b08aee3e1f17bf57310",
      "transactionIndex": "0x2",
      "blockHash": "0x75639aa2ae30474e83f8bcb39e7b0f1db000afc095971e55e5e428c9d206baa6",
      "blockNumber": "0x395572d",
      "gasUsed": "0xb7b52",
      "effectiveGasPrice": "0x5f5e100",
      "from": "0x7caf754c934710d7c73bc453654552beca38223f",
      "to": "0xffbe0acdcff49c410ca8832daf01e4c3234809a6",
      "contractAddress": null,
      "gasUsedForL1": "0xa9d1c",
      "l1BlockNumber": "0x5f002d"
    },
    {
      "status": "0x1",
      "cumulativeGasUsed": "0x37e73ad",
      "logs": [
        {
          "address": "0xffbe0acdcff49c410ca8832daf01e4c3234809a6",
          "topics": [
            "0x715ad5ce61fc9595c7b415289d59cf203f23a94fa06f04af7e489a0a76e1fe26",
            "0x0000000000000000000000005b8a4c225843229c27ced6cd1892058c205b95ea",
            "0x0000000000000000000000000000000000000000000000000000000000000000"
          ],
          "data": "0x",
          "blockHash": "0x885454871f834dcfefae3b4586512e3bb8bfcb367dd59ceb0f5a682609b90241",
          "blockNumber": "0x3955731",
          "transactionHash": "0xd957f72f9154cad875634e5b84ac01b069512219a180cdc5497d3aca10e4da06",
          "transactionIndex": "0x3",
          "logIndex": "0x6",
          "removed": false
        }
      ],
      "logsBloom": "0x00000000000000000000000000000000000000000000000000000000000000000000000000000000000000000000000000000000000000000000000000000000000000000000000000000000000000000000000000000000000000000000000000000000020000000000000000000800000000000000000000000000000000000000000000000000000000000000000000000000000000000000000000000000000000000000000000000000008000000000000000010000000000000000000005002000400000000400000000000000000000000000000000000000000020200000000000000000000000000000000000000000000000002000000000000000",
      "type": "0x2",
      "transactionHash": "0xd957f72f9154cad875634e5b84ac01b069512219a180cdc5497d3aca10e4da06",
      "transactionIndex": "0x3",
      "blockHash": "0x885454871f834dcfefae3b4586512e3bb8bfcb367dd59ceb0f5a682609b90241",
      "blockNumber": "0x3955731",
      "gasUsed": "0x16e757",
      "effectiveGasPrice": "0x5f5e100",
      "from": "0x7caf754c934710d7c73bc453654552beca38223f",
      "to": "0x76091a17b9f0c53ea826e04bd5e586c143afc30e",
      "contractAddress": null,
      "gasUsedForL1": "0x161e8e",
      "l1BlockNumber": "0x5f002d"
    },
    {
      "status": "0x1",
      "cumulativeGasUsed": "0xb7b52",
      "logs": [
        {
          "address": "0x56039fa1a804f614ebd714139f29a3ff4db57ad6",
          "topics": [
            "0xddf252ad1be2c89b69c2b068fc378daa952ba7f163c4a11628f55a4df523b3ef",
            "0x0000000000000000000000009ecc17172af39a81b2547c53880d4633a8f27606",
            "0x0000000000000000000000007caf754c934710d7c73bc453654552beca38223f"
          ],
          "data": "0x00000000000000000000000000000000000000000000152d02c7e14af6800000",
          "blockHash": "0xe3f856d21c6e2ea11ae2e6eb844cbda5f08333fb57dd2018d96a23b3f2af8985",
          "blockNumber": "0x3955735",
          "transactionHash": "0xa14dcefd2942908eb10995f6817879cb0c3ee20df019094091f4f16ddd470be1",
          "transactionIndex": "0x1",
          "logIndex": "0x0",
          "removed": false
        }
      ],
      "logsBloom": "0x00000000000000000000000000000000000200000000400000000000000000000000000000020000000000000000000000000000000000000000000000000000000000000000000000000008000000000000000000000000000010000000000000800000000000000000000000000002000000000000000000000010000000000000000000000000000000000000000000000000000000000000000000000000000000000000000000000000000000000000000000008000000000000000000000000002000000000000000000000000000000000000000000000008000000000000000000000000000000000000000000000000200000000000000000000000",
      "type": "0x2",
      "transactionHash": "0xa14dcefd2942908eb10995f6817879cb0c3ee20df019094091f4f16ddd470be1",
      "transactionIndex": "0x1",
      "blockHash": "0xe3f856d21c6e2ea11ae2e6eb844cbda5f08333fb57dd2018d96a23b3f2af8985",
      "blockNumber": "0x3955735",
      "gasUsed": "0xb7b52",
      "effectiveGasPrice": "0x5f5e100",
      "from": "0x7caf754c934710d7c73bc453654552beca38223f",
      "to": "0x9ecc17172af39a81b2547c53880d4633a8f27606",
      "contractAddress": null,
      "gasUsedForL1": "0xa9d1c",
      "l1BlockNumber": "0x5f002d"
    },
    {
      "status": "0x1",
      "cumulativeGasUsed": "0x16e757",
      "logs": [
        {
          "address": "0x9ecc17172af39a81b2547c53880d4633a8f27606",
          "topics": [
            "0x715ad5ce61fc9595c7b415289d59cf203f23a94fa06f04af7e489a0a76e1fe26",
            "0x00000000000000000000000065347973226e2c44ae1f7910297a02c5362d8584",
            "0x0000000000000000000000000000000000000000000000000000000000000000"
          ],
          "data": "0x",
          "blockHash": "0x18d615e93cfd4c3abd4e4eaed9f7556d715323b4dd24de850338856cc7d104e8",
          "blockNumber": "0x3955738",
          "transactionHash": "0x79e4d56fe3c4cb9a9b6f19ea923c085fd13f4ab2855d81e48b10fad822111577",
          "transactionIndex": "0x1",
          "logIndex": "0x0",
          "removed": false
        }
      ],
      "logsBloom": "0x00000000000000000000004000000000000000000000000000000000000000000000000000000000000000000000000000000000000000000000000000000000000000000000000000000000000000000000000000000008000000000000000000000000020400000000000000000800000000000000000000000000000000200000000000000000000000000000000000000000000000000000000000000800000000000000000000000000000000000000000000010000000000000000000000002000400000000000000000000000000000000000000000000000000020000000000000000000000000000000000000000000000000000000000000400000",
      "type": "0x2",
      "transactionHash": "0x79e4d56fe3c4cb9a9b6f19ea923c085fd13f4ab2855d81e48b10fad822111577",
      "transactionIndex": "0x1",
      "blockHash": "0x18d615e93cfd4c3abd4e4eaed9f7556d715323b4dd24de850338856cc7d104e8",
      "blockNumber": "0x3955738",
      "gasUsed": "0x16e757",
      "effectiveGasPrice": "0x5f5e100",
      "from": "0x7caf754c934710d7c73bc453654552beca38223f",
      "to": "0x76091a17b9f0c53ea826e04bd5e586c143afc30e",
      "contractAddress": null,
      "gasUsedForL1": "0x161e8e",
      "l1BlockNumber": "0x5f002d"
    },
    {
      "status": "0x1",
      "cumulativeGasUsed": "0x31f701",
      "logs": [
        {
          "address": "0x56039fa1a804f614ebd714139f29a3ff4db57ad6",
          "topics": [
            "0xddf252ad1be2c89b69c2b068fc378daa952ba7f163c4a11628f55a4df523b3ef",
            "0x00000000000000000000000016bf9a503bc4cac31d7c3f220598c8a6f315400c",
            "0x0000000000000000000000007caf754c934710d7c73bc453654552beca38223f"
          ],
          "data": "0x00000000000000000000000000000000000000000000152d02c7e14af6800000",
          "blockHash": "0x7626889331c65e961500af43f1aa21fe0135a911e93a7565ba5be8ffe6a18436",
          "blockNumber": "0x395573d",
          "transactionHash": "0x1122bffa4947be1b46c6af414de92ddeab05bdaf5b07c974d48b9517018397a3",
          "transactionIndex": "0x2",
          "logIndex": "0x3",
          "removed": false
        }
      ],
      "logsBloom": "0x00000000000000000000000000000000000200000000400000000000000000000000000000020000000000000000000000000000000000000000000000000000000000000000000000000008000000000000000000000000000010000000000000000000000000000000000000000002000000000000000000000011000000000000000000000000000000000000000000000000000000000000000000000000000000000000000000000000000000000000000000008000000000000000000000000002000000000000000000000000000000000000000000000000000000000000000000800000000000000000000040000000000000000000000000000000",
      "type": "0x2",
      "transactionHash": "0x1122bffa4947be1b46c6af414de92ddeab05bdaf5b07c974d48b9517018397a3",
      "transactionIndex": "0x2",
      "blockHash": "0x7626889331c65e961500af43f1aa21fe0135a911e93a7565ba5be8ffe6a18436",
      "blockNumber": "0x395573d",
      "gasUsed": "0xb7b52",
      "effectiveGasPrice": "0x5f5e100",
      "from": "0x7caf754c934710d7c73bc453654552beca38223f",
      "to": "0x16bf9a503bc4cac31d7c3f220598c8a6f315400c",
      "contractAddress": null,
      "gasUsedForL1": "0xa9d1c",
      "l1BlockNumber": "0x5f002d"
    },
    {
      "status": "0x1",
      "cumulativeGasUsed": "0x16e757",
      "logs": [
        {
          "address": "0x16bf9a503bc4cac31d7c3f220598c8a6f315400c",
          "topics": [
            "0x715ad5ce61fc9595c7b415289d59cf203f23a94fa06f04af7e489a0a76e1fe26",
            "0x000000000000000000000000a2b31a8e3ebed14a35bc40ab707577ad11593260",
            "0x0000000000000000000000000000000000000000000000000000000000000000"
          ],
          "data": "0x",
          "blockHash": "0xd656ff98d0eeefae66485e09c06b1665928aea7e02e2e6a7cc2554749141830d",
          "blockNumber": "0x3955742",
          "transactionHash": "0x296872eeb6282d89fe1b73db811e7de165317d7f0077d42415a2b371c5bdd5ab",
          "transactionIndex": "0x1",
          "logIndex": "0x0",
          "removed": false
        }
      ],
      "logsBloom": "0x00000000000000000000000000000000000000000000200000000000000000000000000000000000000000000000000000000000008000000000000000000000000000080000000000000000000000000000000000000000000000000000000000000000020000000000000000000800000000000000000000001000000000000000000000000000000000000000000000000000000000000000000000000000000000000020000000000000000000000000000000010000000000000000000000002001400000000000000000000000000000000000000000000000000020000000000000000000000000000000000000000000000000000000000000000000",
      "type": "0x2",
      "transactionHash": "0x296872eeb6282d89fe1b73db811e7de165317d7f0077d42415a2b371c5bdd5ab",
      "transactionIndex": "0x1",
      "blockHash": "0xd656ff98d0eeefae66485e09c06b1665928aea7e02e2e6a7cc2554749141830d",
      "blockNumber": "0x3955742",
      "gasUsed": "0x16e757",
      "effectiveGasPrice": "0x5f5e100",
      "from": "0x7caf754c934710d7c73bc453654552beca38223f",
      "to": "0x76091a17b9f0c53ea826e04bd5e586c143afc30e",
      "contractAddress": null,
      "gasUsedForL1": "0x161e8e",
      "l1BlockNumber": "0x5f002d"
    }
  ],
  "libraries": [],
  "pending": [],
  "returns": {},
  "timestamp": 1719844642,
  "chain": 421614,
  "commit": "2646c84"
}