{
  "transactions": [
    {
      "hash": "0x39eea663ce8c39ac491a26ca32b37f6527b50fd5fae7a9066ada0c1dd0f47f67",
      "transactionType": "CALL",
      "contractName": null,
      "contractAddress": "0xd3e2eb46382ba373ba66f7810213cd9c2e6ffe9d",
      "function": "withdraw()",
      "arguments": [],
      "transaction": {
        "from": "0x7caf754c934710d7c73bc453654552beca38223f",
        "to": "0xd3e2eb46382ba373ba66f7810213cd9c2e6ffe9d",
        "gas": "0x35b31",
        "value": "0x0",
        "input": "0x3ccfd60b",
        "nonce": "0x1df",
        "chainId": "0x66eee"
      },
      "additionalContracts": [],
      "isFixedGasLimit": false
    },
    {
      "hash": "0x91f9248fb99de47f9bcc9d35d9265aef6f01edb53d442140b2877d1d2c5062ce",
      "transactionType": "CALL",
      "contractName": null,
      "contractAddress": "0xc97d72a8a9d1d2ed326eb04f2d706a21cee2b94e",
      "function": "detachCampaigns(uint256,address[])",
      "arguments": [
        "106219508196454080375526586478153583586194937194493887259467424694676997453395",
        "[0xD3e2eb46382Ba373Ba66f7810213cD9C2E6fFe9D]"
      ],
      "transaction": {
        "from": "0x7caf754c934710d7c73bc453654552beca38223f",
        "to": "0xc97d72a8a9d1d2ed326eb04f2d706a21cee2b94e",
        "gas": "0x53803",
        "value": "0x0",
        "input": "0xae6d310fead61c7340b7cacd78684d4795a617aae5e85cc4b89da34fb05ad55bb6bab65300000000000000000000000000000000000000000000000000000000000000400000000000000000000000000000000000000000000000000000000000000001000000000000000000000000d3e2eb46382ba373ba66f7810213cd9c2e6ffe9d",
        "nonce": "0x1e0",
        "chainId": "0x66eee"
      },
      "additionalContracts": [],
      "isFixedGasLimit": false
    },
    {
      "hash": "0xa84ff4178aeeab54895e7c6615704c8d89d1eeb086e702ce83ebaef9cc0277a6",
      "transactionType": "CALL",
      "contractName": null,
      "contractAddress": "0xe1808bad914c187027665b9240b80407f5c31aac",
      "function": "withdraw()",
      "arguments": [],
      "transaction": {
        "from": "0x7caf754c934710d7c73bc453654552beca38223f",
        "to": "0xe1808bad914c187027665b9240b80407f5c31aac",
        "gas": "0x35b31",
        "value": "0x0",
        "input": "0x3ccfd60b",
        "nonce": "0x1e1",
        "chainId": "0x66eee"
      },
      "additionalContracts": [],
      "isFixedGasLimit": false
    },
    {
      "hash": "0x26ebd59865de778c471b53150e2f610e8b388f3f69f6319c931a51ac20671fbb",
      "transactionType": "CALL",
      "contractName": null,
      "contractAddress": "0xc97d72a8a9d1d2ed326eb04f2d706a21cee2b94e",
      "function": "detachCampaigns(uint256,address[])",
      "arguments": [
        "108586150798115180574743190405367285583167702751783717273705027881651322809951",
        "[0xE1808bad914C187027665b9240B80407F5C31AAC]"
      ],
      "transaction": {
        "from": "0x7caf754c934710d7c73bc453654552beca38223f",
        "to": "0xc97d72a8a9d1d2ed326eb04f2d706a21cee2b94e",
        "gas": "0x53803",
        "value": "0x0",
        "input": "0xae6d310ff011955832cac97ab1a6534c6b94971325e3be6bfaac1ccae68e3f5c7adcee5f00000000000000000000000000000000000000000000000000000000000000400000000000000000000000000000000000000000000000000000000000000001000000000000000000000000e1808bad914c187027665b9240b80407f5c31aac",
        "nonce": "0x1e2",
        "chainId": "0x66eee"
      },
      "additionalContracts": [],
      "isFixedGasLimit": false
    },
    {
      "hash": "0x3cd339d50cdb7c2380bc07685a6ddc8f70bba9fde0b0070f19831c5f17c64eb0",
      "transactionType": "CALL",
      "contractName": null,
      "contractAddress": "0x2de501c9b51cf81c28c0d1716bee44f38cf2217b",
      "function": "withdraw()",
      "arguments": [],
      "transaction": {
        "from": "0x7caf754c934710d7c73bc453654552beca38223f",
        "to": "0x2de501c9b51cf81c28c0d1716bee44f38cf2217b",
        "gas": "0x35b31",
        "value": "0x0",
        "input": "0x3ccfd60b",
        "nonce": "0x1e3",
        "chainId": "0x66eee"
      },
      "additionalContracts": [],
      "isFixedGasLimit": false
    },
    {
      "hash": "0x0f145cc81e153cb25e0208961df90b63e87844be9378c8840b973dd7f9a4db05",
      "transactionType": "CALL",
      "contractName": null,
      "contractAddress": "0xc97d72a8a9d1d2ed326eb04f2d706a21cee2b94e",
      "function": "detachCampaigns(uint256,address[])",
      "arguments": [
        "61412812549033025435811962204424170589965658763482764336017940556663446417829",
        "[0x2De501C9B51Cf81C28c0d1716Bee44F38Cf2217B]"
      ],
      "transaction": {
        "from": "0x7caf754c934710d7c73bc453654552beca38223f",
        "to": "0xc97d72a8a9d1d2ed326eb04f2d706a21cee2b94e",
        "gas": "0x53803",
        "value": "0x0",
        "input": "0xae6d310f87c66b8c60fd984f739f68f1d83229601131914aaf269874c584e179b37db1a5000000000000000000000000000000000000000000000000000000000000004000000000000000000000000000000000000000000000000000000000000000010000000000000000000000002de501c9b51cf81c28c0d1716bee44f38cf2217b",
        "nonce": "0x1e4",
        "chainId": "0x66eee"
      },
      "additionalContracts": [],
      "isFixedGasLimit": false
    },
    {
      "hash": "0xd06235d69d7627308a52f0ab1b1ccefda6ae1c9183c73fd38eb8a772510c4883",
      "transactionType": "CALL",
      "contractName": null,
      "contractAddress": "0xf0e52a3291e30d512ac72892291484e5e028b2aa",
      "function": "withdraw()",
      "arguments": [],
      "transaction": {
        "from": "0x7caf754c934710d7c73bc453654552beca38223f",
        "to": "0xf0e52a3291e30d512ac72892291484e5e028b2aa",
        "gas": "0x35b31",
        "value": "0x0",
        "input": "0x3ccfd60b",
        "nonce": "0x1e5",
        "chainId": "0x66eee"
      },
      "additionalContracts": [],
      "isFixedGasLimit": false
    },
    {
      "hash": "0x347e772952e5bc680113e2bc5b27dfb038047c285f515c027421c643a1e6fd92",
      "transactionType": "CALL",
      "contractName": null,
      "contractAddress": "0xc97d72a8a9d1d2ed326eb04f2d706a21cee2b94e",
      "function": "detachCampaigns(uint256,address[])",
      "arguments": [
        "20376791661718660580662410765070640284736320707848823176694931891585259913409",
        "[0xF0E52A3291E30d512Ac72892291484E5E028B2aA]"
      ],
      "transaction": {
        "from": "0x7caf754c934710d7c73bc453654552beca38223f",
        "to": "0xc97d72a8a9d1d2ed326eb04f2d706a21cee2b94e",
        "gas": "0x53803",
        "value": "0x0",
        "input": "0xae6d310f2d0cdaf9a1153a9a4b68379c64d4397611a0f3d9fa4015376435f9a64aafc0c100000000000000000000000000000000000000000000000000000000000000400000000000000000000000000000000000000000000000000000000000000001000000000000000000000000f0e52a3291e30d512ac72892291484e5e028b2aa",
        "nonce": "0x1e6",
        "chainId": "0x66eee"
      },
      "additionalContracts": [],
      "isFixedGasLimit": false
    }
  ],
  "receipts": [
    {
      "status": "0x1",
      "cumulativeGasUsed": "0x20a98",
      "logs": [
        {
          "address": "0x56039fa1a804f614ebd714139f29a3ff4db57ad6",
          "topics": [
            "0xddf252ad1be2c89b69c2b068fc378daa952ba7f163c4a11628f55a4df523b3ef",
            "0x000000000000000000000000d3e2eb46382ba373ba66f7810213cd9c2e6ffe9d",
            "0x0000000000000000000000007caf754c934710d7c73bc453654552beca38223f"
          ],
          "data": "0x00000000000000000000000000000000000000000000152d02c7e14af6800000",
          "blockHash": "0x2400b3b4971f9f881bc2c608f61b9a4333cfeba3a68d63aa0ca995ed521851d6",
          "blockNumber": "0x396f404",
          "transactionHash": "0x39eea663ce8c39ac491a26ca32b37f6527b50fd5fae7a9066ada0c1dd0f47f67",
          "transactionIndex": "0x1",
          "logIndex": "0x0",
          "removed": false
        }
      ],
      "logsBloom": "0x00000000040000000000000000000000000200000000400000000000000000000000000000020000000000000000000000000000000000000000000000000000000010000000000000000008000000000000000000000000000010000000000000000000000000000000000000000002000000000000000000000010000200000000000000000000000000000000000000000000000000000000000000000000000000000000000000000000000000000000000000008000000000000000000000000002000000000000000000000000000000000000000000000000000000000000000000000000000000000000000000000000000000000000000000000000",
      "type": "0x2",
      "transactionHash": "0x39eea663ce8c39ac491a26ca32b37f6527b50fd5fae7a9066ada0c1dd0f47f67",
      "transactionIndex": "0x1",
      "blockHash": "0x2400b3b4971f9f881bc2c608f61b9a4333cfeba3a68d63aa0ca995ed521851d6",
      "blockNumber": "0x396f404",
      "gasUsed": "0x20a98",
      "effectiveGasPrice": "0x5f5e100",
      "from": "0x7caf754c934710d7c73bc453654552beca38223f",
      "to": "0xd3e2eb46382ba373ba66f7810213cd9c2e6ffe9d",
      "contractAddress": null,
      "gasUsedForL1": "0x12c62",
      "l1BlockNumber": "0x5f0969"
    },
    {
      "status": "0x1",
      "cumulativeGasUsed": "0x33acc",
      "logs": [
        {
          "address": "0xd3e2eb46382ba373ba66f7810213cd9c2e6ffe9d",
          "topics": [
            "0x715ad5ce61fc9595c7b415289d59cf203f23a94fa06f04af7e489a0a76e1fe26",
            "0x000000000000000000000000d7169674e19392e23312e4b27b2863331f1be498",
            "0x0000000000000000000000000000000000000000000000000000000000000000"
          ],
          "data": "0x",
          "blockHash": "0x3cf7d25447828c2c4eee9c38bf0b591f2bbb697c4dd49b04ef2e559e0ed796b2",
          "blockNumber": "0x396f408",
          "transactionHash": "0x91f9248fb99de47f9bcc9d35d9265aef6f01edb53d442140b2877d1d2c5062ce",
          "transactionIndex": "0x1",
          "logIndex": "0x0",
          "removed": false
        }
      ],
      "logsBloom": "0x00000000000000000000000000000000000000000000000000010000000000000000000000000000000000000000000000000000000000000000000000000000000000000000000000000000000000000000000000000000000000000000000000000000020000000000000000000800000000000000000000000000000000000000000000000000000000000000000000000000080000000000000000000000000000000000000000000000000000000000000000010000000000000000000000002000400000000010000000000000000000000000000000000000000420000010000000000000000000000000004000000000000000000000000000000000",
      "type": "0x2",
      "transactionHash": "0x91f9248fb99de47f9bcc9d35d9265aef6f01edb53d442140b2877d1d2c5062ce",
      "transactionIndex": "0x1",
      "blockHash": "0x3cf7d25447828c2c4eee9c38bf0b591f2bbb697c4dd49b04ef2e559e0ed796b2",
      "blockNumber": "0x396f408",
      "gasUsed": "0x33acc",
      "effectiveGasPrice": "0x5f5e100",
      "from": "0x7caf754c934710d7c73bc453654552beca38223f",
      "to": "0xc97d72a8a9d1d2ed326eb04f2d706a21cee2b94e",
      "contractAddress": null,
      "gasUsedForL1": "0x27203",
      "l1BlockNumber": "0x5f0969"
    },
    {
      "status": "0x1",
      "cumulativeGasUsed": "0x20a98",
      "logs": [
        {
          "address": "0x56039fa1a804f614ebd714139f29a3ff4db57ad6",
          "topics": [
            "0xddf252ad1be2c89b69c2b068fc378daa952ba7f163c4a11628f55a4df523b3ef",
            "0x000000000000000000000000e1808bad914c187027665b9240b80407f5c31aac",
            "0x0000000000000000000000007caf754c934710d7c73bc453654552beca38223f"
          ],
          "data": "0x00000000000000000000000000000000000000000000152d02c7e14af6800000",
          "blockHash": "0x862b42c7227f249cc499aba9621bcee8e5699163b816083fcb79833f81fb21d3",
          "blockNumber": "0x396f40b",
          "transactionHash": "0xa84ff4178aeeab54895e7c6615704c8d89d1eeb086e702ce83ebaef9cc0277a6",
          "transactionIndex": "0x1",
          "logIndex": "0x0",
          "removed": false
        }
      ],
      "logsBloom": "0x00000000000000000000000000000000000200000000400000000080000000000000000000020000000000000000000000000000000000000000000000000000000000000000000000000008000000000000000000000000000010000000000000000000000000000000000000000002000000000000000000000010000000000000000000000000000000000000000000000000000008000000000000000000000000000000000000000000000000000000000000008000000000000000000000000002000000000000000000000000000000000000000000000000000040000000000000000000000000000000000000000000000000000000000000000000",
      "type": "0x2",
      "transactionHash": "0xa84ff4178aeeab54895e7c6615704c8d89d1eeb086e702ce83ebaef9cc0277a6",
      "transactionIndex": "0x1",
      "blockHash": "0x862b42c7227f249cc499aba9621bcee8e5699163b816083fcb79833f81fb21d3",
      "blockNumber": "0x396f40b",
      "gasUsed": "0x20a98",
      "effectiveGasPrice": "0x5f5e100",
      "from": "0x7caf754c934710d7c73bc453654552beca38223f",
      "to": "0xe1808bad914c187027665b9240b80407f5c31aac",
      "contractAddress": null,
      "gasUsedForL1": "0x12c62",
      "l1BlockNumber": "0x5f0969"
    },
    {
      "status": "0x1",
      "cumulativeGasUsed": "0x33acc",
      "logs": [
        {
          "address": "0xe1808bad914c187027665b9240b80407f5c31aac",
          "topics": [
            "0x715ad5ce61fc9595c7b415289d59cf203f23a94fa06f04af7e489a0a76e1fe26",
            "0x0000000000000000000000002dc070dd54e0547ed18775fa70eeadf345f1497c",
            "0x0000000000000000000000000000000000000000000000000000000000000000"
          ],
          "data": "0x",
          "blockHash": "0x72d7e0707c4c65b6f607c14b23830ff3cf193fb29f8da3d3ca386ea10637e513",
          "blockNumber": "0x396f412",
          "transactionHash": "0x26ebd59865de778c471b53150e2f610e8b388f3f69f6319c931a51ac20671fbb",
          "transactionIndex": "0x1",
          "logIndex": "0x0",
          "removed": false
        }
      ],
      "logsBloom": "0x00000000000000000000000000008000000000000000000000000000000000000000000000000000000000000000000000000000800000000000000000000000000000000000200000000000200000000000000000000000000000000200000000000000020000000000000000000800000000000000000000000000000000000000000000000000000000000000000000000000000000000000000000000000000000000000000000000000000000000000000000010000000000000000000001002000400000000000000000000000000000000000000000000000000020000000000000000000000000000000000000000000000000000000000000000000",
      "type": "0x2",
      "transactionHash": "0x26ebd59865de778c471b53150e2f610e8b388f3f69f6319c931a51ac20671fbb",
      "transactionIndex": "0x1",
      "blockHash": "0x72d7e0707c4c65b6f607c14b23830ff3cf193fb29f8da3d3ca386ea10637e513",
      "blockNumber": "0x396f412",
      "gasUsed": "0x33acc",
      "effectiveGasPrice": "0x5f5e100",
      "from": "0x7caf754c934710d7c73bc453654552beca38223f",
      "to": "0xc97d72a8a9d1d2ed326eb04f2d706a21cee2b94e",
      "contractAddress": null,
      "gasUsedForL1": "0x27203",
      "l1BlockNumber": "0x5f0969"
    },
    {
      "status": "0x1",
      "cumulativeGasUsed": "0x20a98",
      "logs": [
        {
          "address": "0x56039fa1a804f614ebd714139f29a3ff4db57ad6",
          "topics": [
            "0xddf252ad1be2c89b69c2b068fc378daa952ba7f163c4a11628f55a4df523b3ef",
            "0x0000000000000000000000002de501c9b51cf81c28c0d1716bee44f38cf2217b",
            "0x0000000000000000000000007caf754c934710d7c73bc453654552beca38223f"
          ],
          "data": "0x00000000000000000000000000000000000000000000152d02c7e14af6800000",
          "blockHash": "0xe92858e50fdd5831442bb48f025cdca69dbc2f0b789ba2e189d1b6f2c12c39e0",
          "blockNumber": "0x396f419",
          "transactionHash": "0x3cd339d50cdb7c2380bc07685a6ddc8f70bba9fde0b0070f19831c5f17c64eb0",
          "transactionIndex": "0x1",
          "logIndex": "0x0",
          "removed": false
        }
      ],
      "logsBloom": "0x00000000000000000000000000000000000200000000400000000000000000000000000000020000000000000000000000000000000000000000000000000000000000000000000000000008000000000000000000000000000010000000000000000000000000000000000000000002008000000000000000000010000000000000000000000000000000000000000000000000000000000000000000000000000000000000000000000000000000000000000000008000000000000000020000000002000000000000000000000000000000000000000000000000000000000000000000000000000000000000000000000020000000000000000000000000",
      "type": "0x2",
      "transactionHash": "0x3cd339d50cdb7c2380bc07685a6ddc8f70bba9fde0b0070f19831c5f17c64eb0",
      "transactionIndex": "0x1",
      "blockHash": "0xe92858e50fdd5831442bb48f025cdca69dbc2f0b789ba2e189d1b6f2c12c39e0",
      "blockNumber": "0x396f419",
      "gasUsed": "0x20a98",
      "effectiveGasPrice": "0x5f5e100",
      "from": "0x7caf754c934710d7c73bc453654552beca38223f",
      "to": "0x2de501c9b51cf81c28c0d1716bee44f38cf2217b",
      "contractAddress": null,
      "gasUsedForL1": "0x12c62",
      "l1BlockNumber": "0x5f0969"
    },
    {
      "status": "0x1",
      "cumulativeGasUsed": "0x33acc",
      "logs": [
        {
          "address": "0x2de501c9b51cf81c28c0d1716bee44f38cf2217b",
          "topics": [
            "0x715ad5ce61fc9595c7b415289d59cf203f23a94fa06f04af7e489a0a76e1fe26",
            "0x0000000000000000000000004605c4b810c529c724f5a1c4fe86d963549d3cab",
            "0x0000000000000000000000000000000000000000000000000000000000000000"
          ],
          "data": "0x",
          "blockHash": "0x0525f725c4000933bba9b9c992d978cce3d104adb613a8c87d8d85b323c4afbc",
          "blockNumber": "0x396f41c",
          "transactionHash": "0x0f145cc81e153cb25e0208961df90b63e87844be9378c8840b973dd7f9a4db05",
          "transactionIndex": "0x1",
          "logIndex": "0x0",
          "removed": false
        }
      ],
      "logsBloom": "0x00000000000000000000000000000000000000000000000000000000000000000000000000000008000000000000000000020000000000001000000000000000000000000000000000000000000000000000000000000000000000080000000000000000020000000000000000000800000000000000000000000000000000000000000000000000000000000000000000000000001000000000000000000000000000000000800000000000000000000000000000010000000000000000000000002000400000000000000000000000000000000000000000000000000020000000000000000000000000000000000000000000000000000000000000000000",
      "type": "0x2",
      "transactionHash": "0x0f145cc81e153cb25e0208961df90b63e87844be9378c8840b973dd7f9a4db05",
      "transactionIndex": "0x1",
      "blockHash": "0x0525f725c4000933bba9b9c992d978cce3d104adb613a8c87d8d85b323c4afbc",
      "blockNumber": "0x396f41c",
      "gasUsed": "0x33acc",
      "effectiveGasPrice": "0x5f5e100",
      "from": "0x7caf754c934710d7c73bc453654552beca38223f",
      "to": "0xc97d72a8a9d1d2ed326eb04f2d706a21cee2b94e",
      "contractAddress": null,
      "gasUsedForL1": "0x27203",
      "l1BlockNumber": "0x5f0969"
    },
    {
      "status": "0x1",
      "cumulativeGasUsed": "0x20a98",
      "logs": [
        {
          "address": "0x56039fa1a804f614ebd714139f29a3ff4db57ad6",
          "topics": [
            "0xddf252ad1be2c89b69c2b068fc378daa952ba7f163c4a11628f55a4df523b3ef",
            "0x000000000000000000000000f0e52a3291e30d512ac72892291484e5e028b2aa",
            "0x0000000000000000000000007caf754c934710d7c73bc453654552beca38223f"
          ],
          "data": "0x00000000000000000000000000000000000000000000152d02c7e14af6800000",
          "blockHash": "0x832353b9dc6e6d50eaf4b1102cdb3698b978631713862331834167f72d07be18",
          "blockNumber": "0x396f41e",
          "transactionHash": "0xd06235d69d7627308a52f0ab1b1ccefda6ae1c9183c73fd38eb8a772510c4883",
          "transactionIndex": "0x1",
          "logIndex": "0x0",
          "removed": false
        }
      ],
      "logsBloom": "0x00000000000000000000000000000100000200000000400000000000000000000000000000020000000000000001000000000000000000000000000000000000000000000000000000000008000000000000000000000000000010000000000000000000000000000000000000000002000000000000000000000010000000000000000000000000000000000000000000000000000000000000000000000000020000000000000000000000000000000000000000008000000000000000000000000002000000000000000000000000000000000000000000000000000000000000000000000000000000000000000000000000000000000000000000000000",
      "type": "0x2",
      "transactionHash": "0xd06235d69d7627308a52f0ab1b1ccefda6ae1c9183c73fd38eb8a772510c4883",
      "transactionIndex": "0x1",
      "blockHash": "0x832353b9dc6e6d50eaf4b1102cdb3698b978631713862331834167f72d07be18",
      "blockNumber": "0x396f41e",
      "gasUsed": "0x20a98",
      "effectiveGasPrice": "0x5f5e100",
      "from": "0x7caf754c934710d7c73bc453654552beca38223f",
      "to": "0xf0e52a3291e30d512ac72892291484e5e028b2aa",
      "contractAddress": null,
      "gasUsedForL1": "0x12c62",
      "l1BlockNumber": "0x5f0969"
    },
    {
      "status": "0x1",
      "cumulativeGasUsed": "0x33acc",
      "logs": [
        {
          "address": "0xf0e52a3291e30d512ac72892291484e5e028b2aa",
          "topics": [
            "0x715ad5ce61fc9595c7b415289d59cf203f23a94fa06f04af7e489a0a76e1fe26",
            "0x0000000000000000000000002c4cd79eb35262faa9ee924777d7dd7568fc5feb",
            "0x0000000000000000000000000000000000000000000000000000000000000000"
          ],
          "data": "0x",
          "blockHash": "0x18e1f0d09afb3a76ab1f55c86c0659ff9ad76240269877649aba12c86b86063e",
          "blockNumber": "0x396f425",
          "transactionHash": "0x347e772952e5bc680113e2bc5b27dfb038047c285f515c027421c643a1e6fd92",
          "transactionIndex": "0x1",
          "logIndex": "0x0",
          "removed": false
        }
      ],
      "logsBloom": "0x00000080000000000000000000000000000000000000000000000000000000008000000000000000000000000000000000000000000000000000000000000000000000000000000000000000000000000000000000000000000000000000000000000040020000000000000000000800000000000000000000000000000000000000000000000000000000000000000000000000000000000000004000000000000400000000000000000000000000000000000000010000000000000000000000002000400000000000000000000000000000000000000000000000000020000000000000000000000000000000000000000000000000000000000000000000",
      "type": "0x2",
      "transactionHash": "0x347e772952e5bc680113e2bc5b27dfb038047c285f515c027421c643a1e6fd92",
      "transactionIndex": "0x1",
      "blockHash": "0x18e1f0d09afb3a76ab1f55c86c0659ff9ad76240269877649aba12c86b86063e",
      "blockNumber": "0x396f425",
      "gasUsed": "0x33acc",
      "effectiveGasPrice": "0x5f5e100",
      "from": "0x7caf754c934710d7c73bc453654552beca38223f",
      "to": "0xc97d72a8a9d1d2ed326eb04f2d706a21cee2b94e",
      "contractAddress": null,
      "gasUsedForL1": "0x27203",
      "l1BlockNumber": "0x5f0969"
    }
  ],
  "libraries": [],
  "pending": [],
  "returns": {},
  "timestamp": 1719875410,
  "chain": 421614,
  "commit": "46bb2de"
}