{
  "transactions": [
    {
      "hash": "0xa2261cb0d2c72c15207f0256799164a33bfa1ebf9ffe2e01c84ba8ebe7934dfd",
      "transactionType": "CALL",
      "contractName": null,
      "contractAddress": "0xeada1ce00d38fa2428bf49422c81a4ebf475395d",
      "function": "withdraw()",
      "arguments": [],
      "transaction": {
        "from": "0x7caf754c934710d7c73bc453654552beca38223f",
        "to": "0xeada1ce00d38fa2428bf49422c81a4ebf475395d",
        "gas": "0xb30b9",
        "value": "0x0",
        "input": "0x3ccfd60b",
        "nonce": "0x24a",
        "chainId": "0x66eee"
      },
      "additionalContracts": [],
      "isFixedGasLimit": false
    },
    {
      "hash": "0xf970ebcc58453947a3443b57c552e41a97b764822dd9a274010b2e0bcb9e9018",
      "transactionType": "CALL",
      "contractName": null,
      "contractAddress": "0xfe0717cacd6fff3001edd3f360eb2854f54861dd",
      "function": "detachCampaigns(uint256,address[])",
      "arguments": [
        "106219508196454080375526586478153583586194937194493887259467424694676997453395",
        "[0xeAdA1ce00D38FA2428BF49422c81a4ebf475395D]"
      ],
      "transaction": {
        "from": "0x7caf754c934710d7c73bc453654552beca38223f",
        "to": "0xfe0717cacd6fff3001edd3f360eb2854f54861dd",
        "gas": "0x14b04f",
        "value": "0x0",
        "input": "0xae6d310fead61c7340b7cacd78684d4795a617aae5e85cc4b89da34fb05ad55bb6bab65300000000000000000000000000000000000000000000000000000000000000400000000000000000000000000000000000000000000000000000000000000001000000000000000000000000eada1ce00d38fa2428bf49422c81a4ebf475395d",
        "nonce": "0x24b",
        "chainId": "0x66eee"
      },
      "additionalContracts": [],
      "isFixedGasLimit": false
    },
    {
      "hash": "0xdd50aec006d5d9fbe7c86a625a5cc465c0f85de8c6d08c236211868814fd5508",
      "transactionType": "CALL",
      "contractName": null,
      "contractAddress": "0x9653ddd6cf4b137e8ecaaeb80e155749a88e4f40",
      "function": "withdraw()",
      "arguments": [],
      "transaction": {
        "from": "0x7caf754c934710d7c73bc453654552beca38223f",
        "to": "0x9653ddd6cf4b137e8ecaaeb80e155749a88e4f40",
        "gas": "0xb9761",
        "value": "0x0",
        "input": "0x3ccfd60b",
        "nonce": "0x24c",
        "chainId": "0x66eee"
      },
      "additionalContracts": [],
      "isFixedGasLimit": false
    },
    {
      "hash": "0xffd6e76181ea060a7b0f376927186f3a5ee5a9201f26be922c0aa27e00b3d4e6",
      "transactionType": "CALL",
      "contractName": null,
      "contractAddress": "0xfe0717cacd6fff3001edd3f360eb2854f54861dd",
      "function": "detachCampaigns(uint256,address[])",
      "arguments": [
        "108586150798115180574743190405367285583167702751783717273705027881651322809951",
        "[0x9653ddd6cf4B137e8ecAAeb80e155749a88e4f40]"
      ],
      "transaction": {
        "from": "0x7caf754c934710d7c73bc453654552beca38223f",
        "to": "0xfe0717cacd6fff3001edd3f360eb2854f54861dd",
        "gas": "0x14b04f",
        "value": "0x0",
        "input": "0xae6d310ff011955832cac97ab1a6534c6b94971325e3be6bfaac1ccae68e3f5c7adcee5f000000000000000000000000000000000000000000000000000000000000004000000000000000000000000000000000000000000000000000000000000000010000000000000000000000009653ddd6cf4b137e8ecaaeb80e155749a88e4f40",
        "nonce": "0x24d",
        "chainId": "0x66eee"
      },
      "additionalContracts": [],
      "isFixedGasLimit": false
    },
    {
      "hash": "0x21b3059e28e7a0b375835d7b50bd1549fa12fc823baa3d204dfb58fdd7dd6cc5",
      "transactionType": "CALL",
      "contractName": null,
      "contractAddress": "0xccedbb423d0c6ed5cb38bb4ab0294f362f710e14",
      "function": "withdraw()",
      "arguments": [],
      "transaction": {
        "from": "0x7caf754c934710d7c73bc453654552beca38223f",
        "to": "0xccedbb423d0c6ed5cb38bb4ab0294f362f710e14",
        "gas": "0xb9761",
        "value": "0x0",
        "input": "0x3ccfd60b",
        "nonce": "0x24e",
        "chainId": "0x66eee"
      },
      "additionalContracts": [],
      "isFixedGasLimit": false
    },
    {
      "hash": "0x0f2f291dfbc8d54847adb51933e1c21c31e2d73ab590c5a1daafc85d5e3570da",
      "transactionType": "CALL",
      "contractName": null,
      "contractAddress": "0xfe0717cacd6fff3001edd3f360eb2854f54861dd",
      "function": "detachCampaigns(uint256,address[])",
      "arguments": [
        "61412812549033025435811962204424170589965658763482764336017940556663446417829",
        "[0xCCeDbB423d0C6ed5CB38Bb4ab0294f362f710e14]"
      ],
      "transaction": {
        "from": "0x7caf754c934710d7c73bc453654552beca38223f",
        "to": "0xfe0717cacd6fff3001edd3f360eb2854f54861dd",
        "gas": "0x14b04f",
        "value": "0x0",
        "input": "0xae6d310f87c66b8c60fd984f739f68f1d83229601131914aaf269874c584e179b37db1a500000000000000000000000000000000000000000000000000000000000000400000000000000000000000000000000000000000000000000000000000000001000000000000000000000000ccedbb423d0c6ed5cb38bb4ab0294f362f710e14",
        "nonce": "0x24f",
        "chainId": "0x66eee"
      },
      "additionalContracts": [],
      "isFixedGasLimit": false
    },
    {
      "hash": "0x599522cfb9d77ba7a92a5d24c07a462eca85c5c389de0c54ffa767dbd7e3e88b",
      "transactionType": "CALL",
      "contractName": null,
      "contractAddress": "0x64c2a6c0b5635a3cf16d5b04494c0cacb560e052",
      "function": "withdraw()",
      "arguments": [],
      "transaction": {
        "from": "0x7caf754c934710d7c73bc453654552beca38223f",
        "to": "0x64c2a6c0b5635a3cf16d5b04494c0cacb560e052",
        "gas": "0xb30b9",
        "value": "0x0",
        "input": "0x3ccfd60b",
        "nonce": "0x250",
        "chainId": "0x66eee"
      },
      "additionalContracts": [],
      "isFixedGasLimit": false
    },
    {
      "hash": "0xc9ab7aa265c0b6758071e1e62ac82531d42ebb3e7f3a4846e96183e7a7762c5c",
      "transactionType": "CALL",
      "contractName": null,
      "contractAddress": "0xfe0717cacd6fff3001edd3f360eb2854f54861dd",
      "function": "detachCampaigns(uint256,address[])",
      "arguments": [
        "20376791661718660580662410765070640284736320707848823176694931891585259913409",
        "[0x64C2a6C0b5635A3Cf16d5B04494c0cAcb560E052]"
      ],
      "transaction": {
        "from": "0x7caf754c934710d7c73bc453654552beca38223f",
        "to": "0xfe0717cacd6fff3001edd3f360eb2854f54861dd",
        "gas": "0x14b04f",
        "value": "0x0",
        "input": "0xae6d310f2d0cdaf9a1153a9a4b68379c64d4397611a0f3d9fa4015376435f9a64aafc0c10000000000000000000000000000000000000000000000000000000000000040000000000000000000000000000000000000000000000000000000000000000100000000000000000000000064c2a6c0b5635a3cf16d5b04494c0cacb560e052",
        "nonce": "0x251",
        "chainId": "0x66eee"
      },
      "additionalContracts": [],
      "isFixedGasLimit": false
    }
  ],
  "receipts": [
    {
      "status": "0x1",
      "cumulativeGasUsed": "0x65785",
      "logs": [
        {
          "address": "0x56039fa1a804f614ebd714139f29a3ff4db57ad6",
          "topics": [
            "0xddf252ad1be2c89b69c2b068fc378daa952ba7f163c4a11628f55a4df523b3ef",
            "0x000000000000000000000000eada1ce00d38fa2428bf49422c81a4ebf475395d",
            "0x0000000000000000000000007caf754c934710d7c73bc453654552beca38223f"
          ],
          "data": "0x00000000000000000000000000000000000000000000152c24bc761080400000",
          "blockHash": "0x2a7eec2e7f445dd7cb83cbc1cbd739d5d1e1159501734e6c4f2b63c343ea78d1",
          "blockNumber": "0x3f29295",
          "transactionHash": "0xa2261cb0d2c72c15207f0256799164a33bfa1ebf9ffe2e01c84ba8ebe7934dfd",
          "transactionIndex": "0x1",
          "logIndex": "0x0",
          "removed": false
        }
      ],
      "logsBloom": "0x00010000000000000000000000000000000200000000400000000000000000000000000000020000000000000000000000000000000000000000000000000000000004000000000000000008000000020000000000000000000010000000000000000000000000000000000000000002000000000000000000000010000000000000000000000000000000000000000000000000000000000000000000000000000000000000000000000000000000000000000000008000000000000000000000000002000000000000000000000000000000000000000000000000000000000000000000000000000000000000000000000000000000000000000000000000",
      "type": "0x2",
      "transactionHash": "0xa2261cb0d2c72c15207f0256799164a33bfa1ebf9ffe2e01c84ba8ebe7934dfd",
      "transactionIndex": "0x1",
      "blockHash": "0x2a7eec2e7f445dd7cb83cbc1cbd739d5d1e1159501734e6c4f2b63c343ea78d1",
      "blockNumber": "0x3f29295",
      "gasUsed": "0x65785",
      "effectiveGasPrice": "0x5f5e100",
      "from": "0x7caf754c934710d7c73bc453654552beca38223f",
      "to": "0xeada1ce00d38fa2428bf49422c81a4ebf475395d",
      "contractAddress": null,
      "gasUsedForL1": "0x5c70b",
      "l1BlockNumber": "0x612739"
    },
    {
      "status": "0x1",
      "cumulativeGasUsed": "0xcd678",
      "logs": [
        {
          "address": "0xf3f409a9532066351f49aab3e7f1fa8eb3d5cdcc",
          "topics": [
            "0x241e2c5d6c757ade3ced2be5c870af8e2d918a1d19a6bda4c5dbf6537f971fcb"
          ],
          "data": "0x000000000000000000000000eada1ce00d38fa2428bf49422c81a4ebf475395d",
          "blockHash": "0xdb56c1554b02d311be690ee16aba89e873d1687cca2d6485e395a32b6ee42421",
          "blockNumber": "0x3f29296",
          "transactionHash": "0xf970ebcc58453947a3443b57c552e41a97b764822dd9a274010b2e0bcb9e9018",
          "transactionIndex": "0x1",
          "logIndex": "0x0",
          "removed": false
        },
        {
          "address": "0xeada1ce00d38fa2428bf49422c81a4ebf475395d",
          "topics": [
            "0x715ad5ce61fc9595c7b415289d59cf203f23a94fa06f04af7e489a0a76e1fe26",
            "0x000000000000000000000000f3f409a9532066351f49aab3e7f1fa8eb3d5cdcc",
            "0x0000000000000000000000000000000000000000000000000000000000000000"
          ],
          "data": "0x",
          "blockHash": "0xdb56c1554b02d311be690ee16aba89e873d1687cca2d6485e395a32b6ee42421",
          "blockNumber": "0x3f29296",
          "transactionHash": "0xf970ebcc58453947a3443b57c552e41a97b764822dd9a274010b2e0bcb9e9018",
          "transactionIndex": "0x1",
          "logIndex": "0x1",
          "removed": false
        }
      ],
      "logsBloom": "0x20000000000000000000000000000000200000000000000000000000000000000000000000000000000000000020000000000000000000000000000000000000400000000000000000000000000000000000000000000000000000000000000000000000020000000000000000000800000000000000000000000000000000000000000000000000000000000000000000000000000200000000000000000000000000000000000000000000000000000000000000010000000000004000000000002020400000000000000000000000000800000000000000000000000220000002000000000000000000000000000800000000000002000000000000000000",
      "type": "0x2",
      "transactionHash": "0xf970ebcc58453947a3443b57c552e41a97b764822dd9a274010b2e0bcb9e9018",
      "transactionIndex": "0x1",
      "blockHash": "0xdb56c1554b02d311be690ee16aba89e873d1687cca2d6485e395a32b6ee42421",
      "blockNumber": "0x3f29296",
      "gasUsed": "0xcd678",
      "effectiveGasPrice": "0x5f5e100",
      "from": "0x7caf754c934710d7c73bc453654552beca38223f",
      "to": "0xfe0717cacd6fff3001edd3f360eb2854f54861dd",
      "contractAddress": null,
      "gasUsedForL1": "0xc0a61",
      "l1BlockNumber": "0x612739"
    },
    {
      "status": "0x1",
      "cumulativeGasUsed": "0x7189e9",
      "logs": [
        {
          "address": "0x56039fa1a804f614ebd714139f29a3ff4db57ad6",
          "topics": [
            "0xddf252ad1be2c89b69c2b068fc378daa952ba7f163c4a11628f55a4df523b3ef",
            "0x0000000000000000000000009653ddd6cf4b137e8ecaaeb80e155749a88e4f40",
            "0x0000000000000000000000007caf754c934710d7c73bc453654552beca38223f"
          ],
          "data": "0x00000000000000000000000000000000000000000000152d02c7e14af6800000",
          "blockHash": "0xf798faa7fd3554e53ba368c9e9368dfd234b895bb14dd8e852a9dfcef095f67b",
          "blockNumber": "0x3f29299",
          "transactionHash": "0xdd50aec006d5d9fbe7c86a625a5cc465c0f85de8c6d08c236211868814fd5508",
          "transactionIndex": "0x2",
          "logIndex": "0xe",
          "removed": false
        }
      ],
      "logsBloom": "0x00000000000000000000000000000000000200000000400000000000000000000000000000020000000000000000000000000000000000000000000000000000000000000000001000000008000000000000000000000000000010000000100000000000000000000000000000000002000000000000001000000010000000000000000000000000000000000000000000000000000000000000000000000000000000000000000000000000000000000000000000008000000000000000000000000002000000000000000000000000000000000000000000000000000000000000000000000000000000000000000000000000000000000000000000000000",
      "type": "0x2",
      "transactionHash": "0xdd50aec006d5d9fbe7c86a625a5cc465c0f85de8c6d08c236211868814fd5508",
      "transactionIndex": "0x2",
      "blockHash": "0xf798faa7fd3554e53ba368c9e9368dfd234b895bb14dd8e852a9dfcef095f67b",
      "blockNumber": "0x3f29299",
      "gasUsed": "0x6a541",
      "effectiveGasPrice": "0x5f5e100",
      "from": "0x7caf754c934710d7c73bc453654552beca38223f",
      "to": "0x9653ddd6cf4b137e8ecaaeb80e155749a88e4f40",
      "contractAddress": null,
      "gasUsedForL1": "0x5c70b",
      "l1BlockNumber": "0x612739"
    },
    {
      "status": "0x1",
      "cumulativeGasUsed": "0x2f9c59",
      "logs": [
        {
          "address": "0xd5a828d16eee909eccb571051256e52c0f886b42",
          "topics": [
            "0x241e2c5d6c757ade3ced2be5c870af8e2d918a1d19a6bda4c5dbf6537f971fcb"
          ],
          "data": "0x0000000000000000000000009653ddd6cf4b137e8ecaaeb80e155749a88e4f40",
          "blockHash": "0xea2bd2813797a4a1c25b0dabfb7f3546b08e658a49d1c7842af2c483dfd013f0",
          "blockNumber": "0x3f2929c",
          "transactionHash": "0xffd6e76181ea060a7b0f376927186f3a5ee5a9201f26be922c0aa27e00b3d4e6",
          "transactionIndex": "0x2",
          "logIndex": "0x5",
          "removed": false
        },
        {
          "address": "0x9653ddd6cf4b137e8ecaaeb80e155749a88e4f40",
          "topics": [
            "0x715ad5ce61fc9595c7b415289d59cf203f23a94fa06f04af7e489a0a76e1fe26",
            "0x000000000000000000000000d5a828d16eee909eccb571051256e52c0f886b42",
            "0x0000000000000000000000000000000000000000000000000000000000000000"
          ],
          "data": "0x",
          "blockHash": "0xea2bd2813797a4a1c25b0dabfb7f3546b08e658a49d1c7842af2c483dfd013f0",
          "blockNumber": "0x3f2929c",
          "transactionHash": "0xffd6e76181ea060a7b0f376927186f3a5ee5a9201f26be922c0aa27e00b3d4e6",
          "transactionIndex": "0x2",
          "logIndex": "0x6",
          "removed": false
        }
      ],
      "logsBloom": "0x00000000000000000010000000000000000000000000000000000000000000000000000000000000000000000000000000000000000000000000000000000000400000000000001000000000000000000000000000000000000000000000000000000200020000000000000000000800000000000000000000000000000000000000000000000000000002000000000000008000000200000000000000000000000000000000000000000000000000000000000000010000000000000000000000002020400000000000000800000000000000000001000000000000000020000000000000000000000000000000000000000000000002400000000000000000",
      "type": "0x2",
      "transactionHash": "0xffd6e76181ea060a7b0f376927186f3a5ee5a9201f26be922c0aa27e00b3d4e6",
      "transactionIndex": "0x2",
      "blockHash": "0xea2bd2813797a4a1c25b0dabfb7f3546b08e658a49d1c7842af2c483dfd013f0",
      "blockNumber": "0x3f2929c",
      "gasUsed": "0xcd678",
      "effectiveGasPrice": "0x5f5e100",
      "from": "0x7caf754c934710d7c73bc453654552beca38223f",
      "to": "0xfe0717cacd6fff3001edd3f360eb2854f54861dd",
      "contractAddress": null,
      "gasUsedForL1": "0xc0a61",
      "l1BlockNumber": "0x612739"
    },
    {
      "status": "0x1",
      "cumulativeGasUsed": "0x6a541",
      "logs": [
        {
          "address": "0x56039fa1a804f614ebd714139f29a3ff4db57ad6",
          "topics": [
            "0xddf252ad1be2c89b69c2b068fc378daa952ba7f163c4a11628f55a4df523b3ef",
            "0x000000000000000000000000ccedbb423d0c6ed5cb38bb4ab0294f362f710e14",
            "0x0000000000000000000000007caf754c934710d7c73bc453654552beca38223f"
          ],
          "data": "0x00000000000000000000000000000000000000000000152d02c7e14af6800000",
          "blockHash": "0x07a78f909a53c9fec626b147d2da70e9ff66a0c0fa4df36e44f02c0aea29d0c2",
          "blockNumber": "0x3f292a0",
          "transactionHash": "0x21b3059e28e7a0b375835d7b50bd1549fa12fc823baa3d204dfb58fdd7dd6cc5",
          "transactionIndex": "0x1",
          "logIndex": "0x0",
          "removed": false
        }
      ],
      "logsBloom": "0x00000000000000000000000000000000000200000000400000000000000000000000000000020000000000000000000000000000000000000000000400000000000000000000000000000008000000000000000000000000000010000000000000000000000000000000000000000002000000000000000000000010000020000000000000000000000000000000000000000000000000000000000000000000000000000000000000000000000000000000000000008000000000000000000000000002000000000000000000000000000000000000000000000000000000000000000000000000000000000000004000000000000000000000000000000000",
      "type": "0x2",
      "transactionHash": "0x21b3059e28e7a0b375835d7b50bd1549fa12fc823baa3d204dfb58fdd7dd6cc5",
      "transactionIndex": "0x1",
      "blockHash": "0x07a78f909a53c9fec626b147d2da70e9ff66a0c0fa4df36e44f02c0aea29d0c2",
      "blockNumber": "0x3f292a0",
      "gasUsed": "0x6a541",
      "effectiveGasPrice": "0x5f5e100",
      "from": "0x7caf754c934710d7c73bc453654552beca38223f",
      "to": "0xccedbb423d0c6ed5cb38bb4ab0294f362f710e14",
      "contractAddress": null,
      "gasUsedForL1": "0x5c70b",
      "l1BlockNumber": "0x612739"
    },
    {
      "status": "0x1",
      "cumulativeGasUsed": "0x166019",
      "logs": [
        {
          "address": "0x3e3a92c7777713b22a668143b50afb2d969c0a4f",
          "topics": [
            "0x241e2c5d6c757ade3ced2be5c870af8e2d918a1d19a6bda4c5dbf6537f971fcb"
          ],
          "data": "0x000000000000000000000000ccedbb423d0c6ed5cb38bb4ab0294f362f710e14",
          "blockHash": "0xa1881ee983ecf12f07d4ad49c84021e5f6a8a07001c8a7b76eb6377d5bba10c0",
          "blockNumber": "0x3f292a3",
          "transactionHash": "0x0f2f291dfbc8d54847adb51933e1c21c31e2d73ab590c5a1daafc85d5e3570da",
          "transactionIndex": "0x2",
          "logIndex": "0x2",
          "removed": false
        },
        {
          "address": "0xccedbb423d0c6ed5cb38bb4ab0294f362f710e14",
          "topics": [
            "0x715ad5ce61fc9595c7b415289d59cf203f23a94fa06f04af7e489a0a76e1fe26",
            "0x0000000000000000000000003e3a92c7777713b22a668143b50afb2d969c0a4f",
            "0x0000000000000000000000000000000000000000000000000000000000000000"
          ],
          "data": "0x",
          "blockHash": "0xa1881ee983ecf12f07d4ad49c84021e5f6a8a07001c8a7b76eb6377d5bba10c0",
          "blockNumber": "0x3f292a3",
          "transactionHash": "0x0f2f291dfbc8d54847adb51933e1c21c31e2d73ab590c5a1daafc85d5e3570da",
          "transactionIndex": "0x2",
          "logIndex": "0x3",
          "removed": false
        }
      ],
      "logsBloom": "0x00000000000000000000000000000000000000000000000000020002000000000000000000000000000000000000000000000000000000000000000000000000400000000000000008000000002000200000000000000000000000000000000000000000020000000000000000000800000100000000000000000000000000000000000000000000000100000000000000000000000000000000000000000000000000000000000000000000000000000000002000010000000000000000000000002020400000000000000000000000000000000000000000000000000020000000000000000000000000000000020000000000000002000000000000000000",
      "type": "0x2",
      "transactionHash": "0x0f2f291dfbc8d54847adb51933e1c21c31e2d73ab590c5a1daafc85d5e3570da",
      "transactionIndex": "0x2",
      "blockHash": "0xa1881ee983ecf12f07d4ad49c84021e5f6a8a07001c8a7b76eb6377d5bba10c0",
      "blockNumber": "0x3f292a3",
      "gasUsed": "0xcd678",
      "effectiveGasPrice": "0x5f5e100",
      "from": "0x7caf754c934710d7c73bc453654552beca38223f",
      "to": "0xfe0717cacd6fff3001edd3f360eb2854f54861dd",
      "contractAddress": null,
      "gasUsedForL1": "0xc0a61",
      "l1BlockNumber": "0x612739"
    },
    {
      "status": "0x1",
      "cumulativeGasUsed": "0x65785",
      "logs": [
        {
          "address": "0x56039fa1a804f614ebd714139f29a3ff4db57ad6",
          "topics": [
            "0xddf252ad1be2c89b69c2b068fc378daa952ba7f163c4a11628f55a4df523b3ef",
            "0x00000000000000000000000064c2a6c0b5635a3cf16d5b04494c0cacb560e052",
            "0x0000000000000000000000007caf754c934710d7c73bc453654552beca38223f"
          ],
          "data": "0x00000000000000000000000000000000000000000000152bed399b41e2b00000",
          "blockHash": "0x3395326c4786378a1eed7bcc860ab3d70d20ee2877a2f89d9f8d91036e38cb8b",
          "blockNumber": "0x3f292a9",
          "transactionHash": "0x599522cfb9d77ba7a92a5d24c07a462eca85c5c389de0c54ffa767dbd7e3e88b",
          "transactionIndex": "0x1",
          "logIndex": "0x0",
          "removed": false
        }
      ],
      "logsBloom": "0x00000000000000000000000000000000000200000000400000000000000000000000000000020000000000000000000000000000000000000000000000000000000040000000002000000008000000000000000000000000000010000000000000000000000000000000000000000002000000000000000000000010000000000000000000000000000000000000000000000000000000000000000000000000000000000000040000000000000000000000000000008000000000000000000000000002000000000000000000000000000000000000000000000000000000000000000000000000000000000000000000000000000000000000000000000000",
      "type": "0x2",
      "transactionHash": "0x599522cfb9d77ba7a92a5d24c07a462eca85c5c389de0c54ffa767dbd7e3e88b",
      "transactionIndex": "0x1",
      "blockHash": "0x3395326c4786378a1eed7bcc860ab3d70d20ee2877a2f89d9f8d91036e38cb8b",
      "blockNumber": "0x3f292a9",
      "gasUsed": "0x65785",
      "effectiveGasPrice": "0x5f5e100",
      "from": "0x7caf754c934710d7c73bc453654552beca38223f",
      "to": "0x64c2a6c0b5635a3cf16d5b04494c0cacb560e052",
      "contractAddress": null,
      "gasUsedForL1": "0x5c70b",
      "l1BlockNumber": "0x612739"
    },
    {
      "status": "0x1",
      "cumulativeGasUsed": "0xcd678",
      "logs": [
        {
          "address": "0x4c65cbf4bcd5098e4643c2dfc84919b4ff26bc8b",
          "topics": [
            "0x241e2c5d6c757ade3ced2be5c870af8e2d918a1d19a6bda4c5dbf6537f971fcb"
          ],
          "data": "0x00000000000000000000000064c2a6c0b5635a3cf16d5b04494c0cacb560e052",
          "blockHash": "0x9cd445f30076946278ba433d26c3ea4907f7a3ad551d6b4bc54d211146807441",
          "blockNumber": "0x3f292ab",
          "transactionHash": "0xc9ab7aa265c0b6758071e1e62ac82531d42ebb3e7f3a4846e96183e7a7762c5c",
          "transactionIndex": "0x1",
          "logIndex": "0x0",
          "removed": false
        },
        {
          "address": "0x64c2a6c0b5635a3cf16d5b04494c0cacb560e052",
          "topics": [
            "0x715ad5ce61fc9595c7b415289d59cf203f23a94fa06f04af7e489a0a76e1fe26",
            "0x0000000000000000000000004c65cbf4bcd5098e4643c2dfc84919b4ff26bc8b",
            "0x0000000000000000000000000000000000000000000000000000000000000000"
          ],
          "data": "0x",
          "blockHash": "0x9cd445f30076946278ba433d26c3ea4907f7a3ad551d6b4bc54d211146807441",
          "blockNumber": "0x3f292ab",
          "transactionHash": "0xc9ab7aa265c0b6758071e1e62ac82531d42ebb3e7f3a4846e96183e7a7762c5c",
          "transactionIndex": "0x1",
          "logIndex": "0x1",
          "removed": false
        }
      ],
      "logsBloom": "0x00000000000000000000000000000000000000000000000000000000000000000000000000400000000000000000000000000000000000000000000000000000400000000000040040000000000000000000000000000000000000000000000000000000020000000000000000000800000000000000000000000000000000000100000000000000000000000000000000000000000000000000000000000000000000000000000000000010000004000000000000010000000000000000000000002020400000000000000000000000000000000000000000000000000020020000000000000000000000000000000000000000000002000000100004000000",
      "type": "0x2",
      "transactionHash": "0xc9ab7aa265c0b6758071e1e62ac82531d42ebb3e7f3a4846e96183e7a7762c5c",
      "transactionIndex": "0x1",
      "blockHash": "0x9cd445f30076946278ba433d26c3ea4907f7a3ad551d6b4bc54d211146807441",
      "blockNumber": "0x3f292ab",
      "gasUsed": "0xcd678",
      "effectiveGasPrice": "0x5f5e100",
      "from": "0x7caf754c934710d7c73bc453654552beca38223f",
      "to": "0xfe0717cacd6fff3001edd3f360eb2854f54861dd",
      "contractAddress": null,
      "gasUsedForL1": "0xc0a61",
      "l1BlockNumber": "0x612739"
    }
  ],
  "libraries": [],
  "pending": [],
  "returns": {},
  "timestamp": 1721816098,
  "chain": 421614,
  "commit": "024f89a"
}