{
  "transactions": [
    {
      "hash": "0x1bf0605aaa4ece99369f504bdd7675bef50e58a4c8d0f4db5a1ea7c568a8465a",
      "transactionType": "CALL",
      "contractName": null,
      "contractAddress": "0xf962f8356b178e3d7513ae2371d0503ef5f9e642",
      "function": "withdraw()",
      "arguments": [],
      "transaction": {
        "from": "0x7caf754c934710d7c73bc453654552beca38223f",
        "to": "0xf962f8356b178e3d7513ae2371d0503ef5f9e642",
        "gas": "0x10eed9",
        "value": "0x0",
        "input": "0x3ccfd60b",
        "nonce": "0x188",
        "chainId": "0x66eee"
      },
      "additionalContracts": [],
      "isFixedGasLimit": false
    },
    {
      "hash": "0xbbd8813901ac92df826737ce25384400212735d5181f0ea60a518a8557b944ed",
      "transactionType": "CALL",
      "contractName": null,
      "contractAddress": "0x603674006fe11c38449c22ba56c40444c8e4cc5c",
      "function": "detachCampaigns(uint256,address[])",
      "arguments": [
        "106219508196454080375526586478153583586194937194493887259467424694676997453395",
        "[0xf962F8356B178E3D7513aE2371d0503Ef5f9E642]"
      ],
      "transaction": {
        "from": "0x7caf754c934710d7c73bc453654552beca38223f",
        "to": "0x603674006fe11c38449c22ba56c40444c8e4cc5c",
        "gas": "0x1eba25",
        "value": "0x0",
        "input": "0xae6d310fead61c7340b7cacd78684d4795a617aae5e85cc4b89da34fb05ad55bb6bab65300000000000000000000000000000000000000000000000000000000000000400000000000000000000000000000000000000000000000000000000000000001000000000000000000000000f962f8356b178e3d7513ae2371d0503ef5f9e642",
        "nonce": "0x189",
        "chainId": "0x66eee"
      },
      "additionalContracts": [],
      "isFixedGasLimit": false
    },
    {
      "hash": "0x44724d5b24c87c9b35381c90498c025746803a2cd18149ae4efffbae77ef1b8e",
      "transactionType": "CALL",
      "contractName": null,
      "contractAddress": "0xc6606716a158aa420b9bef9030487dcb72b7eee8",
      "function": "withdraw()",
      "arguments": [],
      "transaction": {
        "from": "0x7caf754c934710d7c73bc453654552beca38223f",
        "to": "0xc6606716a158aa420b9bef9030487dcb72b7eee8",
        "gas": "0x10eed9",
        "value": "0x0",
        "input": "0x3ccfd60b",
        "nonce": "0x18a",
        "chainId": "0x66eee"
      },
      "additionalContracts": [],
      "isFixedGasLimit": false
    },
    {
      "hash": "0x2d7d09a995dd08ff750f0cb13e0760373b707c1ebd5d407accd1ba58b73bff4f",
      "transactionType": "CALL",
      "contractName": null,
      "contractAddress": "0x603674006fe11c38449c22ba56c40444c8e4cc5c",
      "function": "detachCampaigns(uint256,address[])",
      "arguments": [
        "108586150798115180574743190405367285583167702751783717273705027881651322809951",
        "[0xc6606716a158aa420b9bEf9030487DCB72B7EEe8]"
      ],
      "transaction": {
        "from": "0x7caf754c934710d7c73bc453654552beca38223f",
        "to": "0x603674006fe11c38449c22ba56c40444c8e4cc5c",
        "gas": "0x1eba25",
        "value": "0x0",
        "input": "0xae6d310ff011955832cac97ab1a6534c6b94971325e3be6bfaac1ccae68e3f5c7adcee5f00000000000000000000000000000000000000000000000000000000000000400000000000000000000000000000000000000000000000000000000000000001000000000000000000000000c6606716a158aa420b9bef9030487dcb72b7eee8",
        "nonce": "0x18b",
        "chainId": "0x66eee"
      },
      "additionalContracts": [],
      "isFixedGasLimit": false
    },
    {
      "hash": "0x6c311d5cb79b93603d8247140e5b15739773d798464ce67a372f093f13e3e4af",
      "transactionType": "CALL",
      "contractName": null,
      "contractAddress": "0x01cd02bf0fae91486b1d647094c6d10c1e1dcdf6",
      "function": "withdraw()",
      "arguments": [],
      "transaction": {
        "from": "0x7caf754c934710d7c73bc453654552beca38223f",
        "to": "0x01cd02bf0fae91486b1d647094c6d10c1e1dcdf6",
        "gas": "0x10eed9",
        "value": "0x0",
        "input": "0x3ccfd60b",
        "nonce": "0x18c",
        "chainId": "0x66eee"
      },
      "additionalContracts": [],
      "isFixedGasLimit": false
    },
    {
      "hash": "0x0647c0913403f7d3eec23a1b4d4b48a393ee950835a3b79057db8bf6ea54e13b",
      "transactionType": "CALL",
      "contractName": null,
      "contractAddress": "0x603674006fe11c38449c22ba56c40444c8e4cc5c",
      "function": "detachCampaigns(uint256,address[])",
      "arguments": [
        "61412812549033025435811962204424170589965658763482764336017940556663446417829",
        "[0x01Cd02BF0faE91486B1d647094c6d10c1e1dCdF6]"
      ],
      "transaction": {
        "from": "0x7caf754c934710d7c73bc453654552beca38223f",
        "to": "0x603674006fe11c38449c22ba56c40444c8e4cc5c",
        "gas": "0x1eba25",
        "value": "0x0",
        "input": "0xae6d310f87c66b8c60fd984f739f68f1d83229601131914aaf269874c584e179b37db1a50000000000000000000000000000000000000000000000000000000000000040000000000000000000000000000000000000000000000000000000000000000100000000000000000000000001cd02bf0fae91486b1d647094c6d10c1e1dcdf6",
        "nonce": "0x18d",
        "chainId": "0x66eee"
      },
      "additionalContracts": [],
      "isFixedGasLimit": false
    },
    {
      "hash": "0xca386173b9f8d946aa7c823de18041250fcf37e7b9735b470f3aba0e956a9a5f",
      "transactionType": "CALL",
      "contractName": null,
      "contractAddress": "0xe4355e6e3554035a8c98bb3d1a2ad43856b5656c",
      "function": "withdraw()",
      "arguments": [],
      "transaction": {
        "from": "0x7caf754c934710d7c73bc453654552beca38223f",
        "to": "0xe4355e6e3554035a8c98bb3d1a2ad43856b5656c",
        "gas": "0x10eed9",
        "value": "0x0",
        "input": "0x3ccfd60b",
        "nonce": "0x18e",
        "chainId": "0x66eee"
      },
      "additionalContracts": [],
      "isFixedGasLimit": false
    },
    {
      "hash": "0x83ec646cca86d8e8de56ea46f0f9054079723dfb0b8dd880e717f9d8dcfb3e3a",
      "transactionType": "CALL",
      "contractName": null,
      "contractAddress": "0x603674006fe11c38449c22ba56c40444c8e4cc5c",
      "function": "detachCampaigns(uint256,address[])",
      "arguments": [
        "20376791661718660580662410765070640284736320707848823176694931891585259913409",
        "[0xE4355e6e3554035A8C98Bb3D1a2AD43856B5656c]"
      ],
      "transaction": {
        "from": "0x7caf754c934710d7c73bc453654552beca38223f",
        "to": "0x603674006fe11c38449c22ba56c40444c8e4cc5c",
        "gas": "0x1eba25",
        "value": "0x0",
        "input": "0xae6d310f2d0cdaf9a1153a9a4b68379c64d4397611a0f3d9fa4015376435f9a64aafc0c100000000000000000000000000000000000000000000000000000000000000400000000000000000000000000000000000000000000000000000000000000001000000000000000000000000e4355e6e3554035a8c98bb3d1a2ad43856b5656c",
        "nonce": "0x18f",
        "chainId": "0x66eee"
      },
      "additionalContracts": [],
      "isFixedGasLimit": false
    }
  ],
  "receipts": [
    {
      "status": "0x1",
      "cumulativeGasUsed": "0x9115f",
      "logs": [
        {
          "address": "0x9584a61f70cc4bef5b8b5f588a1d35740f0c7ae2",
          "topics": [
            "0xddf252ad1be2c89b69c2b068fc378daa952ba7f163c4a11628f55a4df523b3ef",
            "0x000000000000000000000000f962f8356b178e3d7513ae2371d0503ef5f9e642",
            "0x0000000000000000000000007caf754c934710d7c73bc453654552beca38223f"
          ],
          "data": "0x00000000000000000000000000000000000000000000152d02c7e14af6800000",
          "blockHash": "0x386250d4c0a73c227fdcfeded6707c548af86a46c00b440d576481c764466748",
          "blockNumber": "0x3818f8f",
          "transactionHash": "0x1bf0605aaa4ece99369f504bdd7675bef50e58a4c8d0f4db5a1ea7c568a8465a",
          "transactionIndex": "0x1",
          "logIndex": "0x0",
          "removed": false
        }
      ],
      "logsBloom": "0x00000000000000000000000000000000000200000000000000000000000000000000000000000000200200000000000000000000000000000000000000000000000000000000000000000008000000000000000000000000000000000000000000000000000000000000000000000002000000000000000000000010000000000000800000000000000000000000000000000000000010000000000000000000000000000000000008000000000000000000000000008000000000000000000000000002000000000000000000000000000000000000100000000000000000000000000000000000000000000000000000000000000000000000000000000000",
      "type": "0x2",
      "transactionHash": "0x1bf0605aaa4ece99369f504bdd7675bef50e58a4c8d0f4db5a1ea7c568a8465a",
      "transactionIndex": "0x1",
      "blockHash": "0x386250d4c0a73c227fdcfeded6707c548af86a46c00b440d576481c764466748",
      "blockNumber": "0x3818f8f",
      "gasUsed": "0x9115f",
      "effectiveGasPrice": "0x5f5e100",
      "from": "0x7caf754c934710d7c73bc453654552beca38223f",
      "to": "0xf962f8356b178e3d7513ae2371d0503ef5f9e642",
      "contractAddress": null,
      "gasUsedForL1": "0x83313",
      "l1BlockNumber": "0x5e8de2"
    },
    {
      "status": "0x1",
      "cumulativeGasUsed": "0x11d851",
      "logs": [
        {
          "address": "0xf962f8356b178e3d7513ae2371d0503ef5f9e642",
          "topics": [
            "0x715ad5ce61fc9595c7b415289d59cf203f23a94fa06f04af7e489a0a76e1fe26",
            "0x000000000000000000000000d8414239f011cfc309d144a570ff3a74ab91f177",
            "0x0000000000000000000000000000000000000000000000000000000000000000"
          ],
          "data": "0x",
          "blockHash": "0x9cf5c4b3a92bde954b6409f08ca97611c1257ce483285c8e56b1948fef333f9f",
          "blockNumber": "0x3818f92",
          "transactionHash": "0xbbd8813901ac92df826737ce25384400212735d5181f0ea60a518a8557b944ed",
          "transactionIndex": "0x1",
          "logIndex": "0x0",
          "removed": false
        }
      ],
      "logsBloom": "0x00000000000000000000000000000000000000000000000000000000000000000020000000000000000000000000000000010000000000000000000000000000000000000000000000000000000000000000000000000000000000000000000000000000020000000000000000000800000000000040000000000800000000000000004000000000000000000000000000000000000000000000000000000000000000000000000000000000000000000000000000010000000000000000000000002000440000000000000000000000000000000000000000000000000020000000000000000000000000000000000000000000000000000000000000000000",
      "type": "0x2",
      "transactionHash": "0xbbd8813901ac92df826737ce25384400212735d5181f0ea60a518a8557b944ed",
      "transactionIndex": "0x1",
      "blockHash": "0x9cf5c4b3a92bde954b6409f08ca97611c1257ce483285c8e56b1948fef333f9f",
      "blockNumber": "0x3818f92",
      "gasUsed": "0x11d851",
      "effectiveGasPrice": "0x5f5e100",
      "from": "0x7caf754c934710d7c73bc453654552beca38223f",
      "to": "0x603674006fe11c38449c22ba56c40444c8e4cc5c",
      "contractAddress": null,
      "gasUsedForL1": "0x11168a",
      "l1BlockNumber": "0x5e8de2"
    },
    {
      "status": "0x1",
      "cumulativeGasUsed": "0x15f257",
      "logs": [
        {
          "address": "0x9584a61f70cc4bef5b8b5f588a1d35740f0c7ae2",
          "topics": [
            "0xddf252ad1be2c89b69c2b068fc378daa952ba7f163c4a11628f55a4df523b3ef",
            "0x000000000000000000000000c6606716a158aa420b9bef9030487dcb72b7eee8",
            "0x0000000000000000000000007caf754c934710d7c73bc453654552beca38223f"
          ],
          "data": "0x00000000000000000000000000000000000000000000152d02c7e14af6800000",
          "blockHash": "0x9ce0686dda4424ac5cbba991edc32d0cedc93ac881ba6686a3230d3139c53be7",
          "blockNumber": "0x3818f95",
          "transactionHash": "0x44724d5b24c87c9b35381c90498c025746803a2cd18149ae4efffbae77ef1b8e",
          "transactionIndex": "0x2",
          "logIndex": "0x1",
          "removed": false
        }
      ],
      "logsBloom": "0x00000000000000000040000000000000000200000000000000000000000000000000000000000000000000000000000000000000000000000000000000000000000000000000000000000008000000000000000000000000000000000000000000000000000000000000000000000002000000000000000000000010000000000000000000080000000000000000000000000000000010000000000000000000000000000000000008000000000000000000000800008000000000000000000000000002000000000000000000000000000000000000100000000000000000000000000000000000000000000000000000000000000000000000000000000000",
      "type": "0x2",
      "transactionHash": "0x44724d5b24c87c9b35381c90498c025746803a2cd18149ae4efffbae77ef1b8e",
      "transactionIndex": "0x2",
      "blockHash": "0x9ce0686dda4424ac5cbba991edc32d0cedc93ac881ba6686a3230d3139c53be7",
      "blockNumber": "0x3818f95",
      "gasUsed": "0x9115f",
      "effectiveGasPrice": "0x5f5e100",
      "from": "0x7caf754c934710d7c73bc453654552beca38223f",
      "to": "0xc6606716a158aa420b9bef9030487dcb72b7eee8",
      "contractAddress": null,
      "gasUsedForL1": "0x83313",
      "l1BlockNumber": "0x5e8de2"
    },
    {
      "status": "0x1",
      "cumulativeGasUsed": "0x11d851",
      "logs": [
        {
          "address": "0xc6606716a158aa420b9bef9030487dcb72b7eee8",
          "topics": [
            "0x715ad5ce61fc9595c7b415289d59cf203f23a94fa06f04af7e489a0a76e1fe26",
            "0x0000000000000000000000009c78aefc3d1c7f2e15b30403c79f00423dd797a0",
            "0x0000000000000000000000000000000000000000000000000000000000000000"
          ],
          "data": "0x",
          "blockHash": "0xb85841246aa82a7076686e1fbe5d8f628e425434221ffe1d0fc3b8c0a4b826cb",
          "blockNumber": "0x3818f96",
          "transactionHash": "0x2d7d09a995dd08ff750f0cb13e0760373b707c1ebd5d407accd1ba58b73bff4f",
          "transactionIndex": "0x1",
          "logIndex": "0x0",
          "removed": false
        }
      ],
      "logsBloom": "0x00000000000000000000000000000000000000000000000000000000000000000000000000000000000000000000000000000000000000000000000000000000000000000000000000000000000000000000000000000000000000000000000000000000020000040000000000000800020000080000000000000000000000000000000000000000000000000000200000000800000000000000000000000000000000000000000000000000000000000000000000010000000000000000000000002000400000000000000000000080000000000000000000000000000020000000000000000000000000000000000000000000000000000000000000000000",
      "type": "0x2",
      "transactionHash": "0x2d7d09a995dd08ff750f0cb13e0760373b707c1ebd5d407accd1ba58b73bff4f",
      "transactionIndex": "0x1",
      "blockHash": "0xb85841246aa82a7076686e1fbe5d8f628e425434221ffe1d0fc3b8c0a4b826cb",
      "blockNumber": "0x3818f96",
      "gasUsed": "0x11d851",
      "effectiveGasPrice": "0x5f5e100",
      "from": "0x7caf754c934710d7c73bc453654552beca38223f",
      "to": "0x603674006fe11c38449c22ba56c40444c8e4cc5c",
      "contractAddress": null,
      "gasUsedForL1": "0x11168a",
      "l1BlockNumber": "0x5e8de2"
    },
    {
      "status": "0x1",
      "cumulativeGasUsed": "0x9115f",
      "logs": [
        {
          "address": "0x9584a61f70cc4bef5b8b5f588a1d35740f0c7ae2",
          "topics": [
            "0xddf252ad1be2c89b69c2b068fc378daa952ba7f163c4a11628f55a4df523b3ef",
            "0x00000000000000000000000001cd02bf0fae91486b1d647094c6d10c1e1dcdf6",
            "0x0000000000000000000000007caf754c934710d7c73bc453654552beca38223f"
          ],
          "data": "0x00000000000000000000000000000000000000000000152d02c7e14af6800000",
          "blockHash": "0x21492d17f9bfc37c2ca531bc62872d111dddafc8edc77fee9879bda93d94ac1d",
          "blockNumber": "0x3818f99",
          "transactionHash": "0x6c311d5cb79b93603d8247140e5b15739773d798464ce67a372f093f13e3e4af",
          "transactionIndex": "0x1",
          "logIndex": "0x0",
          "removed": false
        }
      ],
      "logsBloom": "0x00000000000000000000000000000000000200000000000000000000000000400000000000000000000000000000000040000000000000000000000000000000000004000000000000000008000000000000000000000000000000000000000000000000000000000000000000000002000000000000000000000010000000000000000000000000000000000000000000000000000010000000000000000000000000000000000008000000000000000000000000008000000000000000000000000002000000000000000000000000000000000000100000000000000000000000000000000000000000000000000000000000000000000000000000000000",
      "type": "0x2",
      "transactionHash": "0x6c311d5cb79b93603d8247140e5b15739773d798464ce67a372f093f13e3e4af",
      "transactionIndex": "0x1",
      "blockHash": "0x21492d17f9bfc37c2ca531bc62872d111dddafc8edc77fee9879bda93d94ac1d",
      "blockNumber": "0x3818f99",
      "gasUsed": "0x9115f",
      "effectiveGasPrice": "0x5f5e100",
      "from": "0x7caf754c934710d7c73bc453654552beca38223f",
      "to": "0x01cd02bf0fae91486b1d647094c6d10c1e1dcdf6",
      "contractAddress": null,
      "gasUsedForL1": "0x83313",
      "l1BlockNumber": "0x5e8de2"
    },
    {
      "status": "0x1",
      "cumulativeGasUsed": "0x11d851",
      "logs": [
        {
          "address": "0x01cd02bf0fae91486b1d647094c6d10c1e1dcdf6",
          "topics": [
            "0x715ad5ce61fc9595c7b415289d59cf203f23a94fa06f04af7e489a0a76e1fe26",
            "0x000000000000000000000000bd15bf5d8472d79ddfde9f7eede5476d4b8cdbc6",
            "0x0000000000000000000000000000000000000000000000000000000000000000"
          ],
          "data": "0x",
          "blockHash": "0xcac21d46d3b63936c3e9b5ef385044b4fd51ea971fd36d024fd0c6170cc9e657",
          "blockNumber": "0x3818f9e",
          "transactionHash": "0x0647c0913403f7d3eec23a1b4d4b48a393ee950835a3b79057db8bf6ea54e13b",
          "transactionIndex": "0x1",
          "logIndex": "0x0",
          "removed": false
        }
      ],
      "logsBloom": "0x00000000000000000000200400000040000000000800000000000000000000000000000000000000000000000000000000000000000000000000000000000000000000000008000000000000000000000000000000000000000000000000000000000000020000000000000000000800000000000000000000000000000000000000000000000000000000000000000000000000000000000000000000000000000000000000000000000000000000000000000000010000000008000000000000002000400000000000000000000000000000000000000000000000000020000000000000000000000000000000000000000000000000000000000000000000",
      "type": "0x2",
      "transactionHash": "0x0647c0913403f7d3eec23a1b4d4b48a393ee950835a3b79057db8bf6ea54e13b",
      "transactionIndex": "0x1",
      "blockHash": "0xcac21d46d3b63936c3e9b5ef385044b4fd51ea971fd36d024fd0c6170cc9e657",
      "blockNumber": "0x3818f9e",
      "gasUsed": "0x11d851",
      "effectiveGasPrice": "0x5f5e100",
      "from": "0x7caf754c934710d7c73bc453654552beca38223f",
      "to": "0x603674006fe11c38449c22ba56c40444c8e4cc5c",
      "contractAddress": null,
      "gasUsedForL1": "0x11168a",
      "l1BlockNumber": "0x5e8de2"
    },
    {
      "status": "0x1",
      "cumulativeGasUsed": "0x9115f",
      "logs": [
        {
          "address": "0x9584a61f70cc4bef5b8b5f588a1d35740f0c7ae2",
          "topics": [
            "0xddf252ad1be2c89b69c2b068fc378daa952ba7f163c4a11628f55a4df523b3ef",
            "0x000000000000000000000000e4355e6e3554035a8c98bb3d1a2ad43856b5656c",
            "0x0000000000000000000000007caf754c934710d7c73bc453654552beca38223f"
          ],
          "data": "0x00000000000000000000000000000000000000000000152d02c7e14af6800000",
          "blockHash": "0x3b328cfd415b615b76ebd016b1b9b2aaf389ea1ca46c2fc1246f0b78c8e22dc4",
          "blockNumber": "0x3818fa1",
          "transactionHash": "0xca386173b9f8d946aa7c823de18041250fcf37e7b9735b470f3aba0e956a9a5f",
          "transactionIndex": "0x1",
          "logIndex": "0x0",
          "removed": false
        }
      ],
      "logsBloom": "0x00000000000000000000000000000000000200000000000000000000000000000000000000000000000000000000000000000000000000000000000000000000000000000000000000000008000000000000000000000000000000000000000000000000000000000000000000000002000000000000000000000010000000000000000000000000000000000000000000000000000010000000000000000000008000000000000008000000000000000000000000008000000000000000000000000002000000000000000000000000800000000000100000000008000000000000000000000000000000000000000000000000000000000000000000000000",
      "type": "0x2",
      "transactionHash": "0xca386173b9f8d946aa7c823de18041250fcf37e7b9735b470f3aba0e956a9a5f",
      "transactionIndex": "0x1",
      "blockHash": "0x3b328cfd415b615b76ebd016b1b9b2aaf389ea1ca46c2fc1246f0b78c8e22dc4",
      "blockNumber": "0x3818fa1",
      "gasUsed": "0x9115f",
      "effectiveGasPrice": "0x5f5e100",
      "from": "0x7caf754c934710d7c73bc453654552beca38223f",
      "to": "0xe4355e6e3554035a8c98bb3d1a2ad43856b5656c",
      "contractAddress": null,
      "gasUsedForL1": "0x83313",
      "l1BlockNumber": "0x5e8de2"
    },
    {
      "status": "0x1",
      "cumulativeGasUsed": "0x1c9f80",
      "logs": [
        {
          "address": "0xe4355e6e3554035a8c98bb3d1a2ad43856b5656c",
          "topics": [
            "0x715ad5ce61fc9595c7b415289d59cf203f23a94fa06f04af7e489a0a76e1fe26",
            "0x00000000000000000000000024169fc732c806405a0d79d23104ba22d9816be6",
            "0x0000000000000000000000000000000000000000000000000000000000000000"
          ],
          "data": "0x",
          "blockHash": "0x316f1da6b75eeecef613eb4c2339a379e46a62e5fe65be5ec7d8e56d05fab55f",
          "blockNumber": "0x3818fa4",
          "transactionHash": "0x83ec646cca86d8e8de56ea46f0f9054079723dfb0b8dd880e717f9d8dcfb3e3a",
          "transactionIndex": "0x2",
          "logIndex": "0x1",
          "removed": false
        }
      ],
      "logsBloom": "0x00000000000000000000000000000000000000000000000000000000000000000000000000000000000000000000000000000000000000000000000000000000080000000000000000000000000000000000000000000000000000000000000000000000020000000000000000000800000100000000000000000000000000000000400000000000000000000000000000000000000000000000000000000000000000000000000800000000000000000000000000010000000000000000000000002000400000000000000002000000000000000000000000000000000020000000000000000004000000000000000000000000000000000000000000000000",
      "type": "0x2",
      "transactionHash": "0x83ec646cca86d8e8de56ea46f0f9054079723dfb0b8dd880e717f9d8dcfb3e3a",
      "transactionIndex": "0x2",
      "blockHash": "0x316f1da6b75eeecef613eb4c2339a379e46a62e5fe65be5ec7d8e56d05fab55f",
      "blockNumber": "0x3818fa4",
      "gasUsed": "0x11d851",
      "effectiveGasPrice": "0x5f5e100",
      "from": "0x7caf754c934710d7c73bc453654552beca38223f",
      "to": "0x603674006fe11c38449c22ba56c40444c8e4cc5c",
      "contractAddress": null,
      "gasUsedForL1": "0x11168a",
      "l1BlockNumber": "0x5e8de2"
    }
  ],
  "libraries": [],
  "pending": [],
  "returns": {},
  "timestamp": 1719477404,
  "chain": 421614,
  "commit": "1ee005d"
}