{
  "transactions": [
    {
      "hash": "0xf4fdb5c1f1025ce9e7551e1cef1ff5fa81864b46cc22297dbf4ba256f034bcc9",
      "transactionType": "CALL",
      "contractName": null,
      "contractAddress": "0x0e6ff174c744524e6d8034fe2d9f6ae061a8ab95",
      "function": "withdraw()",
      "arguments": [],
      "transaction": {
        "from": "0x7caf754c934710d7c73bc453654552beca38223f",
        "to": "0x0e6ff174c744524e6d8034fe2d9f6ae061a8ab95",
        "gas": "0x20fff",
        "value": "0x0",
        "input": "0x3ccfd60b",
        "nonce": "0x1f7",
        "chainId": "0x66eee"
      },
      "additionalContracts": [],
      "isFixedGasLimit": false
    },
    {
      "hash": "0x14ac9b7928b1b7c7c17e70074603a8c9cd08dbab937bee45d901b04db0c50c1a",
      "transactionType": "CALL",
      "contractName": null,
      "contractAddress": "0xc97d72a8a9d1d2ed326eb04f2d706a21cee2b94e",
      "function": "detachCampaigns(uint256,address[])",
      "arguments": [
        "106219508196454080375526586478153583586194937194493887259467424694676997453395",
        "[0x0e6fF174C744524e6D8034Fe2d9f6AE061a8ab95]"
      ],
      "transaction": {
        "from": "0x7caf754c934710d7c73bc453654552beca38223f",
        "to": "0xc97d72a8a9d1d2ed326eb04f2d706a21cee2b94e",
        "gas": "0x3735c",
        "value": "0x0",
        "input": "0xae6d310fead61c7340b7cacd78684d4795a617aae5e85cc4b89da34fb05ad55bb6bab653000000000000000000000000000000000000000000000000000000000000004000000000000000000000000000000000000000000000000000000000000000010000000000000000000000000e6ff174c744524e6d8034fe2d9f6ae061a8ab95",
        "nonce": "0x1f8",
        "chainId": "0x66eee"
      },
      "additionalContracts": [],
      "isFixedGasLimit": false
    },
    {
      "hash": "0xaf591265cda6ea27025fa6b66a2aa7a9b803dd714d8a6b791e65eb977e6378a0",
      "transactionType": "CALL",
      "contractName": null,
      "contractAddress": "0x4f60bf70db7ba6b2eb788f59a9c56e4d9120cd0f",
      "function": "withdraw()",
      "arguments": [],
      "transaction": {
        "from": "0x7caf754c934710d7c73bc453654552beca38223f",
        "to": "0x4f60bf70db7ba6b2eb788f59a9c56e4d9120cd0f",
        "gas": "0x26a53",
        "value": "0x0",
        "input": "0x3ccfd60b",
        "nonce": "0x1f9",
        "chainId": "0x66eee"
      },
      "additionalContracts": [],
      "isFixedGasLimit": false
    },
    {
      "hash": "0xe372141e4e24d7bfe86a2e6dfa41e63b191faf4b7236dc7a9775ffb63a2eb4d8",
      "transactionType": "CALL",
      "contractName": null,
      "contractAddress": "0xc97d72a8a9d1d2ed326eb04f2d706a21cee2b94e",
      "function": "detachCampaigns(uint256,address[])",
      "arguments": [
        "108586150798115180574743190405367285583167702751783717273705027881651322809951",
        "[0x4f60bf70Db7Ba6b2Eb788f59A9C56E4D9120CD0F, 0xb3E100307fcdd07455fD59b8cCEe01885364e770]"
      ],
      "transaction": {
        "from": "0x7caf754c934710d7c73bc453654552beca38223f",
        "to": "0xc97d72a8a9d1d2ed326eb04f2d706a21cee2b94e",
        "gas": "0x42cd6",
        "value": "0x0",
        "input": "0xae6d310ff011955832cac97ab1a6534c6b94971325e3be6bfaac1ccae68e3f5c7adcee5f000000000000000000000000000000000000000000000000000000000000004000000000000000000000000000000000000000000000000000000000000000020000000000000000000000004f60bf70db7ba6b2eb788f59a9c56e4d9120cd0f000000000000000000000000b3e100307fcdd07455fd59b8ccee01885364e770",
        "nonce": "0x1fa",
        "chainId": "0x66eee"
      },
      "additionalContracts": [],
      "isFixedGasLimit": false
    },
    {
      "hash": "0x4c7779d6515288ca4f72d3d10bb51fd5d0c73ccd64f8a0fa312869c8682ad735",
      "transactionType": "CALL",
      "contractName": null,
      "contractAddress": "0xdf2762bb1e82c297fdec37e349fd271e4336363b",
      "function": "withdraw()",
      "arguments": [],
      "transaction": {
        "from": "0x7caf754c934710d7c73bc453654552beca38223f",
        "to": "0xdf2762bb1e82c297fdec37e349fd271e4336363b",
        "gas": "0x20fff",
        "value": "0x0",
        "input": "0x3ccfd60b",
        "nonce": "0x1fb",
        "chainId": "0x66eee"
      },
      "additionalContracts": [],
      "isFixedGasLimit": false
    },
    {
      "hash": "0x3d3aad35102a13d0e6c9fd4a3e2f77dcb453d335b3af697ba5639fc745756390",
      "transactionType": "CALL",
      "contractName": null,
      "contractAddress": "0xc97d72a8a9d1d2ed326eb04f2d706a21cee2b94e",
      "function": "detachCampaigns(uint256,address[])",
      "arguments": [
        "61412812549033025435811962204424170589965658763482764336017940556663446417829",
        "[0xdf2762BB1e82C297fDeC37e349Fd271e4336363b, 0x5bdA7D2b8A53F091894Dbd1087B6e6AE3D49E445, 0x5872443affdCf0a5161e5d307d10b1b045ADD7E0]"
      ],
      "transaction": {
        "from": "0x7caf754c934710d7c73bc453654552beca38223f",
        "to": "0xc97d72a8a9d1d2ed326eb04f2d706a21cee2b94e",
        "gas": "0x4bd51",
        "value": "0x0",
        "input": "0xae6d310f87c66b8c60fd984f739f68f1d83229601131914aaf269874c584e179b37db1a500000000000000000000000000000000000000000000000000000000000000400000000000000000000000000000000000000000000000000000000000000003000000000000000000000000df2762bb1e82c297fdec37e349fd271e4336363b0000000000000000000000005bda7d2b8a53f091894dbd1087b6e6ae3d49e4450000000000000000000000005872443affdcf0a5161e5d307d10b1b045add7e0",
        "nonce": "0x1fc",
        "chainId": "0x66eee"
      },
      "additionalContracts": [],
      "isFixedGasLimit": false
    },
    {
      "hash": "0x5e30fea32f59b0f422d33ad697587cf5ad84253b8b3e4b0c33def204f6405fca",
      "transactionType": "CALL",
      "contractName": null,
      "contractAddress": "0x38ae02183031d24fd866f21b4971b278332b5e7a",
      "function": "withdraw()",
      "arguments": [],
      "transaction": {
        "from": "0x7caf754c934710d7c73bc453654552beca38223f",
        "to": "0x38ae02183031d24fd866f21b4971b278332b5e7a",
        "gas": "0x26a53",
        "value": "0x0",
        "input": "0x3ccfd60b",
        "nonce": "0x1fd",
        "chainId": "0x66eee"
      },
      "additionalContracts": [],
      "isFixedGasLimit": false
    },
    {
      "hash": "0x449500d1f24b80881684122011cdb9320b23552ca8314c32cfbdb5c4591d70d4",
      "transactionType": "CALL",
      "contractName": null,
      "contractAddress": "0xc97d72a8a9d1d2ed326eb04f2d706a21cee2b94e",
      "function": "detachCampaigns(uint256,address[])",
      "arguments": [
        "20376791661718660580662410765070640284736320707848823176694931891585259913409",
        "[0x38ae02183031d24fd866f21B4971b278332b5E7a]"
      ],
      "transaction": {
        "from": "0x7caf754c934710d7c73bc453654552beca38223f",
        "to": "0xc97d72a8a9d1d2ed326eb04f2d706a21cee2b94e",
        "gas": "0x3735c",
        "value": "0x0",
        "input": "0xae6d310f2d0cdaf9a1153a9a4b68379c64d4397611a0f3d9fa4015376435f9a64aafc0c10000000000000000000000000000000000000000000000000000000000000040000000000000000000000000000000000000000000000000000000000000000100000000000000000000000038ae02183031d24fd866f21b4971b278332b5e7a",
        "nonce": "0x1fe",
        "chainId": "0x66eee"
      },
      "additionalContracts": [],
      "isFixedGasLimit": false
    }
  ],
  "receipts": [
    {
      "status": "0x1",
      "cumulativeGasUsed": "0x133fa",
      "logs": [
        {
          "address": "0x56039fa1a804f614ebd714139f29a3ff4db57ad6",
          "topics": [
            "0xddf252ad1be2c89b69c2b068fc378daa952ba7f163c4a11628f55a4df523b3ef",
            "0x0000000000000000000000000e6ff174c744524e6d8034fe2d9f6ae061a8ab95",
            "0x0000000000000000000000007caf754c934710d7c73bc453654552beca38223f"
          ],
          "data": "0x00000000000000000000000000000000000000000000152c5c3f50df1dd00000",
          "blockHash": "0xd8293140438bed3fa4b3bdc1fd5910581bc5e921acec861d8044c30c6a13a70f",
          "blockNumber": "0x3d26b19",
          "transactionHash": "0xf4fdb5c1f1025ce9e7551e1cef1ff5fa81864b46cc22297dbf4ba256f034bcc9",
          "transactionIndex": "0x1",
          "logIndex": "0x0",
          "removed": false
        }
      ],
      "logsBloom": "0x00000000000000000000000000000000000200000000400000000000000000000000000000020000000000000008000000000000000000000000000000000000000000000000000000000008000000000000000000000000400010000000000000000000000000000000000000000002000000000000000000000010000000000000000000000000000000000000000000000000000000000000000000000000000000000000000000000000000000000000000000008000000000000000000008000002000000000000000000000000000000000000000000000000000000000000000000000000000000000000000000000000000000000000000000000000",
      "type": "0x2",
      "transactionHash": "0xf4fdb5c1f1025ce9e7551e1cef1ff5fa81864b46cc22297dbf4ba256f034bcc9",
      "transactionIndex": "0x1",
      "blockHash": "0xd8293140438bed3fa4b3bdc1fd5910581bc5e921acec861d8044c30c6a13a70f",
      "blockNumber": "0x3d26b19",
      "gasUsed": "0x133fa",
      "effectiveGasPrice": "0x5f5e100",
      "from": "0x7caf754c934710d7c73bc453654552beca38223f",
      "to": "0x0e6ff174c744524e6d8034fe2d9f6ae061a8ab95",
      "contractAddress": null,
      "gasUsedForL1": "0xa380",
      "l1BlockNumber": "0x60668d"
    },
    {
      "status": "0x1",
      "cumulativeGasUsed": "0x21d86",
      "logs": [
        {
          "address": "0x0e6ff174c744524e6d8034fe2d9f6ae061a8ab95",
          "topics": [
            "0x715ad5ce61fc9595c7b415289d59cf203f23a94fa06f04af7e489a0a76e1fe26",
            "0x000000000000000000000000d7169674e19392e23312e4b27b2863331f1be498",
            "0x0000000000000000000000000000000000000000000000000000000000000000"
          ],
          "data": "0x",
          "blockHash": "0x55af381ca64d11837eccd5947cf4871702c88ae0a52190c67cdcae334ad11408",
          "blockNumber": "0x3d26b1d",
          "transactionHash": "0x14ac9b7928b1b7c7c17e70074603a8c9cd08dbab937bee45d901b04db0c50c1a",
          "transactionIndex": "0x1",
          "logIndex": "0x0",
          "removed": false
        }
      ],
      "logsBloom": "0x00000000000000000000000000000000000000000000000000000000000000000000000000000000000000000000000000000000000000000000000000000000000000000000000000400000000000000000000000000000000000000000000000000000020000000000000000000800000000000000000000000000000000000000010000000000000000000000000000000000080000000000000000000000000000000400000000000000000000000000000000010000000000000000000000002000400000000010000000000000000000000000000000000000000020000010000000000000000000000000000000000000000000000000000000000000",
      "type": "0x2",
      "transactionHash": "0x14ac9b7928b1b7c7c17e70074603a8c9cd08dbab937bee45d901b04db0c50c1a",
      "transactionIndex": "0x1",
      "blockHash": "0x55af381ca64d11837eccd5947cf4871702c88ae0a52190c67cdcae334ad11408",
      "blockNumber": "0x3d26b1d",
      "gasUsed": "0x21d86",
      "effectiveGasPrice": "0x5f5e100",
      "from": "0x7caf754c934710d7c73bc453654552beca38223f",
      "to": "0xc97d72a8a9d1d2ed326eb04f2d706a21cee2b94e",
      "contractAddress": null,
      "gasUsedForL1": "0x154bd",
      "l1BlockNumber": "0x60668d"
    },
    {
      "status": "0x1",
      "cumulativeGasUsed": "0x181b6",
      "logs": [
        {
          "address": "0x56039fa1a804f614ebd714139f29a3ff4db57ad6",
          "topics": [
            "0xddf252ad1be2c89b69c2b068fc378daa952ba7f163c4a11628f55a4df523b3ef",
            "0x0000000000000000000000004f60bf70db7ba6b2eb788f59a9c56e4d9120cd0f",
            "0x0000000000000000000000007caf754c934710d7c73bc453654552beca38223f"
          ],
          "data": "0x00000000000000000000000000000000000000000000152d02c7e14af6800000",
          "blockHash": "0xba50e77c9f81251b9ac5b14025ac7a5b998f8f5955b0e685b76ba25f03ada632",
          "blockNumber": "0x3d26b1f",
          "transactionHash": "0xaf591265cda6ea27025fa6b66a2aa7a9b803dd714d8a6b791e65eb977e6378a0",
          "transactionIndex": "0x1",
          "logIndex": "0x0",
          "removed": false
        }
      ],
      "logsBloom": "0x00000000001000000000000000000000000200000000400000000000000000000000000000020000000000000000000000000000000000000000000000000000000000000000000000000008000000000000000000000000000010000000000000000000000000000000000000000002000000000000000000000010000000000000000002000000000000000000000000000000000000000000000000000000000000000000000000000000000000000000000000008000000000000000000000000002000000000000000000000000000000000000000000000000000000000000000000000000000000000800000000000000000000000000000000000000",
      "type": "0x2",
      "transactionHash": "0xaf591265cda6ea27025fa6b66a2aa7a9b803dd714d8a6b791e65eb977e6378a0",
      "transactionIndex": "0x1",
      "blockHash": "0xba50e77c9f81251b9ac5b14025ac7a5b998f8f5955b0e685b76ba25f03ada632",
      "blockNumber": "0x3d26b1f",
      "gasUsed": "0x181b6",
      "effectiveGasPrice": "0x5f5e100",
      "from": "0x7caf754c934710d7c73bc453654552beca38223f",
      "to": "0x4f60bf70db7ba6b2eb788f59a9c56e4d9120cd0f",
      "contractAddress": null,
      "gasUsedForL1": "0xa380",
      "l1BlockNumber": "0x60668d"
    },
    {
      "status": "0x1",
      "cumulativeGasUsed": "0x286f2",
      "logs": [
        {
          "address": "0x2dc070dd54e0547ed18775fa70eeadf345f1497c",
          "topics": [
            "0x241e2c5d6c757ade3ced2be5c870af8e2d918a1d19a6bda4c5dbf6537f971fcb"
          ],
          "data": "0x0000000000000000000000004f60bf70db7ba6b2eb788f59a9c56e4d9120cd0f",
          "blockHash": "0x45bbaecfbea252159974f62b35226c846c81375062397097c0c7cb618ffcf3bd",
          "blockNumber": "0x3d26b22",
          "transactionHash": "0xe372141e4e24d7bfe86a2e6dfa41e63b191faf4b7236dc7a9775ffb63a2eb4d8",
          "transactionIndex": "0x1",
          "logIndex": "0x0",
          "removed": false
        },
        {
          "address": "0x4f60bf70db7ba6b2eb788f59a9c56e4d9120cd0f",
          "topics": [
            "0x715ad5ce61fc9595c7b415289d59cf203f23a94fa06f04af7e489a0a76e1fe26",
            "0x0000000000000000000000002dc070dd54e0547ed18775fa70eeadf345f1497c",
            "0x0000000000000000000000000000000000000000000000000000000000000000"
          ],
          "data": "0x",
          "blockHash": "0x45bbaecfbea252159974f62b35226c846c81375062397097c0c7cb618ffcf3bd",
          "blockNumber": "0x3d26b22",
          "transactionHash": "0xe372141e4e24d7bfe86a2e6dfa41e63b191faf4b7236dc7a9775ffb63a2eb4d8",
          "transactionIndex": "0x1",
          "logIndex": "0x1",
          "removed": false
        },
        {
          "address": "0xb3e100307fcdd07455fd59b8ccee01885364e770",
          "topics": [
            "0x715ad5ce61fc9595c7b415289d59cf203f23a94fa06f04af7e489a0a76e1fe26",
            "0x0000000000000000000000002dc070dd54e0547ed18775fa70eeadf345f1497c",
            "0x0000000000000000000000000000000000000000000000000000000000000000"
          ],
          "data": "0x",
          "blockHash": "0x45bbaecfbea252159974f62b35226c846c81375062397097c0c7cb618ffcf3bd",
          "blockNumber": "0x3d26b22",
          "transactionHash": "0xe372141e4e24d7bfe86a2e6dfa41e63b191faf4b7236dc7a9775ffb63a2eb4d8",
          "transactionIndex": "0x1",
          "logIndex": "0x2",
          "removed": false
        }
      ],
      "logsBloom": "0x00000000000000000000000000008000000000000000000000000000000000000000000000000000000000000000000000000000000000000000000000000000400000000000200000000000000000000000000000000000000000000000000000000000020000000004000000000800000000000000000000000000000000000000000000000000000800000000000000000000000000000000000000000000000000000000000000000000000000000004000000010000000100000000000001002021400000000000000000000000000000000000000000040000002020000000000000000000000000000000000000000000000002000200000000001000",
      "type": "0x2",
      "transactionHash": "0xe372141e4e24d7bfe86a2e6dfa41e63b191faf4b7236dc7a9775ffb63a2eb4d8",
      "transactionIndex": "0x1",
      "blockHash": "0x45bbaecfbea252159974f62b35226c846c81375062397097c0c7cb618ffcf3bd",
      "blockNumber": "0x3d26b22",
      "gasUsed": "0x286f2",
      "effectiveGasPrice": "0x5f5e100",
      "from": "0x7caf754c934710d7c73bc453654552beca38223f",
      "to": "0xc97d72a8a9d1d2ed326eb04f2d706a21cee2b94e",
      "contractAddress": null,
      "gasUsedForL1": "0x18215",
      "l1BlockNumber": "0x60668d"
    },
    {
      "status": "0x1",
      "cumulativeGasUsed": "0x103bc0",
      "logs": [
        {
          "address": "0x56039fa1a804f614ebd714139f29a3ff4db57ad6",
          "topics": [
            "0xddf252ad1be2c89b69c2b068fc378daa952ba7f163c4a11628f55a4df523b3ef",
            "0x000000000000000000000000df2762bb1e82c297fdec37e349fd271e4336363b",
            "0x0000000000000000000000007caf754c934710d7c73bc453654552beca38223f"
          ],
          "data": "0x00000000000000000000000000000000000000000000152c93c22badbb600000",
          "blockHash": "0x6e6e619c10d8278006f5f8c2fb8a4e34c5e57173606b6e2df80a77702a9e771f",
          "blockNumber": "0x3d26b24",
          "transactionHash": "0x4c7779d6515288ca4f72d3d10bb51fd5d0c73ccd64f8a0fa312869c8682ad735",
          "transactionIndex": "0x2",
          "logIndex": "0x6",
          "removed": false
        }
      ],
      "logsBloom": "0x00000000000000000000000000000000000200000000400000000000000000000000000000020000000000000000000000000000000000000000000040000000000000000000000000000008000000000000000000000000000010000000000020000000000000000000000000000002000000000000000000000010000000000000000000000000000000000000000000000000000000000000000000000000000000000000000000000000000000000000000000008000000000000000000000000002000000000000000000000000000000000000000000000000000000000000000000000000000000100000000000000000000000000000000000000000",
      "type": "0x2",
      "transactionHash": "0x4c7779d6515288ca4f72d3d10bb51fd5d0c73ccd64f8a0fa312869c8682ad735",
      "transactionIndex": "0x2",
      "blockHash": "0x6e6e619c10d8278006f5f8c2fb8a4e34c5e57173606b6e2df80a77702a9e771f",
      "blockNumber": "0x3d26b24",
      "gasUsed": "0x133fa",
      "effectiveGasPrice": "0x5f5e100",
      "from": "0x7caf754c934710d7c73bc453654552beca38223f",
      "to": "0xdf2762bb1e82c297fdec37e349fd271e4336363b",
      "contractAddress": null,
      "gasUsedForL1": "0xa380",
      "l1BlockNumber": "0x60668d"
    },
    {
      "status": "0x1",
      "cumulativeGasUsed": "0x2e618",
      "logs": [
        {
          "address": "0x4605c4b810c529c724f5a1c4fe86d963549d3cab",
          "topics": [
            "0x241e2c5d6c757ade3ced2be5c870af8e2d918a1d19a6bda4c5dbf6537f971fcb"
          ],
          "data": "0x000000000000000000000000df2762bb1e82c297fdec37e349fd271e4336363b",
          "blockHash": "0x68ada0782f410fa86864cd79960461f65afd42642925ed1c4076ea8e37fa113a",
          "blockNumber": "0x3d26b25",
          "transactionHash": "0x3d3aad35102a13d0e6c9fd4a3e2f77dcb453d335b3af697ba5639fc745756390",
          "transactionIndex": "0x1",
          "logIndex": "0x0",
          "removed": false
        },
        {
          "address": "0xdf2762bb1e82c297fdec37e349fd271e4336363b",
          "topics": [
            "0x715ad5ce61fc9595c7b415289d59cf203f23a94fa06f04af7e489a0a76e1fe26",
            "0x0000000000000000000000004605c4b810c529c724f5a1c4fe86d963549d3cab",
            "0x0000000000000000000000000000000000000000000000000000000000000000"
          ],
          "data": "0x",
          "blockHash": "0x68ada0782f410fa86864cd79960461f65afd42642925ed1c4076ea8e37fa113a",
          "blockNumber": "0x3d26b25",
          "transactionHash": "0x3d3aad35102a13d0e6c9fd4a3e2f77dcb453d335b3af697ba5639fc745756390",
          "transactionIndex": "0x1",
          "logIndex": "0x1",
          "removed": false
        },
        {
          "address": "0x5bda7d2b8a53f091894dbd1087b6e6ae3d49e445",
          "topics": [
            "0x715ad5ce61fc9595c7b415289d59cf203f23a94fa06f04af7e489a0a76e1fe26",
            "0x0000000000000000000000004605c4b810c529c724f5a1c4fe86d963549d3cab",
            "0x0000000000000000000000000000000000000000000000000000000000000000"
          ],
          "data": "0x",
          "blockHash": "0x68ada0782f410fa86864cd79960461f65afd42642925ed1c4076ea8e37fa113a",
          "blockNumber": "0x3d26b25",
          "transactionHash": "0x3d3aad35102a13d0e6c9fd4a3e2f77dcb453d335b3af697ba5639fc745756390",
          "transactionIndex": "0x1",
          "logIndex": "0x2",
          "removed": false
        },
        {
          "address": "0x5872443affdcf0a5161e5d307d10b1b045add7e0",
          "topics": [
            "0x715ad5ce61fc9595c7b415289d59cf203f23a94fa06f04af7e489a0a76e1fe26",
            "0x0000000000000000000000004605c4b810c529c724f5a1c4fe86d963549d3cab",
            "0x0000000000000000000000000000000000000000000000000000000000000000"
          ],
          "data": "0x",
          "blockHash": "0x68ada0782f410fa86864cd79960461f65afd42642925ed1c4076ea8e37fa113a",
          "blockNumber": "0x3d26b25",
          "transactionHash": "0x3d3aad35102a13d0e6c9fd4a3e2f77dcb453d335b3af697ba5639fc745756390",
          "transactionIndex": "0x1",
          "logIndex": "0x3",
          "removed": false
        }
      ],
      "logsBloom": "0x00400000000100000000000000000000000000000000000000000100000000000000000020000008000000000000000004000000000000001000000000000000400000000000000000000000000000000000000400000000000000000000000000000000020000000000000000000800000000000000000000000000000000000000000000000000000000000000000200000000001000000000000000110000000000000000000000000000000000000000000000010000000000000000000000002020400000000000000000000000000000000000000000000000000020000004000000000000000000000004000000000000000002000000000000000800",
      "type": "0x2",
      "transactionHash": "0x3d3aad35102a13d0e6c9fd4a3e2f77dcb453d335b3af697ba5639fc745756390",
      "transactionIndex": "0x1",
      "blockHash": "0x68ada0782f410fa86864cd79960461f65afd42642925ed1c4076ea8e37fa113a",
      "blockNumber": "0x3d26b25",
      "gasUsed": "0x2e618",
      "effectiveGasPrice": "0x5f5e100",
      "from": "0x7caf754c934710d7c73bc453654552beca38223f",
      "to": "0xc97d72a8a9d1d2ed326eb04f2d706a21cee2b94e",
      "contractAddress": null,
      "gasUsedForL1": "0x1ae0c",
      "l1BlockNumber": "0x60668d"
    },
    {
      "status": "0x1",
      "cumulativeGasUsed": "0x181b6",
      "logs": [
        {
          "address": "0x56039fa1a804f614ebd714139f29a3ff4db57ad6",
          "topics": [
            "0xddf252ad1be2c89b69c2b068fc378daa952ba7f163c4a11628f55a4df523b3ef",
            "0x00000000000000000000000038ae02183031d24fd866f21b4971b278332b5e7a",
            "0x0000000000000000000000007caf754c934710d7c73bc453654552beca38223f"
          ],
          "data": "0x00000000000000000000000000000000000000000000152d02c7e14af6800000",
          "blockHash": "0x104d0fca254ee703850b84fe44f400bcb7a2d73ab36b0d5806c8dff582fc5f6d",
          "blockNumber": "0x3d26b28",
          "transactionHash": "0x5e30fea32f59b0f422d33ad697587cf5ad84253b8b3e4b0c33def204f6405fca",
          "transactionIndex": "0x1",
          "logIndex": "0x0",
          "removed": false
        }
      ],
      "logsBloom": "0x00000000000000000000000000000000000200000000400000000000000000000000000000020000000000000000000000000000000000080000000000000000000000000000000000000008000000000000000000000000000010000000000000000000000000000000000000000002000000000000000000000010000000000000000000000000000000000000000000000000000000000000000000000000000000000400000000000040000000000000000000008000000000000000000000000002000000000000000000000000000000000000000000000000000000000000000000000000000000000000000000000000000000000000000000000000",
      "type": "0x2",
      "transactionHash": "0x5e30fea32f59b0f422d33ad697587cf5ad84253b8b3e4b0c33def204f6405fca",
      "transactionIndex": "0x1",
      "blockHash": "0x104d0fca254ee703850b84fe44f400bcb7a2d73ab36b0d5806c8dff582fc5f6d",
      "blockNumber": "0x3d26b28",
      "gasUsed": "0x181b6",
      "effectiveGasPrice": "0x5f5e100",
      "from": "0x7caf754c934710d7c73bc453654552beca38223f",
      "to": "0x38ae02183031d24fd866f21b4971b278332b5e7a",
      "contractAddress": null,
      "gasUsedForL1": "0xa380",
      "l1BlockNumber": "0x60668d"
    },
    {
      "status": "0x1",
      "cumulativeGasUsed": "0x21d86",
      "logs": [
        {
          "address": "0x38ae02183031d24fd866f21b4971b278332b5e7a",
          "topics": [
            "0x715ad5ce61fc9595c7b415289d59cf203f23a94fa06f04af7e489a0a76e1fe26",
            "0x0000000000000000000000002c4cd79eb35262faa9ee924777d7dd7568fc5feb",
            "0x0000000000000000000000000000000000000000000000000000000000000000"
          ],
          "data": "0x",
          "blockHash": "0xb022e719397f55d4d204e9aef1a678254c418bd99c2d12ea8df67a8c8f9e1366",
          "blockNumber": "0x3d26b2b",
          "transactionHash": "0x449500d1f24b80881684122011cdb9320b23552ca8314c32cfbdb5c4591d70d4",
          "transactionIndex": "0x1",
          "logIndex": "0x0",
          "removed": false
        }
      ],
      "logsBloom": "0x00000080000000000000000000000000000000000000000000000000800000000000000000000000000000000000000000000000000000000000000000000000000000000000000000000000000000000000000000000000000000000000000000000040020000000000000000000800000000000000000200000000000000000000000000000000000020000000000000000000000000000000004000000000000000000000000000000000000000000000000000010000000000000000000000002000400000000000000000000000000000000000000000000000000020000000000000000000000000000000000000000000000000000000000000000000",
      "type": "0x2",
      "transactionHash": "0x449500d1f24b80881684122011cdb9320b23552ca8314c32cfbdb5c4591d70d4",
      "transactionIndex": "0x1",
      "blockHash": "0xb022e719397f55d4d204e9aef1a678254c418bd99c2d12ea8df67a8c8f9e1366",
      "blockNumber": "0x3d26b2b",
      "gasUsed": "0x21d86",
      "effectiveGasPrice": "0x5f5e100",
      "from": "0x7caf754c934710d7c73bc453654552beca38223f",
      "to": "0xc97d72a8a9d1d2ed326eb04f2d706a21cee2b94e",
      "contractAddress": null,
      "gasUsedForL1": "0x154bd",
      "l1BlockNumber": "0x60668d"
    }
  ],
  "libraries": [],
  "pending": [],
  "returns": {},
  "timestamp": 1721084523,
  "chain": 421614,
  "commit": "923f1e1"
}