{
  "transactions": [
    {
      "hash": "0x22476b9ab99b78a179071d6347f35bda6de5d6d7b1ea015e9bed16461aa3ed6c",
      "transactionType": "CALL",
      "contractName": null,
      "contractAddress": "0x2bf0648c9aebc388837ad32798c5a59b4b66b0df",
      "function": "grantRoles(address,uint256)",
      "arguments": [
        "0x8747C17970464fFF597bd5a580A72fCDA224B0A1",
        "8"
      ],
      "transaction": {
        "from": "0x7caf754c934710d7c73bc453654552beca38223f",
        "to": "0x2bf0648c9aebc388837ad32798c5a59b4b66b0df",
        "gas": "0x54037",
        "value": "0x0",
        "input": "0x1c10893f0000000000000000000000008747c17970464fff597bd5a580a72fcda224b0a10000000000000000000000000000000000000000000000000000000000000008",
        "nonce": "0x96",
        "chainId": "0x66eee"
      },
      "additionalContracts": [],
      "isFixedGasLimit": false
    },
    {
      "hash": "0xc0b43213a0d8d0a1329269d8f4d2a73ad43be409e8a2b54b162f4a39dc2b73bf",
      "transactionType": "CALL",
      "contractName": null,
      "contractAddress": "0xf842f64f112ea2014bfea10a680c3c2ec216dbad",
      "function": "grantRoles(address,uint256)",
      "arguments": [
        "0x8747C17970464fFF597bd5a580A72fCDA224B0A1",
        "8"
      ],
      "transaction": {
        "from": "0x7caf754c934710d7c73bc453654552beca38223f",
        "to": "0xf842f64f112ea2014bfea10a680c3c2ec216dbad",
        "gas": "0x54037",
        "value": "0x0",
        "input": "0x1c10893f0000000000000000000000008747c17970464fff597bd5a580a72fcda224b0a10000000000000000000000000000000000000000000000000000000000000008",
        "nonce": "0x97",
        "chainId": "0x66eee"
      },
      "additionalContracts": [],
      "isFixedGasLimit": false
    },
    {
      "hash": "0xd1517c85968b59311dd41b0f6c979aba6479022df80da1dc4cd80b210d557a2b",
      "transactionType": "CALL",
      "contractName": null,
      "contractAddress": "0xb279204761a9f4312402e5d3a69d219be3c7d844",
      "function": "grantRoles(address,uint256)",
      "arguments": [
        "0x8747C17970464fFF597bd5a580A72fCDA224B0A1",
        "8"
      ],
      "transaction": {
        "from": "0x7caf754c934710d7c73bc453654552beca38223f",
        "to": "0xb279204761a9f4312402e5d3a69d219be3c7d844",
        "gas": "0x53f95",
        "value": "0x0",
        "input": "0x1c10893f0000000000000000000000008747c17970464fff597bd5a580a72fcda224b0a10000000000000000000000000000000000000000000000000000000000000008",
        "nonce": "0x98",
        "chainId": "0x66eee"
      },
      "additionalContracts": [],
      "isFixedGasLimit": false
    },
    {
      "hash": "0xff73daa6068cefb47fd63469593561fb840faf0dbb73aea4058a78498592fce3",
      "transactionType": "CALL",
      "contractName": null,
      "contractAddress": "0x8f80037b386ca23130c56668bb20d48257894d89",
      "function": "grantRoles(address,uint256)",
      "arguments": [
        "0x8747C17970464fFF597bd5a580A72fCDA224B0A1",
        "8"
      ],
      "transaction": {
        "from": "0x7caf754c934710d7c73bc453654552beca38223f",
        "to": "0x8f80037b386ca23130c56668bb20d48257894d89",
        "gas": "0x53f95",
        "value": "0x0",
        "input": "0x1c10893f0000000000000000000000008747c17970464fff597bd5a580a72fcda224b0a10000000000000000000000000000000000000000000000000000000000000008",
        "nonce": "0x99",
        "chainId": "0x66eee"
      },
      "additionalContracts": [],
      "isFixedGasLimit": false
    }
  ],
  "receipts": [
    {
      "status": "0x1",
      "cumulativeGasUsed": "0x1d1594",
      "logs": [
        {
          "address": "0x2bf0648c9aebc388837ad32798c5a59b4b66b0df",
          "topics": [
            "0x715ad5ce61fc9595c7b415289d59cf203f23a94fa06f04af7e489a0a76e1fe26",
            "0x0000000000000000000000008747c17970464fff597bd5a580a72fcda224b0a1",
            "0x0000000000000000000000000000000000000000000000000000000000000008"
          ],
          "data": "0x",
          "blockHash": "0x11d47fded7a41cc74f68362ec04ee59813593f9d9184e7a46d37847ff11f5b5b",
          "blockNumber": "0x31620f2",
          "transactionHash": "0x22476b9ab99b78a179071d6347f35bda6de5d6d7b1ea015e9bed16461aa3ed6c",
          "transactionIndex": "0x2",
          "logIndex": "0x5",
          "removed": false
        }
      ],
      "logsBloom": "0x00000000000000000000020000000000000000000000000000008000000000000000800000000000000000000000000000000000000080000000000000000000000000000000000000000000000000000000000000000000000000000000000000000000000000000000000000000000000000000001000000000000000000000080000000000000000000000000000000000000000000000000000000000000000000000000000000000000000000000000000000010000010000000000000040002000400000000000000000000000000000000000000000000000000000000000000000000000000000000200000000000000000000000000000000000000",
      "type": "0x2",
      "transactionHash": "0x22476b9ab99b78a179071d6347f35bda6de5d6d7b1ea015e9bed16461aa3ed6c",
      "transactionIndex": "0x2",
      "blockHash": "0x11d47fded7a41cc74f68362ec04ee59813593f9d9184e7a46d37847ff11f5b5b",
      "blockNumber": "0x31620f2",
      "gasUsed": "0x2f929",
      "effectiveGasPrice": "0x924b2c0",
      "from": "0x7caf754c934710d7c73bc453654552beca38223f",
      "to": "0x2bf0648c9aebc388837ad32798c5a59b4b66b0df",
      "contractAddress": null,
      "gasUsedForL1": "0x22b8a",
      "l1BlockNumber": "0x5c5085"
    },
    {
      "status": "0x1",
      "cumulativeGasUsed": "0xc43e4",
      "logs": [
        {
          "address": "0xf842f64f112ea2014bfea10a680c3c2ec216dbad",
          "topics": [
            "0x715ad5ce61fc9595c7b415289d59cf203f23a94fa06f04af7e489a0a76e1fe26",
            "0x0000000000000000000000008747c17970464fff597bd5a580a72fcda224b0a1",
            "0x0000000000000000000000000000000000000000000000000000000000000008"
          ],
          "data": "0x",
          "blockHash": "0x70fe0fe24990f4b6c63e9dec15d0498a149d990a5a952fd7fc54889ccc25e53e",
          "blockNumber": "0x31620f6",
          "transactionHash": "0xc0b43213a0d8d0a1329269d8f4d2a73ad43be409e8a2b54b162f4a39dc2b73bf",
          "transactionIndex": "0x2",
          "logIndex": "0x4",
          "removed": false
        }
      ],
      "logsBloom": "0x00000000000000000000020000000000000000000000000000008000000000000000000000000080000000000000000000000000000080000000000000000000000000000000000000000000000000000000000000000000000000000000000000000000000800000000000000000000000000000000000000000000000000000080000800000000000000000000000000000000000000000000000000000000000000000000000000000000000000000000000000010000010000000000000040002000400000000000000000000000000000000000000000000000000000000000000000000000000000000000000000000000000000000000000000000000",
      "type": "0x2",
      "transactionHash": "0xc0b43213a0d8d0a1329269d8f4d2a73ad43be409e8a2b54b162f4a39dc2b73bf",
      "transactionIndex": "0x2",
      "blockHash": "0x70fe0fe24990f4b6c63e9dec15d0498a149d990a5a952fd7fc54889ccc25e53e",
      "blockNumber": "0x31620f6",
      "gasUsed": "0x2f748",
      "effectiveGasPrice": "0x92ca200",
      "from": "0x7caf754c934710d7c73bc453654552beca38223f",
      "to": "0xf842f64f112ea2014bfea10a680c3c2ec216dbad",
      "contractAddress": null,
      "gasUsedForL1": "0x229a9",
      "l1BlockNumber": "0x5c5085"
    },
    {
      "status": "0x1",
      "cumulativeGasUsed": "0xc307f",
      "logs": [
        {
          "address": "0xb279204761a9f4312402e5d3a69d219be3c7d844",
          "topics": [
            "0x715ad5ce61fc9595c7b415289d59cf203f23a94fa06f04af7e489a0a76e1fe26",
            "0x0000000000000000000000008747c17970464fff597bd5a580a72fcda224b0a1",
            "0x0000000000000000000000000000000000000000000000000000000000000008"
          ],
          "data": "0x",
          "blockHash": "0xd03494d0cc87c7f538350d29924740e2e490e2c50af8ff665f38add60fdcabbd",
          "blockNumber": "0x31620f9",
          "transactionHash": "0xd1517c85968b59311dd41b0f6c979aba6479022df80da1dc4cd80b210d557a2b",
          "transactionIndex": "0x2",
          "logIndex": "0x6",
          "removed": false
        }
      ],
      "logsBloom": "0x00000000000000000000020000000000000000000000000000008000000000000000000000000000000000000000000000000000000080000000000000000000000000000000000000000000000000000000000000000000000000000000000000000000000000000000000000000000000000000000001000000000000000000080000000000000010000000000000000000000000000000000000000000000000000000000000000000000000000000000000000010000010000000000000040002000400000000000000000000000000000000000000000000000000000000000000000000000000004000000000000000000000000000000000000000000",
      "type": "0x2",
      "transactionHash": "0xd1517c85968b59311dd41b0f6c979aba6479022df80da1dc4cd80b210d557a2b",
      "transactionIndex": "0x2",
      "blockHash": "0xd03494d0cc87c7f538350d29924740e2e490e2c50af8ff665f38add60fdcabbd",
      "blockNumber": "0x31620f9",
      "gasUsed": "0x2fb57",
      "effectiveGasPrice": "0x91b8b00",
      "from": "0x7caf754c934710d7c73bc453654552beca38223f",
      "to": "0xb279204761a9f4312402e5d3a69d219be3c7d844",
      "contractAddress": null,
      "gasUsedForL1": "0x22db8",
      "l1BlockNumber": "0x5c5085"
    },
    {
      "status": "0x1",
      "cumulativeGasUsed": "0x106da4",
      "logs": [
        {
          "address": "0x8f80037b386ca23130c56668bb20d48257894d89",
          "topics": [
            "0x715ad5ce61fc9595c7b415289d59cf203f23a94fa06f04af7e489a0a76e1fe26",
            "0x0000000000000000000000008747c17970464fff597bd5a580a72fcda224b0a1",
            "0x0000000000000000000000000000000000000000000000000000000000000008"
          ],
          "data": "0x",
          "blockHash": "0x3b1193091ef98785023bc6e55cf76bdf9f25086f877c0e587a2069da5f7847ab",
          "blockNumber": "0x31620fc",
          "transactionHash": "0xff73daa6068cefb47fd63469593561fb840faf0dbb73aea4058a78498592fce3",
          "transactionIndex": "0x3",
          "logIndex": "0x5",
          "removed": false
        }
      ],
      "logsBloom": "0x00000000000000000000020000000000000000000000000000008000000000000000000000000004000000000000000000000000000080000000000000000000000000000000000000000000000000000000000000000010000000000000000000000000000000000000000000000000000000000000000000000000000000000080000000000000000000000000100000000000000000000000000000000000000000000000000000000000000000000000000000010000010000000000000040002000400000000000000000000000000000000000000000000000000000000000000000000000000000000000000000000000000000000000000000000000",
      "type": "0x2",
      "transactionHash": "0xff73daa6068cefb47fd63469593561fb840faf0dbb73aea4058a78498592fce3",
      "transactionIndex": "0x3",
      "blockHash": "0x3b1193091ef98785023bc6e55cf76bdf9f25086f877c0e587a2069da5f7847ab",
      "blockNumber": "0x31620fc",
      "gasUsed": "0x2f9f5",
      "effectiveGasPrice": "0x9215760",
      "from": "0x7caf754c934710d7c73bc453654552beca38223f",
      "to": "0x8f80037b386ca23130c56668bb20d48257894d89",
      "contractAddress": null,
      "gasUsedForL1": "0x22c56",
      "l1BlockNumber": "0x5c5085"
    }
  ],
  "libraries": [],
  "pending": [],
  "returns": {},
  "timestamp": 1717661348,
  "chain": 421614,
  "commit": "f7e85ab"
}